:020000040800F2
:10000000387800203103000811A700088D7400081B
:100010009D9C0008891C0008DDF900080000000014
:100020000000000000000000000000007102000855
:10003000112B000800000000CD0200082DC40008AC
:100040004B0300084B0300084B0300084B03000858
:100050004B0300084B0300080D2D0008172D000866
:100060004B030008212D00082B2D00084B0300082E
:100070009D2700084B0300084B0300084B030008B2
:100080004B0300084B0300084B0300084B03000818
:100090008D1C00089D1C00084B030008352D00082E
:1000A0004B0300084B0300084B0300084B030008F8
:1000B0004B0300084B03000829C500084B03000848
:1000C0004B0300084B0300084B0300084B030008D8
:1000D0004B0300084B0300084B03000801CF000846
:1000E0004B0300084B0300084B03000839C5000808
:1000F0004B0300084B0300084B0300084B030008A8
:100100004B0300084B0300084B0300084B03000897
:100110004B0300084B0300084B0300084B03000887
:100120004B030008AD2700084B030008BD2700085B
:100130004B0300084B0300084B0300084B03000867
:10014000AD1C0008BD1C00084B03000815A70008E3
:100150004B030008CD2700084B03000815CF00080B
:100160004B0300084B0300084B0300084B03000837
:100170004B0300084B0300084B030008000000007D
:100180004B0300084B03000800F002F800F060F891
:100190000AA090E8000C82448344AAF10107DA45E2
:1001A00001D100F055F8AFF2090EBAE80F0013F0D4
:1001B000010F18BFFB1A43F00103184790330100E9
:1001C000B03301000A444FF0000C10F8013B13F06B
:1001D000070408BF10F8014B1D1108BF10F8015BA0
:1001E000641E05D010F8016B641E01F8016BF9D193
:1001F00013F0080F1EBF10F8014BAD1C0C1B09D1EA
:100200006D1E58BF01F801CBFAD505E014F8016B5B
:1002100001F8016B6D1EF9D59142D6D370470000ED
:100220000023002400250026103A28BF78C1FBD8FF
:10023000520728BF30C148BF0B6070471FB512F08E
:100240003CFF9DE8030000F047FA1FBD10B510BD4C
:1002500000F0AEFA1146FFF7F1FF11F0B1F900F02E
:10026000CCFA03B4FFF7F2FF03BC00F0FDFA000084
:100270002C4B19680868B0E8F04F80F30988BFF389
:100280006F8F4FF0000080F311887047000000006E
:1002900008480068006880F308884FF0000080F389
:1002A000148862B661B6BFF34F8FBFF36F8F00DF64
:1002B00000BF00BF08ED00E0DFF80C00016841F46A
:1002C00070010160704700BF88ED00E0EFF3098026
:1002D000BFF36F8F134B1A681EF0100F08BF20ED8D
:1002E000108A20E9F04F106009B44FF0500080F3FD
:1002F0001188BFF34F8FBFF36F8F11F00DFF4FF0D9
:10030000000080F3118809BC19680868B0E8F04F54
:100310001EF0100F08BFB0EC108A80F30988BFF3FD
:100320006F8F704728010020EFF3058070470000B1
:100330000948804709480047FEE7FEE7FEE7FEE779
:10034000FEE7FEE7FEE7FEE7FEE7FEE704480549B5
:10035000054A064B7047000015C5000889010008D2
:10036000387200203878002038740020387400205B
:1003700070B5064600F094F9056806F10B0020F010
:100380000704B4429CBF002070BD2B466A68BAB116
:100390001068A04210D304F1080188423CBF5068A5
:1003A000586007D35168101941601168091B01603A
:1003B00058601460101D70BD13465268002AE7D1C2
:1003C0002146284600F074F90028DED170BD70B5D2
:1003D0000446051F00F064F90068002C14BF44684F
:1003E00070BD002C18BFAC423CBF20466468F8D3F7
:1003F00001680A18AA4218BF456003D12A68054659
:100400001144016028684119A1421CBF6C6070BD95
:100410006168696021680844286070BD53EA020C75
:1004200000F069802DE9F04B4FF00006002B1FBF54
:10043000B3FA83F503FA05F424FA05F65E4012BF19
:100440001643B2FA82F502FA05F4C5F120051EBF83
:1004500022FA05FC44EA0C04203556EA044C4FEA23
:10046000144418BF641C4FF000084FF0000990427C
:1004700071EB030C39D3002919BFB1FA81F701FAE6
:1004800007F6B0FA80F700FA07F6C7F120071EBF9B
:1004900020FA07FC46EA0C062037B6FBF4FCA7EB73
:1004A0000507103F07F01F0BCBF120060CFA0BFBE2
:1004B0002CFA06F644BFB3460026202FA4BF5E46A2
:1004C0004FF0000B5BEA060C08BF4FF0010B19EB75
:1004D0000B09ABFB027C48EB0608C01B06FB02CCF9
:1004E0000BFB03CC71EB0C01C1E70B460246414606
:1004F0004846BDE8F08B13B54FF000004FF0000107
:10050000AFF30080BDE81C407047032A40F2308002
:1005100010F0030C00F0158011F8013BBCF1020F44
:10052000624498BF11F801CB00F8013B38BF11F8C5
:10053000013BA2F1040298BF00F801CB38BF00F8DC
:10054000013B11F0030300F02580083AC0F0088059
:1005500051F8043B083A51F804CBA0E80810F5E73D
:10056000121D5CBF51F8043B40F8043BAFF3008020
:10057000D20724BF11F8013B11F801CB48BF11F895
:10058000012B24BF00F8013B00F801CB48BF00F865
:10059000012B704710B5203AC0F00B80B1E818501D
:1005A000203AA0E81850B1E81850A0E81850BFF45D
:1005B000F5AF5FEA027C24BFB1E81850A0E81850FC
:1005C00044BF18C918C0BDE810405FEA827C24BF50
:1005D00051F8043B40F8043B08BF7047D20728BFDE
:1005E00031F8023B48BF11F8012B28BF20F8023B2D
:1005F00048BF00F8012B704702F0FF0343EA0322D3
:1006000042EA024200F002B84FF000020429C0F0B2
:10061000128010F0030C00F01B80CCF1040CBCF134
:10062000020F18BF00F8012BA8BF20F8022BA1EB86
:100630000C0100F00DB85FEAC17C24BF00F8012B6B
:1006400000F8012B48BF00F8012B70474FF0000263
:1006500000B5134694469646203922BFA0E80C50B8
:10066000A0E80C50B1F12001BFF4F7AF090728BF93
:10067000A0E80C5048BF0CC05DF804EB890028BF0F
:1006800040F8042B08BF704748BF20F8022B11F038
:10069000804F18BF00F8012B7047704770477047B4
:1006A00000487047DC710020704770477047704702
:1006B00038B504460A4600206946AFF3008000289A
:1006C00008BF38BD02460099204600F04FF80120CF
:1006D00038BD012000F064B8F8B5AFF300800546DE
:1006E00000200C46102000BF0646A819A0420DD9D4
:1006F000324669460020AFF30080070008BF00F0D3
:100700004FF80098A04218BF0546C419FFF7C8FF6C
:1007100005600746F01D20F007004619284600F046
:100720000AF8B44208BFF8BDA21B31463868BDE8DC
:10073000F84000F01BB800210160C0E901107047CB
:100740001020704710B500F00DF8006810BD10B50E
:10075000044600F007F8046010BD00000048704730
:10076000D471002000487047D471002003464068CF
:100770008C46002818BF88423CBF03464068F8D327
:1007800018681844884207D00CF1030020F00700D5
:10079000001D411A521A0146081D0A60FFF717BED4
:1007A00010B500F039F8BDE8104000F02FB87047E0
:1007B0007546FFF7D3FFAE4605006946534620F065
:1007C0000700854618B020B5FFF7C0FDBDE8204002
:1007D0004FF000064FF000074FF000084FF0000BFD
:1007E00021F00701AC46ACE8C009ACE8C009ACE8B0
:1007F000C009ACE8C0098D46704710B50446AFF398
:1008000000802046BDE81040FFF72BBD002801D036
:1008100000F02AB87047000010B5012805D000216B
:1008200003A000F027F8012010BD09A1F8E700009F
:1008300053494752544D454D3A204F7574206F66C9
:100840002068656170206D656D6F72790000000031
:100850003A2048656170206D656D6F727920636F15
:10086000727275707465640001491820ABBEFEE7B2
:100870002600020070B505460C460A2000E06D1CFB
:1008800000F011F835B128780028F8D102E0641C96
:1008900000F009F814B120780028F8D1BDE87040C4
:1008A0000A20AFF3008008B569468DF800000320E8
:1008B000ABBE08BDB0B50025B5EB920F33D022F02A
:1008C00003049FED220A4FEA920E00EB840C0D46C2
:1008D00090ED001A95ED005A90ED012A95ED016A10
:1008E00090ED023A95ED027A21EE051A90ED034A59
:1008F000D5ED030A30EE010A22EE061A30EE010AA7
:1009000023EE071A30EE010A24EE201A30EE010A17
:10091000BEF1010E00F1100005F11005D8D101EB78
:100920008401604601E09FED090A12F0030209D03C
:10093000B0EC011AB1EC012A013A21EE021A30EEB4
:10094000010AF5D183ED000AB0BD00BF0000000030
:10095000B0B5B0F800C00B889C4553D145884B8892
:100960009D424FD113889C454CD153889D4249D11B
:1009700043684968506805FB0CFC0022B2EB9C0FF1
:1009800030D04FEA9C0200BF93ED000A91ED001AAF
:1009900003F1100E30EE010A80ED000A93ED010A1A
:1009A00091ED011A01F1100430EE010A80ED010A07
:1009B00093ED020A91ED021A00F1100530EE010AE2
:1009C00080ED020A93ED030A91ED031A013A30EE2D
:1009D000010A80ED030A734628462146D4D12146F8
:1009E000284673461CF003020AD000BFB3EC010A8C
:1009F000B1EC011A013A30EE010AA0EC010AF5D17E
:100A0000002000E0FD2040B2B0BD01804280436084
:100A1000704700002DE9F04F81B02DED028B8EB0B4
:100A2000B0F800C0B0F802A0D44540F03A810B887D
:100A3000FD229C4540F036814F88BB4240F0328118
:100A400040689FEDB08ABCF1000F009000F031814A
:100A50004C686FF0030000EB8C0900270026654608
:100A6000CDF828C0204609940A98401B08D0B10050
:100A70002046FFF7EBFD3846013004F10404FBD3B8
:100A800004F1040BB5F101084FF07E50206012D044
:100A9000A9EB86015846FFF7D9FD01205C4600BF4F
:100AA0000130854204F10404FAD10136013FB8F166
:100AB000000F4546D8D1DDF828C0BCF1000F00F08A
:100AC000F8804FEACA00043002900998009900EBC0
:100AD0008A00C0F10009042000EB8A00ACF1010893
:100AE00001EB8A054FEA8A03019001F1040B4FF0F4
:100AF000000E0F46564600200A460490039300BF9E
:100B00000EFB0AF002EB800191ED000A0C910999AD
:100B1000B5EE400AF1EE10FA01EB80000D90CDF831
:100B20002080CDE906950B922ED10EF10100604593
:100B30000DD20020414600BF2A1892ED000AB5EE02
:100B4000400AF1EE10FA06D101391844F4D10498A4
:100B5000012817D0D4E0A0EB0900002157F821307C
:100B6000146842F8043B47F8214001318E42F5D128
:100B70000D9A51461368046840F8043B013942F865
:100B8000044BF7D1012004900C99AAEB0E0991EDCA
:100B9000008AB9F1010F4FF07E5008600DD001209E
:100BA000594600BF91ED000A013080EE080A8642E6
:100BB00081ED000A01F10401F4D10D995046CDF800
:100BC00014B000BF91ED000A013880EE080AA1ECD4
:100BD000010AF7D1DDF82C800998A9F1010B002258
:100BE000654600BF724505D108EB890300EB8A001A
:100BF00036E000BF0C9998ED008A91ED000ABBF138
:100C0000000F28EE000A38EE400A88ED000A17D0DF
:100C10000123042107EB010C08EB01049CED000A01
:100C200094ED001A28EE000A013331EE400A9E428C
:100C300001F1040184ED000AECD108EB010301E0AD
:100C400008F104030D9C5146B4EC011A90ED000A22
:100C500028EE011A30EE410AA0EC010A0139F3D165
:100C600003EB8E08013D02F10102BBD1079D029802
:100C70000B9ADDF820800544039BDDF8189001985D
:100C8000DDF814B0DDF828C00432013E0EF1010E8B
:100C9000A8F10108A9EB0309074483447FF430AFAE
:100CA00009E0FD2250B20EB0BDEC028B01B0BDE8F0
:100CB000F08F00200490B5EE408AF1EE10FA4FF06C
:100CC0000002EFD104980128ECD00AFB0CF14FF0A0
:100CD00000004FF0000271B1009B00BF93ED000ACD
:100CE000B5EE400AF1EE10FA05D10132914203F15E
:100CF0000403F3D10A468A4208BF6FF00400D2E72A
:100D0000FB22CFE7000000002DE9F04F85B04788B7
:100D10000B889F4240F08480B0F800B013889B4558
:100D200040F07E80B1F802E053889E4578D1D0F83B
:100D30000480506849680190BC0827F0030008EB64
:100D4000800604FB0EF09FED390A07F0030C0291B8
:100D500001EB00104FEA8E0200210090CDE903E77D
:100D60000198DDF808A0009B00EB8109B0EE401A65
:100D70005746404674B3554627464046B0EE401AA3
:100D800095ED002A90ED003A154490ED014A23EECE
:100D9000022A95ED003A154490ED025A31EE021AFE
:100DA00024EE032A95ED003A154490ED036A31EEE6
:100DB000021A25EE032A95ED003A31EE021A26EECC
:100DC000032A31EE021A013F00F110001544D7D179
:100DD0001F463046BCF1000F0CD0654690ED002A4E
:100DE00097ED003A043022EE032A31EE021A013D5B
:100DF0001744F3D1A9EC011ABEF1010E0AF1040A5D
:100E000003F10403B2D1DDF80CE0049F714408EB58
:100E10008708BBF1010B06EB8706A1D1002000E09B
:100E2000FD2040B205B0BDE8F08F00BF000000001B
:100E3000B0B5B0F800C00B889C4553D145884B88AD
:100E40009D424FD113889C454CD153889D4249D136
:100E500043684968506805FB0CFC0022B2EB9C0F0C
:100E600030D04FEA9C0200BF93ED000A91ED001ACA
:100E700003F1100E30EE410A80ED000A93ED010AF5
:100E800091ED011A01F1100430EE410A80ED010AE2
:100E900093ED020A91ED021A00F1100530EE410ABD
:100EA00080ED020A93ED030A91ED031A013A30EE48
:100EB000410A80ED030A734628462146D4D12146D3
:100EC000284673461CF003020AD000BFB3EC010AA7
:100ED000B1EC011A013A30EE410AA0EC010AF5D159
:100EE000002000E0FD2040B2B0BD00002DE9F04F31
:100EF000B0F800A04A88924545D142880B889A42B2
:100F000041D1D1F804C046684FEA920802F00309C3
:100F10004FEA0A1E4FEA8A014FF0000B624600BFFB
:100F2000B8F1000F1AD01546474600BF336828466F
:100F30002B6073680D444350B3686C186B50F568B0
:100F400006F1100366186550013F06EB01051E46C9
:100F5000ECD100EB0E071E4602E000BF0CEB8B0746
:100F6000B9F1000F06D0484656F8043B01383B6003
:100F70000F44F9D10BF1010BBAF1010A02F104029D
:100F8000CED1002000E0FD2040B2BDE8F08F00008F
:100F900080B50023B3EB910F26D09FED1C0A4FEADA
:100FA000910E21F0030C034693ED001A93ED012AF4
:100FB00093ED023A21EE011A93ED034A30EE010A55
:100FC00022EE021A30EE010A23EE031A30EE010A75
:100FD00024EE041A30EE010ABEF1010E03F11003F3
:100FE000E2D100EB8C0001E09FED080A11F0030153
:100FF00008D000BFB0EC011A013921EE011A30EE21
:10100000010AF7D182ED000A80BD00BF0000000098
:101010000023B3EB920F20D0930800BF90ED001A8D
:1010200090ED012A90ED023A90ED034A21EE001A6C
:1010300022EE002A23EE003A24EE004A01F1100CC1
:10104000103081ED001A81ED012A81ED023A81ED27
:10105000034A013B6146E1D1614612F0030208BF39
:10106000704700BFB0EC011A013A21EE001AA1EC62
:10107000011AF7D170470000B0B50025B5EB930F0A
:1010800031D04FEA930C00BF90ED000A91ED001AA9
:1010900000F1100E30EE410A82ED000A90ED010AD7
:1010A00091ED011A01F1100430EE410A82ED010ABE
:1010B00090ED020A91ED021A02F1100530EE410A9C
:1010C00082ED020A90ED030A91ED031ABCF1010CC6
:1010D00030EE410A82ED030A70462A462146D3D1FA
:1010E00021462A46704613F0030308BFB0BD00BF77
:1010F000B0EC010AB1EC011A013B30EE410AA2EC5E
:10110000010AF5D1B0BD000005E0DFED0E0A70EE7A
:10111000600AB0EE600ADFED0C0AB4EEE00AF1EE10
:1011200010FAF2DC05E0DFED070A70EE200AB0EEFF
:10113000600ADFED060AB4EEE00AF1EE10FAF2D32F
:1011400070470000DC0FC940DC0F4940DC0F49C08C
:101150002DE9FF4106460F4615461C460EB105B166
:101160001CB9002004B0BDE8F0810020029003907B
:101170000090019047F080008DF80800A01CC3B2D9
:1011800002AA694630460BF0A5F838B122460DF1A7
:1011900002012846FFF7B9F90120E3E70020E1E763
:1011A000F8B504460D4616460CB90020F8BD8DF87A
:1011B00000508DF801600222694620460BF0F6F8D7
:1011C000F4E7000070B52DED0C8B8EB004461CB911
:1011D0000EB0BDEC0C8B70BD41F27076B6EE00CA5D
:1011E000DFEDFECA9FEDFEDA01F0FEFCB0EE40AA94
:1011F00000BF01F0F9FC30EE4A0AF2EE040AB4EE48
:10120000E00AF1EE10FA1CDD9FEDF60A84ED0A0A01
:101210009FEDF40A84ED0B0A9FEDF20A84ED0C0AAF
:101220009FEDF10A84ED100A9FEDF00A84ED110A9A
:10123000B7EE000A84ED0F0A84ED0E0A84ED0D0A64
:101240000FE29FEDE80A84ED100A9FEDE60A84EDB7
:101250000A0A9FEDE40A84ED0B0A9FEDE20A84ED91
:101260000C0A002567E1002003900490062303AADE
:1012700012212068FFF76CFFE8B39FEDDD0AF0EE66
:1012800040AA9DF80C009DF80D1040EA012000B224
:1012900008EE900AB8EEE80A20EE2A0ADFEDD20A3C
:1012A00020EE200A84ED030A9DF80E009DF80F1031
:1012B00040EA012000B208EE900AB8EEE80A20EEFB
:1012C0002A0ADFEDC90A20EE200A84ED040A9DF8FF
:1012D00010009DF8111040EA012000B208EE900ABB
:1012E000B8EEE80A20EE2A0ADFEDBF0A20EE200A57
:1012F00084ED050A00E01CE0D4ED030A60EEA00ACC
:1013000094ED041AD4ED041A41EE210A94ED051A65
:10131000D4ED051A41EE210AB0EE600A0FF008FC88
:10132000B0EE408A94ED100A30EE080A84ED100AFF
:1013300000BF002001900290082301AA00216068EC
:1013400000F0CAF9E8B39DF804000F284BD19FEDD7
:10135000A91AF0EE410A9DF806009DF8071040EA30
:10136000012000B200EE100AB8EEC01A21EE201AD9
:1013700084ED061A94ED0A1AD4ED061A31EE211AFC
:1013800084ED0A1A9DF808009DF8091040EA012032
:1013900000B200EE100AB8EEC01A21EE201A84ED59
:1013A000071A94ED0B1AD4ED071A31EE211A84EDC9
:1013B0000B1A9DF80A009DF80B1040EA012000B2BC
:1013C00000E010E000EE100AB8EEC01A21EE201A7C
:1013D00084ED081A94ED0C1AD4ED081A31EE211A96
:1013E00084ED0C1A00BFD5B9F0EE48BAB0EE48BA99
:1013F000002011E004F1180101EB800191ED000AD9
:1014000008A901EB800181ED000A0BA901EB800125
:1014100081ED000A411CC8B20328EBDB49E0B4EEC1
:10142000CB8AF1EE10FA01DDB0EE48BAB4EEEB8AE9
:10143000F1EE10FA01D2F0EE48BA002037E004F1E4
:10144000180101EB800191ED000A0BA901EB80016D
:10145000D1ED000AB4EEE00AF1EE10FA0ADD04F173
:10146000180101EB800191ED000A0BA901EB80014D
:1014700081ED000A04F1180101EB800191ED000AF1
:1014800008A901EB8001D1ED000AB4EEE00AF1EE0B
:1014900010FA0AD204F1180101EB800191ED000A63
:1014A00008A901EB800181ED000A411CC8B20328A4
:1014B000C5DB7BEE6B9A002012E00BA901EB8001EB
:1014C00091ED000A08A901EB8001D1ED000A30EE90
:1014D000600A05A901EB800181ED000A411CC8B238
:1014E0000328EADBB6EE000AF4EEC09AF1EE10FA39
:1014F0001ADC9DED050ADFED390AB4EEE00AF1EEE3
:1015000010FA11DC9DED060ADFED340AB4EEE00AB4
:10151000F1EE10FA08DC9DED070ADFED300AB4EEBB
:10152000E00AF1EE10FA00DD0AE09FED330A01F067
:1015300017FB681C85B241F270708542FFF693AECE
:1015400000BF94ED100ADFED2D0A80EE201A84ED25
:10155000101A002011E004F1280101EB800191ED47
:10156000000ADFED260A80EE201A04F1280101EBC3
:10157000800181ED001A411CC8B20328EBDB04F1A5
:101580004401206800F0A0F99FED1D0A01F0E8FA7F
:10159000B6EE000AF4EEC09AF1EE10FA3FF729AE6B
:1015A00094ED100ADFED100A30EE600AB0EEC00ACA
:1015B000F6EE000AB4EEE00AF1EE10FAEEDC9DED74
:1015C000050ADFED060AB4EEE00AF1EE10FAE5DCFA
:1015D0009DED060ADFED010A14E000009A99193E1C
:1015E0000AD7233C00000000CDCC1C410000204263
:1015F0000000403958A08B3A6F12033A0080BB4577
:101600000AD7A33BB4EEE00AF1EE10FAC6DC9DED7A
:10161000070A5FED0E0AB4EEE00AF1EE10FABDDC47
:1016200094ED0A0AB0EEC00A5FED130AB4EEE00AC8
:10163000F1EE10FAB2DC94ED0B0AB0EEC00A5FEDE9
:10164000180AB4EEE00AF1EE10FAA7DC94ED0C0AE9
:10165000B0EEC00A5FED1E0AB4EEE00AF1EE10FA39
:101660009CDC00BF94ED100ADFED080A80EE809A42
:1016700084ED0D9A84ED0E9A84ED0F9A012084F882
:101680004A0084F84B0000BFA2E50000C3F51C41EE
:101690007CB505460C46002001900090012301AA6C
:1016A00000212846FFF754FD08B900207CBD012326
:1016B0006A460021204600F00FF808B90020F5E73F
:1016C0009DF804001E2805D19DF800000F2801D1C7
:1016D0000120EBE70020E9E72DE9FF4106460F4630
:1016E00015461C460EB105B11CB9002004B0BDE87A
:1016F000F0810020029003900090019047F080005C
:101700008DF80800601CC3B202AA694630460AF090
:10171000E1FD38B122460DF101012846FEF7F5FE44
:101720000120E3E70020E1E7F8B504460D46164640
:101730000CB90020F8BD8DF800508DF80160022230
:10174000694620460AF032FEF4E710B504460CB9AB
:10175000002010BD04F10C01206800F041F808B928
:101760000020F6E794ED030AD4ED0D0A20EE200ADE
:1017700084ED030A94ED040AD4ED0E0A20EE200A4B
:1017800084ED040A94ED050AD4ED0F0A20EE200A38
:1017900084ED050A04F11801606800F05DF808B9ED
:1017A0000020D6E794F84A00B8B194ED060AD4EDCB
:1017B0000A0A30EE600A84ED060A94ED070AD4EDB9
:1017C0000B0A30EE600A84ED070A94ED080AD4EDA6
:1017D0000C0A30EE600A84ED080A0120B9E7000027
:1017E00030B52DED028B83B005460C4600200190EC
:1017F0000290062301AA12212846FFF7A9FC20B96E
:10180000002003B0BDEC028B30BD9FED118A00209B
:1018100019E001A911F81010012202EB400201ABFE
:101820009A5C41EA022109B200EE101AF8EEC00AF1
:1018300060EE880A9FED071A60EE810A04EB8001D2
:10184000C1ED000A401C0328E3DB0120D9E70000BA
:1018500000004039CDCC1C417CB505460C4600202B
:101860000090019008236A4600212846FFF734FFC4
:1018700008B900207CBD9DF800000F2801D0002091
:10188000F8E7002019E0022101EB40011DF80110EA
:10189000032202EB40021DF8022041EA022109B2B4
:1018A00000EE101AF8EEC00A9FED061A60EE810AEB
:1018B00004EB8001C1ED000A401C0328E3DB01209A
:1018C000D8E7000058A08B3AF8B507460E4607B196
:1018D0000EB90020F8BD0020009002236A462221A4
:1018E0003846FFF735FC08B90020F3E79DF8010002
:1018F000802801D10020EDE79DF80100C11700EB21
:10190000D1614A119DF8001002EBC104B4F5806F5B
:1019100003DBA4F5006005B200E025B200EE105A2A
:10192000F8EEC00AB4EE001AB3EE070A00EE810A20
:1019300086ED000A0120CDE710B1D0F87A2002B977
:101940007047D0F87A10012281F8492000BFF7E7EC
:1019500010B586B004461CB1206808B1606810B9A3
:10196000002006B010BD00200590012305AA00212B
:101970002068FFF7EDFB9FED820A01F0F1F8D4E952
:101980000001FFF785FE08B90020EAE7B6227E21B4
:101990002068FFF705FC08B90020E2E79FED790A0F
:1019A00001F0DEF800227C212068FFF7F9FB08B97E
:1019B0000020D6E704227D212068FFF7F1FB08B95B
:1019C0000020CEE7002004909FED6F0A01F0C8F8D8
:1019D000012304AA7D212068FFF7BAFB08B9002083
:1019E000BFE7AB2240212068FFF7DAFB08B90020EF
:1019F000B7E7002003909FED640A01F0B1F80123DE
:101A000003AA40212068FFF7A3FB18B19DF80C0042
:101A1000AB2801D00020A4E7012241212068FFF774
:101A2000BFFB08B900209CE7002002909FED560AFA
:101A300001F096F8012302AA41212068FFF788FBF4
:101A400018B19DF80800012801D0002089E708227C
:101A500053212068FFF7A4FB08B9002081E7042286
:101A600058212068FFF79CFB08B9002079E7B622CF
:101A700014216068FFF758FE08B9002071E79FED58
:101A8000430A01F06DF800220F216068FFF74CFE59
:101A900008B9002065E7002001909FED3B0A01F0A6
:101AA0005FF8012301AA0F216068FFF715FE10B14E
:101AB0009DF8040008B1002053E7812210216068DE
:101AC000FFF732FE08B900204BE7002211216068C1
:101AD000FFF72AFE08B9002043E78022152160683D
:101AE000FFF722FE08B900203BE7012216216068BB
:101AF000FFF71AFE08B9002033E7012218216068B9
:101B0000FFF712FE08B900202BE7002020E09FED30
:101B1000200A04F1280101EB800181ED000AB7EEF3
:101B2000000A04F1340101EB800181ED000A9FED10
:101B3000180A04F10C0101EB800181ED000A9FED10
:101B4000140A04F1180101EB800181ED000A401C28
:101B50000328DCDB9FED0E0A2C3404ED020A9FED16
:101B60000D0A84ED050A9FED0C0A84ED060A00209B
:101B7000E07701202077002060772C3C0120F0E600
:101B80006F12833A6F12033B0AD7233CA69B443B58
:101B900000000000CDCC1C410000204270B58CB08C
:101BA000054615B900200CB070BD4C200FF0C0FFE9
:101BB00004460CB90020F6E700264C212046FEF72B
:101BC00045FD2E48A06018222D4906A8FEF7E2FC2C
:101BD00028680690686807902889ADF82000287B5F
:101BE0008DF82400CDF8294018222549183168467F
:101BF000FEF7D0FCD5F815000090D5F8190001903B
:101C0000B5F81D00ADF808002120405D8DF80C00EE
:101C1000CDF8114006A80AF0DFFA206068460AF005
:101C2000DBFA6060206808B1606820B9204610F0D7
:101C30007FF90020B7E795F82A0084F84A0003E00E
:101C40009FED100A00F08CFF2046FFF781FE002870
:101C5000F6D0642E04DB204610F06AF90020A2E7DB
:101C600094F84A0010B12046FFF7ACFA012084F83E
:101C70004800002084F84900204694E739190008FC
:101C80001C320108CDCCCC3D00BFFEE710B50248A8
:101C900001F06CFB10BD0000640A002010B5024882
:101CA00001F064FB10BD0000640A002010B502487A
:101CB00001F05CFB10BD00008C0A002010B502484A
:101CC00001F054FB10BD00008C0A002001460129E0
:101CD00001D104487047022901D10348FAE70020E6
:101CE000F8E70000640A00208C0A00200346042B59
:101CF00015D007DC7BB1012B0ED0022B0DD0032BAE
:101D000012D10BE0202B0BD0212B0AD0222B09D093
:101D1000232B09D107E008E007E006E005E004E036
:101D200003E002E001E000E000BF00BF00207047D8
:101D30000020704710B50022044905480BF08DFBC8
:101D4000044903480BF07AFB002010BDCC1B002097
:101D5000F00E0020CC13002070B505460C4620681C
:101D600038B10848006820B12846064A2168126840
:101D70009047054905480BF061FB04480BF02AFB2E
:101D8000002070BD70000020CC130020F00E002059
:101D900010B503460C460021084610BD2DE9F04160
:101DA00004460D4600260A48D0F8BC72D7F8140243
:101DB00010B10120BDE8F0812A46214604480BF00D
:101DC0004CFB03480BF0FCFB06463046F2E70000F4
:101DD000F00E00201CB5264800F03EF925490860A9
:101DE000254800F039F92549086000BF244890EDE6
:101DF000020AB1EE400A234880ED000A224800683A
:101E0000D0F8090000EE100AB1EE400A1D4880ED3E
:101E1000010A00788DF800001A4840788DF801001A
:101E2000184880788DF802001648C0788DF80300B5
:101E3000144800798DF80400124840798DF80500A7
:101E4000104880798DF806000E48C0798DF807009B
:101E500008480068009940F8221F01994160054830
:101E6000006800F0BDFB02200FF0D4FBBEE70000CD
:101E7000BC050020B4050020CD050020B8050020D9
:101E8000B86E0020AC050020E005002000B595B03C
:101E900001201390002011900120129000200B903F
:101EA0000C900D900E9010900F9001200F9007E075
:101EB00018A01AA31AA21CA10090002009F0F2FA9F
:101EC0000BA9244801F0C6F80028F1D1012009909F
:101ED0000020079001200890002005900120059027
:101EE000002001900290039004900E2006900A902A
:101EF00007E008A009A30AA217A10090002009F09A
:101F0000D1FA01A91F4801F0A5F80028F1D115B0B8
:101F100000BD00001B5B306D00000000453A000072
:101F20001B5B313B33316D0020202573257343410A
:101F30004E31204649464F302046696C7465722008
:101F4000436F6E666967204572726F720D0A257362
:101F500000000000640A00202020257325734341FF
:101F60004E32204649464F302046696C74657220D7
:101F7000436F6E666967204572726F720D0A257332
:101F8000000000008C0A002008B5FFF77FFF0FA0BB
:101F900010A311A212A10090002009F083FA00F012
:101FA00037FA0AA00BA30CA218A10090002009F098
:101FB00079FA00201F49087004A006A306A21EA1FA
:101FC0000090002009F06EFA08BD00001B5B306D28
:101FD00000000000503A00001B5B313B33326D00C3
:101FE00020202573257343616E204D41534B2046BD
:101FF000696C74657220496E6974207375636365DA
:10200000737366756C6C790D0A2573002020257337
:10201000257343616E205365727669636520496E4E
:102020006974207375636365737366756C6C790D81
:102030000A25730095010020202025732573436134
:102040006E20496E6974207375636365737366757A
:102050006C6C790D0A25730030B589B005462348AC
:10206000007808B1FFF790FF284600F065F810B936
:10207000002009B030BD3F200FF05AFD04465CB986
:102080001BA128681CA31DA2CDE900011DA10020F1
:1020900009F008FA0020ECE73F212046FEF7B4FAE9
:1020A0006D1C55F8010C2060E878FFF70FFE6060AA
:1020B000A888208418221F4903A8FEF76BFAA88875
:1020C000182203A9039004F10800FEF71EFAE8881D
:1020D0006085A868C4F83700E8686D1EC4F83B0046
:1020E000204600F03FF92046C3E70000950100209C
:1020F0001B5B306D00000000453A00001B5B313B6C
:1021000033316D002020257325732573203A204339
:10211000616E205265676973746572204661696CEF
:1021200065642C204E6F204D656D6F72790D0A2508
:1021300073000000D83101083EB504464CB944A0F4
:1021400045A346A247A10090002009F0ABF900206A
:102150003EBD206858B1B4F8070040B1B4F805009E
:1021600028B1207901280CD02079022809D038A084
:1021700039A33AA247A10090002009F093F900206A
:10218000E6E7207901282ED15048007808280BD1A5
:102190002FA1206830A331A2CDE900014CA100207D
:1021A00009F080F90020D3E7002518E0584850F8DE
:1021B0002500408DB4F8071088420ED124A2B4F84F
:1021C0000700216824A3CDE90102009123A251490F
:1021D000002009F067F90020BAE7681CC5B23B4847
:1021E00000788542E2DB207902282ED14A48007827
:1021F00008280BD116A1206817A318A2CDE9000169
:1022000046A1002009F04EF90020A1E7002518E0C2
:10221000524850F82500408DB4F8071088420ED17E
:102220000BA2B4F8070021680BA3CDE901020091CD
:102230000AA24B49002009F035F9002088E7681C04
:10224000C5B2354800788542E2DB012080E7000016
:102250001B5B306D00000000453A00001B5B313B0A
:1022600033316D0020202573257343616E203A20A1
:102270005265676973746572204661696C65642C88
:1022800020436F6E666967206973204E554C4C0D74
:102290000A25730020202573257343616E203A20A0
:1022A0005265676973746572204661696C65642C58
:1022B00020436F6E66696720697320496E636F6D96
:1022C000706C6574650D0A25730000009201002092
:1022D0002020257325732573203A2043616E312019
:1022E0005265676973746572204661696C65642C18
:1022F000204D617820526567697374657220436F61
:10230000756E7420526561636865640D0A257300FB
:10231000E46C00207C340108930100202020257308
:1023200025732573203A2043616E32205265676918
:1023300073746572204661696C65642C204D617808
:1023400020526567697374657220436F756E7420DF
:10235000526561636865640D0A257300046D002091
:10236000C03401081FB5044660681C49884217D173
:102370001B481C49097840F821401A480078401C45
:102380001849087018A3608D218C2268CDE90203DA
:10239000CDE9002116A317A21849002009F082F800
:1023A00060681749884217D116481749097840F8DC
:1023B000214015480078401C134908700AA3618D1C
:1023C000208C2268CDE90213CDE9002008A309A2E0
:1023D0000E49002009F066F81FBD0000640A0020C5
:1023E000E46C0020920100201B5B306D00000000B7
:1023F000503A00001B5B313B33326D00EC33010877
:102400008C0A0020046D0020930100203434010860
:1024100008B507E02BA02DA32DA22FA1009000202E
:1024200009F040F8344801F0FCFA0028F2D107E046
:1024300024A026A326A231A10090002009F032F8A2
:10244000364801F0EEFA0028F2D107E01DA01FA3E4
:102450001FA233A10090002009F024F80221264891
:1024600000F03EFD0028F1D107E016A017A318A246
:1024700037A10090002009F015F80221274800F04C
:102480002FFD0028F1D107E00EA010A310A23CA15F
:102490000090002009F006F81021174800F020FDF8
:1024A0000028F1D107E007A008A309A240A10090ED
:1024B000002008F0F7FF1021184800F011FD002857
:1024C000F1D108BD1B5B306D00000000453A0000F3
:1024D0001B5B313B33316D00202025732573434155
:1024E0004E3120537461727473204661696C656467
:1024F0000D0A257300000000640A002020202573C7
:10250000257343414E3220537461727473204661C7
:10251000696C65640D0A2573000000008C0A0020B8
:1025200020202573257343414E31204649464F30C4
:1025300020496E74657272757074696F6E20436F96
:102540006E666967204572726F720D0A257300000E
:1025500020202573257343414E32204649464F3093
:1025600020496E74657272757074696F6E20436F66
:102570006E666967204572726F720D0A25730000DE
:1025800020202573257343414E31204649464F3163
:1025900020496E74657272757074696F6E20436F36
:1025A0006E666967204572726F720D0A25730000AE
:1025B00020202573257343414E32204649464F3132
:1025C00020496E74657272757074696F6E20436F06
:1025D0006E666967204572726F720D0A257300007E
:1025E0007CB504464CB917A018A319A21AA10090F3
:1025F000002008F057FF00207CBD00250DE0681C7E
:10260000C5B2642D09DD0FA010A311A21EA1009078
:10261000002008F047FF0020EEE7606800F08BFE26
:102620000028ECD001200190606801AB04F1220287
:1026300004F1080100F069FC08B90120DCE7002082
:10264000DAE700001B5B306D00000000453A000037
:102650001B5B313B33316D002020257325734361B3
:102660006E205472616E736D6974204661696C6589
:10267000642C20496E7374616E6365206973204E0B
:10268000554C4C0D0A25730020202573257343619A
:102690006E205472616E736D6974204661696C6559
:1026A000642C204E6F204D61696C626F78204672F9
:1026B00065650D0A2573000010B5044605490968D3
:1026C000C86A08F08FFA03490968086B08F08AFAAB
:1026D00010BD00006002002030B502460B4600210C
:1026E00002B10BB9002030BD15E00F48408C0E4CF4
:1026F000205C5054648C601CC41700EBD4646411DB
:10270000A0EB4414084D6C842846808C401E2C4657
:10271000A084481C81B20448808C002801DD9942C5
:10272000E3DB0846DFE70000C46D002070B52DED47
:10273000028B88B0B0EE408AF0EE608A04460D4607
:10274000164673208DF80000B0208DF8010018EEB9
:10275000100ACDF802009FED100A10EE100ACDF815
:102760000D0018EE900ACDF806008DF80A408DF89D
:102770000B508DF80C6065208DF81F000E210DF1B7
:102780001100FDF741FF20216846FFF707FB08B065
:10279000BDEC028B70BD00000000000010B50248C7
:1027A00001F0E0F910BD0000880D002010B50248CE
:1027B00001F0D8F910BD0000E80D002010B5024866
:1027C00001F0D0F910BD0000C00B002010B5024888
:1027D00001F0C8F910BD0000480E0020014608783D
:1027E00010381823B0FBF3F20848805CC865032A50
:1027F00005D908686FF30900001D886503E00868C3
:102800006FF309008865886D7047000094310108F6
:10281000014600208A6A8B69CBB932B1012A0DD0FA
:10282000022A03D0032A10D10EE000BFCB6A03F0C6
:102830008073B3F1807F00D1012007E0CB6AB3F150
:10284000C07F00D1012001E000E000BF34E08B69CF
:10285000B3F5005F1AD132B1012A07D0022A03D0A2
:10286000032A11D10AE000BF01200EE0CB6A03F079
:102870008073B3F1807F00D1012006E0CB6AB3F111
:10288000C07F00D1012000E000BF15E032B1012A75
:1028900005D0022A04D0032A0CD103E000BF00BFF8
:1028A000012008E0CB6A03F08073B3F1807F00D190
:1028B000012000E000BF00BF704730B50468246805
:1028C00024F4802405682C60046863608468402CCC
:1028D00004D10468A2600468E16003E00468A160B8
:1028E0000468E26030BD000010B50446134800687B
:1028F00040F0807011490860002011494860084686
:10290000006840F0010008600E4860430E4908600E
:10291000084600684FF47A71B0FBF1F00B4908608B
:10292000094800680749B0FBF1F009490860002038
:102930000849086000F0EEF810BD0000FCED00E072
:10294000001000E040420F00B0060020B406002056
:10295000B8060020BC0600200EB56AE038480078B2
:1029600010B1012864D110E09DF8080073280BD144
:1029700020213448FDF76AFE732032490870012097
:10298000314908702E49087052E02F4800782028FD
:1029900040DA9DF808002B492B4A127888542A48BF
:1029A0000078401C284908700846007820283EDB43
:1029B00026A12448C07F27A327A2CDE900012849EA
:1029C000002008F06FFD1F4826490860C07F652879
:1029D0000FD11EA11B48407823A324A2CDE90001FA
:1029E00024A1002008F05EFD164948780CF062FE34
:1029F0000AE016A11348C07F2AA32BA2CDE900014B
:102A00002BA1002008F04EFD00200D4908700E4952
:102A100008700CE00DA023A323A231A10090002098
:102A200008F040FD0020064908700749087000BF03
:102A300000BF012102A8FFF74FFE01288ED00EBD76
:102A4000140600200C6E0020150600201B5B306D64
:102A500000000000443A00001B5B313B33346D0042
:102A60000835010810060020503A00001B5B313B7E
:102A700033326D0020202573257356616C69642004
:102A80007061636B65742072656365697665642C3B
:102A90002074797065203D203078253032580D0A39
:102AA00025730000573A00001B5B313B33336D0048
:102AB000202025732573496E76616C6964207061EE
:102AC000636B65743A2077726F6E6720656E642061
:102AD00062797465203078253032580D0A257300EC
:102AE0002020257325735061636B6574206C656EBF
:102AF000677468206572726F722C207265736574DA
:102B000074696E672073746174650D0A2573000023
:102B10007047000008B50E480078B8B901200C498C
:102B200008700C48406800900B490098096888427A
:102B300004D20A480068401C0849086005484068FB
:102B40000549086000200249087000BF08BD000068
:102B5000D0060020001000E0C0060020BC060020C7
:102B60000C494868F0EE400A00BF0A494968091A52
:102B700001EE101AF8EE411A074991ED001AB8EE6D
:102B8000411A20EE811AF4EEC11AF1EE10FAECD3DC
:102B900070470000001000E0B006002010B52DEDD9
:102BA000028B82B004460E4840680190206801996B
:102BB000081A00EE100AF8EE400A0A4890ED000AE2
:102BC000B8EE400A80EE801AB0EE418A019820608B
:102BD000FFF7A0FFB0EE480A02B0BDEC028B10BDBB
:102BE000001000E0B006002010B52DED028B00F0C3
:102BF00025F80F4890ED000AB8EE400A808800EEF4
:102C0000900AF8EE600A9FED0B1A00EE810A084860
:102C1000C08800EE900AF8EE600A9FED071A00EEF9
:102C2000810AB0EE408AB0EE480ABDEC028B10BDBE
:102C3000A80600206F12833ABD37863538B529487B
:102C400040680090FFF766FF274800684FF0FF31AB
:102C5000A0FB01310098181841F10001234A03C27A
:102C6000234800232149026803C9FDF7D7FB214A05
:102C700003C220480CC81E4800680024A2FB0015AF
:102C800003FB005002FB04021848D0E90030591A37
:102C900060EB0200184AC2E90010164800681749A4
:102CA0000860174800231449026803C9FDF7B6FB02
:102CB00012498880084680881149096841430E48B6
:102CC000D0E90030591A60F100000E4AC2E9001044
:102CD0000D4800230B49026803C9FDF79FFB074914
:102CE000C88038BD001000E0BC060020C8060020E7
:102CF000B0060020D8060020E0060020A80600202C
:102D0000B4060020E8060020B806002010B5012017
:102D100001F038F910BD10B5022001F033F910BDF3
:102D200010B5082001F02EF910BD10B5102001F0EB
:102D300029F910BD10B5202001F024F910BD72B69C
:102D400000BFFEE770B50A480468001D0568001D55
:102D50000668344454B108220649204605F0B0F80C
:102D6000042204491031284605F0AAF870BD00007D
:102D7000107AFF1F56000020494807F08FF8494994
:102D8000086000214748006807F0BAFA0EE045489D
:102D9000006807F08BFC4348006890ED140A414836
:102DA000006880ED1A0A01200EF034FC3D480068EE
:102DB00090ED1A0AB5EEC00AF1EE10FAE7D000BFA6
:102DC0003948C07A022804D100F07AF805F01EFCD8
:102DD00023E03548807A02280CD134480068D0F8C6
:102DE0000D0000EE100AB1EE400A2E48006880ED9A
:102DF0001A0A12E02B48006890ED1A0A2A48B0F926
:102E0000020000EE900AF8EEE00A9FED291A01EEAA
:102E1000200A2448006880ED1A0A2248006890EDD4
:102E20001A0ADFED240AB4EEE00AF1EE10FA06D237
:102E30009FED200A1B48006880ED1A0A10E019482F
:102E4000006890ED1A0ADFED1C0AB4EEE00AF1EE1C
:102E500010FA05DD9FED180A1248006880ED1A0A85
:102E600010480068D0ED1A0AB0EE600A0D480068FC
:102E700007F05CFA0B48006890ED1C0AB0EE401AAF
:102E8000DFED0E0A9FED0D0A0648006807F07EFB95
:102E90000448006807F00AFC01200EF0BBFB8FE736
:102EA000D0010020C8010020786C0020E00500203F
:102EB000B00FA134EC5138BE7B142E3F000000004F
:102EC0000548407D012802D10449087002E0002035
:102ED0000249087070470000786C0020CC01002087
:102EE00010B5024692F82030012B01D0022B06D1FA
:102EF00010684069084314686061002010BD506A82
:102F000040F4802050620120F8E7F0B504460D46F9
:102F10001E4694F8207020688368A86800B900E015
:102F200000BF012F01D0022F7DD103F0806030B9A6
:102F300003F0006018B903F0805000287ED0C3F37E
:102F40000161012088403060A86860B9B5F800C010
:102F5000E86840EA4C5C206800F5C07000EB0110A6
:102F6000C0F800C00FE0D5E901C040EACC00D5F8B8
:102F70000CC040EA0C00D4F800C00CF5C07C0CEB8F
:102F8000011CCCF80000D5F810C0206800F5C07016
:102F900000EB0110C0F804C0287D01280ED1206884
:102FA00000F5C07000EB0110406840F4807C2068A0
:102FB00000F5C07000EB0110C0F804C0D079000625
:102FC00092F806C040EA0C4092F805C040EA0C2096
:102FD00092F804C040EA0C00D4F800C00CF5C07CA4
:102FE0000CEB011CCCF80C00D078000692F802C063
:102FF00040EA0C4092F801C040EA0C2092F800C070
:1030000040EA0C00D4F800C00CF5C07C0CEB011CAD
:10301000CCF80800206800F5C07000EB01100068D3
:1030200040F0010C01E00FE008E0206800F5C070FE
:1030300000EB0110C0F800C00020F0BD606A40F451
:10304000001060620120F8E7606A40F4802060624E
:103050000120F2E7F0B504460A46216894F82050B2
:10306000012D01D0022D7ED1424901F50071086881
:1030700040F001000860086820F47C50086008688F
:10308000566A40EA06200860107D00F01F06012005
:1030900000FA06F3C8699843C861A1F50071D069C8
:1030A000C8B9D1F80C029843C1F80C02908880B2DC
:1030B000968940EA064601F51070576940F8376076
:1030C000108880B2168940EA064601F510705769EB
:1030D00000EBC7004660D069012819D1D1F80C0275
:1030E0001843C1F80C02908880B2168840EA064660
:1030F00001F51070576940F83760908980B21689E1
:1031000040EA064601F51070576900EBC7004660BB
:10311000906928B9D1F804029843C1F8040204E088
:10312000D1F804021843C1F80402106928B9D1F893
:1031300014029843C1F8140204E0D1F814021843B1
:10314000C1F81402106A012804D1D1F81C021843F6
:10315000C1F81C02D1F8000220F00100C1F8000201
:103160000020F0BDFFE7606A40F48020606201202B
:10317000F7E7000000640040704710B502460020E9
:1031800092F82030012B01D0022B09D121B914680B
:10319000E46804F0030003E01468246904F0030009
:1031A00010BD70B5044694F82050012D01D0022DB9
:1031B0007DD151B92068C06800F0030080B9606A11
:1031C00040F400106062012070BD2068006900F0CA
:1031D000030028B9606A40F4001060620120F3E740
:1031E000206800F5D87000EB0110006800F00400C2
:1031F0009060906840B9206800F5D87000EB01102D
:103200000068400D106007E0206800F5D87000EB02
:1032100001100068C0085060206800F5D87000EB0D
:103220000110006800F00200D060206800F5D8703E
:1032300000EB0110406800F00F00082802D30820BE
:10324000106108E0206800F5D87000EB01104068BC
:1032500000F00F001061206800F5D87000EB01103D
:10326000406800F47F40000A9061206800F5D87043
:1032700000EB01104068000C5061206800F5D87028
:1032800000EB011080681870206800F5D87000EB22
:103290000110806800F47F40000A5870206800F533
:1032A000D87000EB0110806800F47F0000E03CE083
:1032B000000C9870206800F5D87000EB0110806851
:1032C000000ED870206800F5D87000EB0110C068BF
:1032D0001871206800F5D87000EB0110C06800F488
:1032E0007F40000A5871206800F5D87000EB01108B
:1032F000C06800F47F00000C9871206800F5D87059
:1033000000EB0110C068000ED87131B92068C068A8
:1033100040F020002668F06005E02068006940F079
:1033200020002668306100204EE7606A40F480206B
:103330006062012048E70146002091F82020012A20
:1033400001D0022A11D10B689B6803F0806303B19E
:10335000401C0B689B6803F0006303B1401C0B68C2
:103360009B6803F0805303B1401C70472DE9F05F68
:1033700004460025206846692068D0F8049020683B
:1033800087682068D0F80CA02068D0F810B02068BA
:10339000D0F8188006F00100002855D007F0010091
:1033A000C0B101202168886007F0020018B12046F2
:1033B00000F067FB0EE007F0040010B145F4006573
:1033C00008E007F0080010B145F4805502E02046FF
:1033D00000F056FB07F48070C8B14FF4807021688C
:1033E000886007F4007018B1204600F04CFB0EE036
:1033F00007F4806010B145F4005508E007F4006060
:1034000010B145F4804502E0204600F03BFB07F494
:103410008030C8B14FF480302168886007F40030F4
:1034200018B1204600F031FB0EE007F4802010B107
:1034300045F4004508E007F4002010B145F480355C
:1034400002E0204600F020FB06F0080038B10AF048
:10345000100020B145F4007510202168C86006F006
:10346000040040B10AF0080028B108202168C860B3
:10347000204600F01DFA06F0020038B12068C0684E
:1034800000F0030010B1204600F014FA06F04000EE
:1034900038B10BF0100020B145F480651020216890
:1034A000086106F0200040B10BF0080028B10820A8
:1034B00021680861204600F057FA06F0100038B184
:1034C0002068006900F0030010B1204600F04EFAB9
:1034D00006F4003040B109F0100028B11020216836
:1034E0004860204600F09CFA06F4803040B109F0B4
:1034F000080028B1082021684860204600F0C6FA7C
:1035000006F4004088B309F0040078B306F4807034
:1035100020B108F0010008B145F0010506F4007083
:1035200020B108F0020008B145F0020506F4806001
:1035300020B108F0040008B145F0040506F400606D
:10354000A0B108F0700088B108F07000402817D0D2
:1035500006DC10280BD020280CD0302819D10CE024
:10356000502810D0602814D110E01DE019E045F07B
:1035700008050FE045F010050CE045F0200509E0D6
:1035800045F0400506E045F0800503E045F4807510
:1035900000E000BF00BF2068806920F07000216853
:1035A00088610420216848602DB1606A2843606208
:1035B0002046FFF7E1FDBDE8F09F70B504460CB969
:1035C000012070BD94F8200010B9204600F0B0F83A
:1035D0002068006840F001002168086000F0E8FD04
:1035E00005460DE000F0E4FD401B0A2808D9606A9A
:1035F00040F400306062052084F820000120E0E7FC
:103600002068406800F001000028EBD020680068C6
:1036100020F002002168086000F0CAFD05460DE0B8
:1036200000F0C6FD401B0A2808D9606A40F400304B
:103630006062052084F820000120C2E7206840680D
:1036400000F002000028EBD1207E012806D120687E
:10365000006840F080002168086005E0206800688C
:1036600020F0800021680860607E012806D1206873
:10367000006840F040002168086005E020680068AC
:1036800020F0400021680860A07E012806D1206853
:10369000006840F020002168086005E020680068AC
:1036A00020F0200021680860E07E012806D1206813
:1036B000006820F010002168086005E020680068BC
:1036C00040F0100021680860207F012806D12068A2
:1036D000006840F008002168086005E02068006884
:1036E00020F0080021680860607F012806D120686A
:1036F000006840F004002168086005E02068006868
:1037000020F0040021680860D4E90201084321691F
:103710000843616908436168491E08432168C8611C
:1037200000206062012084F82000002049E70000AA
:1037300010B586B00446142101A8FCF787FF56494E
:103740002068884249D155480068401C53490860A8
:103750000846006801280FD100BF002000905048A3
:10376000006840F000704E4908600846006800F0AC
:103770000070009000BF00BF00BF002000904848CC
:103780001038006840F008004549103908600846C4
:10379000006800F00800009000BF00BF0320019007
:1037A000022002900020039003200490092005903D
:1037B00001A93C4800F0F4FB00220521142000F090
:1037C0000BFF142000F0F4FE00220521152000F06C
:1037D00003FF152000F0ECFE5CE0334920688842CE
:1037E00058D100BF002000902D48006840F0806054
:1037F0002B4908600846006800F08060009000BF18
:1038000000BF26480068401C24490860084600683C
:1038100001280FD100BF002000902148006840F02F
:1038200000701F4908600846006800F000700090B2
:1038300000BF00BF00BF002000901948103800688A
:1038400040F002001649103908600846006800F090
:103850000200009000BF00BF602001900220029093
:1038600000200390032004900920059001A90F482F
:1038700000F096FB00220521402000F0ADFE402024
:1038800000F096FE00220521412000F0A5FE412017
:1038900000F08EFE06B010BD006400401C00002049
:1038A00040380240000C0240006800400004024022
:1038B000704700007CB5044600212046FFF75DFC00
:1038C000C5B2072D08DB12A013A314A215A1CDE9E0
:1038D0000050002007F0E6FD1C4BA3F11C02002164
:1038E0002046FFF75EFC1A48844206D1194A1A485E
:1038F000017816481C380BF0B9FF1848844206D1ED
:10390000174A1848017811481C380BF0AFFF7CBDEE
:103910001B5B306D00000000573A00001B5B313B21
:1039200033336D00202025732573525820464946B5
:103930004F30204D65737361676520436F756E74FA
:103940002069732025640D0A25730000406D002056
:10395000640A0020E46C0020920100208C0A002000
:10396000046D002093010020704700007CB50446E0
:1039700001212046FFF701FCC5B2072D08DB12A08C
:1039800013A314A215A1CDE90050002007F08AFD71
:103990001C4BA3F11C0201212046FFF702FC1A4830
:1039A000844206D1194A1A48017816481C380BF08F
:1039B0005DFF1848844206D1174A1848017811481B
:1039C0001C380BF053FF7CBD1B5B306D000000000A
:1039D000573A00001B5B313B33336D0020202573C9
:1039E00025735258204649464F31204D6573736107
:1039F000676520436F756E742069732025640D0A16
:103A000025730000646D0020640A0020E46C00202F
:103A1000920100208C0A0020046D002093010020F8
:103A2000704770B5044694F82000012822D1022086
:103A300084F820002068006820F0010021680860F8
:103A400000F0B6FB05460DE000F0B2FB401B0A2873
:103A500008D9606A40F400306062052084F82000D4
:103A6000012070BD2068406800F001000028EBD103
:103A70006062F6E7606A40F4002060620120F0E7CF
:103A8000704770477047704770477047704770B510
:103A90000446A56D00F08CFB064694F8350002281C
:103AA00008D08020606500BF002084F8340000BF8B
:103AB000012070BD2068006820F0160021680860B1
:103AC0002068406920F0800021684861206C08B9B6
:103AD000A06C28B12068006820F008002168086008
:103AE0002068006820F001002168086010E000F004
:103AF0005FFB801B05280BD920206065032084F81C
:103B0000350000BF002084F8340000BF0320D0E758
:103B10002068006800F001000028E8D194F85C10EB
:103B20003F208840A860012084F8350000BF0020B5
:103B300084F8340000BF00BFBBE7014691F83500B0
:103B4000022803D08020486501207047052081F8B5
:103B500035000868006820F001000A681060002045
:103B6000F3E70000F8B50446002000908C48006898
:103B70004FF41651B0FBF1F7A56D2E6894F85C1068
:103B800008208840304098B12068006800F00400A8
:103B900070B12068006820F004002168086094F883
:103BA0005C1008208840A860606D40F001006065EE
:103BB00094F85C1001208840304068B1206840696A
:103BC00000F0800040B194F85C1001208840A860AB
:103BD000606D40F00200606594F85C10042088403D
:103BE000304068B12068006800F0020040B194F8ED
:103BF0005C1004208840A860606D40F0040060659F
:103C000094F85C1010208840304078B32068006839
:103C100000F0080050B394F85C1010208840A860B1
:103C20002068006800F4802080B12068006800F4FB
:103C3000002028B9206CC8B12046216C884715E0C7
:103C4000A06C98B12046A16C88470FE020680068FE
:103C500000F4807028B92068006820F0080021680E
:103C60000860206C10B12046216C884794F85C10E5
:103C7000202088403040002865D02068006800F08F
:103C8000100000285FD094F85C1020208840A860C5
:103C900094F83500052828D12068006820F0160027
:103CA000216808602068406920F080002168486130
:103CB000206C08B9A06C28B12068006820F00800CA
:103CC0002168086094F85C103F208840A8600120BB
:103CD00084F8350000BF002084F8340000BF206D58
:103CE00010B12046216D8847F8BD2068006800F4B7
:103CF000802080B12068006800F4002028B9606C42
:103D000010B12046616C88471DE0E06BD8B12046B9
:103D1000E16B884717E02068006800F4807068B99C
:103D20002068006820F0100021680860012084F8F5
:103D3000350000BF002084F8340000BFE06B10B1F4
:103D40002046E16B8847606D38B3606D00F001007C
:103D5000F0B1052084F835002068006820F00100EB
:103D60002168086000BF0098401C0090B84200D94C
:103D700005E02068006800F001000028F3D100BFD2
:103D8000012084F8350000BF002084F8340000BF13
:103D9000E06C10B12046E16C884700BFA4E700004A
:103DA000940000202DE9F0410446002500F000FABF
:103DB000074614B90120BDE8F081606A00B100BF78
:103DC000022084F8350000BF002084F8340000BFD2
:103DD0002068006820F00100216808600AE000F017
:103DE000E7F9C01B052805D920206065032084F869
:103DF0003500E0E72068006800F001000028EED1FF
:103E00002068056821480540D4E901010843E168BC
:103E100008432169084361690843A1690843E169CE
:103E20000843216A08430543606A042803D1D4E9A2
:103E30000B0108430543206805602068456925F0AB
:103E40000705606A0543606A04280DD1A06A05432E
:103E5000E06A48B12046FEF7DBFC28B140206065EF
:103E6000012084F83500A6E7206845612046FEF76A
:103E7000B5FC064694F85C103F208840B0600020F6
:103E80006065012084F83500002094E73F8010F041
:103E90002DE9F04704460D4616461F464FF0000830
:103EA000D4F8589000BF94F83400012802D10220C1
:103EB000BDE8F087012084F8340000BF94F8350095
:103EC000012825D1022084F83500002060653B469A
:103ED000324629462046FEF7F0FC94F85C103F205D
:103EE0008840C9F808002068006840F01600216882
:103EF0000860206C28B12068006840F00800216844
:103F000008602068006840F001002168086006E051
:103F100000BF002084F8340000BF4FF00208404684
:103F2000C6E7000070B5044600F042F90646254693
:103F3000681C10B104480078054400BF00F038F94F
:103F4000801BA842FAD370BD9000002070B50646D1
:103F500000250CE0094850F82540E088B04205D122
:103F6000A06818B12046A168884770BD6D1C044840
:103F700000788542EED300BFF7E70000D86E00203E
:103F8000F006002010B5044604480068204020B127
:103F9000024804602046FFF7D9FF10BD143C0140E1
:103FA000F8B502460B460025002400200021D6E08B
:103FB000012606FA01F51E6806EA0504AC4274D132
:103FC0001E7906F00306012E04D01E7906F00306C2
:103FD000022E13D190684F000326BE40B0434F001D
:103FE000DE68BE4030439060506801268E40B0438A
:103FF0001E79C6F300168E40304350601E7906F0DD
:104000000306032E09D0D0684F000326BE40B043FC
:104010004F009E68BE403043D0601E7906F0030614
:10402000022E13D1CF0802F1200656F827004E07C2
:10403000F70E0F26BE40B0434F07FF0E1E69BE406D
:104040003043CF0802F1200646F8270010684F00E1
:104050000326BE40B0431E7906F003064F00BE4063
:10406000304310605E6806F44036002E76D000BF04
:10407000002600963C4E366846F480463A4F3E6035
:104080003E46366806F48046009600BF00BF374EB5
:104090008F0856F827008E07370F0F26BE40B04313
:1040A000334EB24202D1002624E057E0314EB242F4
:1040B00001D101261EE0304EB24201D1022619E0A4
:1040C0002E4EB24201D1032614E02D4EB24201D150
:1040D00004260FE02B4EB24201D105260AE02A4EFB
:1040E000B24201D1062605E0284EB24201D1072690
:1040F00000E008268F073F0FBE4030431B4E8F085D
:1041000046F82700224E3068A0435E6806F4801609
:1041100006B120431E4E3060361D3068A0435E68F5
:1041200006F4001606B12043194E361D3060184EB5
:10413000361F3068A0435E6806F4003606B120439F
:10414000134E361F3060361F3068A0435E6806F499
:10415000803606B120430E4E083E3060491C1029BF
:10416000FFF426AFF8BD0000443802400838014093
:10417000000002400004024000080240000C02401F
:10418000001002400014024000180240001C0240CF
:10419000083C0140024613690B400BB1012000E0CE
:1041A000002070470AB1816101E00B048361704710
:1041B00001480068704700008800002070B5044680
:1041C0000CB9012070BD94F83D0028B9002084F896
:1041D0003C00204600F0DAF8242084F83D002068F6
:1041E000006820F00100216808602068006840F441
:1041F0000040216808602068006820F400402168C1
:10420000086001F0F7F905465C496068884206D805
:104210005B48854201D2012007E0002005E05948B3
:10422000854201D2012000E00020012800D1C9E729
:104230005548B5FBF0F62068406820F03F00304359
:10424000216848604D496068884201D8701C07E0C9
:104250004FF4967070434FF47A71B0FBF1F0401C4C
:104260002168096A21F03F01084321680862434937
:104270006068884214D8681E61684900B0FBF1F09C
:10428000401CC0F30B00042801D204203DE0681E4E
:1042900061684900B0FBF1F0401CC0F30B0034E052
:1042A000A06838B9681E616801EB4101B0FBF1F00C
:1042B000401C0AE0681E616801EBC10202EB0111BB
:1042C000B0FBF1F0401C40F48040C0F30B0008B993
:1042D00001201AE0A06848B9681E616801EB41013D
:1042E000B0FBF1F0401CC0F30B000CE0681E6168ED
:1042F00001EBC10202EB0111B0FBF1F0401CC0F375
:104300000B0040F4804040F400402168C9694CF63D
:10431000FF72914308432168C861D4E9070108434B
:104320002168096821F0C001084321680860D4E9C8
:10433000031008432168896848F2FF32914308431B
:1043400021688860D4E9050108432168C96821F023
:10435000FF0108432168C8602068006840F0010040
:104360002168086000202064202084F83D0000209F
:10437000206384F83E0000BF24E70000A08601000F
:1043800080841E0000093D0040420F0010B586B039
:104390000446142101A8FCF759F92A4920688842EB
:1043A0004DD100BF002000902748006840F0040075
:1043B000254908600846006800F00400009000BF2E
:1043C00000BF00BF002000900846006840F00100D8
:1043D00008600846006800F00100009000BF00BFC0
:1043E00048150190122002900020039003200490B1
:1043F0000420059001A91548FFF7D2FD4FF4807005
:1044000001901220029000200390032004900420C9
:10441000059001A90E48FFF7C3FD00BF00200090E2
:1044200009481030006840F4000007491031086066
:104430000846006800F40000009000BF00BF06B00E
:1044400010BD0000005C004030380240000802400F
:104450000000024003480068034909780844014904
:1044600008607047880000209000002010B50D48BB
:10447000006840F400700B4908600846006840F48A
:10448000806008600846006840F48070086003207F
:1044900000F0E0F80F2000F007F800F05FF80020CF
:1044A00010BD0000003C02402DE9F04188B00446F8
:1044B0000027B84600BF002001902348006840F064
:1044C0004000214908600846006800F04000019063
:1044D00000BF00BF02A903A801F064F8069F1FB93E
:1044E00001F088F8054602E001F084F8450017481D
:1044F000B5FBF0F0A0F1010815481649086040F23C
:10450000E7311448C160C0F8048000210161816076
:10451000816102F019F9064696B90E4802F09AF93F
:1045200006466EB92B2000F043F8102C07D200226B
:1045300021462B2000F050F80748046000E00126D7
:10454000304608B0BDE8F0814038024040420F00DC
:1045500000180040A80E00208C00002008B500BF05
:10456000002000901148006840F480400F49086026
:104570000846006800F48040009000BF00BF00BF04
:1045800000200090081F006840F08050091F08605C
:104590000846006800F08050009000BF00BF002275
:1045A0000F21901E00F018F808BD000044380240AA
:1045B0000146084600280DDB00BF00BF00F01F03C6
:1045C00001229A4043099B0003F1E023C3F8002134
:1045D00000BF00BF00BF70472DE9F05F80460D4669
:1045E000164600270BF0E2FB074639462A463346BB
:1045F00001F00700C0F1070ABAF1040F02D94FF029
:10460000040A01E0C0F1070AD14600F1040ABAF138
:10461000070F02D24FF0000A01E0A0F1030AD446CE
:104620004FF0010A0AFA09FAAAF1010A0AEA020A93
:104630000AFA0CFA4FF0010B0BFA0CFBABF1010B71
:104640000BEA030B4AEA0B04214640460BF0B6FB8B
:10465000BDE8F09F00BF00F00702064B19684FF657
:10466000FF031940044B0B4343EA0221014B19603D
:1046700000BF70470CED00E00000FA0570470246ED
:104680001068416200207047F0B50346154618686F
:10469000446A21B944EA05401E68B06219E018680E
:1046A000806A04EB1044002208E0186800F582706C
:1046B00050F8220004EB1044501CC2B2481E904235
:1046C000F3D844EA0547186800F582704E1E40F89A
:1046D00026700020F0BD10B50446D4F8E00409F0BF
:1046E000E0FB10BD70B504460D4605EBC50304F1B3
:1046F000140101EB8301CA682946D4F8E00409F0EB
:10470000CBFA70BD70B504460D4605EBC50304F544
:10471000157101EB8301CA682946D4F8E00409F059
:104720003FFB70BD10B50446D4F8E00409F0BCFBB3
:1047300010BD2DE9F04104460D4605F080008028AB
:1047400008D105F00F0000EBC00104F1140000EBEC
:10475000810607E005F00F0000EBC00104F51570BD
:1047600000EB8106314620680AF014FE0746384601
:10477000BDE8F08170B504460E4606F08000802842
:104780000AD106F00F0000EBC00104F1140000EBA9
:1047900081050120687009E006F00F0000EBC00100
:1047A00004F5157000EB81050020687006F00F001D
:1047B000287000BF94F89404012801D1022070BD34
:1047C000012084F8940400BF294620680AF070F99B
:1047D00000BF002084F8940400BF00BFEFE770B56D
:1047E00004460E4606F00F002179884201D90120C7
:1047F00070BD06F0800080280AD106F00F0000EBA3
:10480000C00104F1140000EB81050120687009E08B
:1048100006F00F0000EBC00104F5157000EB8105F8
:10482000002068700020A87006F00F00287000BFFC
:1048300094F89404012801D10220D9E7012084F8DA
:10484000940400BF294620680AF030FB00BF002016
:1048500084F8940400BF00BFCAE7024601F00F00CD
:1048600000EBC00302F5157000EB83004069704750
:104870002DE9F04705460E4690461F464FF00009C9
:1048800006F0800080280AD106F00F0000EBC0017E
:1048900005F1140000EB81040120607009E006F0CE
:1048A0000F0000EBC00105F5157000EB810400203E
:1048B000607006F00F002070C8F30A00A060277136
:1048C000607808B120786083022F01D100206071E8
:1048D00000BF95F89404012802D10220BDE8F087BA
:1048E000012085F8940400BF2146286809F0C8FF1C
:1048F00000BF002085F8940400BF4846EEE72DE98C
:10490000F04105460E461746984606F00F0000EBAC
:10491000C00105F5157000EB8104E760C4F8108054
:1049200000206061607006F00F002070A8790128F7
:1049300000D1E761AA79214628680AF04BFB0020E4
:10494000BDE8F08170B504460D4605F00F002179F1
:10495000884201D9012070BD05F0800080280AD16D
:1049600005F00F0000EBC00104F1140000EB81061C
:104970000120707007E005EBC50104F5157000EB30
:104980008106002070700120B07005F00F003070BB
:1049900000BF94F89404012801D10220DBE7012034
:1049A00084F8940400BF314620680AF0C6FA05F086
:1049B0000F0028B9A17904F29C4220680AF03EFA5F
:1049C00000BF002084F8940400BF00BFC3E72DE9B6
:1049D000F04105460E461746984606F00F0000EBDC
:1049E000C00105F1140000EB8104E760C4F81080F9
:1049F000002060610120607006F00F002070A8792F
:104A0000012800D1E761AA79214628680AF0E2FA74
:104A10000020BDE8F0812DE9FE4F0446D4F800B037
:104A20005E4620680AF098FD002874D120680AF0DC
:104A3000D2FD08B9BDE8FE8F40F608008059C0F3EA
:104A40000D20C4F8D40420680AF0C5FD00F002006F
:104A5000022805D12068406900F002002168486101
:104A600020680AF0B8FD00F01000102845D1206839
:104A7000806920F0100021688861DBF8209009F03F
:104A80000F0000EBC00104F5157000EB810AC9F3BB
:104A9000434002281AD147F6F07009EA000030B30B
:104AA000C9F30A125846DAF80C100AF099FDC9F356
:104AB0000A11DAF80C000844CAF80C00C9F30A110C
:104AC000DAF814000844CAF8140010E0C9F34340AF
:104AD00006280CD1082204F29C4158460AF080FDB9
:104AE000C9F30A11DAF814000844CAF8140020685F
:104AF000806940F010002168886120680AF06BFD31
:104B000000F40020B0F5002F7BD1002520680AF0CA
:104B100032FD029072E0E1E2029800F0010000280C
:104B200068D0E9B220680AF049FD804608F001002B
:104B300048B1012106F5306000EB4510816029463F
:104B4000204605F021FE08F00800082809D10821B8
:104B500006F5306000EB451081602946204605F0DF
:104B6000E1FD08F01000102805D1102106F5306095
:104B700000EB4510816008F00200022824D1DBF828
:104B8000140000F08000802807D140F6040080590E
:104B900040F4806140F60400815105EBC50104F545
:104BA000157000EB810A9AF80300012806D1002055
:104BB0008AF80300E9B2204600F09BFA022106F5CC
:104BC000306000EB4510816008F02000202805D1FE
:104BD000202106F5306000EB4510816008F400509C
:104BE000B0F5005F06D14FF4005106F5306000EBE0
:104BF000451081606D1C02984008029002980028C0
:104C00008AD120680AF0E7FC00F48020B0F5802FFC
:104C10007DD120680AF0A5FC029000259AE0029858
:104C200000F00100002873D0E9B220680AF0ADFC62
:104C3000804608F00100F0B305F00F010120884024
:104C4000019040F634008159019821EA000040F6B5
:104C500034018851012106F5106000EB4510816098
:104C6000A079012824D105EBC50104F1140000EB63
:104C7000810005EBC502C16804F1140000EB82005D
:104C80008068014405EBC50204F1140000EB8200CA
:104C9000C1606DB905EBC50104F1140000EB8100A2
:104CA000006928B904F29C42012120680AF0C6F884
:104CB000E9B2204600E001E0FFF714FD08F008002B
:104CC000082805D1082106F5106000EB4510816029
:104CD00008F01000102805D1102106F5106000EB37
:104CE0004510816008F04000402805D1402106F5BC
:104CF000106000EB4510816008F0020002281DD111
:104D0000294658460AF0EBFB05EBC50101E025E01A
:104D10001CE004F1140000EB810A9AF8030001285A
:104D200006D100208AF80300E9B2204600F0D8F945
:104D3000022106F5106000EB4510816008F080004C
:104D4000802803D12946204605F0C0FD6D1C02983D
:104D500040080290029800287FF461AF20680AF0B2
:104D60003AFC00F00040B0F1004F1CD140F60400C6
:104D7000805920F0010140F60400815194F8CC04E0
:104D8000012807D1002084F8CC0400212046FFF739
:104D900075FC02E0204600F0D1FA2068406900F07E
:104DA00000402168486120680AF015FC00F40060AA
:104DB000B0F5006F0ED140F60800805900F00100F8
:104DC00010B1204600F012FB2068406900F400603A
:104DD0002168486120680AF0FEFB00F48050B0F5BD
:104DE000805F7ED140F60400805920F0010140F63A
:104DF00004008151102120680AF071FB002732E085
:104E00004FF67F3106F5106000EB4710816006F524
:104E1000106000EB4710006820F4001106F51060E8
:104E200000EB471001604FF67F3106F5306000EB74
:104E30004710816006F5306000EB4710006820F4F1
:104E4000001106F5306000EB4710016006F5306098
:104E500000EB4710006840F0006106F5306000EBA1
:104E6000471001607F1C2079B842C9D840F61C0069
:104E7000805940F0011140F61C008151E07B70B177
:104E8000D6F8840840F00B01C6F8841840F64400B8
:104E9000805940F00B0140F6440081510FE040F68C
:104EA0001400805942F22B01084340F61401885146
:104EB000081F805940F00B014FF401608151D6F872
:104EC000000820F4FE60C6F80008A17904F29C42B4
:104ED000206809F0B3FF2068406900F48050216821
:104EE00000E000E0486120680AF075FB00F4005023
:104EF000B0F5005F17D1206809F02AFD20680AF09C
:104F000018FBE07100F070FB0090E27920680099D6
:104F10000AF016FC204600F0F9F92068406900F418
:104F200000502168486120680AF055FB00F0080035
:104F3000082808D1204600F008FA2068406900F0EF
:104F400008002168486120680AF045FB00F08000F5
:104F5000802818D1DBF8180020F08000CBF818006A
:104F600001250DE005EBC50104F5157000EB81008E
:104F7000C078012803D1E9B22046FFF7DAFB6D1CA7
:104F80002079A842EED820680AF025FB00F48010B2
:104F9000B0F5801F2DD1012522E006F5106000EB51
:104FA0004510D0F8009005EBC50104F1140000EBAA
:104FB00081000079012812D109F00040B0F1004FC2
:104FC0000DD1012105EBC50204F1140000EB8200B4
:104FD000C170E8B240F080012046FFF7AAFB6D1CCB
:104FE0002079A842D9D82068406900F4801021684F
:104FF000486120680AF0EFFA00F40010B0F5001FD5
:1050000044D1012538E006F5306000EB4510D0F8BA
:10501000009005EBC50104F5157000EB81000079E7
:10502000012828D109F00040B0F1004F23D109F444
:10503000803094F8D41401F0010188421BD1012181
:1050400005EBC50204F5157000EB8200C170DBF8BA
:10505000180040F08000CBF81800DBF8140000F0D6
:10506000800040B940F60400805940F4007140F6D9
:105070000400815103E06D1C2079A842C3D800BF11
:105080002068406900F400102168486120680AF037
:10509000A2FA00F08040B0F1804F08D12046FFF71F
:1050A0001AFB2068406900F0804021684861206850
:1050B0000AF091FA00F0040004280FD12068D0F81B
:1050C000049009F00400042802D12046FFF72AFBCF
:1050D0002068406840EA09002168486000BFA9E4F0
:1050E00070B504460D462946D4F8E00408F048FFA0
:1050F00070BD70B504460D462946D4F8E00408F0AA
:1051000063FF70BDF8B504460CB90120F8BD2668F0
:1051100094F8950428B9002084F89404204600F0FF
:10512000A1F8032084F89504B6F1A04F01D1002125
:10513000A171206809F07AFE207C8DF8000094E8C7
:105140000F0009F019FC20B1022084F89504012019
:10515000DCE7002120680AF079FA20B1022084F807
:1051600095040120D2E7002531E0012105EBC502BD
:1051700004F1140000EB8200417005EBC50104F15D
:10518000140000F8215005EBC50100EB81004583B8
:10519000002105EBC50204F1140000EB820001714F
:1051A00005EBC50204F1140000EB8200816005EB01
:1051B000C50204F1140000EB8200C16005EBC502DA
:1051C00004F1140000EB82000161681CC5B2207973
:1051D000A842CADC00252AE0002105EBC50204F53F
:1051E000157000EB8200417005EBC50104F51570E8
:1051F00000F82150002105EBC50200EB820001718F
:1052000005EBC50204F5157000EB8200816005EB2B
:10521000C50204F5157000EB8200C16005EBC50204
:1052200004F5157000EB82000161681CC5B220799D
:10523000A842D1DC207C8DF8000094E80F0009F032
:1052400001FD20B1022084F8950401205EE70020D2
:105250006074012084F89504206809F0E1FC0020C6
:1052600054E7000010B586B00446142101A8FBF7EE
:10527000EDF92068B0F1A04F42D100BF00200090AE
:105280002048006840F001001E4908600846006898
:1052900000F00100009000BF00BF4FF4C05001902B
:1052A0000220029000200390032004900A20059021
:1052B00001A91548FEF774FE00BF1248001D0068E2
:1052C00040F080000F49091D086000BF00200090D9
:1052D0000C481430006840F480400A4914310860DA
:1052E0000846006800F48040009000BF00BF00BF87
:1052F000002205214320FFF76FF94320FFF758F9FB
:1053000006B010BD303802400000024070B50446BF
:105310000125E07908B9002506E0E079022801D1ED
:10532000012501E0FDF70BFD2946D4F8E00408F063
:10533000F4FED4F8E00408F09BFE70BD10B50446FE
:10534000D4F8E00408F0CAFE10BD10B50446D4F845
:10535000E00408F0CEFE10BD70B504460D4600BF57
:1053600094F89404012801D1022070BD012084F832
:10537000940400BF6574294620680AF0C3F900BF91
:10538000002084F8940400BF00BFEEE710B5044687
:1053900004F29C41D4F8E00408F0D6FE10BD70B5CC
:1053A0000446256800BF94F89404012801D1022026
:1053B00070BD012084F8940400BFE86800F040004C
:1053C00030B1607B012803D1A86B40F48030A86322
:1053D00020680AF055F8206809F010FC00BF002092
:1053E00084F8940400BF00BFE2E7000010B5044653
:1053F000D4F8E00408F005FF2068D0F8000E40F073
:1054000001002168C1F8000EE07A28B10348006865
:1054100040F006000149086010BD000010ED00E0FA
:1054200070B504460D460CB9012070BD584800689F
:1054300000F00700A84209D255490D7008460068DF
:1054400000F00700A84201D00120EEE7207800F02C
:10545000020002281DD1207800F00400042805D1A4
:105460004C48006840F4E0504A490860207800F059
:105470000800082805D14748006840F460404549C5
:1054800008604448006820F0F000A16808434149E2
:105490000860207800F00100A8B36068012807D1F7
:1054A0003C4808380068C0F34040B8B90120BCE768
:1054B0006068022802D06068032807D135480838A0
:1054C0000068C0F3406048B90120AEE731480838B1
:1054D0000068C0F3400008B90120A6E72D48006825
:1054E00020F00300616808432A490860FEF760FE67
:1054F000064609E0FEF75CFE801B41F288318842D7
:1055000002D9032091E707E02248006800F00C0070
:105510006168B0EB810FEDD11D48006800F0070015
:10552000A84209D91A490D700846006800F0070022
:10553000A84201D0012078E7207800F00400042878
:1055400007D11448006820F4E050E168084311498D
:105550000860207800F00800082808D10D4800688D
:1055600020F46040216940EAC1000A49086000F067
:1055700061F808490968C1F30311074A515CC84042
:105580000649086006480068FEF78EFF00204CE7D9
:10559000003C0240083802409C3101089400002081
:1055A0008C0000200F2202600D4A126802F00302F4
:1055B00042600B4A126802F0F0028260084A1268E8
:1055C00002F4E052C260064A126802F46042D20855
:1055D0000261044A126802F007020A607047000084
:1055E00008380240003C0240014800687047000053
:1055F0009400002000B5FFF7F7FF04490968C1F3E4
:105600008221034A515CC84000BD000008380240B6
:10561000AC31010800B5FFF7E7FF04490968C1F3A1
:105620004231034A515CC84000BD000008380240C6
:10563000AC3101082DE9F047002400250026A146E1
:105640002548006800F00C0020B1042805D0082887
:105650003AD105E0DFF8849039E0DFF8849036E055
:105660001D48001F006800F03F041B48001F006831
:1056700000F4800078B11A481749091F0968C1F37E
:105680008811A0FB01700146224600233846FAF734
:10569000C5FE05460EE011480F49091F0968C1F310
:1056A0008811A0FB01700146224600233846FAF714
:1056B000B5FE05460848001F0068C0F30140401CC5
:1056C0004600B5FBF6F902E0DFF8109000BF00BF1E
:1056D0004846BDE8F0870000083802400024F40086
:1056E000001BB700F8B504460CB90120F8BD2078BE
:1056F00000F00100002874D0F948006800F00C00A8
:1057000004280DD0F648006800F00C00082813D1DA
:10571000F348001F006800F48000B0F5800F0BD143
:10572000EF4808380068C0F34040002859D060684E
:10573000002856D10120D9E700BF6068B0F5803F4E
:1057400008D1E7480838006840F48030E449083957
:1057500008601EE06068B0F5A02F0DD1E048083861
:10576000006840F48020DE49083908600846006877
:1057700040F4803008600CE0D9480838006820F414
:105780008030D749083908600846006820F4802036
:10579000086000BF606890B1FEF70AFD054606E0AC
:1057A000FEF706FD401B642801D903209EE7CC4884
:1057B00008380068C0F340400028F1D011E0FEF73F
:1057C000F7FC054606E0FEF7F3FC401B642801D910
:1057D00003208BE7C24808380068C0F34040002827
:1057E000F1D1207800F0020002285FD1BC480068A7
:1057F00000F00C0058B1BA48006800F00C0008280E
:105800001CD1B748001F006800F48000B0B9B4484C
:1058100008380068C0F3400020B1E068012801D0DA
:10582000012063E7AE480838006820F0F8002169DD
:1058300040EAC100AA490839086037E0E06800B3CF
:105840000120A8490860FEF7B3FC054606E0FEF714
:10585000AFFC401B022801D9032047E7A0480838C5
:105860000068C0F340000028F1D09D480838006867
:1058700020F0F800216940EAC10099490839086020
:1058800014E0002097490860FEF792FC054606E008
:10589000FEF78EFC401B022801D9032026E7904822
:1058A00008380068C0F340000028F1D1207800F0EB
:1058B000080008282CD16069A8B101208A49086035
:1058C000FEF776FC054606E0FEF772FC401B022858
:1058D00001D903200AE782486C300068C0F3400019
:1058E0000028F1D014E000207F490860FEF760FC3A
:1058F000054606E0FEF75CFC401B022801D90320A8
:10590000F4E677486C300068C0F340000028F1D11D
:10591000207800F00400042870D100277048383047
:10592000006800F0805090B900BF002000906C48E3
:105930003830006840F080506949383108600846C6
:10594000006800F08050009000BF00BF012767484A
:10595000006800F48070B0B96448006840F480705A
:1059600062490860FEF724FC054606E0FEF720FCCD
:10597000401B022801D90320B8E65C48006800F407
:1059800080700028F2D000BFA068012808D15448D8
:105990006830006840F001005149683108601DE03E
:1059A000A06805280DD14E486830006840F004001A
:1059B0004B49683108600846006840F00100086003
:1059C0000CE047486830006820F001004449683125
:1059D00008600846006820F00400086000BFA06866
:1059E000A8B1FEF7E5FB054609E0FEF7E1FB401B29
:1059F00041F28831884202D9032077E626E0384810
:105A000068300068C0F340000028EED013E0FEF7D5
:105A1000CFFB054608E0FEF7CBFB401B41F2883187
:105A2000884201D9032061E62D4868300068C0F340
:105A300040000028EFD1012F07D1294838300068F5
:105A400020F0805026493831086000BFA069002846
:105A500045D02348006800F00C0008285DD0A069FC
:105A6000022845D100201F490866FEF7A1FB054624
:105A700006E0FEF79DFB401B022801D9032035E616
:105A8000174808380068C0F340600028F1D1D4E915
:105A900007010843616A40EA81110122A06AC2EB52
:105AA000500041EA00412C20005D41EA00600C49B1
:105AB000091F086001200B490866FEF779FB0546BF
:105AC00006E0FEF775FB401B022801D903200DE616
:105AD000034808380068C0F340600028F1D049E06E
