:020000040800F2
:10000000E86F00202903000823440008FD39000898
:10001000393E00084F060008577000080000000035
:10002000000000000000000000000000690200085D
:100030001D0F000800000000C5020008254F000841
:100040004303000843030008430300084303000878
:100050004303000843030008430300084303000868
:100060004303000843030008430300084303000858
:100070007D0E000843030008430300084303000803
:100080004303000843030008430300084303000838
:10009000510600085D0600084303000843030008FA
:1000A0004303000843030008430300084303000818
:1000B0004303000843030008F54F0008430300080A
:1000C00043030008430300084303000843030008F8
:1000D00043030008430300084303000801550008D8
:1000E00043030008430300084303000801500008CD
:1000F00043030008430300084303000843030008C8
:1001000043030008430300084303000843030008B7
:1001100043030008430300084303000843030008A7
:1001200043030008890E0008430300084303000846
:100130004303000843030008430300084303000887
:1001400069060008750600084303000825440008F6
:1001500043030008950E00084303000815550008E6
:100160004303000843030008430300084303000857
:100170004303000843030008430300080000000095
:10018000430300084303000800F002F800F05CF8A5
:100190000AA090E8000C82448344AAF10107DA45E2
:1001A00001D100F051F8AFF2090EBAE80F0013F0D8
:1001B000010F18BFFB1A43F00103184774870000B2
:1001C000948700000A444FF0000C10F8013B13F034
:1001D000070408BF10F8014B1D1108BF10F8015BA0
:1001E000641E05D010F8016B641E01F8016BF9D193
:1001F00013F0080F1EBF10F8014BAD1C0C1B09D1EA
:100200006D1E58BF01F801CBFAD505E014F8016B5B
:1002100001F8016B6D1EF9D59142D6D370470000ED
:100220000023002400250026103A28BF78C1FBD8FF
:10023000520728BF30C148BF0B6070471FB508F098
:1002400074FA1FBD10B510BD00F0C8F91146FFF7D4
:10025000F5FF07F09EF800F0E6F903B4FFF7F2FFB0
:1002600003BC00F0EDF900002C4B19680868B0E8F9
:10027000F04F80F30988BFF36F8F4FF0000080F3D9
:10028000118870470000000008480068006880F38B
:1002900008884FF0000080F3148862B661B6BFF39F
:1002A0004F8FBFF36F8F00DF00BF00BF08ED00E08E
:1002B000DFF80C00016841F470010160704700BF75
:1002C00088ED00E0EFF30980BFF36F8F134B1A68DE
:1002D0001EF0100F08BF20ED108A20E9F04F1060CB
:1002E00009B44FF0500080F31188BFF34F8FBFF374
:1002F0006F8F07F071FC4FF0000080F3118809BC8C
:1003000019680868B0E8F04F1EF0100F08BFB0EC95
:10031000108A80F30988BFF36F8F704714010020A3
:10032000EFF30580704700000948804709480047FF
:10033000FEE7FEE7FEE7FEE7FEE7FEE7FEE7FEE795
:10034000FEE7FEE704480549054A064B70470000F2
:10035000E54F000889010008E8690020E86F0020E7
:10036000E86B0020E86B002053EA020C00F0698083
:100370002DE9F04B4FF00006002B1FBFB3FA83F5B9
:1003800003FA05F424FA05F65E4012BF1643B2FAEA
:1003900082F502FA05F4C5F120051EBF22FA05FC1C
:1003A00044EA0C04203556EA044C4FEA144418BFC2
:1003B000641C4FF000084FF00009904271EB030CF1
:1003C00039D3002919BFB1FA81F701FA07F6B0FA5B
:1003D00080F700FA07F6C7F120071EBF20FA07FCD6
:1003E00046EA0C062037B6FBF4FCA7EB0507103FE6
:1003F00007F01F0BCBF120060CFA0BFB2CFA06F6CC
:1004000044BFB3460026202FA4BF5E464FF0000B2A
:100410005BEA060C08BF4FF0010B19EB0B09ABFBB5
:10042000027C48EB0608C01B06FB02CC0BFB03CC8E
:1004300071EB0C01C1E70B46024641464846BDE858
:10044000F08B13B54FF000004FF00001AFF30080C8
:10045000BDE81C407047032A40F2308010F0030CC6
:1004600000F0158011F8013BBCF1020F624498BF07
:1004700011F801CB00F8013B38BF11F8013BA2F1A4
:10048000040298BF00F801CB38BF00F8013B11F01F
:10049000030300F02580083AC0F0088051F8043BBF
:1004A000083A51F804CBA0E80810F5E7121D5CBF2C
:1004B00051F8043B40F8043BAFF30080D20724BF5F
:1004C00011F8013B11F801CB48BF11F8012B24BFF3
:1004D00000F8013B00F801CB48BF00F8012B704742
:1004E00010B5203AC0F00B80B1E81850203AA0E8CF
:1004F0001850B1E81850A0E81850BFF4F5AF5FEA03
:10050000027C24BFB1E81850A0E8185044BF18C9B5
:1005100018C0BDE810405FEA827C24BF51F8043B5C
:1005200040F8043B08BF7047D20728BF31F8023BB0
:1005300048BF11F8012B28BF20F8023B48BF00F844
:10054000012B70474FF000020429C0F0128010F018
:10055000030C00F01B80CCF1040CBCF1020F18BF9F
:1005600000F8012BA8BF20F8022BA1EB0C0100F032
:100570000DB85FEAC17C24BF00F8012B00F8012B05
:1005800048BF00F8012B70474FF0000200B513463A
:1005900094469646203922BFA0E80C50A0E80C50A3
:1005A000B1F12001BFF4F7AF090728BFA0E80C5054
:1005B00048BF0CC05DF804EB890028BF40F8042B4D
:1005C00008BF704748BF20F8022B11F0804F18BFBA
:1005D00000F8012B7047704770477047754600F070
:1005E0002BF8AE4605006946534620F007008546C5
:1005F00018B020B5FFF7A6FEBDE820404FF000067A
:100600004FF000074FF000084FF0000B21F00701FA
:10061000AC46ACE8C009ACE8C009ACE8C009ACE83D
:10062000C0098D46704710B50446AFF300802046E0
:10063000BDE81040FFF711BE0048704784690020F4
:1006400001491820ABBEFEE7260002007047FEE716
:10065000014800F06EBE0000D8070020014800F0FD
:1006600068BE0000D8070020014800F062BE00000C
:1006700000080020014800F05CBE000000080020D7
:10068000002070470020704710B50022044905483B
:1006900005F026F90449034805F015F9002010BDBE
:1006A0008C170020B00A00208C0F002010B50146E6
:1006B000034805F008F9024805F0DEF8002010BDF7
:1006C000B00A00200020704730B595B00125002405
:1006D0001395CDE911450B940C940D940E94CDE92E
:1006E0000F5407E014A0009015A316A217A1002034
:1006F00004F0B0F90BA9204800F0F2FC0028F1D179
:100700000995CDE907450194029403940E200494C1
:10071000CDE905500A9007E007A0009008A309A2C0
:1007200016A1002004F096F901A91F4800F0D8FC9A
:100730000028F1D115B030BD1B5B306D000000000A
:10074000453A00001B5B313B33316D00202025739F
:10075000257343414E31204649464F302046696C4F
:1007600074657220436F6E666967204572726F729E
:100770000D0A257300000000D807002020202573F3
:10078000257343414E32204649464F302046696C1E
:1007900074657220436F6E666967204572726F726E
:1007A0000D0A2573000000000008002008B5FFF7BF
:1007B0008BFF0FA0009010A310A212A1002004F044
:1007C00049F900F0FFF90AA000900BA30BA218A1B1
:1007D000002004F03FF92049002007A3087004A07E
:1007E000009006A21DA1002004F034F908BD00000D
:1007F0001B5B306D00000000503A00001B5B313B7A
:1008000033326D0020202573257343616E204D41E6
:10081000534B2046696C74657220496E697420736D
:1008200075636365737366756C6C790D0A25730067
:1008300020202573257343616E20536572766963AA
:100840006520496E6974207375636365737366759B
:100850006C6C790D0A2573007E0100202020257321
:10086000257343616E20496E6974207375636365F7
:10087000737366756C6C790D0A25730030B5054687
:10088000244889B0007808B1FFF790FF284600F0AF
:100890006BF800282CD03F2006F078FF040029D008
:1008A0003F21FFF74FFE28682060287901282DD0CE
:1008B00002282DD00020606035F8050F2084182212
:1008C000154902A8FFF70CFE28880290182202A9F9
:1008D00004F10800FFF7BFFD688860856868C4F808
:1008E0003700A868C4F83B00204600F02BF92046EA
:1008F00009B030BD09A12868CDE9000109A30AA209
:100900000BA1002004F0A6F80020F1E71448D2E77C
:100910001448D0E77E010020D88700081B5B306DAB
:1009200000000000453A00001B5B313B33316D0095
:100930002020257325732573203A2043616E2052B1
:1009400065676973746572204661696C65642C2003
:100950004E6F204D656D6F72790D0A257300000092
:10096000D807002000080020FEB5B0B1016859B1D9
:10097000B0F8072042B1B0F805302BB105792E4C04
:10098000012D10D0022D2ED02CA02EA32EA230A1EE
:100990000090002004F05EF845E028A029A32AA2D8
:1009A00039A10090F5E76378082B02D00020424E71
:1009B00015E022A0CDE9001022A323A23FA11FE051
:1009C00056F820707F8D974207D100911BA0CDE98A
:1009D00001201CA31CA2494922E0401CC0B298423D
:1009E000EED3022D25D1A378082B03D0324C002062
:1009F00020341CE011A0CDE9001012A312A240A1E6
:100A0000002004F027F80EE054F820506D8D954238
:100A10000BD1009109A0CDE90120494909A30AA2FF
:100A2000002004F017F80020FEBD401CC0B2984220
:100A3000EAD30120FEBD00007E0100201B5B306D6B
:100A400000000000453A00001B5B313B33316D0074
:100A500020202573257343616E203A205265676913
:100A600073746572204661696C65642C20436F6EF7
:100A700066696720697320496E636F6D706C657479
:100A8000650D0A257300000020202573257343613E
:100A90006E203A20526567697374657220466169F9
:100AA0006C65642C20436F6E666967206973204E05
:100AB000554C4C0D0A257300A46800202020257396
:100AC00025732573203A2043616E31205265676992
:100AD00073746572204661696C65642C204D617881
:100AE00020526567697374657220436F756E742058
:100AF000526561636865640D0A257300A488000867
:100B00002020257325732573203A2043616E3220FF
:100B10005265676973746572204661696C65642CFF
:100B2000204D617820526567697374657220436F48
:100B3000756E7420526561636865640D0A257300E3
:100B4000E88800087FB5044640681749174D884279
:100B500011D117496878174B41F82040401C687044
:100B60002068628D218C8DE80F0008331A1D124910
:100B7000002003F06FFF60681049884212D10C49D1
:100B8000A87820310B4B41F82040401CA870206809
:100B9000628D218C8DE80F0008331A1D0849002052
:100BA00003F058FF7FBD0000D80700207E01002021
:100BB000A4680020F007000814880008000800203E
:100BC0005C88000808B507E02BA000902CA32DA29C
:100BD0002EA1002003F03EFF344800F079FE0028EB
:100BE000F2D107E024A0009025A326A230A1002086
:100BF00003F030FF364800F06BFE0028F2D107E02A
:100C00001DA000901EA31FA232A1002003F022FF0E
:100C10000221264800F0EAF90028F1D107E016A0E9
:100C2000009017A317A237A1002003F013FF0221A1
:100C3000274800F0DBF90028F1D107E00EA0009072
:100C40000FA310A23BA1002003F004FF10211748BE
:100C500000F0CCF90028F1D107E007A0009008A32C
:100C600008A240A1002003F0F5FE1021184800F072
:100C7000BDF90028F1D108BD1B5B306D00000000FC
:100C8000453A00001B5B313B33316D00202025735A
:100C9000257343414E312053746172747320466151
:100CA000696C65640D0A257300000000D8070020F8
:100CB00020202573257343414E3220537461727492
:100CC00073204661696C65640D0A2573000000009D
:100CD0000008002020202573257343414E31204613
:100CE00049464F3020496E74657272757074696F31
:100CF0006E20436F6E666967204572726F720D0ACF
:100D00002573000020202573257343414E32204671
:100D100049464F3020496E74657272757074696F00
:100D20006E20436F6E666967204572726F720D0A9E
:100D30002573000020202573257343414E31204642
:100D400049464F3120496E74657272757074696FCF
:100D50006E20436F6E666967204572726F720D0A6E
:100D60002573000020202573257343414E32204611
:100D700049464F3120496E74657272757074696F9F
:100D80006E20436F6E666967204572726F720D0A3E
:100D9000257300007CB5040001D0002512E013A0EB
:100DA00014A315A216A1009008E06D1CEDB2642DED
:100DB00008D90EA00FA310A21DA10090002003F0DF
:100DC00049FE0FE0606800F09EFA0028EDD0012097
:100DD0000190606801AB04F1220204F1080100F007
:100DE00017F908B100207CBD01207CBD1B5B306D74
:100DF00000000000453A00001B5B313B33316D00C1
:100E000020202573257343616E205472616E736DCB
:100E10006974204661696C65642C20496E73746145
:100E20006E6365206973204E554C4C0D0A25730086
:100E300020202573257343616E205472616E736D9B
:100E40006974204661696C65642C204E6F204D6189
:100E5000696C626F7820467265650D0A2573000023
:100E600010B5054C2068C06A03F080FC2068006B58
:100E7000BDE8104003F07ABC38020020014800F0C1
:100E8000B5BD000048090020014800F0AFBD0000DA
:100E9000A8090020014800F0A9BD0000080A0020B0
:100EA00001681823CAB2103AB2FBF3F2054B6FF394
:100EB0000901032A9B5CC36500D9091D81650846A9
:100EC000704700009487000810B5014600208B6928
:100ED0008A6A4FF0C07453B1B3F5005F15D072B198
:100EE000012A0CD0022A0AD0032A09D104E01AB13F
:100EF000012A06D0022A03D1C96AC90100D50120FE
:100F000010BDC96AA142FAD010BD002AF7D0012A4B
:100F1000F2D0022AF3D0032AF3D010BD704772B684
:100F2000FEE700002DED028B284802F087FF274CDA
:100F30000021241F206003F011F909E003F06AFA90
:100F4000206890ED140A80ED1A0A012006F042FA9A
:100F5000206890ED1A0AB5EEC00AF1EE10FAEDD055
:100F60001B4D9FED1C8A1C4EDFED1C8AB5F902104B
:100F7000206800EE901A90ED1A0AF8EEE00A00EEF2
:100F8000880A10EE101A80ED1A0AB14202D99FEDBC
:100F9000140A06E010EE101A124A914203DD9FED8A
:100FA000120A80ED1A0A03F0EDF82068B0EE680A24
:100FB00090ED1C1AF0EE400A03F0BEF9206803F031
:100FC00029FA012006F006FAD0E70000A801002067
:100FD0003868002095BFD6330AD723BD0000000033
:100FE0000AD723BD295C0F3E295C0F3E90F82020D4
:100FF000012A07D0022A05D0416A41F480214162CA
:1010000001207047006842690A434261002070472E
:10101000F0B590F820500468A468012D05D0022D89
:1010200003D0416A41F4802157E014F0406F01D1B0
:10103000E5004FD5C4F301640125A5401D608D680E
:101040004FF4C0739DB1CE6835434E6845EAC6057E
:10105000066803EB0417F5514FF4C275076805EBFA
:1010600004150E697E51097D012905D009E00E881D
:10107000CD6845EA4655EBE701684E5946F480765F
:101080004E511179D579567941EA056195792D044A
:1010900045EA062529434FF4C676056806EB041693
:1010A000A9511178D57841EA0561957852782D04D7
:1010B00045EA022211434FF4C475026805EB04159A
:1010C0005151006803EB0411425842F001024250B2
:1010D0000020F0BD416A41F4001141620120F0BDE1
:1010E00010B590F82020012A07D0022A05D0416AC5
:1010F00041F480214162012010BD3B48D0F800221C
:1011000042F00102C0F80022D0F8002222F47C5202
:10111000C0F80022D0F800224B6A42EA0322C0F84D
:1011200000220A7D02F01F0301229A40D0F81C32EF
:101130009343C0F81C32CB69B3B9D0F80C32934357
:10114000C0F80C328C894B6864F31F434C6900EB88
:10115000C404C4F840320C890B6864F31F434C6923
:1011600000EBC404C4F84432CB69012B16D1D0F88B
:101170000C321343C0F80C320C884B6864F31F43E5
:101180004C6900EBC404C4F840320C89CB6864F3AA
:101190001F434C6900EBC404C4F844328B69002B34
:1011A000D0F804320ED01343C0F804320B69002B80
:1011B000D0F8143208D01343C0F81432096A012958
:1011C00004D008E09343EFE79343F5E7D0F81C120F
:1011D0001143C0F81C12D0F8001221F00101C0F830
:1011E0000012002010BD00000064004070470000A5
:1011F0000246002092F82030012B01D0022B05D1AD
:10120000106821B1D0F8100000F003007047C068EA
:10121000FAE770B590F82040012C05D0022C03D0DD
:10122000416A41F4802128E0046809B32469A407D5
:1012300020D04FF4D874056804EB01142D5915F033
:101240000405956005682D591AD0ED0855600568AC
:101250002C5904F00204D4604FF4DA74056804EBEE
:1012600001142E5906F00F06082E0CD308250DE0A8
:10127000E468DCE7416A41F400114162012070BD7D
:101280006D0D1560E3E72D5905F00F051561056833
:101290002D59C5F30725956105682C59240C546117
:1012A0004FF4DC72046802EB0112A4581C7004684D
:1012B000A458240A5C700468A458240C9C70046828
:1012C000A258120EDA704FF4DE72046802EB0112BB
:1012D000A4581C710468A458240A5C710468A458BA
:1012E000240C9C710468A258120EDA71006829B1AE
:1012F000016941F020010161002070BDC16841F029
:101300002001C160F8E70246002092F82010012970
:1013100001D002290CD111688A68520100D5012040
:101320008A68120100D5401C8968C90000D5401C9C
:1013300070472DE9F05F0546006800244669D0F843
:1013400004908768D0F80CB0D0F810A0D0F81880BE
:10135000F10748D0F90714D001218160B80703D5FF
:10136000284600F0E2FA0CE0780702D54FF400645A
:1013700007E0380702D54FF4805402E0284600F019
:10138000D3FAF80516D529684FF480708860B8053F
:1013900003D5284600F0CBFA0CE0780502D544F4DA
:1013A000005407E0380502D544F4804402E02846A2
:1013B00000F0BCFAF80316D529684FF48030886035
:1013C000B80303D5284600F0B4FA0CE0780302D540
:1013D00044F4004407E0380302D544F4803402E0CA
:1013E000284600F0A5FA300707D55FEACB6004D5A0
:1013F0002968102044F40074C86070074FF0080793
:1014000007D55FEA0B7004D52868C760284600F04E
:10141000A9F9B00706D52868C068800702D0284619
:1014200000F0A2F9700607D55FEACA6004D5296802
:10143000102044F480640861B00607D55FEA0A70A2
:1014400004D528680761284600F0E6F9F00606D5BD
:1014500028680069800702D0284600F0DFF9B00351
:1014600008D55FEAC96005D529681020486028467C
:1014700000F02CFAF00307D55FEA097004D528685C
:101480004760284600F056FA300446D55FEA4970B6
:1014900040D5F00504D55FEAC87001D044F00104DE
:1014A000B00504D55FEA887001D544F002047005E8
:1014B00004D55FEA487001D544F00404300529D50D
:1014C00018F0700F26D008F07000402815D006DC08
:1014D000102809D020280AD0302816D10AE0502838
:1014E0000ED0602811D10EE044F008040DE044F065
:1014F00010040AE044F0200407E044F0400404E053
:1015000044F0800401E044F480742868816921F08B
:1015100070018161296804204860002C05D0686A48
:10152000204368622846FFF761FEBDE8F09F70B572
:10153000040003D094F8200010B104E0012070BD35
:10154000204600F081F82068016841F00101016047
:1015500000F096FC0546052604E000F091FC401BD7
:101560000A2811D820684068C007F6D020680168B2
:1015700021F00201016000F083FC05460BE000F061
:101580007FFC401B0A2806D9606A40F40030606284
:1015900084F82060D2E7206840688007EFD4207E7E
:1015A0000128206801683DD021F080010160607E43
:1015B00001282068016838D021F040010160A07E38
:1015C00001282068016833D021F020010160E07E0D
:1015D0000128206801682ED041F010010160207FB1
:1015E00001282068016829D021F008010160607F8E
:1015F00001282068016824D021F004010160D4E9A9
:1016000002010843D4E90412114308436168491EEA
:1016100008432168C86100206062012084F820002E
:10162000002070BD41F08001C0E741F04001C5E7F6
:1016300041F02001CAE721F01001CFE741F0080195
:10164000D4E741F00401D9E7F0B587B0044614218E
:101650006846FEF799FF3E4B3E48DFF8F0E0196818
:10166000D4F800C03B4A0325022609271030002485
:10167000491CF4452AD11960012907D1016841F0BC
:1016800000710160006800F000700590106840F083
:10169000080010601068CDE9005600F00800CDE9A0
:1016A000047069462C48CDE9024500F0EBFA0022AF
:1016B0000521142000F082FC142000F071FC0022AF
:1016C0000521152000F07AFC15203AE0DFF88CE0C7
:1016D000F44538D1D0F800C04CF0806CC0F800C0A0
:1016E000D0F800C001290CF0806CCDF814C019604E
:1016F00007D1016841F000710160006800F00070DE
:101700000590106840F002001060106802AB00F015
:10171000020005906020CDE9000683E8B00069462C
:101720000F4800F0AFFA00220521402000F046FCEF
:10173000402000F035FC00220521412000F03EFC55
:10174000412000F02DFC07B0F0BD00000064004017
:101750000C00002030380240000C024000680040BD
:1017600000040240704700007CB504460021FFF7EA
:101770003FFDC0B2072808D314A1CDE9000115A38D
:1017800015A217A1002003F065F91F4B0021A3F15A
:101790001C022046FFF73DFD1C481D4D844206D12A
:1017A000194A69785C3A02F1400005F01BFC1948BF
:1017B000844209D1A97802B0134ABDE870403C3A8E
:1017C00002F1200005F00EBC7CBD00001B5B306DFB
:1017D00000000000573A00001B5B313B33336D00C3
:1017E0002020257325735258204649464F30204DFE
:1017F00065737361676520436F756E74206973202C
:1018000025640D0A2573000000690020D807002018
:101810007E01002000080020704700007CB50446CF
:101820000121FFF7E5FCC0B2072808D314A1CDE9D8
:10183000000115A315A217A1002003F00BF91F4BFF
:101840000121A3F11C022046FFF7E3FC1C481D4DBB
:10185000844206D1194A6978803A02F1640005F0A1
:10186000C1FB1948844209D1A97802B0134ABDE8E6
:101870007040603A02F1440005F0B4BB7CBD00004A
:101880001B5B306D00000000573A00001B5B313BD2
:1018900033336D0020202573257352582046494666
:1018A0004F31204D65737361676520436F756E74AA
:1018B0002069732025640D0A257300002469002027
:1018C000D80700207E01002000080020704700009B
:1018D00070B5044690F82000012804D0606A40F4F6
:1018E0000020606218E0022084F82000206801686F
:1018F00021F00101016000F0C3FA05460EE000BFCF
:1019000000F0BEFA401B0A2808D9606A40F4003093
:101910006062052084F82000012070BD20684068C6
:10192000C007EDD1606270BD704770477047704767
:101930007047704770472DE9F0410446876D00F00D
:101940009FFA064694F835000025022806D080202C
:10195000606584F834500120BDE8F081206801689A
:1019600021F0160101602068416921F08001416188
:10197000206C08B9A06C20B12068016821F0080132
:1019800001602068016821F0010101600CE000F0B5
:1019900077FA801B052807D920206065032084F88A
:1019A000350084F83450D7E720680068C007EED1CE
:1019B00094F85C103F208840B860012084F835001E
:1019C00084F834500020C7E790F83510022903D07E
:1019D0008021416501207047052180F8351000689D
:1019E000016821F001010160002070472DE9F843F2
:1019F00004464FF00009CDF8009063484FF41651AB
:101A0000A56D0068B0FBF1F72E6894F85C10082013
:101A100000FA01F131420FD021680A6852070BD554
:101A20000A6822F004020A6094F85C108840A860FA
:101A3000606D40F00100606594F85C104FF00108A3
:101A400008FA01F0304208D021684969090604D536
:101A5000A860606D40F00200606594F85C1004209E
:101A60008840304208D021680968890704D5A860F9
:101A7000606D40F00400606594F85C1010208840B0
:101A8000304218D021680968090714D5A860206879
:101A90000168490304D50068000308D5A16C07E07C
:101AA0000168C90503D4016821F008010160216CB7
:101AB00009B12046884794F85C10202088403042C5
:101AC00031D021680968C9062DD5A86094F8350081
:101AD00005282068016806D0490347D5006800033F
:101AE0001DD4616C1CE021F0160101602068416981
:101AF00021F080014161206C08B9A06C20B1206800
:101B0000016821F00801016094F85C103F208840D2
:101B1000A86084F8358084F83490216D1FE0E16B73
:101B200009B120468847606D00282BD0606DC00742
:101B300014D0052084F835002068016821F00101E7
:101B400001600098401C0090B84203D820680068EB
:101B5000C007F6D184F8358084F83490E16C002910
:101B600010D001B02046BDE8F04308470168C90520
:101B7000D5D4016821F01001016084F8358084F823
:101B80003490CCE7BDE8F883800000202DE9F041D7
:101B9000044600F075F906465CB1022084F8350071
:101BA000002584F834502068016821F001010160AB
:101BB0000DE00120BDE8F08100F062F9801B0528EE
:101BC00005D920206065032084F83500F2E72068FD
:101BD0000068C007F0D12268116820480140D4E9AC
:101BE00001031843D4E903363343184363691843A8
:101BF000A3691843E3691843236A18430843616AD9
:101C0000042903D1D4E90B13194308431060206859
:101C10004069666A20F0070130460E430127042818
:101C20000CD1A06A0643E06A40B12046FFF74CF9A8
:101C300020B14020606584F83570BAE720684661BD
:101C40002046FFF72DF994F85C203F2191408160F8
:101C5000656584F835700020ACE700003F8010F027
:101C600070B5044600F00CF90546601C02D004482B
:101C70000078044400F004F9401BA042FAD370BD80
:101C8000740000202DE9F84FDFF8BCA100220125E7
:101C900003264FF00F090AF1040BAAF1040E00BF4E
:101CA0000B6805FA02F42340A34270D10F7907F0C4
:101CB0000307012F01D0022F16D187684FEA42088F
:101CC00006FA08FC27EA0C07D1F80CC00CFA08FC4D
:101CD0004CEA070CC0F808C04768A7430C79C4F366
:101CE000001494403C4344600C79E443A4070AD0B8
:101CF000C4684FEA420C06FA0CF7BC438F6807FA37
:101D00000CF72743C7600C7904F00304022C12D1AE
:101D1000D40800EB840CDCF820405707FF0E09FACA
:101D200007F824EA0804D1F8108008FA07F848EA0E
:101D30000408CCF8208004684FEA420C06FA0CF73D
:101D4000BC430F7907F0030707FA0CF72743076036
:101D50004C6814F4403F70D03C4C276847F48047EF
:101D60002760246822F0030704F480440094384C70
:101D700007EB040CDCF8084897074FEA177809FAD4
:101D800008F7BC43334FB84202D1002724E054E0A7
:101D9000314FB84201D101271EE0304FB84201D186
:101DA000022719E02E4FB84201D1032714E02D4F2E
:101DB000B84201D104270FE02B4FB84201D10527CB
:101DC0000AE02A4FB84201D1062705E0284FB84261
:101DD00001D1072700E0082707FA08F72743CCF8C6
:101DE0000878DAF800405746D1F804C09C435FEA0F
:101DF000CC2C00D51C433C60DBF800405F46D1F89A
:101E000004C09C435FEA8C2C00D51C433C60DEF888
:101E100000407746D1F804C09C435FEA8C3C00D573
:101E20001C433C60084F083F3C68D1F804C09C4309
:101E30005FEACC3C00D51C433C60521C102AFFF4E6
:101E40002FAFBDE8F88F0000083C01404438024045
:101E5000003001400000024000040240000802403F
:101E6000000C024000100240001402400018024022
:101E7000001C02400AB1816170470904FBE70000C1
:101E800001488068704700007400002002488168A3
:101E90000278114481607047740000200B4810B52F
:101EA000016841F400710160016841F480610160E2
:101EB000016841F480710160032000F09FF80F2059
:101EC00000F006F800F050F8002010BD003C024081
:101ED00030B505461F4887B00024016841F0400135
:101EE0000160006806A900F04000009001A800F021
:101EF0004DFE0498A8B100F06FFE40001649174A45
:101F0000B0FBF1F11648491E026040F2E732C0E929
:101F10000324C0E90114846101F0DAF8040003D05D
:101F200015E000F059FEE9E70D4801F02BF9040037
:101F30000DD12B2000F034F8102D07D200222946B5
:101F40002B2000F03BF80748056000E0012407B0B3
:101F5000204630BD4038024040420F00001800408B
:101F6000680A0020780000200C4882B0016841F423
:101F700080410160006800F4804000900748001F25
:101F8000016841F0805101600068002200F080503B
:101F900000900F21901E02B000F010B844380240AB
:101FA000002809DB00F01F02012191404009800058
:101FB00000F1E020C0F8001170470000F0B40E4BB3
:101FC0001B680C46C3F30223C3F10705042D00D997
:101FD0000425191D072901D2002300E0DB1E01267C
:101FE00006FA05F1491E214099409E40761E164092
:101FF0003143F0BC05F0A9B90CED00E0064900F052
:10200000070208684FF6FF03184040EA0220034A1F
:1020100010430860704700000CED00E00000FA0576
:1020200070470068416200207047F0B50368586A45
:1020300039B19C6A4FF4827600EB144400204D1EA7
:102040000AE040EA024098620FE006EB8007DF59A1
:10205000401C04EB1744C0B2A842F6D344EA024045
:102060004FF4807202EB810158500020F0BDD0F88F
:10207000E00403F018BF01EBC10200EB8202D0F8CC
:10208000E004126A03F06DBE01EBC10200EB8202B4
:10209000D0F8E004D2F8602203F0BEBED0F8E0042D
:1020A00003F003BF0A0601F00F0101EBC10100EBD1
:1020B000810101D5143101E001F51571006804F0CA
:1020C000DFBD70B504460B0601F00F0000EBC00148
:1020D00004EB81014FF001024FF0000502D54A7573
:1020E000143103E081F8555201F51571087094F828
:1020F0009404012808D084F89424206804F0DAFAC3
:1021000084F89454002070BD022070BD70B5044660
:1021100001F00F002279904201D9012070BD0B0619
:1021200001F00F0101EBC10104EB81014FF001024D
:102130004FF0000502D54A75143103E081F855527D
:1021400001F515718D70087094F89404012808D079
:1021500084F89424206804F01FFC84F89454002030
:1021600070BD022070BD01F00F0101EBC10100EB59
:102170008100D0F8680270472DE9F04104460F064F
:1021800001F00F0000EBC00104EB81014FF00106EC
:102190004FF0000502D54E75143103E081F8555219
:1021A00001F51571C2F30A0208708A600B714A7852
:1021B00002B14883022B00D14D7194F89404012898
:1021C00009D084F89464206804F0C6F9284684F89D
:1021D0009454BDE8F0810220FBE710B501F00F0434
:1021E00004EBC40100EB8101C1E998230023C1F88D
:1021F000683281F8553281F85442837901F51571BE
:10220000012B00D1CA618279006804F01DFC002016
:1022100010BD70B504460D4601F00F0021798842CB
:1022200001D9012070BD29064FF000064FF00102D0
:1022300006D500EBC00104EB81014A75143107E0BB
:1022400005EBC50104EB810181F8556201F51571BB
:102250008A70087094F89404012807D084F89424B4
:10226000206804F0C5FB280702D007E0022070BDFB
:10227000A17904F29C42206804F062FB84F8946423
:10228000002070BD10B501F00F0404EBC40100EB99
:102290008101C1E9082300238B6201234B7501F8FA
:1022A000144F8379012B00D1CA618279006804F050
:1022B000CBFB002010BD00002DE9FC5F0568044643
:1022C000284604F079FD00287DD1206804F0A0FDA7
:1022D000002878D0D5F80808C0F30D20C4F8D4043D
:1022E000206804F095FD800704D52068416901F05D
:1022F00002014161206804F08BFDC10604F29C409C
:10230000009034D52068816921F0100181612F6A25
:1023100007F00F0000EBC00004EB8006C7F343405A
:1023200006F51576022802D0062811D01AE047F6E5
:10233000F070074216D0C7F30A1217462846F16814
:1023400004F06AFDF0683844F0607069384408E0D1
:1023500008222846009904F05FFD7069C7F30A114E
:10236000084470612068816941F010018161206832
:1023700004F04EFD00034FF0080B4FF0000A4FF041
:1023800001097CD50026206804F021FD074674E091
:10239000F80770D0F1B2206804F032FD8046C00723
:1023A00007D005EB4611C1F8089B3146204602F0E4
:1023B0003FF85FEA087024D505EB4611C1F808BB69
:1023C0002068016C00E023E200EB46100191D0F898
:1023D000082BFB4B994205D9110403D54FF400415A
:1023E000C0F8081B204600F0F6FAF549019888422B
:1023F00007D9A079012804D120680121009A04F0AE
:102400009FFA5FEAC86004D505EB46111020C1F8B9
:10241000080B5FEA88701DD56869000605D5D5F8F8
:10242000040840F48061C5F8041806EBC60004EB0C
:10243000800090F8571200F51570012905D180F839
:1024400003A0F1B2204600F0E9F905EB46110220A5
:10245000C1F8080B5FEA886004D505EB461020211F
:10246000C0F8081B5FEA884005D505EB46104FF41D
:102470000051C0F8081B7F08761C002F88D1206807
:1024800004F0C6FC40036ED5206804F099FC0746B2
:10249000002666E0F80762D0F1B2206804F09EFCE6
:1024A0008046C00723D006F00F01D5F8342809FA7A
:1024B00001F18A43C5F8342805EB4611C1F80899A3
:1024C000A07901280FD106EBC60004EB8000D0E90B
:1024D00007211144016236B9606A20B920680121E0
:1024E000009A04F02DFAF1B22046FFF7C4FD5FEA2E
:1024F000087003D505EB4611C1F808B95FEAC8605A
:1025000004D505EB46111020C1F808095FEA4860C0
:1025100004D505EB46104021C0F808195FEA887021
:1025200016D53146284604F01CFC06EBC60004EB29
:102530008000C17D1430012905D180F803A0F1B2DB
:10254000204600F067F905EB46110220C1F80809A2
:102550005FEA086003D53146204601F0CFFF7F08CF
:10256000761C002F96D1206804F052FC002811DA66
:10257000D5F8040820F00101C5F8041894F8CC043B
:1025800001282BD0204600F00BFA2068416901F0A9
:1025900000414161206804F03BFC00050BD5D5F8F3
:1025A0000808C00702D0204600F03EFA20684169C2
:1025B00001F400614161206804F02AFCC00467D581
:1025C000D5F8040820F00100C5F80408102120689F
:1025D00004F0C7FB00214FF67F3220E084F8CCA442
:1025E00000212046FFF71CFDCFE700BF05EB41109F
:1025F000C0F80829D0F8003923F40013C0F80039D6
:10260000C0F8082BD0F8003B23F40013C0F8003BBF
:10261000D0F8003B43F00063C0F8003B491C207930
:102620008842E3D8D5F81C0840F00111C5F81C1801
:10263000E07B002828460DD0D0F8840840F00B013C
:10264000C5F88418D5F8440840F00B012846C5F8B1
:1026500044180DE0D0F8140842F22B010843C5F8E5
:102660001408D5F8100840F00B012846C5F81018DA
:10267000D0F8000820F4FE61C5F80018A1792068A0
:10268000009A04F05DF92068416901F480514161CC
:10269000206804F0BDFB800415D5206803F09CFF82
:1026A000206804F07CFBE07100F090FA0146E279CA
:1026B000206804F00FFC204600F05CF920684169B6
:1026C00001F400514161206804F0A2FB000707D526
:1026D000204600F069F92068416901F00801416174
:1026E000206804F095FB000616D5A86920F080014B
:1026F000A96101260DE000BF06EBC60004EB8000D7
:1027000090F85702012803D1F1B22046FFF7CAFC26
:10271000761C2079B042EFD8206804F079FBC00223
:102720001FD501264F4614E005EB4610D0F80019DE
:1027300006EBC60004EB8002107E012808D10029B8
:1027400006DAF0B240F08001D7752046FFF7AAFC08
:10275000761C2079B042E7D82068416901F48011E5
:102760004161206804F054FB800234D501204A46C0
:1027700029E000BF05EB4011D1F8001B00EBC003BE
:1027800004EB830393F85862012E1BD1002919DA58
:1027900094F8D46401F4803106F00106B14211D1FD
:1027A00083F85722A96941F08003AB616969090682
:1027B00008D4D5F8040840F40070C5F8040805E012
:1027C0000A30544F401C21798142D3D82068416996
:1027D00001F400114161206804F01AFB400007D5A4
:1027E0002046FFF744FC2068416901F080414161C7
:1027F000206804F00DFB40070AD52068456868078B
:1028000002D52046FFF74AFC206841682943416011
:10281000BDE8FC9FD0F8E00403F099BBD0F8E004D9
:1028200003F0A9BBF8B5040005D094F89504266818
:10283000002510B106E00120F8BD84F8945420462C
:1028400000F056F8032084F89504B6F1A04F00D1AB
:10285000A571206804F06EF8207C8DF8000094E8E3
:102860000F0003F0C7FE0226B8BB0021206804F069
:10287000F2FA90BB002001270DE000BF00EBC00181
:1028800004EB81014F750875C8850D76CD610D6229
:10289000401CC0B24D6221798142EFD8002011E086
:1028A00000EBC00104EB810181F8555281F854021C
:1028B00081F85852C1F85C52C1F86052401CC0B255
:1028C000C1F8645221798142EAD8207C8DF8000059
:1028D00094E80F0003F070FF10B184F89564AAE744
:1028E000657484F89574206803F058FF0020F8BDE3
:1028F00010B586B0044614216846FDF745FE2068F1
:10290000B0F1A04F2FD119480021026842F0010216
:102910000260006800F0010005904FF4C050009084
:102920000220CDE90101032003900A2004906946AA
:102930000F48FFF7A7F90D48001D016841F080011D
:1029400001600A481430016841F480410160006868
:10295000002200F48040059005214320FFF72EFB64
:102960004320FFF71DFB06B010BD000030380240C9
:102970000000024070B50446C079012570B10228FC
:1029800001D0FEF7CCFA2946D4F8E00403F061FB4D
:10299000D4F8E004BDE8704003F016BB0025F2E770
:1029A000D0F8E00403F03EBBD0F8E00403F044BBF1
:1029B00010B5044690F8940401280AD0012084F848
:1029C00094046174206804F074FA002084F894047C
:1029D00010BD022010BDD0F8E02400F29C4110464A
:1029E00003F043BB10B50446006894F89414012921
:1029F00009D0012184F89414C168490609D5617B86
:102A0000012902D005E0022010BD816B41F4803124
:102A10008163206804F083F9206803F0B1FE002090
:102A200084F8940410BD000010B50446D0F8E0040A
:102A300003F05DFB2068D0F8001E41F00101C0F8F2
:102A4000001EE07A002804D00248016841F0060127
:102A5000016010BD10ED00E02DE9F0470E460500C5
:102A600065D0DFF81481D8F80000F7B200F0070055
:102A7000B04207D288F80070D8F8000000F00700D4
:102A8000B04254D128683D4C810712D5400703D588
:102A9000206840F4E05020602878000703D52068C3
:102AA00040F4604020602068A96820F0F0000843EE
:102AB00020602878C0072DD030496868083901287F
:102AC00012D0022813D0032811D0096889070029E1
:102AD0002DDA216821F0030101432160FFF7D0F9CD
:102AE000814641F2883A0EE009688903EFE70968F8
:102AF0008901ECE7FFF7C4F9A0EB0901514502D9C0
:102B00000320BDE8F0872068696800F00C00B0EB96
:102B1000810FEFD1D8F80010404601F00701B14213
:102B200007D90770006800F00700B04201D001200B
:102B3000E7E72878400705D52068E96820F4E050E9
:102B4000084320602878000706D52068296920F40A
:102B5000604040EAC100206000F05EF82168084A49
:102B6000C1F30311515CC84006490860064800687B
:102B7000FFF7AEF90020C4E7003C024008380240ED
:102B80009C87000880000020780000200F2202604F
:102B90000C4A136803F003034360136803F0F00367
:102BA0008360136803F4E053C36012684FF4E0538A
:102BB00003EAD20202610448006800F007000860DE
:102BC0007047000008380240003C0240014800689D
:102BD000704700008000002004480549006809682B
:102BE000044AC1F38221515CC84070478000002034
:102BF00008380240AC8700080448054900680968A5
:102C0000044AC1F34231515CC84070478000002043
:102C100008380240AC870008154810B5006810F06D
:102C20000C02144813D01449042A0FD0082A0ED1DC
:102C30000F4C241F2268236802F03F025B0207D575
:102C40002068C0F38810A0FB010106E0084610BD13
:102C50002168C1F38811A1FB00010023FDF784FB6B
:102C60002168C1F30141491C4900B0FBF1F010BDDE
:102C7000083802400024F400001BB7002DE9F84F8B
:102C800004006ED02078DFF84C93C007A9F104054A
:102C90004AD009F104000168C1F38101012908D07B
:102CA0000068C0F3810002280AD1D9F80000400270
:102CB00006D52868800337D560680028E1D033E066
:102CC0006068B0F5803F10D0B0F5A02F286810D014
:102CD00020F480302860286820F480202860606814
:102CE000A8B1FFF7CDF806460DE0286840F4803023
:102CF000F4E740F480202860F7E700BFFFF7C0F852
:102D0000801B642873D828688003F7D50CE0FFF790
:102D1000B7F8064605E000BFFFF7B2F8801B64284D
:102D2000F0D828688003F7D42078DFF8AC828007D9
:102D30004FF0000A3ED5A748001D016811F00C0FA6
:102D400008D00068C0F3810002280BD1D9F8000038
:102D5000400207D42868800716D5E068012800D112
:102D600012E033E1E068B8B10120C8F80000FFF7D5
:102D700087F8064605E000BFFFF782F8801B0228AF
:102D8000C0D828688007F7D52868216920F0F800A6
:102D900040EAC10028600DE0C8F800A0FFF770F815
:102DA000064604E0FFF76CF8801B02281FD828684D
:102DB0008007F7D42078000722D5864F87486169BD
:102DC000703771B101210160FFF75AF8064604E03F
:102DD000FFF756F8801B022809D838688007F7D516
:102DE0000EE0C0F800A0FFF74BF8064605E082E0D1
:102DF000FFF746F8801B02287DD838688007F7D493
:102E00002078400768D5DFF8CCB100270BF13C0BE8
:102E1000DBF80000C0000BD4DBF8001041F080515B
:102E2000CBF80010DBF80000012700F08050009084
:102E30006B4E3068C00510D4306840F4807030604C
:102E4000FFF71EF8009005E0FFF71AF80099401A06
:102E5000022850D83068C005F6D55E4EA0686C36A2
:102E600001280FD00528306810D020F00100306014
:102E7000306820F004003060A068B8B1FFF700F8B7
:102E800000900FE0306840F00100F4E740F00400EB
:102E90003060F7E7FEF7F4FF0099411A41F28830FD
:102EA000814266D830688007F4D50EE0FEF7E8FF6F
:102EB000009007E0FEF7E4FF0099411A41F28830E4
:102EC000814256D830688007F4D42FB1DBF8001067
:102ED00021F08051CBF80010A069C8B33D49091D0D
:102EE0000968C1F3810102294AD00228504607D05F
:102EF000C8F8600000E03CE0FEF7C2FF04463BE09B
:102F00004746C8F86000FEF7BBFF064605E000BF75
:102F1000FEF7B6FF801B02282BD828688001F7D463
:102F2000D4E907010843A16A2E4A490802EB01418E
:102F3000626A41EA8211084394F82C1040EA016168
:102F4000C9F8001001203866FEF79AFF044606E033
:102F50003EE000BFFEF794FF001B022809D8286856
:102F60008001F7D534E000BFFEF78AFF001B02287E
:102F700002D90320BDE8F88F28688001F4D427E047
:102F80000128F7D0D9F80000E26900F480019142ED
:102F90001CD1226A00F03F01914217D147F6C0715F
:102FA000626A0140B1EB821F10D1A26A4FF0FF3379
:102FB00000F4403103EB5202B1EB024F06D194F81A
:102FC0002C1000F07060B0EB016F01D00120D1E750
:102FD0000020CFE70438024000004742800E4742FD
:102FE000007000400000FFFF7047704710B590F878
:102FF0003C20012A22D0012280F83C20CA688C683B
:1030000022F4407222434C6822F4806222430C680E
:1030100022F4006222430C6922F4805222434C695C
:1030200022F400522243C969002322F480420A4359
:1030300001684A6480F83C30002010BD022010BDB9
:1030400070B590F83C20012A32D0012480F83C4031
:10305000022280F83D2003685A689D6822F07006BD
:103060000A6832435A60134B02689A4214D0B2F194
:10307000804F11D0104B9A420ED0104B9A420BD079
:103080000F4B9A4208D00F4B9A4205D00E4B9A42F2
:1030900002D00E4B9A4204D1496825F080031943AF
:1030A000916080F83D40002180F83C10084670BDDA
:1030B000022070BD000001400004004000080040F4
:1030C000000C004000040140004001400018004096
:1030D00010B5040003D094F83D0010B107E00120C2
:1030E00010BD002084F83C00204600F01FF80220AC
:1030F00084F83D00211D206801F088FF012084F83C
:10310000460084F83E0084F83F0084F8400084F8CC
:10311000410084F8420084F8430084F8440084F8B5
:10312000450084F83D00002010BD000008B500688F
:103130001149884209D11148016841F0010101603B
:10314000006800F00100009008BD0D498842FBD1E5
:103150000A48001F016841F0040101600068002274
:1031600000F00400009005211E20FEF727FFBDE8B7
:1031700008401E20FEF714BF000001404438024002
:103180000008004090F83D10012901D0012070474F
:10319000022180F83D100168CA6842F00102CA604D
:1031A00000681149884214D0B0F1804F11D00F4906
:1031B00088420ED00E4988420BD00E49884208D072
:1031C0000D49884205D00D49884202D00C498842F9
:1031D00004D1816801F00701062903D0016841F09C
:1031E0000101016000207047000001400004004020
:1031F00000080040000C0040000401400040014075
:103200000018004070B5044690F83C0000250128E5
:1032100017D0012684F83C60022084F83D00206825
:10322000826822F0770222F47F4282600868502888
:1032300038D00DDC20284FD005DC90B3102811D1F8
:103240004AE0022070BD302846D040280AD13BE039
:1032500060282FD070280DD0B0F5805F03D0B0F576
:10326000005F12D0012584F83D60002084F83C0006
:10327000284670BDCB68D1E90121206801F032FFFA
:103280002068816841F0770109E0CB68D1E901212C
:10329000206801F027FF2068816841F48041816047
:1032A000E1E719E0CA684968206801F0EFFF5021A2
:1032B000206806E0CA684968206801F0F8FF6021CC
:1032C000206801F019FFCEE7CA684968206801F05C
:1032D000DDFF40212068F4E7226801461046F0E750
:1032E00070472DE9F04104460068C66805694FF053
:1032F0000007A90713D5B10711D5F91E01610120F7
:103300002077206880698007204602D0FFF7E8FF19
:1033100004E000F0A9F8204600F03BF927776807A1
:1033200016D5700714D521686FF0040008610220DB
:1033300020772068806910F4407F204602D0FFF794
:10334000CFFF04E000F090F8204600F022F9277744
:10335000280715D5300713D521686FF008000861DC
:10336000042020772068C0698007204602D0FFF73C
:10337000B7FF04E000F078F8204600F00AF927775C
:10338000E80616D5F00614D521686FF01000086124
:10339000082020772068C06910F4407F204602D0C2
:1033A000FFF79EFF04E000F05FF8204600F0F1F820
:1033B0002777E80708D0F00706D021686FF00100F2
:1033C0000861204600F0E6F8280608D5300606D544
:1033D00021686FF0800008612046FFF705FE68064F
:1033E00008D5700606D521686FF0400008612046B8
:1033F00000F0DAF8A8060AD5B00608D521686FF003
:10340000200008612046BDE8F041FFF7EEBDBDE8B1
:10341000F081000010B586B0044614216846FDF71F
:10342000B3F80E492068884215D10D48016841F073
:10343000100101600068012100F0100005904FF4B8
:10344000206000900220CDE90101CDE90301694629
:103450000448FEF717FC06B010BD00000000014054
:103460003038024000100240704770B5044690F8B2
:103470003C0000260D4601280FD0012084F83C00B6
:103480006AB1042A1DD0082A2FD00C2A3FD0012669
:10349000002084F83C00304670BD022070BD2068DA
:1034A00001F032FE2068816941F0080181612068E5
:1034B000816921F004018161206881692A691143D1
:1034C00011E0206801F050FE2068816941F400613C
:1034D00081612068816921F480618161206881694E
:1034E0002A6941EA02218161D2E7206801F072FE77
:1034F0002068C16941F00801C1612068C16921F0FB
:103500000401C1612068C1692A69114311E0206882
:1035100001F094FE2068C16941F40061C161206836
:10352000C16921F48061C1612068C1692A6941EAE9
:103530000221C161ACE710B5040003D094F83D004E
:1035400010B107E0012010BD002084F83C002046A7
:1035500000F01EF8022084F83D00211D206801F0D3
:1035600055FD012084F8460084F83E0084F83F00B1
:1035700084F8400084F8410084F8420084F8430055
:1035800084F8440084F8450084F83D00002010BD14
:103590007047704700680349884201D1FEF776BC46
:1035A00070470000001800407047704770470000E7
:1035B000F8B5016804460868CA684B6910F00F0F37
:1035C0004FF0000559D003F0010602F4907737431D
:1035D00065D0C10705D0D10503D5616C41F001016B
:1035E0006164410705D5D90703D0616C41F0020140
:1035F0006164810705D5D90703D0616C41F00401EE
:103600006164010707D502F02001314303D0616CEA
:1036100041F008016164616C00293AD0800604D54C
:10362000900602D5204601F083FE20684069616C57
:10363000C0F38010090700D460B3204601F051FEAA
:1036400020684069400621D52068143050E8001FEA
:1036500021F0400140E80012002AF5D1E06BA8B14A
:103660006E490165E06BFEF7AFF9002811D0E06B01
:10367000016D01B0BDE8F040084783060FD5930601
:103680000DD52046BDE8F84001F052BE2046FFF7B8
:103690008DFFF8BD2046FFF789FF6564F8BD266BF6
:1036A0002023012E7DD1C6067BD5D60679D50868A4
:1036B0004868009048694FF00206400641D5E16B2A
:1036C000086840680004000CE8D0A28D8242E5D969
:1036D000E085C869B0F5807F2DD020680C3050E8B7
:1036E000001F21F4807140E80012002AF5D1206803
:1036F000143050E8001F21F0010140E80012002AB8
:10370000F5D12068143050E8001F21F0400140E856
:103710000012002AF5D184F84230256320680C306D
:1037200050E8001F21F0100140E80012002AF5D1F6
:10373000E06BFEF700F96663A08DE18D401A81B25F
:103740002AE0A08DE18D401A81B2E08D0028A5D03D
:103750000029A3D022680C3252E8000F20F49070A8
:1037600042E80007002FF5D12068143050E8002F00
:1037700022F0010240E80027002FF5D184F8423002
:10378000256320680C3050E8002F22F0100240E83A
:103790000023002BF5D166632046FFF706FFF8BD36
:1037A000FFE705062BD5150629D594F841002128F9
:1037B000F5D1A068B0F5805F01D12069B0B1206A71
:1037C000411C2162216800784860E08C401E0004A2
:1037D000000CE084E3D12068C16821F08001C16061
:1037E0002068C16841F04001C160D8E7206A0088C4
:1037F000C0F308004860206A801C2062E5E74006AC
:10380000CDD55006CBD5CA68204622F04002CA600A
:1038100084F8413000F0F1F8C1E70000D35200080D
:1038200070B5040004D094F84100002510B106E002
:10383000012070BD84F84050204600F023F8242079
:1038400084F841002068C16821F40051C16020461D
:1038500001F0D0FD2068016921F4904101612068E8
:10386000416921F02A0141612068C16841F4005199
:10387000C1606564202084F8410084F842006563DB
:10388000002070BD2DE9F04F87B006461421684630
:10389000FCF77AFE5148504D316802220323002480
:1038A00007154FF4807A4FF4403BA94238D14B4979
:1038B00010310D6845F480250D60096801F4802100
:1038C0000591016841F0040101600068694600F05B
:1038D0000400059098028DE815000720CDE903301B
:1038E0003F48FEF7CFF9404D3E4805F118012860EA
:1038F0007804C5E90104C5E903476C6181E8100C4F
:1039000028466C62FEF742F908B1FDF708FBF56343
:10391000002205212720AE63FEF750FB272056E04A
:10392000324DA94255D12D4914310D6845F020057D
:103930000D60096801F020010591016841F0400126
:1039400001600068694600F0400005904FF4844033
:103950008DE815000820CDE903302548FEF792F9DF
:10396000214D244860354FF020692860C5E9019455
:10397000C5E903476C61C5E9064AC5E908B4B8461C
:103980005F462846FEF702F908B1FDF7C8FAF5636D
:10399000AE63154D1748C0357830E5E80209402080
:1039A000A5E81101104845F81449C030AC61C5E9DB
:1039B00007476C62FEF7EAF808B1FDF7B0FAB563A5
:1039C000002205214720AE63FEF7F8FA4720FEF7F4
:1039D000E7FA07B0BDE8F08F0048004030380240F9
:1039E00000080240286002404809002000140140FD
:1039F000001802402864024070477047FEE700004C
:103A0000F0B500230A24302537261F4611E000BFF9
:103A1000B4EB107F02D905EB107C01E006EB107CC3
:103A200001F813C001EB430C00015B1C8CF8017022
:103A3000DBB29342ECD3F0BD104810B50E490160E3
:103A40000321416000214FF410228160C0E903127C
:103A50004FF4001242610176012242768276C276EC
:103A600001774177FDF763FD002803D0BDE81040E2
:103A7000FDF755BA10BD000000640040D8070020D3
:103A8000104810B50E4901600321416000214FF438
:103A900010228160C0E903124FF40012426101223A
:103AA000027641768276C27601774177FDF73FFD57
:103AB000002803D0BDE81040FDF731BA10BD00006A
:103AC0000068004000080020154808B5016841F46E
:103AD00080010160016801F480010091016841F4F6
:103AE000001101600068002200F400100090052120
:103AF0000C20FEF763FA0C20FEF752FA0022052193
:103B00003920FEF75BFA3920FEF74AFA0022052138
:103B10004520FEF753FABDE808404520FEF740BABD
:103B20003038024010B596B01C2211496846FCF7A7
:103B3000D7FC0021684603F059FC0E4C0C491C22AE
:103B400020601C3107A8FCF7CBFC002107A803F07C
:103B50004DFC074960601C2238310EA8FCF7C0FC00
:103B600000210EA803F042FCA06016B010BD0000BA
:103B7000408700080000002070B586B01421684618
:103B8000FCF702FD26480024016841F002010160B3
:103B9000016801F002010591016841F040010160F6
:103BA000016801F040010591016841F001010160E7
:103BB000016801F001010591016841F0080101600F
:103BC000016801F008010591016841F004010160FC
:103BD000016801F004010591016841F08001016074
:103BE000016801F080010591016841F01001016058
:103BF00000680C4E00F010004FF4C05505900022F4
:103C000029463046FEF736F901200095CDE901043A
:103C1000694630460394FEF735F806B070BD0000E3
:103C200030380240001C024010B596B000240F94BA
:103C300010941194129413941C2168461494FCF768
:103C4000A3FC202107A8FCF79FFC2D482B4901600D
:103C5000A721C0E9011444F61F61C0E903144461BF
:103C60008461FFF735FA08B1FDF759F94FF4805038
:103C70000F900FA92248FFF7C5FA08B1FDF74FF9D9
:103C80001F48FFF758FC08B1FDF749F9139413A931
:103C90001B481494FFF7D4F908B1FDF740F96020F0
:103CA00000904FF4FA60CDE9010403940494059464
:103CB0000022694612480694FFF7D7FB08B1FDF7CA
:103CC0002EF9042269460E48FFF7CFFB08B1FDF735
:103CD00026F90794089409944FF400500A94CDE90A
:103CE0000B4007A906480E94FFF780F908B1FDF7CD
:103CF00016F90348FFF78EFB16B010BD0000014017
:103D00002808002010B586B00024174800940194BC
:103D100002940394049413490594016044F2A011A1
:103D2000C0E9011441F28831C0E903148461FFF74E
:103D3000CFF908B1FDF7F3F84FF4805000906946D1
:103D40000948FFF75FFA08B1FDF7E9F8049404A900
:103D500005480594FFF774F9002801D0FDF7DFF856
:103D600006B010BD00080040700800200D4810B5D6
:103D70000B4901600C49416000214FF48062816071
:103D8000C0E903120C22C0E90521C161FFF748FD1B
:103D9000002803D0BDE81040FDF7C1B810BD0000F9
:103DA00000480040B8080020A08601000C4810B56B
:103DB0000A4901604FF461214160002181600C22B9
:103DC000C160C0E904128161C161FFF729FD0028CB
:103DD00003D0BDE81040FDF7A2B810BD00140140AB
:103DE0000009002010B500220F49104801F094FF8F
:103DF00008B1FDF794F80E490C4802F0A4F908B197
:103E0000FDF78DF80B49094801F052FD08B1FDF7A7
:103E100086F8064802F01AFA002803D0BDE81040E0
:103E2000FDF77DB810BD000010000020B00A002092
:103E3000DC00002060000020FEE7000070B50400F8
:103E400037D0742003F0A2FC050032D0206828602F
:103E50002068C4F8250094F8240085F8280094ED23
:103E6000020A154885ED020A94ED030A85ED030A5E
:103E700094ED040A85ED040A94ED050A85ED050A22
:103E800094ED060A85ED060AC4F83250C4F82E00F7
:103E900004F12500FCF7F2FC686204F1380000F040
:103EA00098FCE86204F1640000F093FC2863284663
:103EB00070BD002070BD0000D141000810B50400A5
:103EC00006D0A06820B1A07920B1012809D011E066
:103ED000002010BD84ED0C0AD4ED050AE06800F066
:103EE0005FFB84ED0D0AD4ED060A206900F058FB53
:103EF00084ED0E0A012010BD10B5002871D0D0F855
:103F00003B10B1F91C2002B1CA83828D52BA12B2A1
:103F10008A83C38D5BBA1BB200EE103AB8EEC00ABA
:103F200081ED080A038E5BBACB8490F8320000EE74
:103F3000900AF8EE600AC1ED0A0AD1ED0B0A80EE94
:103F4000201A81ED061AB1F91E00824203DA101A16
:103F500000F5005202E0121AA2F50050002A01DB1F
:103F6000134600E05342041E00DA4442A34202DA40
:103F7000888C104401E08A8C10448884224A00B264
:103F800010445200904201D900208884B1F92400E5
:103F90009FED1E0A0BE000BF01EE100AB8EEC11A39
:103FA00000EE801ABDEEC11A11EE100A00B2002810
:103FB000F2DB60EE801A00BF01EE100AB8EEC11A03
:103FC000F4EEC11AF1EE10FA0CD201EE100AB8EEBE
:103FD000C11A00EEC01ABDEEC11A11EE100A00B2ED
:103FE000EAE70FE000EE100A9FED091AB8EEC00AEA
:103FF00020EE010A80EE201A9FED060A31EE400AFB
:1040000081ED050A10BD0000FAFFFF000000004628
:10401000D40F493ADC0F4940F0B5204B00241D78FD
:104020001F4B36E053F82460B768D7F804C08C45BE
:104030002ED13F8C87422BD196ED0E0A7779BDEEBB
:10404000C00A052F02EB470710EE106A4FEA16264A
:104050000FD207F8026C53F8247097ED0E0A7F799F
:10406000BDEEC00A02EB470710EE106A07F8016CBC
:104070000EE007F80A6C53F8247097ED0E0A7F796A
:10408000BDEEC00A02EB470710EE106A07F8096C94
:10409000641CAC42C6DB0120F0BD000081010020A1
:1040A0002C69002070B5040003D01F4E30780C2816
:1040B00001D3002070BD3C2003F068FB05463C2185
:1040C000FCF762FA20682860207928716079A8716D
:1040D00094ED060A85ED0B0A2079F0B1A07B68719A
:1040E00004F11C0000F075FBE86004F1480000F0EA
:1040F00070FB28612068C4F807000C48C4E9040577
:10410000E01DFCF7BBFBA86050B10949307841F8CD
:104110002050401C3070284670BDE089001FDEE74B
:10412000284603F0B1FCC4E781010020F93E0008F5
:104130002C69002010B504000ED0A36863B1596843
:10414000188C03F12202FFF767FFA068FCF722FE3C
:10415000002800D0012010BD002010BD18B1406A19
:1041600008B1042901D300207047054A02EBC101C0
:104170000A6840F8222F496841600120704700001A
:104180008201002010B504000ED0606A60B194F87E
:104190003410012908D1002140F8221F416094F811
:1041A000280018B1012808D0002010BD84ED1A0A9B
:1041B000D4ED140AE06A00F0F3F984ED1B0AD4EDA3
:1041C000150A206B00F0ECF984ED1C0A012010BDEB
:1041D00070B5002875D000F12C05D0F83B40287848
:1041E000000984F83400B5F8010040BAA063E9780A
:1041F0002A79090141EA1211E1632A79697902F009
:104200000F0241EA0221216494ED130A102184ED8A
:10421000110A94ED140A84ED120AD4ED020AB1EEEB
:10422000600A03F099FB84ED130ADFED3E0A3E4974
:1042300002E000BF30EE600A10EE100A8842F9DC9E
:104240003A4900BF10EE100A884202D930EE200A27
:10425000F8E784ED140AD4ED030A0C21E06BB1EE0B
:10426000600A03F079FB84ED150AD4ED040A0C21F1
:10427000206CB1EE600A03F06FFB84ED160AA8799A
:1042800000EE100AB8EE400A84ED170AE87900EE55
:10429000100AB8EE400A84ED180AD4ED130A94ED22
:1042A000110AF4EEC00AF1EE10FA0BD294ED021AE4
:1042B00030EE811A31EE401ABDEEC11A11EE100A2D
:1042C0000AE02EE030EEC01ABDEEC11A11EE100A5F
:1042D00094ED021A70EEC10A002830EEC00ABDEE5D
:1042E000C00A10EE101A01DB024600E0424200292B
:1042F00000DA4942D4ED190A8A4201DA00EE100AC6
:104300000B49B8EEC00A30EE800A84ED190AB0EE0F
:10431000C00A10EE100A884203DD9FED060A84ED04
:10432000190A70BDDC0FC940DC0F4940DC0F49C0E1
:10433000FAFF7F4B000000002DE9F04104002DED55
:10434000028BB0EE418AF0EE608A05D0606A18B147
:1043500094F83400012804D00020BDEC028BBDE8A5
:10436000F08194ED021A1020F1EE410A02F0FDFFF7
:1043700094ED031A07460C20F1EE410AB0EE680AEC
:1043800002F0F3FFDFED228A064694ED051A94ED64
:10439000070A0C20F0EE680A02F0E7FF054694EDEC
:1043A000061A94ED080A0C20F0EE680A02F0DDFF10
:1043B00094ED041A80460C20F1EE410AB0EE480A52
:1043C00002F0D3FF626A390A82F82210616A81F82A
:1043D0002370626A310982F82410626A310141EA6D
:1043E000152182F82510616A81F82650626A4FEA29
:1043F000181182F82710626A4FEA081141EA102169
:1044000082F82810616A81F829000120A5E70000E0
:104410000000000018B1406A08B1FCF7BBBC0020E6
:104420007047FEE70148FDF747BF0000AC210020C0
:104430002DE9F04103680D4604461E6C03EB45115F
:10444000D1F8080B94F806E04FF400474FF0200C29
:1044500004F29C42BEF1010F09D0DFF898E07645E6
:1044600039D1020432D500BFC1F8087B3FE0224BAE
:104470005FEA007E04D59E4239D90004F4D436E0C8
:104480005FEA806E02D5C1F808CB30E010F0280F4B
:104490002DD19E4201D90004E6D405EBC50004EB02
:1044A0008000D1F8101BD0F87432C1F31201591AF0
:1044B000C0F8681200F51570ADB903691BB1C26888
:1044C0001144C1600FE0012120680AE080060AD58E
:1044D000C1F808CB07E035B9D4F8640218B9002157
:1044E000184602F02DFAE9B22046FDF7CDFD002076
:1044F000BDE8F0810A31544F0A30544F2DE9F84F8E
:104500000E4601EBC60100EB810481460568D4E943
:1045100009101434884202D90120BDE8F88F081A26
:10452000A168814200D20846C01C870805EB4618E6
:104530001BE000BFA0EB010AA068504500D28246F4
:104540000AF10300870899F8060000901FFA8AF321
:10455000F2B22846E16802F031FDE16801EB0A00A1
:10456000E060616901EB0A006061D8F8180980B267
:10457000B84205D3D4E90401814201D20028D9D13F
:10458000D4E90401884208D806F00F0101208840D0
:10459000D5F834188143C5F834180020BDE7000071
:1045A00010B504462DED088BB0EE401A90F8580077
:1045B0009FED6D0A00287CD084ED0B1AC4ED0D0A26
:1045C000D4ED071AF5EEC01AF1EE10FA18D0B6EED7
:1045D000002A71EE602A21EE822AF4EEC22AF1EE60
:1045E00010FA02DD70EEA10A08E0B1EE422AF4EE04
:1045F000C22AF1EE10FA03D270EEE10AC4ED0D0A00
:1046000071EE600AC4ED0F0A94ED061AF0EEE00AAE
:10461000F4EEC10AF1EE10FA01D284ED0F0AD4EDE6
:10462000000AD4ED0F8AB0EE401A60EEA80AB0EE90
:10463000E88AC4ED110A94ED080AB4EEC08AF1EEDE
:1046400010FA04D3B5EEC00AF1EE10FA02D1B7EEBB
:10465000001A29E0B4EEC08AF1EE10FA24DD94EDE0
:10466000099AB4EEC98AF1EE10FA1DD239EE400A69
:1046700010EE100A03F0E8FF41EC1A0B18EE100AD6
:1046800003F0E2FF41EC1B0B19EE100A03F0DCFF14
:1046900053EC1B2B03F0EEFE53EC1A2B03F03EFD04
:1046A00003F062FC01EE100A94ED010A60EE280AA4
:1046B00000E049E094ED120A00EE810A84ED120A4E
:1046C00094ED041AF1EE410A00F073F884ED120A39
:1046D00094F82800D8B3D4ED0D0A94ED0E1A70EEBC
:1046E000C10A94ED021A61EE600A00BFC4ED130A1C
:1046F000D4ED0B0A94ED0C1A70EEC10A94ED031A76
:1047000060EE810AC4ED140A94ED111A31EE000A2C
:1047100094ED131A30EE010A30EE200A84ED150AEA
:1047200094ED051AF1EE410A00F043F884ED150A04
:10473000D4ED0F0AC4ED100AD4ED0B0AC4ED0C0A37
:10474000D4ED0D0AC4ED0E0ABDEC088B10BDFFE7D9
:10475000D4ED0F0A94ED101A70EEC10A94ED021A0E
:1047600060EE810AC2E7000000000000002815D0BA
:1047700000219FED0B0A80F8581080ED120A80EDA1
:10478000150A80ED0F0A80ED100A80ED0B0A80ED0E
:104790000C0A80ED0D0A80ED0E0A01207047000022
:1047A00000000000002803D0012180F858100846BE
:1047B0007047B4EEE00AF1EE10FA02D2B0EE600AF1
:1047C0007047B4EEC10AF1EE10FAF9DDB0EE410A1D
:1047D000704770B5050027D05C2002F0D7FF044673
:1047E0005C21FBF7D1FE0CB395ED000A84ED000AC5
:1047F00095ED010A84ED010A95ED020A84ED020AA5
:1048000095ED030A84ED030A95ED040A84ED070A89
:10481000D5ED050A95ED060AF4EEC00AF1EE10FAA0
:1048200008DD84ED040A07E0002070BD204603F097
:104830002BF9F9E7C4ED040A95ED060A84ED050AA3
:1048400095ED070A84ED060AD5ED090AF5EEC00AD2
:10485000F1EE10FA06D095ED080AB4EEE00AF1EE9A
:1048600010FA06DD95ED080A84ED080A95ED080AB0
:1048700003E084ED080A95ED090A84ED090A95F82C
:10488000280084F82800012084F85800204670BDD4
:1048900030B5144B1C68656945F0400565611B68BF
:1048A000DC6844F01004DC600F4B1C68256825F0C0
:1048B000010525601C682568ED07F7D11D680B4CC4
:1048C000AC601C68E0601868016118684260186894
:1048D000016841F4802101601868016841F001011C
:1048E000016030BDB808002048090020044800409D
:1048F000264818B400680168890604D50168406834
:10490000009018BC704722490968C906F9D50168AA
:104910004068204A0090106801684FF024030C039F
:104920001D49046824F00104046016D4106844682A
:10493000C4F12404A4B20C8043601068016841F4FF
:10494000002101601068016841F001010160122C32
:10495000D7D1124901F1230015E014686068C0F155
:10496000240080B2088063600D498B6A23F4002321
:104970008B6211680A6842F001020A601228C0D1F5
:10498000064901F1470018BC02F08CBFB8080020AE
:1049900000480040480900207C01002038680020C1
:1049A0000060024010B5054C2068C06AFFF7FAFEAF
:1049B0002068006BBDE81040FFF7F4BE380200200D
:1049C0002DE9F04107460B4815460E46007808B918
:1049D00002F042FBEFF31184202080F311882A4675
:1049E0003146384600F008F8E1B281F31188BDE89D
:1049F000F08100008063002070B50E46144900EB82
:104A0000400001EBC0051446E86A183520B10128C2
:104A10000FD0022805D113E0284602F04FFBA04238
:104A200001D2002411E022463146284602F06CFCF7
:104A30000BE0284602F042FBA042F4D20446F2E723
:104A40003146284602F033FC0446204670BD000083
:104A5000806300200FB408B504A900916A46039949
:104A600000F003F801B05DF814FB2DE9F04198B0B7
:104A7000064607A8029040200025CDE90305CDE9B0
:104A8000055690460C4614F8011B002973D02529C1
:104A900008D002A802F0ECFB05980028F3DA18B061
:104AA000BDE8F081002001212278232A1ED02B2A84
:104AB00019D02D2A02D0302A08D102E040F001009E
:104AC00001E040F00200641C0029EDD100222178B1
:104AD000A1F130030A2B0CD202EB820201EB42025D
:104AE000303A641CF3E740F00400ECE740F00800C3
:104AF000E9E70023CFB22E2F0BD114F8011FA1F14B
:104B000030070A2F05D203EB830301EB4303303B4D
:104B1000F3E76C290DD068290BD0702954D00BDC39
:104B2000252916D0582931D063290CD0642913D1F6
:104B300014E014F8011FECE7732934D075291BD059
:104B4000782909D122E0D8F80000011DC8F800102A
:104B5000017802A802F08CFB641C9DE7D8F80010D5
:104B60000F1DC8F800700968CDE900200A2202A8CC
:104B700002F0B0FAF0E733E0D8F800100F1DC8F8E3
:104B800000700968CDE900200A2208E0D8F800107A
:104B90000F1DC8F800700968CDE90020102202A896
:104BA00002F0FCFAD8E7D8F80000011DC8F80010A0
:104BB000076817F8011B0029CED002A802F058FBA5
:104BC00005980028F5DAC7E7D8F80000011DC8F8F5
:104BD000001001680820CDE9000503461022DEE739
:104BE000059800287FF75BAF049820B1024607A91B
:104BF0003046FFF7E5FEDDE90410084405904EE776
:104C00000178407841EA00207047000070B5244DDB
:104C10000446DFED220A2868224A90ED1A0A03E0D2
:104C200030EE200A80ED1A0A10EE101A9142F7D8E1
:104C30001D4A00BF10EE101A914204DD30EE600AEA
:104C400080ED1A0AF6E7FFF79DFA2868174B012155
:104C500090ED1A0AD0ED140A30EE600AB0EEC00AE8
:104C600010EE102A9A4203DA21710020208170BDD3
:104C70002279002AFBD1228940F6C413521C92B239
:104C800022819A42F3D96171217190ED1A0ADFED08
:104C9000080A30EE200A80ED1A0A70BDDC0FC94008
:104CA00038020020DC0F49C0DC0F4940295C0F3D71
:104CB000930A063FC17811B1817800290FD10849C4
:104CC000DFED080A096891ED1A0A30EE600A81EDFD
:104CD0001A0A002101710122C2708270417070476E
:104CE00038020020930A063F0C499FED0B0A0A6820
:104CF00082ED1C0A4189491C89B24181B1F5FA7FD4
:104D000008D90021418192ED190A82ED1A0A018128
:104D1000417141707047000000000000380200201F
:104D20000349C97A032901D000F0D6B800F0BCB815
:104D3000386800202DED028B4748FFF77FF8464C7E
:104D40000021241F2060FFF709FA09E0FFF762FB4A
:104D5000206890ED140A80ED1A0A012002F03AFB57
:104D6000206890ED1A0AB5EEC00AF1EE10FAEDD007
:104D7000394F0026394D903706EB4600C0EB461000
:104D800007EB8000FFF78EF945F82600761C062E0B
:104D9000F2DB334E9FED338AB07A03281AD000201D
:104DA00055F82010401C062881ED0E8AF8DB286893
:104DB000FFF7C0F92869FFF7BDF928481038FFF759
:104DC000AFFF26481038007828B3012828D00228E1
:104DD00031D12CE0DFED248A2868B0EE680AFFF7B5
:104DE0006DF8B0EE680A6868FFF768F8B0EE680A18
:104DF000A868FFF763F8B0EE680AE868FFF75EF8A6
:104E0000B0EE680A2869FFF759F8B0EE680A6869D9
:104E1000FFF754F8CBE71148103800F05DF80AE0CE
:104E20000E48103800F022F800F062F803E00B485A
:104E30001038FCF715F82068B0EE480A90ED1C1AFF
:104E4000F0EE400AFFF778FA2068FFF7E3FA012056
:104E500002F0C0FAA0E700003C0200206C690020CC
:104E6000386800200000000000B09AC50349C97AE4
:104E7000032901D100F004B8704700003868002011
:104E80000849B1F90810B1F5FA7F01DD827832B135
:104E90006331C72902D2002181704170704701211E
:104EA000FBE700003868002010B5044600780128B0
:104EB0000FD02046FBF7D4FF0648006890ED190A92
:104EC00080ED1A0A012020702046BDE81040FFF74F
:104ED00069BD10BD3802002010B5044600780228D4
:104EE00004D02046FBF7BCFF0220207010BD00005C
:104EF0000848407830B1012807D0032808D1054878
:104F0000FFF7F2BE0348FFF781BE0248FFF7D2BEAB
:104F1000704700005C690020FEF764FF012002F08A
:104F200059FAFBE710B5502080F31188BFF34F8F7B
:104F3000BFF36F8F02F050FF18B104494FF080505B
:104F40000860002080F3118810BD000004ED00E02F
:104F500030B593B030216846FBF716FB14210CA83E
:104F6000FBF712FB1D480025016841F080510160EC
:104F7000006800F0805011901948016841F48041A8
:104F800001600068022400F480401190012000902C
:104F9000000401908001CDE9064006200890A82079
:104FA000CDE9090407200B906846FDF767FE08B1BC
:104FB00072B6FEE70CA90F2081E831004FF4A05033
:104FC0000F904FF48050109005210CA8FDF744FD80
:104FD000002801D072B6FEE713B030BD4038024061
:104FE000007000400248016841F4700101607047A0
:104FF00088ED00E00148FEF774B900007008002059
:105000000148FEF76EB90000680A0020F0B502689A
:10501000294C2A4D2A4E2B4F2B4B4FF0804CA0424F
:1050200009D0604507D0A84205D0B04203D0B842AD
:1050300001D0984204D122F0700E4A6842EA0E0272
:10504000A0421BD0604519D0A84217D0B04215D05D
:10505000B84213D0984211D01C4DA8420ED01C4D1E
:10506000A8420BD01B4DA84208D01B4DA84205D02A
:105070001A4DA84202D01A4DA84203D122F440751D
:10508000CA682A434D6922F080022A4302608A6876
:10509000C2620A688262A04201D0984201D10969C5
:1050A0000163012141610169C90703D0016921F050
:1050B00001010161F0BD000000000140000400405A
:1050C00000080040000C0040000401400040014086
:1050D000004401400048014000180040001C00400E
:1050E0000020004010B5846842EA032224F47F4483
:1050F0000A432243826010BD826822F070020A4394
:1051000042F0070181607047F0B5036A026A22F03D
:105110000102026242688469124E24F073050C6831
:105120002C4323F002058B682B430D4DA84201D080
:10513000B04205D123F00807CB683B4323F00403BA
:10514000A84201D0B04205D14D6922F44072154306
:105150008A692A4342608461496841630362F0BD01
:105160000000014000040140F0B5026A036A23F028
:1051700010030362436884690D6824F4E64444EA3A
:1051800005248D6822F0200242EA05120F4D104ED0
:10519000A84201D0B04206D1CF6822F0800242EA94
:1051A000071222F04002A84201D0B04207D14D6957
:1051B00023F4406343EA85038D6943EA8503436032
:1051C0008461496881630262F0BD00000000014013
:1051D00000040140F0B5026A036A23F4807303629D
:1051E0004368C46922F4007224F073050C68124EFF
:1051F0002C438D6842EA05220E4DA84201D0B042F0
:1052000006D1CF6822F4006242EA072222F48062CB
:10521000A84201D0B04207D14D6923F4405343EA7C
:1052200005138D6943EA05134360C4614968C1638E
:105230000262F0BD000001400004014030B5046A84
:10524000026A22F4805202624268C3690D6823F444
:10525000E64343EA05238D6824F4005444EA053408
:10526000084DA84202D0084DA84204D14D6922F44D
:10527000804242EA85124260C36149680164046267
:1052800030BD0000000001400004014010B5036A79
:10529000046A24F001040462846924F0F00444EAFE
:1052A000021423F00A020A438461026210BD10B5A1
:1052B000036A046A24F010040462846923F0A003E2
:1052C00024F4704444EA023243EA0111826101622B
:1052D00010BD10B5806B0021C185C184FEF766F951
:1052E00010BD01680C3151E8002F22F4907241E8A2
:1052F0000023002BF5D10168143151E8002F22F072
:10530000010241E80023002BF5D1016B012909D1ED
:1053100001680C3151E8002F22F0100241E800230F
:10532000002BF5D1202180F8421000210163704745
:1053300008B590F84210222901D0022008BD8268E9
:105340004FF480539A4201D1016921B1816A9A4296
:105350001BD04AB10AE00268816A5268C2F30802AF
:105360000A80816A891C08E0026972B10268526889
:1053700002F07F020A70816A491C8162C18D491E58
:105380000904090CC18503D01BE002685268F1E7EB
:105390000168CA6822F02002CA600168CA6822F463
:1053A0008072CA6001684A6922F001024A612021C4
:1053B00080F8421000214163026B012A03D0FEF7FE
:1053C0001BFB002008BD016301680C3151E8002F70
:1053D00022F0100241E80023002BF5D101680A6891
:1053E000D20602D50A6849680091818DFEF7DDF882
:1053F000E7E7000070B5044600680169E26821F43F
:105400004051114301612169A068E2690843616963
:10541000114308432168CA6849F20C639A43024366
:10542000CA6020684169A26921F440711143416159
:1054300031492068884202D03049884202D1FDF7C4
:10544000DBFB01E0FDF7C8FBE269002319216425BD
:105450003226B2F5004F626828D0A0FB0101930FFD
:105460009200FAF781FF0146B0FBF5F06FF01802E9
:10547000504301EB800006EB0010B0FBF5F000F0AC
:10548000F002B1FBF5F002EB0012B1FBF5F06FF0AA
:105490001803584301EB800006EB0010B0FBF5F059
:1054A00000F00F0021681044886070BDA0FB01016E
:1054B00092185B41FAF758FF0146B0FBF5F0020184
:1054C000B1FBF5F06FF01803584301EB800006EBD9
:1054D000C000B0FBF5F000F0F80002EB4002B1FBB9
:1054E000F5F0584301EB800006EBC000B0FBF5F08F
:1054F00000F00700D6E70000001001400014014052
:1055000010B5FFF7F5F9BDE810400148FEF750B8B7
:10551000B80800200148FEF74BB800000009002041
:105520002DE9F0410C46D0F8D412D0F8C82200EB97
:105530008101D1F8C01229B304F00F0606EB8603EF
:1055400000EB83050027AB694BB106EBC60602EB07
:105550008602D269B3FBF2F602FB1632A2B1C1F8A1
:105560001472D0F8D42200EB8200D0F8C402036990
:105570002BB1D1F80802224601F5047198470020AA
:10558000BDE8F0810320FBE700231A462146AF6106
:1055900000F0BAFDF3E770B50546D0F8D40205EB8C
:1055A0008000D0F8C04294B1284600F08DFCC4F8C9
:1055B0000C02D5F8D412D4F8040205EB8101D1F81D
:1055C000C412CA6804F503719047002070BD03201F
:1055D00070BD000070B5224D0446297800F0B8FB7C
:1055E0002878002600F00F0000EB800004EB80001C
:1055F00086846978204600F0ABFB687800F00F00E5
:1056000000EB800004EB8000A0F86461A9782046DC
:1056100000F09EFBA87800F00F0000EB800004EB88
:1056200080008684C684D4F8D40204EB8000D0F8CD
:10563000C01299B1D0F8C40240688047D4F8D402AF
:1056400004EB8000D0F8C00200F081FFD4F8D4024F
:1056500004EB8000C0F8C062C4F8BC62002070BDDA
:105660008800002010B5D0F8D41200EB8100D0F8EB
:10567000C04284B1D0F8C41259B194F80002FF2896
:1056800007D08B6894F8012221469847FF2084F8C0
:105690000002002010BD032010BD00000A2101807F
:1056A000004870478C00002070B5064682210C48E7
:1056B00000F0D1FA05460121094800F0CCFA044671
:1056C0008121074800F0C7FA0DB11021A9714021CE
:1056D00004B1A18000B1818043203080004870BDBA
:1056E0009800002070B5064682210D4800F0B3FAFC
:1056F000054601210A4800F0AEFA04468121084817
:1057000000F0A9FA0DB11021A9714FF4007104B194
:10571000A18000B1818043203080014870BD00002D
:105720009800002070B5064682210C4800F093FADC
:1057300005460121094800F08EFA044681210748F8
:1057400000F089FA0DB11021A971402104B1A180A6
:1057500000B1818043203080004870BD9800002057
:105760002DE9F04704464FF40775284600F0F0FE97
:1057700006004FF0000863D02946FAF705FFD4F879
:10578000D4023C4D04EB80004FF01009C0F8C06219
:10579000C4F8BC62207C4FF4007A0127F0B34023A8
:1057A00002222978204600F0FAFB2878402300F0F6
:1057B0000F0000EB800004EB8000878402226978F0
:1057C000204600F0ECFB6878082300F00F0000EBA7
:1057D000800004EB80000322A0F86471A9782046C1
:1057E00001F00F0101EB810104EB8101A1F826908A
:1057F000A97800F0D4FBA87800F00F0000EB80003F
:1058000004EB80008784C6F80482D4F8D4024746AB
:1058100004EB8000D0F8C402006800E018E006F550
:10582000017680473761776132687AB1207CF8B1C0
:1058300040236978204600F0BEFB0020BDE8F087D9
:10584000D4F8D41204EB8101C1F8C0820220F5E73C
:10585000534602222978204600F0A1FB28785346BF
:1058600000F00F0000EB800004EB80008784A5E7C8
:105870005346DEE78800002010B5D0F8D41200EBC4
:105880008101D1F8C01259B1027C084C002AD1F82C
:10589000042207D04023617800F08DFB002010BD6A
:1058A000032010BD4FF40073F5E7000088000020CE
:1058B00039B1D0F8D42200EB8200C0F8C412002025
:1058C000704703207047D0F8D42200EB8200D0F854
:1058D000C00218B1C0F804120020704703207047BE
:1058E000D0F8D43200EB8300D0F8C00228B1C0F861
:1058F0001022C0F8081200207047032070472DE9DD
:10590000FC410646D0F8D4020C4606EB800000218C
:10591000D0F8C0728DF80010ADF804100D4637B104
:10592000217811F060022FD0202A4BD102E0032011
:10593000BDE8FC81E288F2B109060DD5D0F8C402B9
:1059400063783946D0F808C01846E047E288072A4D
:1059500000D9072239462DE0607887F80002E088F8
:10596000402800D34020C2B287F801223946304691
:1059700000F058F82BE0D0F8C40263780022866863
:1059800021461846B04722E0607830B101281ED089
:105990000A2809D00B2815D110E096F89C0203289C
:1059A00010D1022201A905E096F89C02032809D132
:1059B00001226946304600F04FF808E096F89C0254
:1059C000032804D02146304600F021F8032528465C
:1059D000AEE710B5D0F8B82200245268904700B165
:1059E0000324204610BD0020704700207047134656
:1059F00010B50A46002100F0DEFA002010BD134663
:105A000010B50A46002100F07FFB002010BD10B544
:105A10000446802100F059FB2046BDE810400021DB
:105A200000F053BB10B50323C0F89432C0F85821DE
:105A30001346C0F85C210A46002100F0BCFA0020A1
:105A400010BD10B50521C0F8941200231A4619465E
:105A500000F0B1FA002010BD10B50223C0F8943256
:105A600082611346C2610A46002100F04DFB00200E
:105A700010BD10B50421C0F8941200231A4619462F
:105A800000F042FB002010BD10B50A46024903A0F9
:105A900000F00FF9004810BD8C0D00204344432056
:105AA000436F6E66696700001220088000487047E7
:105AB0003000002010B50A46024903A000F0F9F8B2
:105AC000004810BD8C0D002043444320496E74658E
:105AD000726661636500000004200880004870471A
