:020000040800F2
:10000000C873002029030008DB580008A547000832
:10001000F1520008450A00085F9A0008000000003D
:10002000000000000000000000000000690200085D
:10003000E515000800000000C50200082D79000841
:100040004303000843030008430300084303000878
:100050004303000843030008E7150008ED150008F6
:1000600043030008F3150008F915000843030008CE
:100070007512000843030008430300084303000807
:100080004303000843030008430300084303000838
:10009000490A0008550A000843030008FF15000834
:1000A0004303000843030008430300084303000818
:1000B0004303000843030008FD79000843030008D8
:1000C00043030008430300084303000843030008F8
:1000D000430300084303000843030008097F0008A6
:1000E000430300084303000843030008097A00089B
:1000F00043030008430300084303000843030008C8
:1001000043030008430300084303000843030008B7
:1001100043030008430300084303000843030008A7
:1001200043030008811200088D12000851150008D1
:100130004303000843030008430300084303000887
:10014000610A00086D0A000843030008DD58000832
:10015000430300085D150008430300081D7F0008E5
:100160004303000843030008430300084303000857
:100170004303000843030008430300080000000095
:10018000430300084303000800F002F800F05CF8A5
:100190000AA090E8000C82448344AAF10107DA45E2
:1001A00001D100F051F8AFF2090EBAE80F0013F0D8
:1001B000010F18BFFB1A43F00103184734C20000B7
:1001C00054C200000A444FF0000C10F8013B13F039
:1001D000070408BF10F8014B1D1108BF10F8015BA0
:1001E000641E05D010F8016B641E01F8016BF9D193
:1001F00013F0080F1EBF10F8014BAD1C0C1B09D1EA
:100200006D1E58BF01F801CBFAD505E014F8016B5B
:1002100001F8016B6D1EF9D59142D6D370470000ED
:100220000023002400250026103A28BF78C1FBD8FF
:10023000520728BF30C148BF0B6070471FB50BF095
:10024000BAFF1FBD10B510BD00F002FA1146FFF74E
:10025000F5FF0AF01BFC00F020FA03B4FFF7F2FFF1
:1002600003BC00F023FA00002C4B19680868B0E8C2
:10027000F04F80F30988BFF36F8F4FF0000080F3D9
:10028000118870470000000008480068006880F38B
:1002900008884FF0000080F3148862B661B6BFF39F
:1002A0004F8FBFF36F8F00DF00BF00BF08ED00E08E
:1002B000DFF80C00016841F470010160704700BF75
:1002C00088ED00E0EFF30980BFF36F8F134B1A68DE
:1002D0001EF0100F08BF20ED108A20E9F04F1060CB
:1002E00009B44FF0500080F31188BFF34F8FBFF374
:1002F0006F8F0BF061F94FF0000080F3118809BC9B
:1003000019680868B0E8F04F1EF0100F08BFB0EC95
:10031000108A80F30988BFF36F8F7047180100209F
:10032000EFF30580704700000948804709480047FF
:10033000FEE7FEE7FEE7FEE7FEE7FEE7FEE7FEE795
:10034000FEE7FEE704480549054A064B70470000F2
:10035000ED79000889010008C86D0020C8730020ED
:10036000C86F0020C86F002053EA020C00F06980BB
:100370002DE9F04B4FF00006002B1FBFB3FA83F5B9
:1003800003FA05F424FA05F65E4012BF1643B2FAEA
:1003900082F502FA05F4C5F120051EBF22FA05FC1C
:1003A00044EA0C04203556EA044C4FEA144418BFC2
:1003B000641C4FF000084FF00009904271EB030CF1
:1003C00039D3002919BFB1FA81F701FA07F6B0FA5B
:1003D00080F700FA07F6C7F120071EBF20FA07FCD6
:1003E00046EA0C062037B6FBF4FCA7EB0507103FE6
:1003F00007F01F0BCBF120060CFA0BFB2CFA06F6CC
:1004000044BFB3460026202FA4BF5E464FF0000B2A
:100410005BEA060C08BF4FF0010B19EB0B09ABFBB5
:10042000027C48EB0608C01B06FB02CC0BFB03CC8E
:1004300071EB0C01C1E70B46024641464846BDE858
:10044000F08B13B54FF000004FF00001AFF30080C8
:10045000BDE81C40704710B5431C02E010F8011BBA
:1004600071B18107FAD14FF0013202C88C1A8C4366
:1004700014EAC211F9D0C01A0A0603D0C01E10BD7A
:10048000C01A10BD0A0401D0801E10BD0902FCD0A4
:10049000401E10BD032A40F2308010F0030C00F023
:1004A000158011F8013BBCF1020F624498BF11F8AE
:1004B00001CB00F8013B38BF11F8013BA2F1040267
:1004C00098BF00F801CB38BF00F8013B11F00303DF
:1004D00000F02580083AC0F0088051F8043B083A43
:1004E00051F804CBA0E80810F5E7121D5CBF51F8E5
:1004F000043B40F8043BAFF30080D20724BF11F85F
:10050000013B11F801CB48BF11F8012B24BF00F8C3
:10051000013B00F801CB48BF00F8012B704710B534
:10052000203AC0F00B80B1E81850203AA0E81850EB
:10053000B1E81850A0E81850BFF4F5AF5FEA027CAC
:1005400024BFB1E81850A0E8185044BF18C918C01B
:10055000BDE810405FEA827C24BF51F8043B40F8BC
:10056000043B08BF7047D20728BF31F8023B48BFA1
:1005700011F8012B28BF20F8023B48BF00F8012BDF
:10058000704702F0FF0343EA032242EA024200F00E
:1005900002B84FF000020429C0F0128010F0030CE2
:1005A00000F01B80CCF1040CBCF1020F18BF00F866
:1005B000012BA8BF20F8022BA1EB0C0100F00DB815
:1005C0005FEAC17C24BF00F8012B00F8012B48BF73
:1005D00000F8012B70474FF0000200B51346944617
:1005E0009646203922BFA0E80C50A0E80C50B1F18B
:1005F0002001BFF4F7AF090728BFA0E80C5048BF9F
:100600000CC05DF804EB890028BF40F8042B08BF3C
:10061000704748BF20F8022B11F0804F18BF00F838
:10062000012B704770477047704710B500F008F80D
:10063000006810BD10B5044600F002F8046010BD5B
:1006400000487047686D002000487047686D0020C2
:100650007546FFF7F9FFAE4605006946534620F0A0
:100660000700854618B020B5FFF76CFEBDE82040B6
:100670004FF000064FF000074FF000084FF0000B5E
:1006800021F00701AC46ACE8C009ACE8C009ACE811
:10069000C009ACE8C0098D46704710B50446AFF3F9
:1006A00000802046BDE81040FFF7D7BD0149182063
:1006B000ABBEFEE72600020070470000B7EE000A5E
:1006C00080ED000A9FED040A80ED010A80ED020A28
:1006D00080ED030A7047000000000000D2EC031A0E
:1006E00091EC030A04F012BD01221021014801F02F
:1006F0008DBF00000000024000221021014801F0DF
:1007000085BF000000000240704700000122114632
:10071000014801F07BBF00000004024000220121DB
:10072000014801F073BF00000004024030B5437877
:1007300004781B021BB2234300EE103A1B4CB8EEA8
:10074000C00AD4ED000A20EE200A81ED000AC37829
:1007500085781B021BB22B4300EE103AD4ED000A41
:10076000B8EEC00A20EE200A81ED010A437904792F
:100770001B021BB2234300EE103AB8EEC00A20EE73
:10078000200ADFED0B0A81ED020A017AC379090420
:10079000807941EA0321014300EE101AB8EE400AC5
:1007A00020EE200A82ED000A30BD000088050020FE
:1007B00000401C4270470AF090B901200AF08DB940
:1007C00010B542780378120212B21A4300EE102AD2
:1007D000124BB8EEC00AD3ED010A20EE200A81EDDB
:1007E000000AC2788478120212B2224300EE102A64
:1007F000D3ED010AB8EEC00A20EE200A81ED010A0D
:1008000042790079120212B2024300EE102AB8EEC9
:10081000C00A20EE200A81ED020A10BD88050020E2
:1008200010B5FFF771FFFFF7C5FF09F04DFD08B1E7
:10083000802402E009F0B2FC044609F00FFF10B179
:1008400044F0400010BD09F09BFE204310BD0000A5
:100850002DE9FC410746002016460D460090019008
:10086000FFF74AFF922000F0BDF8062269461220E9
:1008700000F09AF8FFF738FF9DF801009DF800108E
:10088000000200B2084300EE100A464CB8EEC00A5F
:10089000D4ED000A20EE200A85ED000A9DF8030041
:1008A0009DF80210000200B2084300EE100AD4EDD9
:1008B000000AB8EEC00A20EE200A85ED010A9DF874
:1008C00005009DF80410000200B2084300EE100A73
:1008D000B8EEC00A20EE200A85ED020AFFF71EFFDF
:1008E00008226946002000F05FF8FFF70FFF9DF82F
:1008F00000000F2830D19DF803009DF8021000027F
:1009000000B2084300EE100AD4ED010AB8EEC00AA6
:1009100020EE200A87ED000A9DF805009DF80410DE
:10092000000200B2084300EE100AD4ED010AB8EE4E
:10093000C00A20EE200A87ED010A9DF807009DF805
:100940000610000200B2084300EE100AB8EEC00A1A
:1009500020EE200A87ED020AFFF7CEFEA22000F06B
:1009600041F802226946222000F01EF8FFF7BCFE83
:100970009DF800009DF80110C00040EA5110B0F54C
:10098000806F01DBA0F5006000EE100AB4EE001AE3
:10099000F8EEC00AB3EE070A00EE810A86ED000AFF
:1009A000BDE8FC818805002070B514460D4640F076
:1009B000800000F017F806E0552000F013F8641EE0
:1009C00005F8010BE4B2002CF6D170BD10B50C4651
:1009D00040F0800000F006F8552000F003F8207089
:1009E00010BD000001B582B04FF47A700090012371
:1009F00001AA02A9024803F0ADF89DF804000EBD5B
:100A00007409002002784078D20042EA5010B0F514
:100A1000806F01DBA0F5006000EE100AB4EE001A52
:100A2000F8EEC00AB3EE070A00EE810A81ED000A73
:100A3000704710B50C46FFF7D5FF2046BDE81040C3
:100A4000FFF7D0BFFEE70000014800F0E4BF000060
:100A5000D0080020014800F0DEBF0000D0080020D0
:100A6000014800F0D8BF0000F8080020014800F05D
:100A7000D2BF0000F8080020002070470020704717
:100A800010B500220449054807F02EFC044903482C
:100A900007F01DFC002010BD381A00205C0D00205E
:100AA0003812002010B50146034807F010FC024838
:100AB00007F0E6FB002010BD5C0D00200020704711
:100AC00030B595B0012500241395CDE911450B945F
:100AD0000C940D940E94CDE90F5407E014A00090EF
:100AE00015A316A217A1002005F072FA0BA9204841
:100AF00000F068FE0028F1D10995CDE90745019481
:100B0000029403940E200494CDE905500A9007E066
:100B100007A0009008A309A216A1002005F058FA2A
:100B200001A91F4800F04EFE0028F1D115B030BDDC
:100B30001B5B306D00000000453A00001B5B313B41
:100B400033316D0020202573257343414E312046FB
:100B500049464F302046696C74657220436F6E665B
:100B60006967204572726F720D0A257300000000DC
:100B7000D008002020202573257343414E322046A3
:100B800049464F302046696C74657220436F6E662B
:100B90006967204572726F720D0A257300000000AC
:100BA000F808002008B5FFF78BFF0FA0009010A3F6
:100BB00010A212A1002005F00BFA00F0FFF90AA024
:100BC00000900BA30BA218A1002005F001FA204908
:100BD000002007A3087004A0009006A21DA1002019
:100BE00005F0F6F908BD00001B5B306D0000000049
:100BF000503A00001B5B313B33326D0020202573DF
:100C0000257343616E204D41534B2046696C7465DA
:100C10007220496E697420737563636573736675BA
:100C20006C6C790D0A2573002020257325734361B0
:100C30006E205365727669636520496E697420730E
:100C400075636365737366756C6C790D0A25730043
:100C50008201002020202573257343616E20496E98
:100C60006974207375636365737366756C6C790D55
:100C70000A25730030B50546244889B0007808B1CC
:100C8000FFF790FF284600F06BF800282CD03F209B
:100C90000AF04EF9040029D03F21FFF77AFC2868BA
:100CA0002060287901282DD002282DD000206060F6
:100CB00035F8050F20841822154902A8FFF72FFCEC
:100CC00028880290182202A904F10800FFF7E2FB2D
:100CD000688860856868C4F83700A868C4F83B0075
:100CE000204600F02BF9204609B030BD09A1286844
:100CF000CDE9000109A30AA20BA1002005F068F9C3
:100D00000020F1E71448D2E71448D0E78201002020
:100D100080C200081B5B306D00000000453A0000F7
:100D20001B5B313B33316D00202025732573257308
:100D3000203A2043616E20526567697374657220A2
:100D40004661696C65642C204E6F204D656D6F7235
:100D5000790D0A2573000000D0080020F808002053
:100D6000FEB5B0B1016859B1B0F8072042B1B0F892
:100D700005302BB105792E4C012D10D0022D2ED02F
:100D80002CA02EA32EA230A10090002005F020F967
:100D900045E028A029A32AA239A10090F5E76378AD
:100DA000082B02D00020424E15E022A0CDE9001011
:100DB00022A323A23FA11FE056F820707F8D974207
:100DC00007D100911BA0CDE901201CA31CA2494919
:100DD00022E0401CC0B29842EED3022D25D1A37868
:100DE000082B03D0324C002020341CE011A0CDE9A8
:100DF000001012A312A240A1002005F0E9F80EE0B5
:100E000054F820506D8D95420BD1009109A0CDE989
:100E10000120494909A30AA2002005F0D9F80020C1
:100E2000FEBD401CC0B29842EAD30120FEBD0000C6
:100E3000820100201B5B306D00000000453A00007D
:100E40001B5B313B33316D002020257325734361DB
:100E50006E203A2052656769737465722046616935
:100E60006C65642C20436F6E666967206973204946
:100E70006E636F6D706C6574650D0A2573000000FC
:100E800020202573257343616E203A2052656769DF
:100E900073746572204661696C65642C20436F6EC3
:100EA000666967206973204E554C4C0D0A25730006
:100EB000506B00202020257325732573203A204392
:100EC000616E31205265676973746572204661698D
:100ED0006C65642C204D6178205265676973746578
:100EE0007220436F756E7420526561636865640D8E
:100EF0000A25730064C30008202025732573257319
:100F0000203A2043616E32205265676973746572BE
:100F1000204661696C65642C204D617820526567BC
:100F2000697374657220436F756E742052656163D6
:100F30006865640D0A257300A8C300087FB50446E0
:100F400040681749174D884211D117496878174BE7
:100F500041F82040401C68702068628D218C8DE82B
:100F60000F0008331A1D1249002005F031F860689F
:100F70001049884212D10C49A87820310B4B41F816
:100F80002040401CA8702068628D218C8DE80F00E5
:100F900008331A1D0849002005F01AF87FBD00002B
:100FA000D008002082010020506B0020E80B0008D0
:100FB000D4C20008F80800201CC3000808B507E0E8
:100FC0002BA000902CA32DA22EA1002005F000F84C
:100FD000344800F0EFFF0028F2D107E024A0009091
:100FE00025A326A230A1002004F0F2FF364800F02D
:100FF000E1FF0028F2D107E01DA000901EA31FA270
:1010000032A1002004F0E4FF0221264800F060FB3A
:101010000028F1D107E016A0009017A317A237A16E
:10102000002004F0D5FF0221274800F051FB0028E2
:10103000F1D107E00EA000900FA310A23BA1002069
:1010400004F0C6FF1021174800F042FB0028F1D140
:1010500007E007A0009008A308A240A1002004F028
:10106000B7FF1021184800F033FB0028F1D108BD6C
:101070001B5B306D00000000453A00001B5B313BFC
:1010800033316D0020202573257343414E312053A9
:101090007461727473204661696C65640D0A25730E
:1010A00000000000D0080020202025732573434154
:1010B0004E3220537461727473204661696C6564AA
:1010C0000D0A257300000000F80800202020257379
:1010D000257343414E31204649464F3020496E74B6
:1010E000657272757074696F6E20436F6E666967A2
:1010F000204572726F720D0A25730000202025733F
:10110000257343414E32204649464F3020496E7484
:10111000657272757074696F6E20436F6E66696771
:10112000204572726F720D0A25730000202025730E
:10113000257343414E31204649464F3120496E7454
:10114000657272757074696F6E20436F6E66696741
:10115000204572726F720D0A2573000020202573DE
:10116000257343414E32204649464F3120496E7423
:10117000657272757074696F6E20436F6E66696711
:10118000204572726F720D0A257300007CB5040051
:1011900001D0002512E013A014A315A216A10090FF
:1011A00008E06D1CEDB2642D08D90EA00FA310A2AB
:1011B0001DA10090002004F00BFF0FE0606800F01C
:1011C00014FC0028EDD001200190606801AB04F10F
:1011D000220204F1080100F08DFA08B100207CBD64
:1011E00001207CBD1B5B306D00000000453A000013
:1011F0001B5B313B33316D00202025732573436128
:101200006E205472616E736D6974204661696C65FD
:10121000642C20496E7374616E6365206973204E7F
:10122000554C4C0D0A25730020202573257343610E
:101230006E205472616E736D6974204661696C65CD
:10124000642C204E6F204D61696C626F782046726D
:1012500065650D0A2573000010B5054C2068C06A4D
:1012600004F042FD2068006BBDE8104004F03CBD76
:101270003C020020014800F02BBF0000F40B0020CE
:10128000014800F025BF0000540C00202DE9F05F5C
:10129000A748A84BA84CC06CA64DA74EA54F006808
:1012A000A449DFF89492DFF88CA2DFF88CB2DFF863
:1012B00084E2A14A483B603418351836303F09F1C2
:1012C00078090AF1300A4FF4006C0BF1300BAEF1E3
:1012D000180E884223D99749543926E0A84233D1C1
:1012E0004FF020080AE0504535D1E04606E000BF47
:1012F0004FF4001802E000BF4FF0006811EA080F39
:101300007CD08C49884253D9904205D0984203D072
:10131000A04201D0A8422FD14FF0200C45E08649D1
:10132000A831884203D983495839096805E08249C0
:10133000483188428149F8D949689042D0D09842D2
:10134000CED0A042CCD0C9E7B042CED0B842CCD0AB
:101350004845CAD0C7E75845CAD07045C8D0DFF85D
:10136000D88108F190084045C2D0DFF8C88108F163
:1013700048084045C0D1BBE7B04216D0B84214D0AF
:10138000484512D0504510D0584509D0704507D077
:1013900069499031884203D066494831884202D178
:1013A0004FF4001C01E04FF0006C62484C382AE01A
:1013B0006149A831884229D9904205D0984203D08A
:1013C000A04201D0A84202D14FF0200C19E0B04257
:1013D00017D0B84215D0484513D0504511D05845C4
:1013E00009D0704507D054499031884203D0514903
:1013F0004831884203D14FF4001C02E095E04FF0E1
:10140000006C4C485038C0F800C052E04A4948319E
:10141000884227D9904205D0984203D0A04201D0FB
:10142000A84202D14FF0200C18E0B04216D0B842CA
:1014300014D0484512D0504510D0584509D07045B9
:1014400007D03D499031884203D03A49483188421B
:1014500002D14FF4001C01E04FF0006C3748C0F897
:101460000CC026E0904205D0984203D0A04201D0A3
:10147000A84202D14FF0200C18E0B04216D0B8427A
:1014800014D0484512D0504510D0584509D0704569
:1014900007D029499031884203D0264948318842F3
:1014A00002D14FF4001C01E04FF0006C2348C0F85B
:1014B00008C0234C207880070CD5207820F002004B
:1014C0002070207840F004002070012211461D4851
:1014D00001F09CF860781C4D80070CD5607820F0F6
:1014E00002006070607840F00400607001221021FA
:1014F000284601F08BF8A07880070CD5A07820F062
:101500000200A070A07840F00400A0700122102119
:10151000284601F07BF809F0E1F92078400704D56E
:101520000A48016841F001010160BDE8F09F000038
:1015300074090020586402401060024000600240BC
:10154000B40500200004024000000240103C0140AD
:10155000014800F0BDBD00002C0A0020014800F049
:10156000B7BD0000B40C002001681823CAB2103ABD
:10157000B2FBF3F2054B6FF30901032A9B5CC365D1
:1015800000D9091D81650846704700003CC200086B
:1015900010B5014600208B698A6A4FF0C07453B1C0
:1015A000B3F5005F15D072B1012A0CD0022A0AD01F
:1015B000032A09D104E01AB1012A06D0022A03D174
:1015C000C96AC90100D5012010BDC96AA142FAD07B
:1015D00010BD002AF7D0012AF2D0022AF3D0032A44
:1015E000F3D010BD7047012000F00CBF022000F0C6
:1015F00009BF082000F006BF102000F003BF202024
:1016000000F000BF72B6FEE72DED028B284803F014
:1016100071FE274C0021241F206003F0FBFF09E02E
:1016200004F054F9206890ED140A80ED1A0A0120A4
:1016300009F053FA206890ED1A0AB5EEC00AF1EEEF
:1016400010FAEDD01B4D9FED1C8A1C4EDFED1C8A5D
:10165000B5F90210206800EE901A90ED1A0AF8EE23
:10166000E00A00EE880A10EE101A80ED1A0AB14264
:1016700002D99FED140A06E010EE101A124A9142A8
:1016800003DD9FED120A80ED1A0A03F0D7FF2068F0
:10169000B0EE680A90ED1C1AF0EE400A04F0A8F8CB
:1016A000206804F013F9012009F017FAD0E70000D0
:1016B000AC010020E46A002095BFD6330AD723BDD1
:1016C000000000000AD723BD295C0F3E295C0F3EB5
:1016D00090F82020012A07D0022A05D0416A41F45F
:1016E0008021416201207047006842690A434261DB
:1016F00000207047F0B590F820500468A468012DD0
:1017000005D0022D03D0416A41F4802157E014F046
:10171000406F01D1E5004FD5C4F301640125A54018
:101720001D608D684FF4C0739DB1CE6835434E681F
:1017300045EAC605066803EB0417F5514FF4C27578
:10174000076805EB04150E697E51097D012905D056
:1017500009E00E88CD6845EA4655EBE701684E5929
:1017600046F480764E511179D579567941EA056172
:1017700095792D0445EA062529434FF4C676056878
:1017800006EB0416A9511178D57841EA05619578E0
:1017900052782D0445EA022211434FF4C4750268C1
:1017A00005EB04155151006803EB0411425842F057
:1017B000010242500020F0BD416A41F40011416233
:1017C0000120F0BD10B590F82020012A07D0022A90
:1017D00005D0416A41F480214162012010BD3B489F
:1017E000D0F8002242F00102C0F80022D0F8002216
:1017F00022F47C52C0F80022D0F800224B6A42EA60
:101800000322C0F800220A7D02F01F0301229A4041
:10181000D0F81C329343C0F81C32CB69B3B9D0F86E
:101820000C329343C0F80C328C894B6864F31F432D
:101830004C6900EBC404C4F840320C890B6864F3B3
:101840001F434C6900EBC404C4F84432CB69012B3C
:1018500016D1D0F80C321343C0F80C320C884B6808
:1018600064F31F434C6900EBC404C4F840320C8994
:10187000CB6864F31F434C6900EBC404C4F84432E2
:101880008B69002BD0F804320ED01343C0F8043219
:101890000B69002BD0F8143208D01343C0F814326F
:1018A000096A012904D008E09343EFE79343F5E781
:1018B000D0F81C121143C0F81C12D0F8001221F00D
:1018C0000101C0F80012002010BD000000640040BB
:1018D000704700000246002092F82030012B01D012
:1018E000022B05D1106821B1D0F8100000F00300E0
:1018F0007047C068FAE770B590F82040012C05D019
:10190000022C03D0416A41F4802128E0046809B325
:101910002469A40720D04FF4D874056804EB01149F
:101920002D5915F00405956005682D591AD0ED085C
:10193000556005682C5904F00204D4604FF4DA7441
:10194000056804EB01142E5906F00F06082E0CD37F
:1019500008250DE0E468DCE7416A41F400114162CA
:10196000012070BD6D0D1560E3E72D5905F00F05E1
:10197000156105682D59C5F30725956105682C5932
:10198000240C54614FF4DC72046802EB0112A45879
:101990001C700468A458240A5C700468A458240CC1
:1019A0009C700468A258120EDA704FF4DE7204685C
:1019B00002EB0112A4581C710468A458240A5C713B
:1019C0000468A458240C9C710468A258120EDA71A1
:1019D000006829B1016941F020010161002070BD5A
:1019E000C16841F02001C160F8E70246002092F88A
:1019F0002010012901D002290CD111688A685201F6
:101A000000D501208A68120100D5401C8968C900F0
:101A100000D5401C70472DE9F05F054600680024A2
:101A20004669D0F804908768D0F80CB0D0F810A0C0
:101A3000D0F81880F10748D0F90714D0012181604F
:101A4000B80703D5284600F0E2FA0CE0780702D583
:101A50004FF4006407E0380702D54FF4805402E0E9
:101A6000284600F0D3FAF80516D529684FF480709F
:101A70008860B80503D5284600F0CBFA0CE078055D
:101A800002D544F4005407E0380502D544F48044FC
:101A900002E0284600F0BCFAF80316D529684FF496
:101AA00080308860B80303D5284600F0B4FA0CE013
:101AB000780302D544F4004407E0380302D544F427
:101AC000803402E0284600F0A5FA300707D55FEA27
:101AD000CB6004D52968102044F40074C8607007F6
:101AE0004FF0080707D55FEA0B7004D52868C76078
:101AF000284600F0A9F9B00706D52868C068800715
:101B000002D0284600F0A2F9700607D55FEACA6045
:101B100004D52968102044F480640861B00607D514
:101B20005FEA0A7004D528680761284600F0E6F9E4
:101B3000F00606D528680069800702D0284600F024
:101B4000DFF9B00308D55FEAC96005D52968102020
:101B50004860284600F02CFAF00307D55FEA0970C8
:101B600004D528684760284600F056FA300446D568
:101B70005FEA497040D5F00504D55FEAC87001D02E
:101B800044F00104B00504D55FEA887001D544F043
:101B90000204700504D55FEA487001D544F00404DE
:101BA000300529D518F0700F26D008F070004028B5
:101BB00015D006DC102809D020280AD0302816D1EC
:101BC0000AE050280ED0602811D10EE044F008043D
:101BD0000DE044F010040AE044F0200407E044F073
:101BE000400404E044F0800401E044F48074286878
:101BF000816921F070018161296804204860002C0E
:101C000005D0686A204368622846FFF761FEBDE898
:101C1000F09F70B5040003D094F8200010B104E0E8
:101C2000012070BD204600F081F82068016841F075
:101C30000101016000F0F0FC0546052604E000F01B
:101C4000EBFC401B0A2811D820684068C007F6D07A
:101C50002068016821F00201016000F0DDFC05460A
:101C60000BE000F0D9FC401B0A2806D9606A40F45A
:101C70000030606284F82060D2E720684068800706
:101C8000EFD4207E0128206801683DD021F080013A
:101C90000160607E01282068016838D021F0400191
:101CA0000160A07E01282068016833D021F0200166
:101CB0000160E07E0128206801682ED041F010010B
:101CC0000160207F01282068016829D021F00801E7
:101CD0000160607F01282068016824D021F00401A0
:101CE0000160D4E902010843D4E904121143084316
:101CF0006168491E08432168C861002060620120B4
:101D000084F82000002070BD41F08001C0E741F060
:101D10004001C5E741F02001CAE721F01001CFE7FB
:101D200041F00801D4E741F00401D9E7F0B587B0EC
:101D3000044614216846FEF74EFC3E4B3E48DFF851
:101D4000F0E01968D4F800C03B4A032502260927B1
:101D500010300024491CF4452AD11960012907D10B
:101D6000016841F000710160006800F000700590AA
:101D7000106840F0080010601068CDE9005600F0CF
:101D80000800CDE9047069462C48CDE9024500F011
:101D900045FB00220521142000F0EAFD142000F08C
:101DA000D9FD00220521152000F0E2FD15203AE0C2
:101DB000DFF88CE0F44538D1D0F800C04CF0806CEE
:101DC000C0F800C0D0F800C001290CF0806CCDF83C
:101DD00014C0196007D1016841F00071016000680A
:101DE00000F000700590106840F00200106010686C
:101DF00002AB00F0020005906020CDE9000683E808
:101E0000B00069460F4800F009FB00220521402080
:101E100000F0AEFD402000F09DFD00220521412094
:101E200000F0A6FD412000F095FD07B0F0BD0000D8
:101E3000006400401000002030380240000C0240D6
:101E40000068004000040240704700007CB5044672
:101E50000021FFF73FFDC0B2072808D314A1CDE948
:101E6000000115A315A217A1002004F0B1F81F4B23
:101E70000021A3F11C022046FFF73DFD1C481D4D2B
:101E8000844206D1194A69785C3A02F1400007F0B1
:101E9000ADFD1948844209D1A97802B0134ABDE8C2
:101EA00070403C3A02F1200007F0A0BD7CBD00006C
:101EB0001B5B306D00000000573A00001B5B313B9C
:101EC00033336D0020202573257352582046494630
:101ED0004F30204D65737361676520436F756E7475
:101EE0002069732025640D0A25730000AC6B002067
:101EF000D008002082010020F80800207047000070
:101F00007CB504460121FFF7E5FCC0B2072808D3E1
:101F100014A1CDE9000115A315A217A1002004F01A
:101F200057F81F4B0121A3F11C022046FFF7E3FCE9
:101F30001C481D4D844206D1194A6978803A02F145
:101F4000640007F053FD1948844209D1A97802B012
:101F5000134ABDE87040603A02F1440007F046BD04
:101F60007CBD00001B5B306D00000000573A000094
:101F70001B5B313B33336D00202025732573525892
:101F8000204649464F31204D657373616765204394
:101F90006F756E742069732025640D0A2573000027
:101FA000D06B0020D008002082010020F80800201B
:101FB0007047000070B5044690F82000012804D056
:101FC000606A40F40020606218E0022084F820007B
:101FD0002068016821F00101016000F01DFB054649
:101FE0000EE000BF00F018FB401B0A2808D9606A09
:101FF00040F400306062052084F82000012070BDAC
:1020000020684068C007EDD1606270BD70477047BE
:10201000704770477047704770472DE9F04104469C
:10202000876D00F0F9FA064694F83500002502287D
:1020300006D08020606584F834500120BDE8F0812E
:102040002068016821F0160101602068416921F0D3
:1020500080014161206C08B9A06C20B12068016842
:1020600021F0080101602068016821F00101016090
:102070000CE000F0D1FA801B052807D9202060650C
:10208000032084F8350084F83450D7E720680068CE
:10209000C007EED194F85C103F208840B860012062
:1020A00084F8350084F834500020C7E790F83510E4
:1020B000022903D08021416501207047052180F865
:1020C00035100068016821F00101016000207047AF
:1020D0002DE9F84304464FF00009CDF8009063481D
:1020E0004FF41651A56D0068B0FBF1F72E6894F817
:1020F0005C10082000FA01F131420FD021680A6813
:1021000052070BD50A6822F004020A6094F85C10AA
:102110008840A860606D40F00100606594F85C1034
:102120004FF0010808FA01F0304208D021684969EF
:10213000090604D5A860606D40F00200606594F85F
:102140005C1004208840304208D021680968890763
:1021500004D5A860606D40F00400606594F85C10E0
:1021600010208840304218D021680968090714D52A
:10217000A86020680168490304D50068000308D5F9
:10218000A16C07E00168C90503D4016821F00801CA
:102190000160216C09B12046884794F85C1020202A
:1021A0008840304231D021680968C9062DD5A86021
:1021B00094F8350005282068016806D0490347D502
:1021C000006800031DD4616C1CE021F01601016061
:1021D0002068416921F080014161206C08B9A06C40
:1021E00020B12068016821F00801016094F85C10BA
:1021F0003F208840A86084F8358084F83490216DB1
:102200001FE0E16B09B120468847606D00282BD0A4
:10221000606DC00714D0052084F83500206801687F
:1022200021F0010101600098401C0090B84203D8E1
:1022300020680068C007F6D184F8358084F83490AF
:10224000E16C002910D001B02046BDE8F0430847FA
:102250000168C905D5D4016821F01001016084F836
:10226000358084F83490CCE7BDE8F8838400002002
:102270002DE9F041044600F0CFF906465CB102209A
:1022800084F83500002584F834502068016821F076
:10229000010101600DE00120BDE8F08100F0BCF912
:1022A000801B052805D920206065032084F83500AF
:1022B000F2E720680068C007F0D122681168204862
:1022C0000140D4E901031843D4E9033633431843EA
:1022D00063691843A3691843E3691843236A1843E1
:1022E0000843616A042903D1D4E90B131943084355
:1022F000106020684069666A20F0070130460E438E
:10230000012704280CD1A06A0643E06A40B12046A8
:10231000FFF73EF920B14020606584F83570BAE7D8
:10232000206846612046FFF71FF994F85C203F21A2
:1023300091408160656584F835700020ACE700004D
:102340003F8010F070B5044600F066F90546601C49
:1023500002D004480078044400F05EF9401BA0421B
:10236000FAD370BD7800002010B5244C10280AD094
:10237000202811D008281AD001282AD0022801D1FB
:102380000120E07110BD607840F001006070A0781D
:1023900040F00100A07003E0207840F001002070C0
:1023A00020790028EED0BDE8104008F097BAE07818
:1023B00040F00100E070E07810F00100E070E1D042
:1023C000E07820F00100E070E07840F00200E0707A
:1023D00010BD09F033FA0128FAD00849206A1C31EF
:1023E00009F052F8E0690028F2D005494FF080501A
:1023F0000860BFF34F8FBFF36F8F10BDB40500208F
:1024000004ED00E0044910B50A68024202D00860F9
:10241000FFF7AAFF10BD0000143C01402DE9F84F62
:10242000DFF8BCA10022012503264FF00F090AF1B5
:10243000040BAAF1040E00BF0B6805FA02F4234056
:10244000A34270D10F7907F00307012F01D0022FAB
:1024500016D187684FEA420806FA08FC27EA0C07FB
:10246000D1F80CC00CFA08FC4CEA070CC0F808C004
:102470004768A7430C79C4F3001494403C4344607C
:102480000C79E443A4070AD0C4684FEA420C06FA68
:102490000CF7BC438F6807FA0CF72743C7600C7929
:1024A00004F00304022C12D1D40800EB840CDCF8F5
:1024B00020405707FF0E09FA07F824EA0804D1F86C
:1024C000108008FA07F848EA0408CCF8208004686D
:1024D0004FEA420C06FA0CF7BC430F7907F00307EA
:1024E00007FA0CF7274307604C6814F4403F70D09C
:1024F0003C4C276847F480472760246822F0030794
:1025000004F480440094384C07EB040CDCF80848D1
:1025100097074FEA177809FA08F7BC43334FB842D8
:1025200002D1002724E054E0314FB84201D1012705
:102530001EE0304FB84201D1022719E02E4FB842B9
:1025400001D1032714E02D4FB84201D104270FE039
:102550002B4FB84201D105270AE02A4FB84201D1DA
:10256000062705E0284FB84201D1072700E00827D9
:1025700007FA08F72743CCF80878DAF800405746FE
:10258000D1F804C09C435FEACC2C00D51C433C60CE
:10259000DBF800405F46D1F804C09C435FEA8C2C16
:1025A00000D51C433C60DEF800407746D1F804C0FB
:1025B0009C435FEA8C3C00D51C433C60084F083FBD
:1025C0003C68D1F804C09C435FEACC3C00D51C4376
:1025D0003C60521C102AFFF42FAFBDE8F88F0000BA
:1025E000083C0140443802400030014000000240F5
:1025F0000004024000080240000C024000100240AB
:102600000014024000180240001C02400AB181611F
:1026100070470904FBE7000001488068704700002C
:102620007800002070B5040025D094F83D00002506
:1026300020B984F83C50204600F0B8F8242084F8F3
:102640003D002068016821F00101016020680168F7
:1026500041F4004101602068016821F400410160FB
:1026600000F094FF4D4A6168914201D84C4900E066
:102670004C49884201D2012070BD4B492368B0FB10
:10268000F1F15E6826F03F060E435E606368934298
:1026900006D94FF4967359434FF47A73B1FBF3F1B3
:1026A0002368491C1E6A26F03F063143196261689F
:1026B000914210D84900401EB0FBF1F2521CC2F307
:1026C0000B02042A01D2042022E0B0FBF1F0401CEE
:1026D000C0F30B001CE0A268F2B301EBC10303EBF3
:1026E0000116431EB3FBF6F35B1C43F480431B054A
:1026F00049D092B301EBC10202EB0111401EB0FBC5
:10270000F1F0401CC0F30B0040F4804040F4004066
:102710002168CA694CF6FF739A431043C861D4E933
:10272000071001432068026822F0C00211430160D3
:10273000D4E9030101432068826848F2FF339A43D9
:1027400011438160D4E9050108432168CA6822F079
:10275000FF021043C86001E00EE016E02068016847
:1027600041F0010101602564202084F83D002563CB
:1027700084F83E50002070BD01EB4106431EB3FBC0
:10278000F6F35B1CB3E70120C2E701EB4101401EF9
:10279000B0FBF1F0401CC0F30B00B7E7A0860100CE
:1027A00080841E0000093D0040420F00F0B587B054
:1027B000044614216846FDF70EFF1D492068884233
:1027C00033D11C480024016841F004010160016814
:1027D00001F004010591016841F001010160006808
:1027E000122500F0010005904FF40070CDE90005BE
:1027F00002AA0326042782E8D00069460E48FFF7A4
:102800000DFEB801CDE9000502AA694682E8D000B4
:102810000A48FFF703FE07481030016841F4000141
:102820000160006800F40000059007B0F0BD0000F2
:10283000005C0040303802400008024000000240C6
:102840000248816802781144816070477800002056
:102850000B4810B5016841F400710160016841F452
:1028600080610160016841F480710160032000F023
:102870009FF80F2000F006F800F050F8002010BD7F
:10288000003C024030B505461F4887B0002401686F
:1028900041F040010160006806A900F0400000908E
:1028A00001A800F04DFE0498A8B100F06FFE4000B2
:1028B0001649174AB0FBF1F11648491E026040F272
:1028C000E732C0E90324C0E90114846101F0AEFAE3
:1028D000040003D015E000F059FEE9E70D4801F0CF
:1028E0000DFB04000DD12B2000F034F8102D07D281
:1028F000002229462B2000F03BF80748056000E045
:10290000012407B0204630BD4038024040420F004D
:1029100000180040140D00207C0000200C4882B0FC
:10292000016841F480410160006800F4804000903B
:102930000748001F016841F08051016000680022D3
:1029400000F0805000900F21901E02B000F010B8EF
:1029500044380240002809DB00F01F0201219140A9
:102960004009800000F1E020C0F80011704700002D
:10297000F0B40E4B1B680C46C3F30223C3F10705EA
:10298000042D00D90425191D072901D2002300E0D8
:10299000DB1E012606FA05F1491E214099409E40A2
:1029A000761E16403143F0BC07F0E6B90CED00E0AE
:1029B000064900F0070208684FF6FF03184040EA96
:1029C0000220034A10430860704700000CED00E04D
:1029D0000000FA0570470068416200207047F0B5BA
:1029E0000368586A39B19C6A4FF4827600EB14444C
:1029F00000204D1E0AE040EA024098620FE006EB1C
:102A00008007DF59401C04EB1744C0B2A842F6D33C
:102A100044EA02404FF4807202EB810158500020DA
:102A2000F0BDD0F8E00405F042BF01EBC10200EBBD
:102A30008202D0F8E004126A05F097BE01EBC102F1
:102A400000EB8202D0F8E004D2F8602205F0E8BE84
:102A5000D0F8E00405F02DBF0A0601F00F0101EBEC
:102A6000C10100EB810101D5143101E001F51571BF
:102A7000006806F009BE70B504460B0601F00F00B1
:102A800000EBC00104EB81014FF001024FF00005A3
:102A900002D54A75143103E081F8555201F51571DC
:102AA000087094F89404012808D084F894242068CD
:102AB00006F004FB84F89454002070BD022070BD21
:102AC00070B5044601F00F002279904201D901202F
:102AD00070BD0B0601F00F0101EBC10104EB810198
:102AE0004FF001024FF0000502D54A75143103E0A2
:102AF00081F8555201F515718D70087094F89404A1
:102B0000012808D084F89424206806F049FC84F851
:102B10009454002070BD022070BD01F00F0101EB44
:102B2000C10100EB8100D0F8680270472DE9F04147
:102B300004460F0601F00F0000EBC00104EB810119
:102B40004FF001064FF0000502D54E75143103E039
:102B500081F8555201F51571C2F30A0208708A60B6
:102B60000B714A7802B14883022B00D14D7194F861
:102B70009404012809D084F89464206806F0F0F9E0
:102B8000284684F89454BDE8F0810220FBE710B594
:102B900001F00F0404EBC40100EB8101C1E99823AB
:102BA0000023C1F8683281F8553281F854428379A4
:102BB00001F51571012B00D1CA618279006806F018
:102BC00047FC002010BD70B504460D4601F00F0013
:102BD0002179884201D9012070BD29064FF00006F5
:102BE0004FF0010206D500EBC00104EB81014A75EC
:102BF000143107E005EBC50104EB810181F8556252
:102C000001F515718A70087094F89404012807D0B2
:102C100084F89424206806F0EFFB280702D007E030
:102C2000022070BDA17904F29C42206806F08CFB62
:102C300084F89464002070BD10B501F00F0404EB1B
:102C4000C40100EB8101C1E9082300238B62012349
:102C50004B7501F8144F8379012B00D1CA61827939
:102C6000006806F0F5FB002010BD00002DE9FC5FB8
:102C700005680446284606F0A3FD00287DD120689B
:102C800006F0CAFD002878D0D5F80808C0F30D205A
:102C9000C4F8D404206806F0BFFD800704D520687E
:102CA000416901F002014161206806F0B5FDC106ED
:102CB00004F29C40009034D52068816921F0100115
:102CC00081612F6A07F00F0000EBC00004EB800663
:102CD000C7F3434006F51576022802D0062811D026
:102CE0001AE047F6F070074216D0C7F30A121746EB
:102CF0002846F16806F094FDF0683844F060706989
:102D0000384408E008222846009906F089FD7069D9
:102D1000C7F30A11084470612068816941F010010D
:102D20008161206806F078FD00034FF0080B4FF03A
:102D3000000A4FF001097CD50026206806F04BFD03
:102D4000074674E0F80770D0F1B2206806F05CFD29
:102D50008046C00707D005EB4611C1F8089B3146F5
:102D6000204602F0C1FD5FEA087024D505EB46114C
:102D7000C1F808BB2068016C00E023E200EB4610BC
:102D80000191D0F8082BFB4B994205D9110403D5CA
:102D90004FF40041C0F8081B204600F0F6FAF54950
:102DA0000198884207D9A079012804D1206801211F
:102DB000009A06F0C9FA5FEAC86004D505EB46112F
:102DC0001020C1F8080B5FEA88701DD568690006FD
:102DD00005D5D5F8040840F48061C5F8041806EB61
:102DE000C60004EB800090F8571200F51570012919
:102DF00005D180F803A0F1B2204600F0E9F905EB17
:102E000046110220C1F8080B5FEA886004D505EB83
:102E100046102021C0F8081B5FEA884005D505EB65
:102E200046104FF40051C0F8081B7F08761C002F95
:102E300088D1206806F0F0FC40036ED5206806F0CB
:102E4000C3FC0746002666E0F80762D0F1B22068AE
:102E500006F0C8FC8046C00723D006F00F01D5F865
:102E6000342809FA01F18A43C5F8342805EB4611E4
:102E7000C1F80899A07901280FD106EBC60004EB30
:102E80008000D0E907211144016236B9606A20B997
:102E900020680121009A06F057FAF1B22046FFF7A8
:102EA000C4FD5FEA087003D505EB4611C1F808B907
:102EB0005FEAC86004D505EB46111020C1F8080987
:102EC0005FEA486004D505EB46104021C0F80819B8
:102ED0005FEA887016D53146284606F046FC06EBB8
:102EE000C60004EB8000C17D1430012905D180F8B3
:102EF00003A0F1B2204600F067F905EB461102206D
:102F0000C1F808095FEA086003D53146204602F09F
:102F100051FD7F08761C002F96D1206806F07CFCBE
:102F2000002811DAD5F8040820F00101C5F80418CA
:102F300094F8CC0401282BD0204600F00BFA20682E
:102F4000416901F000414161206806F065FC00051F
:102F50000BD5D5F80808C00702D0204600F03EFA8D
:102F60002068416901F400614161206806F054FC69
:102F7000C00467D5D5F8040820F00100C5F804089E
:102F80001021206806F0F1FB00214FF67F3220E08F
:102F900084F8CCA400212046FFF71CFDCFE700BF3A
:102FA00005EB4110C0F80829D0F8003923F40013CC
:102FB000C0F80039C0F8082BD0F8003B23F4001308
:102FC000C0F8003BD0F8003B43F00063C0F8003B82
:102FD000491C20798842E3D8D5F81C0840F001113B
:102FE000C5F81C18E07B002828460DD0D0F88408CE
:102FF00040F00B01C5F88418D5F8440840F00B01E7
:103000002846C5F844180DE0D0F8140842F22B0108
:103010000843C5F81408D5F8100840F00B012846FD
:10302000C5F81018D0F8000820F4FE61C5F80018A3
:10303000A1792068009A06F087F92068416901F4B7
:1030400080514161206806F0E7FB800415D52068B7
:1030500005F0C6FF206806F0A6FBE07100F090FACC
:103060000146E279206806F039FC204600F05CF960
:103070002068416901F400514161206806F0CCFBF1
:10308000000707D5204600F069F92068416901F082
:1030900008014161206806F0BFFB000616D5A8694B
:1030A00020F08001A96101260DE000BF06EBC600FB
:1030B00004EB800090F85702012803D1F1B22046BA
:1030C000FFF7CAFC761C2079B042EFD8206806F0E2
:1030D000A3FBC0021FD501264F4614E005EB4610A6
:1030E000D0F8001906EBC60004EB8002107E012820
:1030F00008D1002906DAF0B240F08001D7752046E9
:10310000FFF7AAFC761C2079B042E7D82068416915
:1031100001F480114161206806F07EFB800234D505
:1031200001204A4629E000BF05EB4011D1F8001B01
:1031300000EBC00304EB830393F85862012E1BD10C
:10314000002919DA94F8D46401F4803106F00106FC
:10315000B14211D183F85722A96941F08003AB61D4
:103160006969090608D4D5F8040840F40070C5F868
:10317000040805E00A30544F401C21798142D3D81D
:103180002068416901F400114161206806F044FBA8
:10319000400007D52046FFF744FC2068416901F054
:1031A00080414161206806F037FB40070AD520685E
:1031B0004568680702D52046FFF74AFC2068416849
:1031C00029434160BDE8FC9FD0F8E00405F0C3BB93
:1031D000D0F8E00405F0D3BBF8B5040005D094F8AE
:1031E00095042668002510B106E00120F8BD84F89A
:1031F0009454204600F056F8032084F89504B6F164
:10320000A04F00D1A571206806F098F8207C8DF8B9
:10321000000094E80F0005F0F1FE0226B8BB002183
:10322000206806F01CFB90BB002001270DE000BFCA
:1032300000EBC00104EB81014F750875C8850D7660
:10324000CD610D62401CC0B24D6221798142EFD840
:10325000002011E000EBC00104EB810181F8555220
:1032600081F8540281F85852C1F85C52C1F860529A
:10327000401CC0B2C1F8645221798142EAD8207C56
:103280008DF8000094E80F0005F09AFF10B184F863
:103290009564AAE7657484F89574206805F082FF48
:1032A0000020F8BD10B586B0044614216846FDF72D
:1032B00092F92068B0F1A04F2FD11948002102687F
:1032C00042F001020260006800F0010005904FF436
:1032D000C05000900220CDE90101032003900A2094
:1032E000049069460F48FFF799F80D48001D0168E2
:1032F00041F0800101600A481430016841F48041C6
:1033000001600068002200F4804005900521432000
:10331000FFF72EFB4320FFF71DFB06B010BD00009A
:10332000303802400000024070B50446C0790125E3
:1033300070B1022801D0FEF765F92946D4F8E004FF
:1033400005F08BFBD4F8E004BDE8704005F040BB0D
:103350000025F2E7D0F8E00405F068BBD0F8E004FF
:1033600005F06EBB10B5044690F8940401280AD00D
:10337000012084F894046174206806F09EFA00200D
:1033800084F8940410BD022010BDD0F8E02400F2AF
:103390009C41104605F06DBB10B50446006894F8DA
:1033A0009414012909D0012184F89414C1684906B4
:1033B00009D5617B012902D005E0022010BD816B97
:1033C00041F480318163206806F0ADF9206805F092
:1033D000DBFE002084F8940410BD000010B5044604
:1033E000D0F8E00405F087FB2068D0F8001E41F01B
:1033F0000101C0F8001EE07A002804D002480168EC
:1034000041F00601016010BD10ED00E02DE9F0472C
:103410000E46050065D0DFF81481D8F80000F7B239
:1034200000F00700B04207D288F80070D8F800001A
:1034300000F00700B04254D128683D4C810712D5F6
:10344000400703D5206840F4E0502060287800074A
:1034500003D5206840F4604020602068A96820F00F
:10346000F000084320602878C0072DD030496868F4
:103470000839012812D0022813D0032811D0096876
:10348000890700292DDA216821F003010143216019
:10349000FFF7C2F8814641F2883A0EE009688903D5
:1034A000EFE709688901ECE7FFF7B6F8A0EB09013F
:1034B000514502D90320BDE8F0872068696800F013
:1034C0000C00B0EB810FEFD1D8F80010404601F0AE
:1034D0000701B14207D90770006800F00700B04249
:1034E00001D00120E7E72878400705D52068E96882
:1034F00020F4E050084320602878000706D52068B3
:10350000296920F4604040EAC100206000F05EF8C4
:103510002168084AC1F30311515CC840064908609C
:1035200006480068FFF7AEF90020C4E7003C0240FF
:103530000838024044C20008840000207C000020BB
:103540000F2202600C4A136803F003034360136800
:1035500003F0F0038360136803F4E053C360126860
:103560004FF4E05303EAD20202610448006800F01D
:10357000070008607047000008380240003C024025
:103580000148006870470000840000200448054995
:1035900000680968044AC1F38221515CC840704741
:1035A000840000200838024054C20008044805493D
:1035B00000680968044AC1F34231515CC840704751
:1035C000840000200838024054C20008154810B595
:1035D000006810F00C02144813D01449042A0FD0CC
:1035E000082A0ED10F4C241F2268236802F03F02E4
:1035F0005B0207D52068C0F38810A0FB010106E03C
:10360000084610BD2168C1F38811A1FB0001002309
:10361000FCF7AAFE2168C1F30141491C4900B0FB37
:10362000F1F010BD083802400024F400001BB70080
:103630002DE9F84F04006ED02078DFF84C93C007D6
:10364000A9F104054AD009F104000168C1F3810120
:10365000012908D00068C0F3810002280AD1D9F8F6
:103660000000400206D52868800337D5606800282E
:10367000E1D033E06068B0F5803F10D0B0F5A02F06
:10368000286810D020F480302860286820F480203A
:1036900028606068A8B1FEF7BFFF06460DE0286805
:1036A00040F48030F4E740F480202860F7E700BF62
:1036B000FEF7B2FF801B642873D828688003F7D513
:1036C0000CE0FEF7A9FF064605E000BFFEF7A4FFE9
:1036D000801B6428F0D828688003F7D42078DFF8AE
:1036E000AC8280074FF0000A3ED5A748001D016854
:1036F00011F00C0F08D00068C0F3810002280BD134
:10370000D9F80000400207D42868800716D5E06881
:10371000012800D112E033E1E068B8B10120C8F817
:103720000000FEF779FF064605E000BFFEF774FFD4
:10373000801B0228C0D828688007F7D5286821692F
:1037400020F0F80040EAC10028600DE0C8F800A0B1
:10375000FEF762FF064604E0FEF75EFF801B0228CC
:103760001FD828688007F7D42078000722D5864F15
:1037700087486169703771B101210160FEF74CFF24
:10378000064604E0FEF748FF801B022809D8386887
:103790008007F7D50EE0C0F800A0FEF73DFF064613
:1037A00005E082E0FEF738FF801B02287DD83868EC
:1037B0008007F7D42078400768D5DFF8CCB1002720
:1037C0000BF13C0BDBF80000C0000BD4DBF8001061
:1037D00041F08051CBF80010DBF80000012700F029
:1037E000805000906B4E3068C00510D4306840F4B3
:1037F00080703060FEF710FF009005E0FEF70CFFD0
:103800000099401A022850D83068C005F6D55E4E9F
:10381000A0686C3601280FD00528306810D020F041
:1038200001003060306820F004003060A068B8B15A
:10383000FEF7F2FE00900FE0306840F00100F4E780
:1038400040F004003060F7E7FEF7E6FE0099411A09
:1038500041F28830814266D830688007F4D50EE0A6
:10386000FEF7DAFE009007E0FEF7D6FE0099411A57
:1038700041F28830814256D830688007F4D42FB1A5
:10388000DBF8001021F08051CBF80010A069C8B31C
:103890003D49091D0968C1F3810102294AD0022866
:1038A000504607D0C8F8600000E03CE0FEF7B4FEE8
:1038B00004463BE04746C8F86000FEF7ADFE06460A
:1038C00005E000BFFEF7A8FE801B02282BD8286861
:1038D0008001F7D4D4E907010843A16A2E4A4908B8
:1038E00002EB0141626A41EA8211084394F82C100C
:1038F00040EA0161C9F8001001203866FEF78CFE2D
:10390000044606E03EE000BFFEF786FE001B0228EC
:1039100009D828688001F7D534E000BFFEF77CFEA7
:10392000001B022802D90320BDE8F88F2868800117
:10393000F4D427E00128F7D0D9F80000E26900F4B8
:10394000800191421CD1226A00F03F01914217D1BF
:1039500047F6C071626A0140B1EB821F10D1A26AC2
:103960004FF0FF3300F4403103EB5202B1EB024F52
:1039700006D194F82C1000F07060B0EB016F01D00C
:103980000120D1E70020CFE7043802400000474281
:10399000800E4742007000400000FFFF70B5040039
:1039A00009D0606A002540B125616561A56294F87F
:1039B000510040B10CE0012070BD6068B0F5827F1D
:1039C000F4D0E561F2E784F85050204600F044F866
:1039D000022084F851002068016821F04001016054
:1039E000A088218900F4827001F404410843A18970
:1039F00001F400610843217C01F002010843217DAC
:103A000001F001010843218B01F400710843217F7B
:103A100001F03801084394F8201001F080010843B8
:103A2000218D01F40051084321680860A069042138
:103A300001EA104094F8241001F0100108432168B5
:103A400048602068C16921F40061C1616565012099
:103A500084F85100002070BD2DE9F04186B0064683
:103A600014216846FCF7B7FD34493068884262D1BA
:103A700033480024016841F480510160006800F47B
:103A8000805005902E481438016841F00201016011
:103A9000016801F002010591016841F00101016036
:103AA0000068022500F0010005901820CDE900050E
:103AB00002AA03274FF0050882E8900169462148D1
:103AC000FEF7ACFC8020CDE9000502AA694682E839
:103AD00090011D48FEF7A2FC1D4D1C487F06286082
:103AE000C5E901744FF48068C5E903486C61AC61B5
:103AF000EC612C6228466C62FEF7BAFB08B1FDF758
:103B000081FDF564AE63124D104860351830E5E86C
:103B100002074020A5E811010D4845F8144960301E
:103B2000AC61EC612C626C62FEF7A2FB08B1FDF7A0
:103B300069FDB564AE6306B0BDE8F08100300140B8
:103B40004438024000040240000002404064024049
:103B5000CC0900202DE9FF4F81B01D469346044655
:103B60004FF001090E9EFEF757FD074694F85100ED
:103B70006168012806D0B1F5827F3CD1A168C9BB3C
:103B8000042838D10298002871D0BBF1000FFBD077
:103B9000002DF9D094F8500001282CD04FF0010AE4
:103BA00084F850A094F85100042802D0052084F82D
:103BB00051004FF00008C4F85480C4F838B0E587CD
:103BC000A58702992163E586A586C4F84080C4F8DC
:103BD000448020680168490603D4016841F040012F
:103BE0000160E068B0F5006F606808D0F0B3012DA7
:103BF00049D081E0FFE7022005B0BDE8F08F08B1B1
:103C0000012D39D1206B21680088C860206B801C91
:103C10002063E08E401EE0862EE0206881688907E0
:103C20000FD5E18E69B1B9F1010F0AD1216B098875
:103C3000C160206B801C2063E08E401EE0864FF048
:103C4000000920688168C9070CD0E18F51B1C068B4
:103C5000A16B0880A06B801CA063E08F401EE087F2
:103C60004FF00109FEF7D8FCC01B01E00BE067E054
:103C7000B04201D3701C50D1E08E0028CDD1E08F2E
:103C80000028CAD13EE0206B216800780873206BC1
:103C9000401C2063E08E401EE0862DE02068816895
:103CA00089070FD5E18E69B1B9F1010F0AD1216BF6
:103CB00009780173206B401C2063E08E401EE08673
:103CC0004FF0000920688168C9070CD0E18F51B11D
:103CD000C068A16B0870A06B401CA063E08F401E01
:103CE000E0874FF00109FEF797FCC01BB04202D3FA
:103CF000701C01D011E086B1E08E0028CED1E08F9B
:103D00000028CBD13A463146204603F0E9FB50B1BA
:103D10002020606584F8508012E084F851A084F877
:103D20005080032068E7A06818B92068C1688068DF
:103D3000009084F851A084F85080606D0028F1D084
:103D4000012059E77047704710B590F83C20012AD0
:103D500022D0012280F83C20CA688C6822F440728C
:103D600022434C6822F4806222430C6822F40062F1
:103D700022430C6922F4805222434C6922F40052FF
:103D80002243C969002322F480420A4301684A643D
:103D900080F83C30002010BD022010BD70B590F8B6
:103DA0003C20012A32D0012480F83C40022280F8D5
:103DB0003D2003685A689D6822F070060A68324305
:103DC0005A60134B02689A4214D0B2F1804F11D05E
:103DD000104B9A420ED0104B9A420BD00F4B9A4286
:103DE00008D00F4B9A4205D00E4B9A4202D00E4B90
:103DF0009A4204D1496825F080031943916080F804
:103E00003D40002180F83C10084670BD022070BD86
:103E1000000001400004004000080040000C004089
:103E200000040140004001400018004010B50400AB
:103E300003D094F83D0010B107E0012010BD002030
:103E400084F83C00204600F01FF8022084F83D0072
:103E5000211D206803F0DEFD012084F8460084F86F
:103E60003E0084F83F0084F8400084F8410084F864
:103E7000420084F8430084F8440084F8450084F844
:103E80003D00002010BD000008B5184A0168184820
:103E9000914207D1016841F001010160006800F022
:103EA000010020E0134A914213D11148001F01681C
:103EB00041F0040101600068002200F0040000905D
:103EC00005211E20FEF754FDBDE808401E20FEF728
:103ED00041BD094A914207D1016841F400310160B6
:103EE000006800F40030009008BD000000000140B0
:103EF00044380240000800400044014090F83D1062
:103F0000012901D001207047022180F83D1001688D
:103F1000CA6842F00102CA6000681149884214D0A0
:103F2000B0F1804F11D00F4988420ED00E4988421F
:103F30000BD00E49884208D00D49884205D00D4962
:103F4000884202D00C49884204D1816801F00701FF
:103F5000062903D0016841F001010160002070478B
:103F6000000001400004004000080040000C004038
:103F700000040140004001400018004070B50446B4
:103F800090F83C000025012817D0012684F83C60F9
:103F9000022084F83D002068826822F0770222F433
:103FA0007F4282600868502838D00DDC20284FD02E
:103FB00005DC90B3102811D14AE0022070BD3028F2
:103FC00046D040280AD13BE060282FD070280DD081
:103FD000B0F5805F03D0B0F5005F12D0012584F802
:103FE0003D60002084F83C00284670BDCB68D1E9D4
:103FF0000121206803F07AFD2068816841F0770193
:1040000009E0CB68D1E90121206803F06FFD206849
:10401000816841F480418160E1E719E0CA6849683C
:10402000206803F037FE5021206806E0CA6849681E
:10403000206803F040FE6021206803F061FDCEE7B8
:10404000CA684968206803F025FE40212068F4E72B
:10405000226801461046F0E770472DE9F04104461A
:104060000068C66805694FF00007A90713D5B107B6
:1040700011D5F91E01610120207720688069800731
:10408000204602D0FFF7E8FF04E000F0C1F8204628
:1040900000F053F92777680716D5700714D5216803
:1040A0006FF004000861022020772068806910F416
:1040B000407F204602D0FFF7CFFF04E000F0A8F8D1
:1040C000204600F03AF92777280715D5300713D591
:1040D00021686FF008000861042020772068C0691B
:1040E0008007204602D0FFF7B7FF04E000F090F809
:1040F000204600F022F92777E80616D5F00614D5F9
:1041000021686FF010000861082020772068C069DE
:1041100010F4407F204602D0FFF79EFF04E000F03D
:1041200077F8204600F009F92777E80708D0F0076C
:1041300006D021686FF001000861204600F0FEF80B
:10414000280608D5300606D521686FF08000086182
:104150002046FFF7F7FD680608D5700606D52168EA
:104160006FF040000861204600F0F2F8A8060AD57A
:10417000B00608D521686FF0200008612046BDE830
:10418000F041FFF7E0BDBDE8F081000010B586B05A
:10419000044614216846FCF71EFA2368174C0022D7
:1041A00017480221A34212D1026842F010020260B5
:1041B000006800F0100005904FF42060CDE9000188
:1041C0000120CDE90201049069460E4812E00E4C30
:1041D000A34211D1036843F002030360006800F0BA
:1041E00002000590A0158DE807000320CDE903200B
:1041F00069460648FEF712F906B010BD00000140FE
:1042000030380240001002400044014000040240E7
:10421000704770B5044690F83C0000260D46012812
:104220000FD0012084F83C006AB1042A1DD0082A6E
:104230002FD00C2A3FD00126002084F83C003046C5
:1042400070BD022070BD206803F062FC20688169A7
:1042500041F0080181612068816921F004018161D8
:10426000206881692A69114311E0206803F080FC0D
:104270002068816941F4006181612068816921F4CD
:1042800080618161206881692A6941EA0221816136
:10429000D2E7206803F0A2FC2068C16941F0080160
:1042A000C1612068C16921F00401C1612068C16950
:1042B0002A69114311E0206803F0C4FC2068C16939
:1042C00041F40061C1612068C16921F48061C1616C
:1042D0002068C1692A6941EA0221C161ACE710B5D1
:1042E000040003D094F83D0010B107E0012010BD98
:1042F000002084F83C00204600F01EF8022084F8DC
:104300003D00211D206803F085FB012084F8460054
:1043100084F83E0084F83F0084F8400084F84100AF
:1043200084F8420084F8430084F8440084F845008F
:1043300084F83D00002010BD7047704700680349B5
:10434000884201D1FEF77CBA704700000018004097
:104350007047704770470000F8B501680446086868
:10436000CA684B6910F00F0F4FF0000559D003F0E9
:10437000010602F49077374365D0C10705D0D10517
:1043800003D5616C41F001016164410705D5D9078E
:1043900003D0616C41F002016164810705D5D90742
:1043A00003D0616C41F004016164010707D502F09C
:1043B0002001314303D0616C41F008016164616CFC
:1043C00000293AD0800604D5900602D5204603F095
:1043D000B3FC20684069616CC0F38010090700D409
:1043E00060B3204603F081FC20684069400621D577
:1043F0002068143050E8001F21F0400140E800120E
:10440000002AF5D1E06BA8B16E490165E06BFDF7BC
:104410004DFE002811D0E06B016D01B0BDE8F04009
:10442000084783060FD593060DD52046BDE8F84012
:1044300003F082BC2046FFF78DFFF8BD2046FFF752
:1044400089FF6564F8BD266B2023012E7DD1C60649
:104450007BD5D60679D508684868009048694FF042
:104460000206400641D5E16B086840680004000C74
:10447000E8D0A28D8242E5D9E085C869B0F5807F99
:104480002DD020680C3050E8001F21F4807140E8E6
:104490000012002AF5D12068143050E8001F21F0E6
:1044A000010140E80012002AF5D12068143050E8DC
:1044B000001F21F0400140E80012002AF5D184F8E5
:1044C0004230256320680C3050E8001F21F01001B5
:1044D00040E80012002AF5D1E06BFDF79EFD66630F
:1044E000A08DE18D401A81B22AE0A08DE18D401AA5
:1044F00081B2E08D0028A5D00029A3D022680C321B
:1045000052E8000F20F4907042E80007002FF5D128
:104510002068143050E8002F22F0010240E8002704
:10452000002FF5D184F84230256320680C3050E824
:10453000002F22F0100240E80023002BF5D1666323
:104540002046FFF706FFF8BDFFE705062BD5150649
:1045500029D594F841002128F5D1A068B0F5805FF5
:1045600001D12069B0B1206A411C21622168007824
:104570004860E08C401E0004000CE084E3D1206819
:10458000C16821F08001C1602068C16841F040012C
:10459000C160D8E7206A0088C0F308004860206A3C
:1045A000801C2062E5E74006CDD55006CBD5CA6811
:1045B000204622F04002CA6084F8413000F0F1F851
:1045C000C1E70000DB7C000870B5040004D094F85B
:1045D0004100002510B106E0012070BD84F8405074
:1045E000204600F023F8242084F841002068C168A8
:1045F00021F40051C160204603F000FC20680169ED
:1046000021F4904101612068416921F02A01416152
:104610002068C16841F40051C1606564202084F8BD
:10462000410084F842006563002070BD2DE9F04F21
:1046300087B0064614216846FBF7CDFF5148504D20
:10464000316802220323002407154FF4807A4FF4C7
:10465000403BA94238D14B4910310D6845F48025C3
:104660000D60096801F480210591016841F00401A1
:1046700001600068694600F00400059098028DE82A
:1046800015000720CDE903303F48FDF7C7FE404D38
:104690003E4805F1180128607804C5E90104C5E920
:1046A00003476C6181E8100C28466C62FDF7E0FD61
:1046B00008B1FCF7A7FFF563002205212720AE63B0
:1046C000FEF756F9272056E0324DA94255D12D4923
:1046D00014310D6845F020050D60096801F02001D6
:1046E0000591016841F0400101600068694600F0F1
:1046F000400005904FF484408DE815000820CDE976
:1047000003302548FDF78AFE214D244860354FF0DF
:1047100020692860C5E90194C5E903476C61C5E9D2
:10472000064AC5E908B4B8465F462846FDF7A0FD2D
:1047300008B1FCF767FFF563AE63154D1748C03548
:104740007830E5E802094020A5E81101104845F855
:104750001449C030AC61C5E907476C62FDF788FDBC
:1047600008B1FCF74FFFB563002205214720AE6377
:10477000FEF7FEF84720FEF7EDF807B0BDE8F08F32
:1047800000480040303802400008024028600240E3
:10479000F40B00200014014000180240286402407D
:1047A00070477047FEE700001FB50027072000E0B4
:1047B000642006F092F9FCF733F80028F8D1A64AF5
:1047C000101DCDE90202A2F11005291DFCF740F8E9
:1047D0002B46A3F1280205F16C08A2F10C01A1F10E
:1047E0000C00CDF8008006F00BF89FED9C2ADFED61
:1047F0009C1A9FED9C1ADFED9C0A9FED9C0A05F127
:10480000880001F087F9A5F12802A2F10C0101F15D
:104810001800FBF753FF002006F096F906F0CCFFD6
:10482000934C944920621020C8610846FFF7B6F8FF
:1048300008B1FCF7E7FE8E4908223431A1F10800E7
:1048400002F0D6FD012020719FED8B0ADFF808925F
:1048500009F1140989ED050A9FED880A89ED060A18
:104860009FED870A4FF0FF3B89ED070A09F1980A8F
:1048700006F0F2FF5E4601903146012006F072FC20
:104880000128F9D1A07908B97F1CBFB2A07930B94D
:10489000B7F5FA7F03D90120A0714FF42F77207864
:1048A000400720D5207820F004002070704802993D
:1048B0003530FBF785FF95ED050AD9ED050A30EE99
:1048C000600A85ED050A95ED060AD9ED060A30EE77
:1048D000600A85ED060A95ED070AD9ED070A30EE64
:1048E000600A85ED070A607840070AD5607820F0F5
:1048F00004006070584A291D1032A2F12A00FBF70B
:1049000015FFA07840070CD5A07820F00400A07017
:10491000574803992630FCF775F895ED040A06F020
:1049200061F84D4BCDF80080103BA3F12802A2F1B5
:104930000C01A1F10C0005F063FF47486838A0F1B5
:104940000C0290ED001A00F10C0182ED001AD1ED7D
:10495000000AC0ED000A9FED4B0A60EE801ADFED01
:104960004A0A00F1240341EE201A93ED002A9FED3C
:10497000471A42EE011AC1ED001AD0ED011AC2ED3C
:10498000011A91ED012A80ED012A22EE002A01EEA2
:10499000A02AD3ED011A01EE812A81ED012AD0ED82
:1049A000021AC2ED021A91ED022A0A4680ED022A8D
:1049B00022EE000A3C3001EEA00AD3ED020A0C33CD
:1049C00000EE810A81ED020A0C319FED310AFBF7FE
:1049D00085FE214B5646B433A3F10801321DA1F1E7
:1049E000D80005F0B4FEFDF717FEA16961B1411AC8
:1049F00000EE101A94ED051AF8EEC00A94ED0A0ABA
:104A000001EE200A84ED0A0AD6ED000A9FED210A84
:104A1000114960EE801ADFED200AB83181EEA01A4C
:104A2000D4ED0A1A31EE211A81ED001A96ED011A21
:104A300021EE001AC1EE201AC1ED011A96ED021AFC
:104A400021EE000A80EE201A81ED021AA0610121F8
:104A500001A806F0D3FC0BE7A46C00200080894578
:104A600000A08C4500000000CDCC4C3E0000C844A6
:104A7000B40500207409002039598ABA9ECFBD3A86
:104A80008EE839395AF8F63F5D896EBFD5A9183BD3
:104A90006F12833A00003443DA0F4940F0B5002327
:104AA0000A24302537261F4611E000BFB4EB107FE3
:104AB00002D905EB107C01E006EB107C01F813C075
:104AC00001EB430C00015B1C8CF80170DBB29342DC
:104AD000ECD3F0BD884201DA084670479042FCDD15
:104AE00010467047104810B50E490160032141601F
:104AF00000214FF410228160C0E903124FF400122C
:104B000042610176012242768276C2760177417750
:104B1000FDF77FF8002803D0BDE81040FCF772BD18
:104B200010BD000000640040D0080020104810B5FF
:104B30000E4901600321416000214FF41022816081
:104B4000C0E903124FF4001242610122027641765D
:104B50008276C27601774177FDF75BF8002803D0B3
:104B6000BDE81040FCF74EBD10BD000000680040DD
:104B7000F80800201D4808B5016841F48001016073
:104B8000016801F480010091016841F400110160A5
:104B90000068002200F40010009005210C20FDF7B1
:104BA000E7FE0C20FDF7D6FE002205213920FDF797
:104BB000DFFE3920FDF7CEFE002205213A20FDF769
:104BC000D7FE3A20FDF7C6FE002205213B20FDF767
:104BD000CFFE3B20FDF7BEFE002205214520FDF75C
:104BE000C7FEBDE808404520FDF7B4BE303802409E
:104BF00010B59CB01C2216496846FBF790FC0021BA
:104C0000684605F076FF134C11491C2220601C31C8
:104C100007A8FBF784FC002107A805F06AFF0C49F0
:104C200060601C2238310EA8FBF779FC00210EA829
:104C300005F05FFF0649A0601C22543115A8FBF760
:104C40006EFC002115A805F054FFE0601CB010BDFB
:104C5000CCC10008000000202DE9F04F87B01421DE
:104C60006846FBF7B8FC63480025016841F0020183
:104C70000160016801F002010591016841F0400105
:104C80000160016801F040010591016841F00101F6
:104C90000160016801F001010591016841F008011E
:104CA0000160016801F008010591016841F004010B
:104CB0000160016801F004010591016841F0800183
:104CC0000160016801F080010591016841F0200157
:104CD0000160016801F020010591016841F01001B7
:104CE00001600068DFF8109100F0100005900122CB
:104CF00040214846FDF78AFCDFF800A14FF4C05878
:104D0000002241465046FDF781FCDFF8F4B0012255
:104D100010215846FDF77AFC012211463948FDF76B
:104D200075FC02264FF488170096CDE90175694697
:104D30003548FDF773FB01244020CDE900040294BF
:104D4000694648460394FDF769FBCDF80080CDE93C
:104D50000145694650460395FDF760FB0920CDE902
:104D60000007694602944846FDF758FB1020CDE93C
:104D70000004CDE9024669465846FDF74FFB302056
:104D8000CDE90007694602942048FDF747FBCDE9CD
:104D90000246009469461B480194FDF73FFB002240
:104DA00005210620FDF7E4FD0620FDF7D3FD0022D6
:104DB00005210720FDF7DCFD0720FDF7CBFD0022D4
:104DC00005210920FDF7D4FD0920FDF7C3FD0022D0
:104DD00005210A20FDF7CCFD0A20FDF7BBFD0022CE
:104DE00005211720FDF7C4FD1720FDF7B3FD07B01F
:104DF000BDE8F08F3038024000180240001C02402D
:104E0000000002400004024000140240000802407A
:104E10000D4810B50B4901600C49416000214FF469
:104E200080428160C0E9031241618161C161016218
:104E3000FDF7F8FB002803D0BDE81040FCF7E2BB0B
:104E400010BD0000005C004020090020801A060010
:104E5000104810B50E4901604FF482714160002185
:104E600002228160C0E90312012242615202826182
:104E70003822C0E90721416281620A21C162FEF73E
:104E80008DFD002803D0BDE81040FCF7BBBB10BD72
:104E9000003001407409002010B588B01C2168461C
:104EA000FBF799FB144813490024C0E900144FF69E
:104EB000FF71C0E9024104618461FEF7B7FF08B1E8
:104EC000FCF7A0FB0C48FFF70AFA08B1FCF79AFBC5
:104ED0006020CDE90004029400226946064804944B
:104EE000FFF797F908B1FCF78DFB0348FFF74EF980
:104EF00008B010BD004401401C0B002010B596B056
:104F000000240F9410941194129413941C21684659
:104F10001494FBF760FB202107A8FBF75CFB2D48EE
:104F20002B490160A721C0E9011444F61F61C0E9C3
:104F3000031444618461FEF779FF08B1FCF762FB5A
:104F40004FF480500F900FA92248FFF717F808B1CF
:104F5000FCF758FB1F48FFF7C2F908B1FCF752FBFA
:104F6000139413A91B481494FEF718FF08B1FCF71B
:104F700049FB602000904FF4FA60CDE901040394EE
:104F8000049405940022694612480694FFF741F9FB
:104F900008B1FCF737FB042269460E48FFF739F9E0
:104FA00008B1FCF72FFB0794089409944FF40050C4
:104FB0000A94CDE90B4007A906480E94FEF7C4FEFB
:104FC00008B1FCF71FFB0348FFF7E0F816B010BD6F
:104FD000000001408C0A002010B586B0002417485C
:104FE000009401940294039404941349059401607D
:104FF00044F2A011C0E9011441F28831C0E9031460
:105000008461FEF713FF08B1FCF7FCFA4FF48050FF
:10501000009069460948FEF7B1FF08B1FCF7F2FAC3
:10502000049404A905480594FEF7B8FE002801D0B1
:10503000FCF7E8FA06B010BD00080040D40A0020D2
:105040000D4810B50B4901600C49416000214FF437
:1050500080628160C0E903120C22C0E90521C161B0
:10506000FFF7B2FA002803D0BDE81040FCF7CABA37
:1050700010BD000000480040640B0020A086010025
:105080000C4810B50A4901604FF4612141600021CC
:1050900081600C22C160C0E904128161C161FFF727
:1050A00093FA002803D0BDE81040FCF7ABBA10BD5E
:1050B00000140140AC0B002010B500220F4910482D
:1050C00003F02EFB08B1FCF79DFA0E490C4803F0E3
:1050D0003EFD08B1FCF796FA0B49094803F0ECF8DD
:1050E00008B1FCF78FFA064803F0B4FD002803D09E
:1050F000BDE81040FCF786BA10BD00001400002087
:105100005C0D0020E000002064000020F5EEC01AD5
:10511000B0EE413AF0EE603AB0EE404AF1EE10FAED
:1051200000B5024609D1B5EEC02AF1EE10FA04D15D
:10513000F5EEC02AF1EE10FA78D021EEA10A02EEC7
:10514000020A02EEA20A05F08BFC21EE805A62EE02
:10515000004A92ED011AD2ED030A22EE800AD2ED46
:10516000002A21EE202AD2ED021A22EE811A5C4892
:1051700002EEE12A01EEA01AF6EE001A52EEA21A91
:1051800040EEA01A60EE020A64EEA12A45EE610A22
:1051900040EE412A25EE010A90ED011A04EEC20A02
:1051A000B5EEC01AF1EE10FA2CDD90ED011AD0ED3B
:1051B000021A21EE222A9FED4B1A42EE011AC0ED8F
:1051C000021AD0ED011A21EEA02AD0ED031A42EE08
:1051D000011AC0ED031AD0ED011A21EE802AD0ED9C
:1051E000041A42EE011AC0ED041A90ED021A34EED0
:1051F000014A90ED031A73EE813A90ED041A33EEF2
:10520000013A07E09FED381A80ED021A80ED031A8B
:1052100080ED041A90ED001A01EE224A90ED001A7A
:1052200041EE203AD0ED000A00EE803A9FED2F0AC1
:10523000D2ED021A24EE002A63EE802A23EE001A31
:1052400092EC020A92ED033A60EEC23A41EEE23A83
:1052500043EE413A73EE804A60EE023AC2ED004AF4
:1052600041EE813A43EE623A33EEA04A60EE223AD2
:1052700020EE010A82ED014A40EEC13A00EEA20A98
:1052800043EE023A01EEC20A73EEA13A70EE030A4F
:1052900024EEA40AC2ED023AC2ED030A04EE040AA7
:1052A00003EEA30A00EEA00A05F0DAFBD2ED000A35
:1052B00060EE800AC2ED000AD2ED010A60EE800ABB
:1052C000C2ED010AD2ED020A60EE800AC2ED020AC6
:1052D000D2ED030A20EE800A82ED030A00BD000031
:1052E000680600206F12833A000000006F12033A34
:1052F000FEE7000070B5040037D0742005F018FEFA
:10530000050032D0206828602068C4F8250094F891
:10531000240085F8280094ED020A154885ED020A5C
:1053200094ED030A85ED030A94ED040A85ED040A61
:1053300094ED050A85ED050A94ED060A85ED060A49
:10534000C4F83250C4F82E0004F12500FBF792FC9B
:10535000686204F1380000F0FAFCE86204F16400CD
:1053600000F0F5FC2863284670BD002070BD0000E9
:105370008956000810B5040006D0A06820B1A079B5
:1053800020B1012809D011E0002010BD84ED0C0AE5
:10539000D4ED050AE06800F0C1FB84ED0D0AD4ED00
:1053A000060A206900F0BAFB84ED0E0A012010BD48
:1053B00010B5002871D0D0F83B10B1F91C2002B113
:1053C000CA83828D52BA12B28A83C38D5BBA1BB272
:1053D00000EE103AB8EEC00A81ED080A038E5BBAFF
:1053E000CB8490F8320000EE900AF8EE600AC1ED2E
:1053F0000A0AD1ED0B0A80EE201A81ED061AB1F9E6
:105400001E00824203DA101A00F5005202E0121A5E
:10541000A2F50050002A01DB134600E05342041EAF
:1054200000DA4442A34202DA888C104401E08A8CFC
:1054300010448884224A00B210445200904201D99C
:1054400000208884B1F924009FED1E0A0BE000BF04
:1054500001EE100AB8EEC11A00EE801ABDEEC11AB4
:1054600011EE100A00B20028F2DB60EE801A00BFD5
:1054700001EE100AB8EEC11AF4EEC11AF1EE10FAFC
:105480000CD201EE100AB8EEC11A00EEC01ABDEE41
:10549000C11A11EE100A00B2EAE70FE000EE100A9E
:1054A0009FED091AB8EEC00A20EE010A80EE201A1C
:1054B0009FED060A31EE400A81ED050A10BD00009D
:1054C000FAFFFF0000000046D40F493ADC0F4940C4
:1054D000F0B5204B00241D781F4B36E053F82460B4
:1054E000B768D7F804C08C452ED13F8C87422BD1AA
:1054F00096ED0E0A7779BDEEC00A052F02EB47073D
:1055000010EE106A4FEA16260FD207F8026C53F815
:10551000247097ED0E0A7F79BDEEC00A02EB4707B3
:1055200010EE106A07F8016C0EE007F80A6C53F8E9
:10553000247097ED0E0A7F79BDEEC00A02EB470793
:1055400010EE106A07F8096C641CAC42C6DB01203F
:10555000F0BD000085010020D86B002070B504006C
:1055600003D01F4E30780C2801D3002070BD3C20A2
:1055700005F0DEFC05463C21FBF72DF8206828608D
:10558000207928716079A87194ED060A85ED0B0ADF
:105590002079F0B1A07B687104F11C0000F0D7FB0A
:1055A000E86004F1480000F0D2FB28612068C4F8EC
:1055B00007000C48C4E90405E01DFBF75BFBA8608D
:1055C00050B10949307841F82050401C30702846CD
:1055D00070BDE089001FDEE7284605F07BFEC4E7CA
:1055E00085010020B1530008D86B002010B50400DD
:1055F0000ED0A36863B15968188C03F12202FFF73B
:1056000067FFA068FBF7C2FD002800D0012010BD95
:10561000002010BD18B1406A08B1042901D3002050
:105620007047054A02EBC1010A6840F8222F496819
:1056300041600120704700008601002010B5040081
:105640000ED0606A60B194F83410012908D10021AD
:1056500040F8221F416094F8280018B1012808D0B2
:10566000002010BD84ED1A0AD4ED140AE06A00F09F
:1056700055FA84ED1B0AD4ED150A206B00F04EFAA2
:1056800084ED1C0A012010BD70B5002875D000F112
:105690002C05D0F83B402878000984F83400B5F890
:1056A000010040BAA063E9782A79090141EA1211A0
:1056B000E1632A79697902F00F0241EA022121644B
:1056C00094ED130A102184ED110A94ED140A84ED6F
:1056D000120AD4ED020AB1EE600A05F02EFD84ED47
:1056E000130ADFED3E0A3E4902E000BF30EE600AD9
:1056F00010EE100A8842F9DC3A4900BF10EE100A99
:10570000884202D930EE200AF8E784ED140AD4ED7D
:10571000030A0C21E06BB1EE600A05F00EFD84ED8A
:10572000150AD4ED040A0C21206CB1EE600A05F0D4
:1057300004FD84ED160AA87900EE100AB8EE400ABE
:1057400084ED170AE87900EE100AB8EE400A84EDFD
:10575000180AD4ED130A94ED110AF4EEC00AF1EE22
:1057600010FA0BD294ED021A30EE811A31EE401A83
:10577000BDEEC11A11EE100A0AE02EE030EEC01A9A
:10578000BDEEC11A11EE100A94ED021A70EEC10AB4
:10579000002830EEC00ABDEEC00A10EE101A01DB80
:1057A000024600E04242002900DA4942D4ED190ADB
:1057B0008A4201DA00EE100A0B49B8EEC00A30EE58
:1057C000800A84ED190AB0EEC00A10EE100A884271
:1057D00003DD9FED060A84ED190A70BDDC0FC94098
:1057E000DC0F4940DC0F49C0FAFF7F4B000000008E
:1057F0002DE9F04104002DED028BB0EE418AF0EE70
:10580000608A05D0606A18B194F83400012804D089
:105810000020BDEC028BBDE8F08194ED021A10204F
:10582000F1EE410A04F07FFF94ED031A07460C20C5
:10583000F1EE410AB0EE680A04F075FFDFED228A4E
:10584000064694ED051A94ED070A0C20F0EE680A5E
:1058500004F069FF054694ED061A94ED080A0C2041
:10586000F0EE680A04F05FFF94ED041A80460C2005
:10587000F1EE410AB0EE480A04F055FF626A390AB7
:1058800082F82210616A81F82370626A310982F815
:105890002410626A310141EA152182F82510616AFB
:1058A00081F82650626A4FEA181182F82710626A5E
:1058B0004FEA081141EA102182F82810616A81F844
:1058C00029000120A5E700000000000018B1406A8F
:1058D00008B1FBF75BBC00207047FEE70148FDF70D
:1058E000C5B90000582400202DE9F04103680D4699
:1058F00004461E6C03EB4511D1F8080B94F806E042
:105900004FF400474FF0200C04F29C42BEF1010F0F
:1059100009D0DFF898E0764539D1020432D500BFCE
:10592000C1F8087B3FE0224B5FEA007E04D59E422F
:1059300039D90004F4D436E05FEA806E02D5C1F8AC
:1059400008CB30E010F0280F2DD19E4201D9000481
:10595000E6D405EBC50004EB8000D1F8101BD0F8AD
:105960007432C1F31201591AC0F8681200F51570AB
:10597000ADB903691BB1C2681144C1600FE00121D8
:1059800020680AE080060AD5C1F808CB07E035B9DF
:10599000D4F8640218B90021184603F0D5FCE9B226
:1059A0002046FDF74BF80020BDE8F0810A31544F46
:1059B0000A30544F2DE9F84F0E4601EBC60100EBBB
:1059C000810481460568D4E909101434884202D95B
:1059D0000120BDE8F88F081AA168814200D208466C
:1059E000C01C870805EB46181BE000BFA0EB010AAE
:1059F000A068504500D282460AF10300870899F852
:105A0000060000901FFA8AF3F2B22846E16803F01C
:105A1000D9FFE16801EB0A00E060616901EB0A006F
:105A20006061D8F8180980B2B84205D3D4E90401FE
:105A3000814201D20028D9D1D4E90401884208D892
:105A400006F00F0101208840D5F834188143C5F8CD
:105A500034180020BDE700B580ED050AC0ED060A48
:105A600090ED071A30EE600A80ED081A034680EDCB
:105A7000070AD0ED000A60EE800AC0ED090AD0EDF9
:105A80000A0AD0ED011A41EE800A30EE410AC0ED5B
:105A90000A0A90ED021A20EE010A83ED0B0A93ED3B
:105AA000030ABDEEC01AB1EE400ABDEEC00A11EE07
:105AB000102A10EE101ABDEEE00A10EE100AFFF7E1
:105AC00009F800EE100AB8EEC00A83ED0A0AD3ED19
:105AD000090A30EE800AD3ED0B0A30EE200A83ED7E
