:020000040800F2
:1000000070690020290300085736000841310008B4
:100010006135000883050008355B0008000000001A
:10002000000000000000000000000000690200085D
:100030008506000800000000C5020008753A0008A7
:100040004303000843030008430300084303000878
:100050004303000843030008430300084303000868
:100060004303000843030008430300084303000858
:10007000E5050008430300084303000843030008A4
:100080004303000843030008430300084303000838
:1000900085050008430300084303000843030008E4
:1000A0004303000843030008430300084303000818
:1000B0004303000843030008453B000843030008CE
:1000C00043030008430300084303000843030008F8
:1000D000430300084303000843030008514000089D
:1000E000430300084303000843030008513B000892
:1000F00043030008430300084303000843030008C8
:1001000043030008430300084303000843030008B7
:1001100043030008430300084303000843030008A7
:1001200043030008F10500084303000843030008E7
:100130004303000843030008430300084303000887
:1001400091050008430300084303000859360008DE
:1001500043030008FD05000843030008654000084C
:100160004303000843030008430300084303000857
:100170004303000843030008430300080000000095
:10018000430300084303000800F002F800F05CF8A5
:100190000AA090E8000C82448344AAF10107DA45E2
:1001A00001D100F051F8AFF2090EBAE80F0013F0D8
:1001B000010F18BFFB1A43F0010318470471000038
:1001C000247100000A444FF0000C10F8013B13F0BA
:1001D000070408BF10F8014B1D1108BF10F8015BA0
:1001E000641E05D010F8016B641E01F8016BF9D193
:1001F00013F0080F1EBF10F8014BAD1C0C1B09D1EA
:100200006D1E58BF01F801CBFAD505E014F8016B5B
:1002100001F8016B6D1EF9D59142D6D370470000ED
:100220000023002400250026103A28BF78C1FBD8FF
:10023000520728BF30C148BF0B6070471FB506F09A
:10024000F0FF1FBD10B510BD00F061F91146FFF7BA
:10025000F5FF05F0AFFC00F07FF903B4FFF7F2FF04
:1002600003BC00F087F900002C4B19680868B0E85F
:10027000F04F80F30988BFF36F8F4FF0000080F3D9
:10028000118870470000000008480068006880F38B
:1002900008884FF0000080F3148862B661B6BFF39F
:1002A0004F8FBFF36F8F00DF00BF00BF08ED00E08E
:1002B000DFF80C00016841F470010160704700BF75
:1002C00088ED00E0EFF30980BFF36F8F134B1A68DE
:1002D0001EF0100F08BF20ED108A20E9F04F1060CB
:1002E00009B44FF0500080F31188BFF34F8FBFF374
:1002F0006F8F06F071F84FF0000080F3118809BC91
:1003000019680868B0E8F04F1EF0100F08BFB0EC95
:10031000108A80F30988BFF36F8F70472001002097
:10032000EFF30580704700000948804709480047FF
:10033000FEE7FEE7FEE7FEE7FEE7FEE7FEE7FEE795
:10034000FEE7FEE704480549054A064B70470000F2
:10035000353B0008890100087063002070690020A7
:10036000706500207065002053EA020C00F069807F
:100370002DE9F04B4FF00006002B1FBFB3FA83F5B9
:1003800003FA05F424FA05F65E4012BF1643B2FAEA
:1003900082F502FA05F4C5F120051EBF22FA05FC1C
:1003A00044EA0C04203556EA044C4FEA144418BFC2
:1003B000641C4FF000084FF00009904271EB030CF1
:1003C00039D3002919BFB1FA81F701FA07F6B0FA5B
:1003D00080F700FA07F6C7F120071EBF20FA07FCD6
:1003E00046EA0C062037B6FBF4FCA7EB0507103FE6
:1003F00007F01F0BCBF120060CFA0BFB2CFA06F6CC
:1004000044BFB3460026202FA4BF5E464FF0000B2A
:100410005BEA060C08BF4FF0010B19EB0B09ABFBB5
:10042000027C48EB0608C01B06FB02CC0BFB03CC8E
:1004300071EB0C01C1E70B46024641464846BDE858
:10044000F08B13B54FF000004FF00001AFF30080C8
:10045000BDE81C40704710B5203AC0F00B80B1E8F1
:100460001850203AA0E81850B1E81850A0E81850E9
:10047000BFF4F5AF5FEA027C24BFB1E81850A0E8F2
:10048000185044BF18C918C0BDE810405FEA827C0C
:1004900024BF51F8043B40F8043B08BF7047D20723
:1004A00028BF31F8023B48BF11F8012B28BF20F8C4
:1004B000023B48BF00F8012B70474FF0000200B527
:1004C000134694469646203922BFA0E80C50A0E877
:1004D0000C50B1F12001BFF4F7AF090728BFA0E825
:1004E0000C5048BF0CC05DF804EB890028BF40F8F1
:1004F000042B08BF704748BF20F8022B11F0804F33
:1005000018BF00F8012B7047704770477047754659
:1005100000F02CF8AE4605006946534620F007006F
:10052000854618B020B5FFF70DFFBDE820404FF01D
:1005300000064FF000074FF000084FF0000B21F0CD
:100540000701AC46ACE8C009ACE8C009ACE8C0099A
:10055000ACE8C0098D46704710B50446AFF3008083
:100560002046BDE81040FFF778BE00000048704705
:100570000C63002001491820ABBEFEE726000200F4
:100580007047FEE7014800F014BB0000DC030020C8
:10059000014800F00EBB000004040020002070475A
:1005A0000020704710B500220449054803F040FFC1
:1005B0000449034803F02FFF002010BD90130020D2
:1005C000B4060020900B002010B50146034803F04C
:1005D00022FF024803F0F8FE002010BDB406002000
:1005E00000207047014800F0A3BD00004C0500202A
:1005F000014800F09DBD0000AC050020014800F05E
:1006000097BD00000C06002001681823CAB2103AFA
:10061000B2FBF3F2054B6FF30901032A9B5CC36540
:1006200000D9091D816508467047000070720008F6
:1006300010B5014600208B698A6A4FF0C07453B12F
:10064000B3F5005F15D072B1012A0CD0022A0AD08E
:10065000032A09D104E01AB1012A06D0022A03D1E3
:10066000C96AC90100D5012010BDC96AA142FAD0EA
:1006700010BD002AF7D0012AF2D0022AF3D0032AB3
:10068000F3D010BD704772B6FEE7000070B5294D7B
:100690009FED290B04462DED048B53EC102B95EDAB
:1006A000000B9FED229B51EC100B06F09BFA07D13B
:1006B000A06906F045FDC5E90001BDEC048B70BDE5
:1006C000A06906F03DFD95ED001B53EC112B06F0E3
:1006D0004DFC9FED1B0B41EC180B53EC102B06F05F
:1006E0000FFC06D253EC192B51EC180B06F03EFC14
:1006F0000EE09FED150B51EC180B53EC102B06F090
:10070000C5FA07D253EC192B51EC180B06F05EF822
:1007100041EC180BE06906F013FD53EC182B06F0C2
:1007200055F806F021F8E061C2E70000112D4454AD
:10073000FB2119401801002000000000000000000B
:10074000112D4454FB210940112D4454FB2109C0B3
:1007500000B5124887B0DFED120A0EC88DE80E0012
:1007600007C803AB9FED0F0A83E807006A46002124
:100770000D4803F0BBF8DFED0D0A9FED0D0A03AA4B
:1007800000210C4803F0B2F80C489FED0B0A80EDF5
:10079000070A80ED090A07B000BD0000907200084A
:1007A00000FC7F4600004844002300200080BB443A
:1007B0000000C8427C24002000000000C824002063
:1007C0002DED048B82B02A48FFF7C2FF294C2A4E38
:1007D0009FED2A9B2B4FDFF8B08000254FF4007966
:1007E0002448FFF753FFB6F9020006F037FA53EC3E
:1007F000192B06F087FA41EC180B606A06F0A0FC92
:1008000053EC182B06F0B2FB05F0AEFF00EE900A99
:100810001C48C4ED090A94ED070A02F0DBFF97EDCE
:10082000090ABDEEC00A10EE100A00B200EE100A6E
:100830002081B4F90600F8EEC00A00EE100A124852
:10084000B8EEC00A02F0C6FF98ED090A0023494637
:10085000BDEEC00A10EE100A02B2A28100950B484C
:10086000019502F0C7FE012005F0C7F9B8E70000C6
:10087000B8250020C824002094220020F168E388D5
:10088000B5F8143F7C24002000230020DC03002066
:1008900090F82020012A07D0022A05D0416A41F4AD
:1008A0008021416201207047006842690A43426129
:1008B00000207047F0B590F820500468A468012D1E
:1008C00005D0022D03D0416A41F4802157E014F095
:1008D000406F01D1E5004FD5C4F301640125A54067
:1008E0001D608D684FF4C0739DB1CE6835434E686E
:1008F00045EAC605066803EB0417F5514FF4C275C7
:10090000076805EB04150E697E51097D012905D0A4
:1009100009E00E88CD6845EA4655EBE701684E5977
:1009200046F480764E511179D579567941EA0561C0
:1009300095792D0445EA062529434FF4C6760568C6
:1009400006EB0416A9511178D57841EA056195782E
:1009500052782D0445EA022211434FF4C47502680F
:1009600005EB04155151006803EB0411425842F0A5
:10097000010242500020F0BD416A41F40011416281
:100980000120F0BD10B590F82020012A07D0022ADE
:1009900005D0416A41F480214162012010BD3B48ED
:1009A000D0F8002242F00102C0F80022D0F8002264
:1009B00022F47C52C0F80022D0F800224B6A42EAAE
:1009C0000322C0F800220A7D02F01F0301229A4090
:1009D000D0F81C329343C0F81C32CB69B3B9D0F8BD
:1009E0000C329343C0F80C328C894B6864F31F437C
:1009F0004C6900EBC404C4F840320C890B6864F302
:100A00001F434C6900EBC404C4F84432CB69012B8A
:100A100016D1D0F80C321343C0F80C320C884B6856
:100A200064F31F434C6900EBC404C4F840320C89E2
:100A3000CB6864F31F434C6900EBC404C4F8443230
:100A40008B69002BD0F804320ED01343C0F8043267
:100A50000B69002BD0F8143208D01343C0F81432BD
:100A6000096A012904D008E09343EFE79343F5E7CF
:100A7000D0F81C121143C0F81C12D0F8001221F05B
:100A80000101C0F80012002010BD00000064004009
:100A9000704770B590F82040012C05D0022C03D08F
:100AA000416A41F4802128E0046809B32469A4075D
:100AB00020D04FF4D874056804EB01142D5915F0BB
:100AC0000405956005682D591AD0ED085560056834
:100AD0002C5904F00204D4604FF4DA74056804EB76
:100AE00001142E5906F00F06082E0CD308250DE030
:100AF000E468DCE7416A41F400114162012070BD05
:100B00006D0D1560E3E72D5905F00F0515610568BA
:100B10002D59C5F30725956105682C59240C54619E
:100B20004FF4DC72046802EB0112A4581C700468D4
:100B3000A458240A5C700468A458240C9C700468AF
:100B4000A258120EDA704FF4DE72046802EB011242
:100B5000A4581C710468A458240A5C710468A45841
:100B6000240C9C710468A258120EDA71006829B135
:100B7000016941F020010161002070BDC16841F0B0
:100B80002001C160F8E70246002092F820100129F8
:100B900001D002290CD111688A68520100D50120C8
:100BA0008A68120100D5401C8968C90000D5401C24
:100BB00070472DE9F05F0546006800244669D0F8CB
:100BC00004908768D0F80CB0D0F810A0D0F8188046
:100BD000F10748D0F90714D001218160B80703D587
:100BE000284600F044FA0CE0780702D54FF4006480
:100BF00007E0380702D54FF4805402E0284600F0A1
:100C000035FAF80516D529684FF480708860B80564
:100C100003D5284600F02DFA0CE0780502D544F4FF
:100C2000005407E0380502D544F4804402E0284629
:100C300000F01EFAF80316D529684FF4803088605A
:100C4000B80303D5284600F016FA0CE0780302D565
:100C500044F4004407E0380302D544F4803402E051
:100C6000284600F007FA300707D55FEACB6004D5C5
:100C70002968102044F40074C86070074FF008071A
:100C800007D55FEA0B7004D52868C760284600F0D6
:100C900099F9B00706D52868C068800702D02846B1
:100CA00000F092F9700607D55FEACA6004D529689A
:100CB000102044F480640861B00607D55FEA0A702A
:100CC00004D528680761284600F0A0F9F00606D58B
:100CD00028680069800702D0284600F098F9B00320
:100CE00008D55FEAC96005D5296810204860284604
:100CF00000F08EF9F00307D55FEA097004D5286883
:100D00004760284600F0B8F9300446D55FEA4970DC
:100D100040D5F00504D55FEAC87001D044F0010465
:100D2000B00504D55FEA887001D544F0020470056F
:100D300004D55FEA487001D544F00404300529D594
:100D400018F0700F26D008F07000402815D006DC8F
:100D5000102809D020280AD0302816D10AE05028BF
:100D60000ED0602811D10EE044F008040DE044F0EC
:100D700010040AE044F0200407E044F0400404E0DA
:100D800044F0800401E044F480742868816921F013
:100D900070018161296804204860002C05D0686AD0
:100DA000204368622846FFF773FEBDE8F09F70B5E8
:100DB000040003D094F8200010B104E0012070BDBD
:100DC000204600F081F82068016841F001010160CF
:100DD00000F0F8FB0546052604E000F0F3FB401B9D
:100DE0000A2811D820684068C007F6D0206801683A
:100DF00021F00201016000F0E5FB05460BE000F088
:100E0000E1FB401B0A2806D9606A40F400306062AA
:100E100084F82060D2E7206840688007EFD4207E05
:100E20000128206801683DD021F080010160607ECA
:100E300001282068016838D021F040010160A07EBF
:100E400001282068016833D021F020010160E07E94
:100E50000128206801682ED041F010010160207F38
:100E600001282068016829D021F008010160607F15
:100E700001282068016824D021F004010160D4E930
:100E800002010843D4E90412114308436168491E72
:100E900008432168C86100206062012084F82000B6
:100EA000002070BD41F08001C0E741F04001C5E77E
:100EB00041F02001CAE721F01001CFE741F008011D
:100EC000D4E741F00401D9E7F0B587B00446142116
:100ED0006846FFF7F2FA364B3648DFF8D0E019687B
:100EE000D4F800C0334A0325022609271030002415
:100EF000491CF44522D11960012907D1016841F04C
:100F000000710160006800F000700590106840F00A
:100F1000080010601068CDE9005600F00800CDE927
:100F2000047069462448CDE9024500F04DFA0022DC
:100F30000521142000F0E4FB142032E0DFF87CE00F
:100F4000F44530D1D0F800C04CF0806CC0F800C03F
:100F5000D0F800C001290CF0806CCDF814C01960E5
:100F600007D1016841F000710160006800F0007075
:100F70000590106840F002001060106802AB00F0AD
:100F8000020005906020CDE9000683E8B0006946C4
:100F90000B4800F019FA00220521402000F0B0FBB8
:100FA000402000F09FFB07B0F0BD0000006400404F
:100FB0000800002030380240000C02400068004069
:100FC000000402407047000010B58AB0044607AB29
:100FD0006A460021FFF75DFD00990A46A1F2012152
:100FE000042909D8C8B2084900EB400001EB001001
:100FF000D2B207A902F0B6FA2068416941F00201B5
:1010000041610AB010BD0000C8240020704770473D
:101010007047000070B5044690F82000012804D005
:10102000606A40F40020606218E0022084F820002A
:101030002068016821F00101016000F0C3FA054653
:101040000EE000BF00F0BEFA401B0A2808D9606A13
:1010500040F400306062052084F82000012070BD5B
:1010600020684068C007EDD1606270BD704770476E
:10107000704770477047704770472DE9F04104464C
:10108000876D00F09FFA064694F835000025022887
:1010900006D08020606584F834500120BDE8F081DE
:1010A0002068016821F0160101602068416921F083
:1010B00080014161206C08B9A06C20B120680168F2
:1010C00021F0080101602068016821F00101016040
:1010D0000CE000F077FA801B052807D92020606516
:1010E000032084F8350084F83450D7E7206800687E
:1010F000C007EED194F85C103F208840B860012012
:1011000084F8350084F834500020C7E790F8351093
:10111000022903D08021416501207047052180F814
:1011200035100068016821F001010160002070475E
:101130002DE9F84304464FF00009CDF800906348CC
:101140004FF41651A56D0068B0FBF1F72E6894F8C6
:101150005C10082000FA01F131420FD021680A68C2
:1011600052070BD50A6822F004020A6094F85C105A
:101170008840A860606D40F00100606594F85C10E4
:101180004FF0010808FA01F0304208D0216849699F
:10119000090604D5A860606D40F00200606594F80F
:1011A0005C1004208840304208D021680968890713
:1011B00004D5A860606D40F00400606594F85C1090
:1011C00010208840304218D021680968090714D5DA
:1011D000A86020680168490304D50068000308D5A9
:1011E000A16C07E00168C90503D4016821F008017A
:1011F0000160216C09B12046884794F85C102020DA
:101200008840304231D021680968C9062DD5A860D0
:1012100094F8350005282068016806D0490347D5B1
:10122000006800031DD4616C1CE021F01601016010
:101230002068416921F080014161206C08B9A06CEF
:1012400020B12068016821F00801016094F85C1069
:101250003F208840A86084F8358084F83490216D60
:101260001FE0E16B09B120468847606D00282BD054
:10127000606DC00714D0052084F83500206801682F
:1012800021F0010101600098401C0090B84203D891
:1012900020680068C007F6D184F8358084F834905F
:1012A000E16C002910D001B02046BDE8F0430847AA
:1012B0000168C905D5D4016821F01001016084F8E6
:1012C000358084F83490CCE7BDE8F8837C000020BA
:1012D0002DE9F041044600F075F906465CB10220A4
:1012E00084F83500002584F834502068016821F026
:1012F000010101600DE00120BDE8F08100F062F91C
:10130000801B052805D920206065032084F835005E
:10131000F2E720680068C007F0D122681168204811
:101320000140D4E901031843D4E903363343184399
:1013300063691843A3691843E3691843236A184390
:101340000843616A042903D1D4E90B131943084304
:10135000106020684069666A20F0070130460E433D
:10136000012704280CD1A06A0643E06A40B1204658
:10137000FFF75EF920B14020606584F83570BAE768
:10138000206846612046FFF73FF994F85C203F2132
:1013900091408160656584F835700020ACE70000FD
:1013A0003F8010F070B5044600F00CF90546601C53
:1013B00002D004480078044400F004F9401BA04225
:1013C000FAD370BD700000202DE9F84FDFF8BCA102
:1013D0000022012503264FF00F090AF1040BAAF1A0
:1013E000040E00BF0B6805FA02F42340A34270D13B
:1013F0000F7907F00307012F01D0022F16D187685C
:101400004FEA420806FA08FC27EA0C07D1F80CC09C
:101410000CFA08FC4CEA070CC0F808C04768A74360
:101420000C79C4F3001494403C4344600C79E443C9
:10143000A4070AD0C4684FEA420C06FA0CF7BC4372
:101440008F6807FA0CF72743C7600C7904F0030490
:10145000022C12D1D40800EB840CDCF82040570792
:10146000FF0E09FA07F824EA0804D1F8108008FAF8
:1014700007F848EA0408CCF8208004684FEA420CD8
:1014800006FA0CF7BC430F7907F0030707FA0CF7CD
:10149000274307604C6814F4403F70D03C4C2768E9
:1014A00047F480472760246822F0030704F480444F
:1014B0000094384C07EB040CDCF8084897074FEA17
:1014C000177809FA08F7BC43334FB84202D1002716
:1014D00024E054E0314FB84201D101271EE0304FE3
:1014E000B84201D1022719E02E4FB84201D103279B
:1014F00014E02D4FB84201D104270FE02B4FB84222
:1015000001D105270AE02A4FB84201D1062705E09C
:10151000284FB84201D1072700E0082707FA08F74B
:101520002743CCF80878DAF800405746D1F804C0D1
:101530009C435FEACC2C00D51C433C60DBF80040A8
:101540005F46D1F804C09C435FEA8C2C00D51C4355
:101550003C60DEF800407746D1F804C09C435FEA67
:101560008C3C00D51C433C60084F083F3C68D1F8D8
:1015700004C09C435FEACC3C00D51C433C60521C39
:10158000102AFFF42FAFBDE8F88F0000083C01409F
:101590004438024000300140000002400004024094
:1015A00000080240000C02400010024000140240FB
:1015B00000180240001C02400AB181617047090412
:1015C000FBE70000014880687047000070000020C1
:1015D00002488168027811448160704770000020E1
:1015E0000B4810B5016841F400710160016841F4D5
:1015F00080610160016841F480710160032000F0A6
:101600009FF80F2000F006F800F050F8002010BD01
:10161000003C024030B505461F4887B000240168F1
:1016200041F040010160006806A900F04000009010
:1016300001A800F04DFE0498A8B100F06FFE400034
:101640001649174AB0FBF1F11648491E026040F2F4
:10165000E732C0E90324C0E90114846101F0DAF83B
:10166000040003D015E000F059FEE9E70D4801F051
:101670002BF904000DD12B2000F034F8102D07D2E7
:10168000002229462B2000F03BF80748056000E0C7
:10169000012407B0204630BD4038024040420F00D0
:1016A000001800406C060020740000200C4882B036
:1016B000016841F480410160006800F480400090BE
:1016C0000748001F016841F0805101600068002256
:1016D00000F0805000900F21901E02B000F010B872
:1016E00044380240002809DB00F01F02012191402C
:1016F0004009800000F1E020C0F8001170470000B0
:10170000F0B40E4B1B680C46C3F30223C3F107056C
:10171000042D00D90425191D072901D2002300E05A
:10172000DB1E012606FA05F1491E214099409E4024
:10173000761E16403143F0BC04F0FDB90CED00E01C
:10174000064900F0070208684FF6FF03184040EA18
:101750000220034A10430860704700000CED00E0CF
:101760000000FA0570470068416200207047F0B53C
:101770000368586A39B19C6A4FF4827600EB1444CE
:1017800000204D1E0AE040EA024098620FE006EB9E
:101790008007DF59401C04EB1744C0B2A842F6D3BF
:1017A00044EA02404FF4807202EB8101585000205D
:1017B000F0BDD0F8E00403F01EB901EBC10200EB6C
:1017C0008202D0F8E004126A03F073B801EBC102A0
:1017D00000EB8202D0F8E004D2F8602203F0C4B833
:1017E000D0F8E00403F009B90A0601F00F0101EB9B
:1017F000C10100EB810101D5143101E001F5157142
:10180000006803F0E5BF70B504460B0601F00F0059
:1018100000EBC00104EB81014FF001024FF0000525
:1018200002D54A75143103E081F8555201F515715E
:10183000087094F89404012808D084F8942420684F
:1018400003F0E0FC84F89454002070BD022070BDC9
:1018500070B5044601F00F002279904201D90120B1
:1018600070BD0B0601F00F0101EBC10104EB81011A
:101870004FF001024FF0000502D54A75143103E024
:1018800081F8555201F515718D70087094F8940423
:10189000012808D084F89424206803F025FE84F8F9
:1018A0009454002070BD022070BD01F00F0101EBC7
:1018B000C10100EB8100D0F8680270472DE9F041CA
:1018C00004460F0601F00F0000EBC00104EB81019C
:1018D0004FF001064FF0000502D54E75143103E0BC
:1018E00081F8555201F51571C2F30A0208708A6039
:1018F0000B714A7802B14883022B00D14D7194F8E4
:101900009404012809D084F89464206803F0CCFB87
:10191000284684F89454BDE8F0810220FBE710B516
:1019200001F00F0404EBC40100EB8101C1E998232D
:101930000023C1F8683281F8553281F85442837926
:1019400001F51571012B00D1CA618279006803F09D
:1019500023FE002010BD70B504460D4601F00F00B7
:101960002179884201D9012070BD29064FF0000677
:101970004FF0010206D500EBC00104EB81014A756E
:10198000143107E005EBC50104EB810181F85562D4
:1019900001F515718A70087094F89404012807D035
:1019A00084F89424206803F0CBFD280702D007E0D8
:1019B000022070BDA17904F29C42206803F068FD0A
:1019C00084F89464002070BD10B501F00F0404EB9E
:1019D000C40100EB8101C1E9082300238B620123CC
:1019E0004B7501F8144F8379012B00D1CA618279BC
:1019F000006803F0D1FD002010BD00002DE9FC5F60
:101A000005680446284603F07FFF00287DD1206842
:101A100003F0A6FF002878D0D5F80808C0F30D2001
:101A2000C4F8D404206803F09BFF800704D5206825
:101A3000416901F002014161206803F091FFC10694
:101A400004F29C40009034D52068816921F0100197
:101A500081612F6A07F00F0000EBC00004EB8006E5
:101A6000C7F3434006F51576022802D0062811D0A8
:101A70001AE047F6F070074216D0C7F30A1217466D
:101A80002846F16803F070FFF0683844F060706930
:101A9000384408E008222846009903F065FF706981
:101AA000C7F30A11084470612068816941F0100190
:101AB0008161206803F054FF00034FF0080B4FF0E2
:101AC000000A4FF001097CD50026206803F027FFAB
:101AD000074674E0F80770D0F1B2206803F038FFD1
:101AE0008046C00707D005EB4611C1F8089B314678
:101AF000204601F0B7FD5FEA087024D505EB4611DA
:101B0000C1F808BB2068016C00E023E200EB46103E
:101B10000191D0F8082BFB4B994205D9110403D54C
:101B20004FF40041C0F8081B204600F0F6FAF549D2
:101B30000198884207D9A079012804D120680121A1
:101B4000009A03F0A5FC5FEAC86004D505EB4611D6
:101B50001020C1F8080B5FEA88701DD5686900067F
:101B600005D5D5F8040840F48061C5F8041806EBE3
:101B7000C60004EB800090F8571200F5157001299B
:101B800005D180F803A0F1B2204600F0E9F905EB99
:101B900046110220C1F8080B5FEA886004D505EB06
:101BA00046102021C0F8081B5FEA884005D505EBE8
:101BB00046104FF40051C0F8081B7F08761C002F18
:101BC00088D1206803F0CCFE40036ED5206803F076
:101BD0009FFE0746002666E0F80762D0F1B2206853
:101BE00003F0A4FE8046C00723D006F00F01D5F80D
:101BF000342809FA01F18A43C5F8342805EB461167
:101C0000C1F80899A07901280FD106EBC60004EBB2
:101C10008000D0E907211144016236B9606A20B919
:101C200020680121009A03F033FCF1B22046FFF74F
:101C3000C4FD5FEA087003D505EB4611C1F808B989
:101C40005FEAC86004D505EB46111020C1F8080909
:101C50005FEA486004D505EB46104021C0F808193A
:101C60005FEA887016D53146284603F022FE06EB5F
:101C7000C60004EB8000C17D1430012905D180F835
:101C800003A0F1B2204600F067F905EB46110220EF
:101C9000C1F808095FEA086003D53146204601F023
:101CA00047FD7F08761C002F96D1206803F058FE70
:101CB000002811DAD5F8040820F00101C5F804184D
:101CC00094F8CC0401282BD0204600F00BFA2068B1
:101CD000416901F000414161206803F041FE0005C7
:101CE0000BD5D5F80808C00702D0204600F03EFA10
:101CF0002068416901F400614161206803F030FE11
:101D0000C00467D5D5F8040820F00100C5F8040820
:101D10001021206803F0CDFD00214FF67F3220E036
:101D200084F8CCA400212046FFF71CFDCFE700BFBC
:101D300005EB4110C0F80829D0F8003923F400134E
:101D4000C0F80039C0F8082BD0F8003B23F400138A
:101D5000C0F8003BD0F8003B43F00063C0F8003B04
:101D6000491C20798842E3D8D5F81C0840F00111BD
:101D7000C5F81C18E07B002828460DD0D0F8840850
:101D800040F00B01C5F88418D5F8440840F00B0169
:101D90002846C5F844180DE0D0F8140842F22B018B
:101DA0000843C5F81408D5F8100840F00B01284680
:101DB000C5F81018D0F8000820F4FE61C5F8001826
:101DC000A1792068009A03F063FB2068416901F45F
:101DD00080514161206803F0C3FD800415D520685F
:101DE00003F0A2F9206803F082FDE07100F090FAA0
:101DF0000146E279206803F015FE204600F05CF908
:101E00002068416901F400514161206803F0A8FD98
:101E1000000707D5204600F069F92068416901F004
:101E200008014161206803F09BFD000616D5A869F2
:101E300020F08001A96101260DE000BF06EBC6007D
:101E400004EB800090F85702012803D1F1B220463C
:101E5000FFF7CAFC761C2079B042EFD8206803F067
:101E60007FFDC0021FD501264F4614E005EB46104A
:101E7000D0F8001906EBC60004EB8002107E0128A2
:101E800008D1002906DAF0B240F08001D77520466B
:101E9000FFF7AAFC761C2079B042E7D82068416998
:101EA00001F480114161206803F05AFD800234D5AD
:101EB00001204A4629E000BF05EB4011D1F8001B84
:101EC00000EBC00304EB830393F85862012E1BD18F
:101ED000002919DA94F8D46401F4803106F001067F
:101EE000B14211D183F85722A96941F08003AB6157
:101EF0006969090608D4D5F8040840F40070C5F8EB
:101F0000040805E00A30544F401C21798142D3D89F
:101F10002068416901F400114161206803F020FD4F
:101F2000400007D52046FFF744FC2068416901F0D6
:101F300080414161206803F013FD40070AD5206805
:101F40004568680702D52046FFF74AFC20684168CB
:101F500029434160BDE8FC9FD0F8E00402F09FBD3A
:101F6000D0F8E00402F0AFBDF8B5040005D094F855
:101F700095042668002510B106E00120F8BD84F81C
:101F80009454204600F056F8032084F89504B6F1E6
:101F9000A04F00D1A571206803F074FA207C8DF861
:101FA000000094E80F0003F0CDF80226B8BB002132
:101FB000206803F0F8FC90BB002001270DE000BF73
:101FC00000EBC00104EB81014F750875C8850D76E3
:101FD000CD610D62401CC0B24D6221798142EFD8C3
:101FE000002011E000EBC00104EB810181F85552A3
:101FF00081F8540281F85852C1F85C52C1F860521D
:10200000401CC0B2C1F8645221798142EAD8207CD8
:102010008DF8000094E80F0003F076F910B184F811
:102020009564AAE7657484F89574206803F05EF9F6
:102030000020F8BD10B586B0044614216846FEF7AE
:102040003CFA2068B0F1A04F2FD119480021026856
:1020500042F001020260006800F0010005904FF4B8
:10206000C05000900220CDE90101032003900A2016
:10207000049069460F48FFF7A7F90D48001D016855
:1020800041F0800101600A481430016841F4804148
:1020900001600068002200F4804005900521432083
:1020A000FFF72EFB4320FFF71DFB06B010BD00001D
:1020B000303802400000024070B50446C079012566
:1020C00070B1022801D0FEF7DEFA2946D4F8E00408
:1020D00002F067FDD4F8E004BDE8704002F01CBDDA
:1020E0000025F2E7D0F8E00402F044BDD0F8E004A7
:1020F00002F04ABD10B5044690F8940401280AD0B5
:10210000012084F894046174206803F07AFC0020B4
:1021100084F8940410BD022010BDD0F8E02400F231
:102120009C41104602F049BD10B50446006894F881
:102130009414012909D0012184F89414C168490636
:1021400009D5617B012902D005E0022010BD816B19
:1021500041F480318163206803F089FB206803F03B
:10216000B7F8002084F8940410BD000010B50446B0
:10217000D0F8E00402F063FD2068D0F8001E41F0C2
:102180000101C0F8001EE07A002804D0024801686E
:1021900041F00601016010BD10ED00E02DE9F047AF
:1021A0000E46050065D0DFF81481D8F80000F7B2BC
:1021B00000F00700B04207D288F80070D8F800009D
:1021C00000F00700B04254D128683D4C810712D579
:1021D000400703D5206840F4E050206028780007CD
:1021E00003D5206840F4604020602068A96820F092
:1021F000F000084320602878C0072DD03049686877
:102200000839012812D0022813D0032811D00968F8
:10221000890700292DDA216821F00301014321609B
:10222000FFF7D0F9814641F2883A0EE00968890348
:10223000EFE709688901ECE7FFF7C4F9A0EB0901B2
:10224000514502D90320BDE8F0872068696800F095
:102250000C00B0EB810FEFD1D8F80010404601F030
:102260000701B14207D90770006800F00700B042CB
:1022700001D00120E7E72878400705D52068E96804
:1022800020F4E050084320602878000706D5206835
:10229000296920F4604040EAC100206000F05EF847
:1022A0002168084AC1F30311515CC840064908601F
:1022B00006480068FFF7AEF90020C4E7003C024082
:1022C00008380240787200087C000020740000206A
:1022D0000F2202600C4A136803F003034360136883
:1022E00003F0F0038360136803F4E053C3601268E3
:1022F0004FF4E05303EAD20202610448006800F0A0
:10230000070008607047000008380240003C0240A7
:1023100001480068704700007C000020044805491F
:1023200000680968044AC1F38221515CC8407047C3
:102330007C000020083802408872000804480549E3
:1023400000680968044AC1F34231515CC8407047D3
:102350007C0000200838024088720008154810B53B
:10236000006810F00C02144813D01449042A0FD04E
:10237000082A0ED10F4C241F2268236802F03F0266
:102380005B0207D52068C0F38810A0FB010106E0BE
:10239000084610BD2168C1F38811A1FB000100238C
:1023A000FDF7E2FF2168C1F30141491C4900B0FB80
:1023B000F1F010BD083802400024F400001BB70003
:1023C0002DE9F84F04006ED02078DFF84C93C00759
:1023D000A9F104054AD009F104000168C1F38101A3
:1023E000012908D00068C0F3810002280AD1D9F879
:1023F0000000400206D52868800337D560680028B1
:10240000E1D033E06068B0F5803F10D0B0F5A02F88
:10241000286810D020F480302860286820F48020BC
:1024200028606068A8B1FFF7CDF806460DE028687F
:1024300040F48030F4E740F480202860F7E700BFE4
:10244000FFF7C0F8801B642873D828688003F7D58D
:102450000CE0FFF7B7F8064605E000BFFFF7B2F85B
:10246000801B6428F0D828688003F7D42078DFF830
:10247000AC8280074FF0000A3ED5A748001D0168D6
:1024800011F00C0F08D00068C0F3810002280BD1B6
:10249000D9F80000400207D42868800716D5E06804
:1024A000012800D112E033E1E068B8B10120C8F89A
:1024B0000000FFF787F8064605E000BFFFF782F847
:1024C000801B0228C0D828688007F7D528682169B2
:1024D00020F0F80040EAC10028600DE0C8F800A034
:1024E000FFF770F8064604E0FFF76CF8801B02283F
:1024F0001FD828688007F7D42078000722D5864F98
:1025000087486169703771B101210160FFF75AF89E
:10251000064604E0FFF756F8801B022809D8386801
:102520008007F7D50EE0C0F800A0FFF74BF806468D
:1025300005E082E0FFF746F8801B02287DD8386866
:102540008007F7D42078400768D5DFF8CCB10027A2
:102550000BF13C0BDBF80000C0000BD4DBF80010E3
:1025600041F08051CBF80010DBF80000012700F0AB
:10257000805000906B4E3068C00510D4306840F435
:1025800080703060FFF71EF8009005E0FFF71AF842
:102590000099401A022850D83068C005F6D55E4E22
:1025A000A0686C3601280FD00528306810D020F0C4
:1025B00001003060306820F004003060A068B8B1DD
:1025C000FFF700F800900FE0306840F00100F4E7FA
:1025D00040F004003060F7E7FEF7F4FF0099411A7D
:1025E00041F28830814266D830688007F4D50EE029
:1025F000FEF7E8FF009007E0FEF7E4FF0099411ABC
:1026000041F28830814256D830688007F4D42FB127
:10261000DBF8001021F08051CBF80010A069C8B39E
:102620003D49091D0968C1F3810102294AD00228E8
:10263000504607D0C8F8600000E03CE0FEF7C2FF5B
:1026400004463BE04746C8F86000FEF7BBFF06467D
:1026500005E000BFFEF7B6FF801B02282BD82868D4
:102660008001F7D4D4E907010843A16A2E4A49083A
:1026700002EB0141626A41EA8211084394F82C108E
:1026800040EA0161C9F8001001203866FEF79AFFA0
:10269000044606E03EE000BFFEF794FF001B022860
:1026A00009D828688001F7D534E000BFFEF78AFF1B
:1026B000001B022802D90320BDE8F88F286880019A
:1026C000F4D427E00128F7D0D9F80000E26900F43B
:1026D000800191421CD1226A00F03F01914217D142
:1026E00047F6C071626A0140B1EB821F10D1A26A45
:1026F0004FF0FF3300F4403103EB5202B1EB024FD5
:1027000006D194F82C1000F07060B0EB016F01D08E
:102710000120D1E70020CFE7043802400000474203
:10272000800E4742007000400000FFFF7047704776
:1027300010B590F83C20012A22D0012280F83C20DC
:10274000CA688C6822F4407222434C6822F480628A
:1027500022430C6822F4006222430C6922F4805266
:1027600022434C6922F400522243C969002322F417
:1027700080420A4301684A6480F83C30002010BD62
:10278000022010BD70B590F83C20012A32D00124FF
:1027900080F83C40022280F83D2003685A689D681A
:1027A00022F070060A6832435A60134B02689A425C
:1027B00014D0B2F1804F11D0104B9A420ED0104B72
:1027C0009A420BD00F4B9A4208D00F4B9A4205D039
:1027D0000E4B9A4202D00E4B9A4204D1496825F022
:1027E00080031943916080F83D40002180F83C103F
:1027F000084670BD022070BD00000140000400408A
:1028000000080040000C004000040140004001406E
:102810000018004010B5040003D094F83D0010B13A
:1028200007E0012010BD002084F83C00204600F0A5
:102830001FF8022084F83D00211D206801F08EF968
:10284000012084F8460084F83E0084F83F0084F8B4
:10285000400084F8410084F8420084F8430084F882
:10286000440084F8450084F83D00002010BD0000BD
:1028700008B500681149884209D11148016841F042
:1028800001010160006800F00100009008BD0D49E1
:102890008842FBD10A48001F016841F00401016031
:1028A0000068002200F00400009005211E20FEF7C1
:1028B00027FFBDE808401E20FEF714BF00000140BE
:1028C000443802400008004090F83D10012901D032
:1028D00001207047022180F83D100168CA6842F06B
:1028E0000102CA6000681149884214D0B0F1804FDB
:1028F00011D00F4988420ED00E4988420BD00E49A4
:10290000884208D00D49884205D00D49884202D03E
:102910000C49884204D1816801F00701062903D0DF
:10292000016841F001010160002070470000014092
:102930000004004000080040000C0040000401407A
:10294000004001400018004070B5044690F83C007B
:102950000025012817D0012684F83C60022084F865
:102960003D002068826822F0770222F47F42826074
:102970000868502838D00DDC20284FD005DC90B3F3
:10298000102811D14AE0022070BD302846D04028DE
:102990000AD13BE060282FD070280DD0B0F5805FC1
:1029A00003D0B0F5005F12D0012584F83D6000200F
:1029B00084F83C00284670BDCB68D1E9012120682D
:1029C00001F038F92068816841F0770109E0CB68AF
:1029D000D1E90121206801F02DF92068816841F4D6
:1029E00080418160E1E719E0CA684968206801F028
:1029F000F5F95021206806E0CA684968206801F0AE
:102A0000FEF96021206801F01FF9CEE7CA68496825
:102A1000206801F0E3F940212068F4E722680146CC
:102A20001046F0E770472DE9F04104460068C6689B
:102A300005694FF00007A90713D5B10711D5F91E95
:102A4000016101202077206880698007204602D03C
:102A5000FFF7E8FF04E000F0A9F8204600F03BF99A
:102A60002777680716D5700714D521686FF0040022
:102A70000861022020772068806910F4407F20469A
:102A800002D0FFF7CFFF04E000F090F8204600F0FE
:102A900022F92777280715D5300713D521686FF05D
:102AA00008000861042020772068C069800720465C
:102AB00002D0FFF7B7FF04E000F078F8204600F0FE
:102AC0000AF92777E80616D5F00614D521686FF0C5
:102AD00010000861082020772068C06910F4407F4A
:102AE000204602D0FFF79EFF04E000F05FF820468A
:102AF00000F0F1F82777E80708D0F00706D0216842
:102B00006FF001000861204600F0E6F8280608D5BD
:102B1000300606D521686FF0800008612046FFF777
:102B200005FE680608D5700606D521686FF04000DE
:102B30000861204600F0DAF8A8060AD5B00608D5E4
:102B400021686FF0200008612046BDE8F041FFF7E2
:102B5000EEBDBDE8F081000010B586B0044614213A
:102B60006846FDF7AAFC0E492068884215D10D4839
:102B7000016841F0100101600068012100F01000BF
:102B800005904FF4206000900220CDE90101CDE9CD
:102B9000030169460448FEF717FC06B010BD0000AB
:102BA000000001403038024000100240704770B50C
:102BB000044690F83C0000260D4601280FD0012065
:102BC00084F83C006AB1042A1DD0082A2FD00C2AB0
:102BD0003FD00126002084F83C00304670BD022022
:102BE00070BD206801F038F82068816941F0080163
:102BF00081612068816921F0040181612068816917
:102C00002A69114311E0206801F056F820688169B3
:102C100041F4006181612068816921F480618161F2
:102C2000206881692A6941EA02218161D2E720682E
:102C300001F078F82068C16941F00801C16120689D
:102C4000C16921F00401C1612068C1692A69114389
:102C500011E0206801F09AF82068C16941F4006130
:102C6000C1612068C16921F48061C1612068C169C6
:102C70002A6941EA0221C161ACE710B5040003D022
:102C800094F83D0010B107E0012010BD002084F849
:102C90003C00204600F01EF8022084F83D00211D73
:102CA000206800F05BFF012084F8460084F83E00B5
:102CB00084F83F0084F8400084F8410084F8420022
:102CC00084F8430084F8440084F8450084F83D000B
:102CD000002010BD7047704700680349884201D149
:102CE000FEF776BC70470000001800407047704740
:102CF00070470000F8B5016804460868CA684B6967
:102D000010F00F0F4FF0000559D003F0010602F448
:102D10009077374365D0C10705D0D10503D5616CE5
:102D200041F001016164410705D5D90703D0616C09
:102D300041F002016164810705D5D90703D0616CB8
:102D400041F004016164010707D502F0200131431D
:102D500003D0616C41F008016164616C00293AD0D4
:102D6000800604D5900602D5204601F089F8206837
:102D70004069616CC0F38010090700D460B320463D
:102D800001F057F820684069400621D520681430CA
:102D900050E8001F21F0400140E80012002AF5D160
:102DA000E06BA8B16E490165E06BFEF7AFF9002852
:102DB00011D0E06B016D01B0BDE8F040084783061B
:102DC0000FD593060DD52046BDE8F84001F058B860
:102DD0002046FFF78DFFF8BD2046FFF789FF6564A9
:102DE000F8BD266B2023012E7DD1C6067BD5D606E5
:102DF00079D508684868009048694FF00206400697
:102E000041D5E16B086840680004000CE8D0A28D51
:102E10008242E5D9E085C869B0F5807F2DD0206871
:102E20000C3050E8001F21F4807140E80012002AA5
:102E3000F5D12068143050E8001F21F0010140E86E
:102E40000012002AF5D12068143050E8001F21F04C
:102E5000400140E80012002AF5D184F84230256391
:102E600020680C3050E8001F21F0100140E80012EB
:102E7000002AF5D1E06BFEF700F96663A08DE18DC5
:102E8000401A81B22AE0A08DE18D401A81B2E08D16
:102E90000028A5D00029A3D022680C3252E8000FE8
:102EA00020F4907042E80007002FF5D1206814301C
:102EB00050E8002F22F0010240E80027002FF5D152
:102EC00084F84230256320680C3050E8002F22F04F
:102ED000100240E80023002BF5D166632046FFF77F
:102EE00006FFF8BDFFE705062BD5150629D594F892
:102EF00041002128F5D1A068B0F5805F01D120699B
:102F0000B0B1206A411C2162216800784860E08CE1
:102F1000401E0004000CE084E3D12068C16821F069
:102F20008001C1602068C16841F04001C160D8E7FC
:102F3000206A0088C0F308004860206A801C206274
:102F4000E5E74006CDD55006CBD5CA68204622F02D
:102F50004002CA6084F8413000F0F1F8C1E7000097
:102F6000233E000870B5040004D094F84100002509
:102F700010B106E0012070BD84F84050204600F0FA
:102F800023F8242084F841002068C16821F400510E
:102F9000C160204600F0D6FF2068016921F490410D
:102FA00001612068416921F02A0141612068C168FE
:102FB00041F40051C1606564202084F8410084F828
:102FC00042006563002070BD2DE9F04F87B00646D2
:102FD00014216846FDF771FA5148504D31680222BC
:102FE0000323002407154FF4807A4FF4403BA94295
:102FF00038D14B4910310D6845F480250D600968C2
:1030000001F480210591016841F00401016000682C
:10301000694600F00400059098028DE8150007202D
:10302000CDE903303F48FEF7CFF9404D3E4805F16A
:10303000180128607804C5E90104C5E903476C61FB
:1030400081E8100C28466C62FEF742F908B1FDF7E2
:103050001AFBF563002205212720AE63FEF750FB23
:10306000272056E0324DA94255D12D4914310D6823
:1030700045F020050D60096801F020010591016807
:1030800041F0400101600068694600F04000059091
:103090004FF484408DE815000820CDE90330254821
:1030A000FEF792F9214D244860354FF020692860E1
:1030B000C5E90194C5E903476C61C5E9064AC5E95C
:1030C00008B4B8465F462846FEF702F908B1FDF796
:1030D000DAFAF563AE63154D1748C0357830E5E888
:1030E00002094020A5E81101104845F81449C030F4
:1030F000AC61C5E907476C62FEF7EAF808B1FDF775
:10310000C2FAB563002205214720AE63FEF7F8FA44
:103110004720FEF7E7FA07B0BDE8F08F004800400F
:103120003038024000080240286002404C05002070
:1031300000140140001802402864024070477047A4
:10314000FEE70000F0B500230A24302537261F468D
:1031500011E000BFB4EB107F02D905EB107C01E059
:1031600006EB107C01F813C001EB430C00015B1C63
:103170008CF80170DBB29342ECD3F0BD104810B56F
:103180000E4901600321416000214FF4102281604B
:10319000C0E903124FF40012426101764176012228
:1031A0008276C27601774177FDF701FE002803D0D1
:1031B000BDE81040FDF767BA10BD00000064004094
:1031C000DC0300200F4810B50D4901600321416068
:1031D00000214FF410228160C0E903124FF4001265
:1031E0004261017641768176C17601774177FDF7BC
:1031F000DEFD002803D0BDE81040FDF744BA10BD45
:103200000068004004040020154808B5016841F436
:1032100080010160016801F480010091016841F4BE
:10322000001101600068002200F4001000900521E8
:103230000C20FEF765FA0C20FEF754FA0022052157
:103240003920FEF75DFA3920FEF74CFA00220521FD
:103250004520FEF755FABDE808404520FEF742BA82
:103260003038024010B58EB01C220B496846FDF77D
:10327000F2F80021684602F0CCFC084C06491C22FA
:1032800020601C3107A8FDF7E6F8002107A802F02E
:10329000C0FC60600EB010BD387200080000002055
:1032A00070B586B014216846FDF707F9264800245A
:1032B000016841F002010160016801F0020105911D
:1032C000016841F040010160016801F04001059191
:1032D000016841F001010160016801F001010591FF
:1032E000016841F008010160016801F008010591E1
:1032F000016841F004010160016801F004010591D9
:10330000016841F080010160016801F080010591D0
:10331000016841F01001016000680C4E00F01000DF
:103320004FF4C0550590002229463046FEF744F977
:1033300001200095CDE90104694630460394FEF76B
:1033400043F806B070BD000030380240001C024057
:1033500010B596B000240F94109411941294139405
:103360001C2168461494FDF7A8F8202107A8FDF752
:10337000A4F82D482B490160A721C0E9011444F6A7
:103380001F61C0E9031444618461FFF743FA08B187
:10339000FDF779F94FF480500F900FA92248FFF7FD
:1033A000D3FA08B1FDF76FF91F48FFF766FC08B1C3
:1033B000FDF769F9139413A91B481494FFF7E2F978
:1033C00008B1FDF760F9602000904FF4FA60CDE994
:1033D000010403940494059400226946124806945B
:1033E000FFF7E5FB08B1FDF74EF9042269460E48E8
:1033F000FFF7DDFB08B1FDF746F90794089409943F
:103400004FF400500A94CDE90B4007A906480E94EA
:10341000FFF78EF908B1FDF736F90348FFF79CFB7B
:1034200016B010BD000001402C04002010B586B07D
:1034300000241748009401940294039404941349BF
:103440000594016044F2A011C0E9011441F28831F1
:10345000C0E903148461FFF7DDF908B1FDF713F942
:103460004FF48050009069460948FFF76DFA08B1A3
:10347000FDF709F9049404A905480594FFF782F9BA
:10348000002801D0FDF7FFF806B010BD000800408D
:10349000740400200D4810B50B4901600C494160CF
:1034A00000214FF480628160C0E903120C22C0E960
:1034B0000521C161FFF756FD002803D0BDE810408B
:1034C000FDF7E1B810BD000000480040BC0400203A
:1034D000A08601000C4810B50A4901604FF4612133
:1034E0004160002181600C22C160C0E90412816149
:1034F000C161FFF737FD002803D0BDE81040FDF79C
:10350000C2B810BD001401400405002010B500220F
:103510000F49104801F0A8F908B1FDF7B4F80E49B9
:103520000C4801F0B8FB08B1FDF7ADF80B490948AC
:1035300000F066FF08B1FDF7A6F8064801F02EFC82
:10354000002803D0BDE81040FDF79DB810BD000075
:103550000C000020B4060020D80000205C000020F1
:10356000FEE7000010B504462DED028B02600888CE
:1035700040BA00B2A0824A8852BAE2808A8852BA1F
:103580006281897900EE101AB8EE400A84ED040ACF
:1035900003F064FB9FED111B53EC112B03F0B2FB06
:1035A0009FED108B53EC182B03F0ACFB9FED0F1B22
:1035B00053EC112B03F0BEF953EC182B03F0D6FC9F
:1035C00003F0D2F8A061A06A42F21071884201D2E1
:1035D000401CA062BDEC028B10BD0000000000008A
:1035E00000000040112D4454FB2109400000000060
:1035F00000FFBF4030B589B00546DDE90C400291BF
:1036000000210491059108210691110A8DF80010FE
:103610008DF80120190A8DF80210210A8DF8041086
:103620008DF80540010A8DF806108DF803308DF8ED
:103630000700002401E0641CE4B22846FDF7A3FA69
:1036400008B9642CF7D301236A4602A92846FDF77E
:1036500031F909B030BDFEE70148FEF7CFB90000EF
:10366000B01D00202DE9F04103680D4604461E6C94
:1036700003EB4511D1F8080B94F806E04FF400472E
:103680004FF0200C04F29C42BEF1010F09D0DFF88C
:1036900098E0764539D1020432D500BFC1F8087BE5
:1036A0003FE0224B5FEA007E04D59E4239D90004F8
:1036B000F4D436E05FEA806E02D5C1F808CB30E082
:1036C00010F0280F2DD19E4201D90004E6D405EB5D
:1036D000C50004EB8000D1F8101BD0F87432C1F3A0
:1036E0001201591AC0F8681200F51570ADB90369D6
:1036F0001BB1C2681144C1600FE0012120680AE0DB
:1037000080060AD5C1F808CB07E035B9D4F86402C1
:1037100018B90021184601F0BBFEE9B22046FEF7B9
:1037200055F80020BDE8F0810A31544F0A30544F5B
:103730002DE9F84F0E4601EBC60100EB81048146EE
:103740000568D4E909101434884202D90120BDE883
:10375000F88F081AA168814200D20846C01C870869
:1037600005EB46181BE000BFA0EB010AA06850451E
:1037700000D282460AF10300870899F806000090FB
:103780001FFA8AF3F2B22846E16802F0BFF9E16855
:1037900001EB0A00E060616901EB0A006061D8F8A2
:1037A000180980B2B84205D3D4E90401814201D29C
:1037B0000028D9D1D4E90401884208D806F00F01C5
:1037C00001208840D5F834188143C5F8341800200A
:1037D000BDE70000A0B1D0ED111AC0ED121A90EDB6
:1037E000101A80ED111AC0ED070A80ED080A30EEBC
:1037F000C00A80ED100A017929B1012933D070E0A7
:103800009FED390A7047D0ED020A60EE801AC0EDD4
:103810000A1AD0ED0B0A90ED032A42EE000A30EEB0
:10382000410AC0ED0B0A80ED0D0A90ED041A21EE5D
:10383000001A80ED0C1A90ED060AF4EEC00AF1EEC3
:1038400010FA09DCB1EE400AF4EEC00AF1EE10FA0B
:1038500002D390ED0B0A01E080ED0B0A31EE800AF5
:1038600030EE010A2BE070EE410A90ED022A60EE84
:10387000820AC0ED0A0A90ED032A22EE002A80EDAA
:103880000B2AD0ED0E2A70EE820AC0ED0F2AD0ED81
:103890000D2AC0ED0E2AF0EE002A01EE620A30EE8B
:1038A000210A80ED0D0A90ED041A21EE000A80ED48
:1038B0000C0A30EE800AD0ED090A30EE200A80EDC5
:1038C000090AD0ED050AB4EEE00AF1EE10FA06DCC2
:1038D000F1EE600AB4EEE00AF1EE10FA01D2C0EDAA
:1038E000090A90ED090A704700000000002828D05E
:1038F000002A26D0017192ED001A80ED021A92ED95
:10390000011A80ED031A92ED021A80ED041A80ED7F
:10391000060A9FED0C0AC0ED050A80ED0F0A80ED46
:103920000E0A80ED0D0A80ED090A80ED0C0A80ED8B
:103930000B0A80ED0A0A80ED120A80ED110A80ED73
:10394000100A70470000000030B5144B1C68656910
:1039500045F0400565611B68DC6844F01004DC60DC
:103960000F4B1C68256825F0010525601C6825683B
:10397000ED07F7D11D680B4CAC601C68E06018685F
:103980000161186842601868016841F48021016093
:103990001868016841F00101016030BDBC040020DD
:1039A0004C05002004480040264818B4006801680F
:1039B000890604D501684068009018BC7047224908
:1039C0000968C906F9D501684068204A0090106866
:1039D00001684FF024030C031D49046824F001041E
:1039E000046016D410684468C4F12404A4B20C80A6
:1039F00043601068016841F40021016010680168AB
:103A000041F001010160122CD7D1124901F12300CC
:103A100015E014686068C0F1240080B2088063601B
:103A20000D498B6A23F400238B6211680A6842F007
:103A300001020A601228C0D1064901F1470018BCF2
:103A400002F044BBBC040020004800404C050020AC
:103A5000100100209422002000600240017840788C
:103A600041EA00207047FFF751FD012002F0C5F840
:103A7000FBE7000010B5502080F31188BFF34F8F93
:103A8000BFF36F8F02F0A8FD18B104494FF08050CA
:103A90000860002080F3118810BD000004ED00E0F4
:103AA00030B593B030216846FCF707FD14210CA80F
:103AB000FCF703FD1D480025016841F080510160BD
:103AC000006800F0805011901948016841F480416D
:103AD00001600068022400F48040119001200090F1
:103AE000000401908001CDE9064006200890A8203E
:103AF000CDE9090407200B906846FEF761FC08B188
:103B000072B6FEE70CA90F2081E831004FF4A050F7
:103B10000F904FF48050109005210CA8FEF73EFB4B
:103B2000002801D072B6FEE713B030BD4038024025
:103B3000007000400248016841F470010160704764
:103B400088ED00E00148FEF76EBF0000740400201D
:103B50000148FEF768BF00006C060020F0B502685F
:103B6000294C2A4D2A4E2B4F2B4B4FF0804CA04214
:103B700009D0604507D0A84205D0B04203D0B84272
:103B800001D0984204D122F0700E4A6842EA0E0237
:103B9000A0421BD0604519D0A84217D0B04215D022
:103BA000B84213D0984211D01C4DA8420ED01C4DE3
:103BB000A8420BD01B4DA84208D01B4DA84205D0EF
:103BC0001A4DA84202D01A4DA84203D122F44075E2
:103BD000CA682A434D6922F080022A4302608A683B
:103BE000C2620A688262A04201D0984201D109698A
:103BF0000163012141610169C90703D0016921F015
:103C000001010161F0BD000000000140000400401E
:103C100000080040000C004000040140004001404A
:103C2000004401400048014000180040001C0040D2
:103C30000020004010B5846842EA032224F47F4447
:103C40000A432243826010BD826822F070020A4358
:103C500042F0070181607047F0B5036A026A22F002
:103C60000102026242688469124E24F073050C68F6
:103C70002C4323F002058B682B430D4DA84201D045
:103C8000B04205D123F00807CB683B4323F004037F
:103C9000A84201D0B04205D14D6922F440721543CB
:103CA0008A692A4342608461496841630362F0BDC6
:103CB0000000014000040140F0B5026A036A23F0ED
:103CC00010030362436884690D6824F4E64444EAFF
:103CD00005248D6822F0200242EA05120F4D104E95
:103CE000A84201D0B04206D1CF6822F0800242EA59
:103CF000071222F04002A84201D0B04207D14D691C
:103D000023F4406343EA85038D6943EA85034360F6
:103D10008461496881630262F0BD000000000140D7
:103D200000040140F0B5026A036A23F48073036261
:103D30004368C46922F4007224F073050C68124EC3
:103D40002C438D6842EA05220E4DA84201D0B042B4
:103D500006D1CF6822F4006242EA072222F4806290
:103D6000A84201D0B04207D14D6923F4405343EA41
:103D700005138D6943EA05134360C4614968C16353
:103D80000262F0BD000001400004014030B5046A49
:103D9000026A22F4805202624268C3690D6823F409
:103DA000E64343EA05238D6824F4005444EA0534CD
:103DB000084DA84202D0084DA84204D14D6922F412
:103DC000804242EA85124260C3614968016404622C
:103DD00030BD0000000001400004014010B5036A3E
:103DE000046A24F001040462846924F0F00444EAC3
:103DF000021423F00A020A438461026210BD10B566
:103E0000036A046A24F010040462846923F0A003A6
:103E100024F4704444EA023243EA011182610162EF
:103E200010BD10B5806B0021C185C184FEF760FF15
:103E300010BD01680C3151E8002F22F4907241E866
:103E40000023002BF5D10168143151E8002F22F036
:103E5000010241E80023002BF5D1016B012909D1B2
:103E600001680C3151E8002F22F0100241E80023D4
:103E7000002BF5D1202180F842100021016370470A
:103E800008B590F84210222901D0022008BD8268AE
:103E90004FF480539A4201D1016921B1816A9A425B
:103EA0001BD04AB10AE00268816A5268C2F3080274
:103EB0000A80816A891C08E0026972B1026852684E
:103EC00002F07F020A70816A491C8162C18D491E1D
:103ED0000904090CC18503D01BE002685268F1E7B0
:103EE0000168CA6822F02002CA600168CA6822F428
:103EF0008072CA6001684A6922F001024A61202189
:103F000080F8421000214163026B012A03D0FFF7C1
:103F100015F9002008BD016301680C3151E8002F3C
:103F200022F0100241E80023002BF5D101680A6855
:103F3000D20602D50A6849680091818DFEF7D7FE46
:103F4000E7E7000070B5044600680169E26821F403
:103F50004051114301612169A068E2690843616928
:103F6000114308432168CA6849F20C639A4302432B
:103F7000CA6020684169A26921F44071114341611E
:103F800031492068884202D03049884202D1FEF788
:103F9000D5F901E0FEF7C2F9E26900231921642591
:103FA0003226B2F5004F626828D0A0FB0101930FC2
:103FB0009200FCF7D9F90146B0FBF5F06FF018025A
:103FC000504301EB800006EB0010B0FBF5F000F071
:103FD000F002B1FBF5F002EB0012B1FBF5F06FF06F
:103FE0001803584301EB800006EB0010B0FBF5F01E
:103FF00000F00F0021681044886070BDA0FB010133
:1040000092185B41FCF7B0F90146B0FBF5F00201F4
:10401000B1FBF5F06FF01803584301EB800006EB9D
:10402000C000B0FBF5F000F0F80002EB4002B1FB7D
:10403000F5F0584301EB800006EBC000B0FBF5F053
:1040400000F00700D6E70000001001400014014016
:1040500010B5FFF7A9FCBDE810400148FEF74ABEC5
:10406000BC0400200148FEF745BE00000405002006
:104070002DE9F0410C46D0F8D412D0F8C82200EB5C
:104080008101D1F8C01229B304F00F0606EB8603B4
:1040900000EB83050027AB694BB106EBC60602EBCC
:1040A0008602D269B3FBF2F602FB1632A2B1C1F866
:1040B0001472D0F8D42200EB8200D0F8C402036955
:1040C0002BB1D1F80802224601F50471984700206F
:1040D000BDE8F0810320FBE700231A462146AF61CB
:1040E00000F0BAFDF3E770B50546D0F8D40205EB51
:1040F0008000D0F8C04294B1284600F08DFCC4F88E
:104100000C02D5F8D412D4F8040205EB8101D1F8E1
:10411000C412CA6804F503719047002070BD0320E3
:1041200070BD000070B5224D0446297800F0B8FB40
:104130002878002600F00F0000EB800004EB8000E0
:1041400086846978204600F0ABFB687800F00F00A9
:1041500000EB800004EB8000A0F86461A9782046A1
:1041600000F09EFBA87800F00F0000EB800004EB4D
:1041700080008684C684D4F8D40204EB8000D0F892
:10418000C01299B1D0F8C40240688047D4F8D40274
:1041900004EB8000D0F8C00200F081FFD4F8D40214
:1041A00004EB8000C0F8C062C4F8BC62002070BD9F
:1041B0008400002010B5D0F8D41200EB8100D0F8B4
:1041C000C04284B1D0F8C41259B194F80002FF285B
:1041D00007D08B6894F8012221469847FF2084F885
:1041E0000002002010BD032010BD00000A21018044
:1041F000004870478800002070B5064682210C48B0
:1042000000F0D1FA05460121094800F0CCFA044635
:104210008121074800F0C7FA0DB11021A971402192
:1042200004B1A18000B1818043203080004870BD7E
:104230009400002070B5064682210D4800F0B3FAC4
:10424000054601210A4800F0AEFA044681210848DB
:1042500000F0A9FA0DB11021A9714FF4007104B159
:10426000A18000B1818043203080014870BD0000F2
:104270009400002070B5064682210C4800F093FAA5
:1042800005460121094800F08EFA044681210748BD
:1042900000F089FA0DB11021A971402104B1A1806B
:1042A00000B1818043203080004870BD9400002020
:1042B0002DE9F04704464FF40775284600F0F0FE5C
:1042C00006004FF0000863D02946FCF7F6F8D4F852
:1042D000D4023C4D04EB80004FF01009C0F8C062DE
:1042E000C4F8BC62207C4FF4007A0127F0B340236D
:1042F00002222978204600F0FAFB2878402300F0BB
:104300000F0000EB800004EB8000878402226978B4
:10431000204600F0ECFB6878082300F00F0000EB6B
:10432000800004EB80000322A0F86471A978204685
:1043300001F00F0101EB810104EB8101A1F826904E
:10434000A97800F0D4FBA87800F00F0000EB800003
:1043500004EB80008784C6F80482D4F8D402474670
:1043600004EB8000D0F8C402006800E018E006F515
:10437000017680473761776132687AB1207CF8B185
:1043800040236978204600F0BEFB0020BDE8F0879E
:10439000D4F8D41204EB8101C1F8C0820220F5E701
:1043A000534602222978204600F0A1FB2878534684
:1043B00000F00F0000EB800004EB80008784A5E78D
:1043C0005346DEE78400002010B5D0F8D41200EB8D
:1043D0008101D1F8C01259B1027C084C002AD1F8F1
:1043E000042207D04023617800F08DFB002010BD2F
:1043F000032010BD4FF40073F5E700008400002097
:1044000039B1D0F8D42200EB8200C0F8C4120020E9
:10441000704703207047D0F8D42200EB8200D0F818
:10442000C00218B1C0F80412002070470320704782
:10443000D0F8D43200EB8300D0F8C00228B1C0F825
:104440001022C0F8081200207047032070472DE9A1
:10445000FC410646D0F8D4020C4606EB8000002151
:10446000D0F8C0728DF80010ADF804100D4637B1C9
:10447000217811F060022FD0202A4BD102E00320D6
:10448000BDE8FC81E288F2B109060DD5D0F8C4027E
:1044900063783946D0F808C01846E047E288072A12
:1044A00000D9072239462DE0607887F80002E088BD
:1044B000402800D34020C2B287F801223946304656
:1044C00000F058F82BE0D0F8C40263780022866828
:1044D00021461846B04722E0607830B101281ED04E
:1044E0000A2809D00B2815D110E096F89C02032861
:1044F00010D1022201A905E096F89C02032809D1F7
:1045000001226946304600F04FF808E096F89C0218
:10451000032804D02146304600F021F80325284620
:10452000AEE710B5D0F8B82200245268904700B129
:104530000324204610BD002070470020704713461A
:1045400010B50A46002100F0DEFA002010BD134627
:1045500010B50A46002100F07FFB002010BD10B509
:104560000446802100F059FB2046BDE810400021A0
:1045700000F053BB10B50323C0F89432C0F85821A3
:104580001346C0F85C210A46002100F0BCFA002066
:1045900010BD10B50521C0F8941200231A46194623
:1045A00000F0B1FA002010BD10B50223C0F894321B
:1045B00082611346C2610A46002100F04DFB0020D3
:1045C00010BD10B50421C0F8941200231A461946F4
:1045D00000F042FB002010BD10B50A46024903A0BE
:1045E00000F00FF9004810BD90090020434443201B
:1045F000436F6E66696700001220088000487047AC
:104600002C00002010B50A46024903A000F0F9F87A
:10461000004810BD9009002043444320496E746552
:1046200072666163650000000420088000487047DE
:104630002800002010B50A46024903A000F0E1F866
:10464000004810BD9009002053544D6963726F6596
:104650006C656374726F6E696373000010B50A460F
:10466000024903A000F0CDF8004810BD90090020D9
:1046700053544D3332205669727475616C20436F08
:104680006D506F727400000010B51A2008800A483F
:104690000168001D0468001D0068081809D0082280
:1046A0000649FEF74FFD0549042210312046FEF76A
:1046B00049FD0248801E10BD107AFF1F42000020F5
:1046C000F8B504460020ADF8000048880D46010A00
:1046D00008295FD2DFE801F05E0409175E5E3C4501
:1046E000D4F8B412207C0A6819E0207C0226002845
:1046F000D4F8B80205D0C16A6846884701464670BA
:1047000039E0816AF8E7C0B2062843D2DFE800F05A
:10471000030A1014181CD4F8B402426805E0694674
:1047200090471CE0D4F8B402826892B3207CF6E78C
:10473000D4F8B402C268F8E7D4F8B4020269F4E726
:10474000D4F8B4024269F0E7D4F8B4028269ECE725
:10475000207CF0B9D4F8B802416B6846884701461E
:1047600009E0207CA8B9D4F8B802016B68468847F4
:10477000014607204870EA888AB1BDF8000040B1C0
:10478000824200D90246ADF800202046FFF70CFF18
:10479000F8BDFFE729462046FFF7E1FEF8E720468F
:1047A000FFF70FFFF4E778B50E4642880178002541
:1047B00004468A4212D9ADF800100AE0694600F0BA
:1047C00019F84178052904D181780546B14205D010
:1047D00000256188BDF800209142EFD8284678BDB9
:1047E0000146002002E0401CC0B2491C0A78002AA1
:1047F000F9D170470A8803781A440A80017808447E
:10480000704770B516460D46002820D00446FFF7C5
:10481000E7FF022101EB40014FF40070814204D810
:104820002046FFF7DDFF4000801C30803078287084
:10483000032068700220002206E02954401CC0B208
:104840002A54401CC0B2641C21780029F5D170BDE7
:1048500001004FF0000004D0012901D0022901D04D
:10486000032070470120704778B10023C0F8B832A8
:10487000C0F8C432C0F8D03209B1C0F8B412012176
:1048800080F89C12027000F0CBB80320704710B57E
:10489000D0F8C802FCF7DCFFBDE81040FFF7D8BF36
:1048A00010B5D0F8C802FCF7AEFFBDE81040FFF726
:1048B000CFBF2DE9F04117460446002521B194F8F9
:1048C0009C02032842D04CE0D4F8941204F1140066
:1048D000022935D1D0E902639E4206D9F21A8260DC
:1048E00039462046FFF733FE0FE0B34214D140684B
:1048F000984211D3D4F8981288420DD20022114662
:104900002046FFF724FEC4F8985200231A461946A1
:10491000204600F0F8F813E094F89C02032808D130
:10492000D4F8B802C16821B1C4F8D452C168204695
:1049300088478021204600F070F92046FFF729FEC5
:1049400094F8A00268B184F8A0520AE0D4F8B80242
:10495000426932B1C4F8D4524269204690470028D7
:1049600000D10020BDE8F08170B513460446002256
:1049700021B194F89C02032830D03AE0D4F8941284
:1049800004F5AA70032934D1D0E902518D420AD925
:104990006A1A82600846824200D3024619462046BF
:1049A000FFF7CDFD25E094F8AA0210F01F0003D018
:1049B000012802D0022800D0002294F89C0203288B
:1049C00008D1D4F8B802016921B1C4F8D422016930
:1049D000204688472046FFF7F4FD0AE0D4F8B802E5
:1049E000836933B1C4F8D4228269204690470028F5
:1049F00000D1002070BD0020704710B500240121B7
:104A000080F89C12D0F8B82222B152680179904700
:104A100000B10324204610BDD0F8C802FCF745BF02
:104A200010B5017839BB15490222C1F8E004C0F87D
:104A3000C8124FF0A040086004200871CA7100201D
:104A400088714A728872C87208738873C87308467E
:104A5000FDF78AFA08B1FBF716FE80210748FCF73C
:104A600082FE402200210548FCF781FE80220121C0
:104A70000248FCF77CFE002010BD0000B01D0020A5
:104A80000A0601F07F01D0F8C80201EBC10100EB7A
:104A9000810001D5807D704790F85602704710B5AF
:104AA000D0F8D42200EB8202D2F8B82222B190F8DA
:104AB0009C32032B02D004E0032010BD126A02B125
:104AC0009047002010BD10B5D0F8D42200EB820230
:104AD000D2F8B82222B190F89C32032B02D004E025
:104AE000032010BD526A02B19047002010BD10B5DE
:104AF0001C461346D0F8C8022246FCF7DFFEBDE88C
:104B00001040FFF7A5BE10B5D0F8C802FCF707FFAC
:104B1000BDE81040FFF79CBE2DE9F04100260125BD
:104B2000044680F89C52C4F894626660C4F8A4629B
:104B300080F8A062D0F8B80230B1426822B10021FA
:104B40002046904700B1032600224023114620460C
:104B5000FFF7CDFF4027A4F864513B460022802197
:104B60002046C4F86071FFF7C2FFA5843046276273
:104B7000BDE8F08190F89C12042903D190F89D12B1
:104B800080F89C120020704710B590F89C12032901
:104B900005D1D0F8B81211B1C96901B18847002018
:104BA00010BD01740020704710B5D0F8C802FDF7A1
:104BB000A1FABDE81040FFF74BBE70B5044600F205
:104BC000AA20054600F051F80120C4F89402B4F878
:104BD000B002C4F8980294F8AA0210F01F010AD09B
:104BE00001290ED0022912D000F080012046BDE834
:104BF000704000F012B829462046BDE8704000F031
:104C0000CFB829462046BDE8704000F00FBA2946CB
:104C10002046BDE8704000F059B910B5D0F8C80280
:104C2000FCF799FEBDE81040FFF712BE10B5D0F8B2
:104C3000C802FDF779FABDE81040FFF709BE90F809
:104C40009C12042903D090F89C1280F89D12042134
:104C500080F89C120020704710B5D0F8C802FCF70D
:104C6000B3FEBDE81040FFF7F3BD70B5054611F87F
:104C7000010B2870087868704C1C2046FEF7EEFE89
:104C80006880A41C2046FEF7E9FEA880A01CFEF761
:104C9000E5FEE88070BD38B504460020ADF80000A0
:104CA000A1B1C4F8B812D4F8D40204EB8000D0F853
:104CB000B802C16A19B168468847C4F8D002D4F86E
:104CC000D802401CC4F8D802002038BD032038BDEB
:104CD00002460020D2F8B832002B02D01B681046E2
:104CE000184770472DE9F04188462B4E89780025FA
:104CF00004463170012906D941462046FFF72FFCB2
:104D00000320BDE8F08194F89C02022702280CD011
:104D100003281DD041462046FFF721FC317820466C
:104D2000FFF7FFFB03252846EBE789B320466160C8
:104D3000FFF7CEFF050004D041462046FFF70FFCE9
:104D40001DE02046FFF73DFC032084F89C02EAE7C3
:104D5000C1B1606888421BD0C1B22046FFF7E1FBB9
:104D6000317820466160FFF7B3FF050010D041465F
:104D70002046FFF7F4FB21792046FFF7D2FB84F8A9
:104D80009C72D0E784F89C7220466160FFF7C9FBF3
:104D90002046FFF716FCC6E780000020FFF746BF5D
:104DA0002DE9F0410A78002512F060020CD0202A8B
:104DB00001D0402A7DD1D0F8D42200EB8202D2F873
:104DC000B8229268904731E04B78002201260A2BE6
:104DD0006FD2DFE803F041666E586E08056E2D292C
:104DE000FFF76EFC67E004468888D8B9C888C8B960
:104DF0004888802816D200F07F0794F89C02032888
:104E000010D084F89E7239462046FFF7CDFE20462A
:104E1000FFF7D7FB1FB1022084F89C024BE084F817
:104E20009C6248E0204644E0FFF75CFF054642E014
:104E3000CB88012B3DD190F89C32012B04D0022B62
:104E400002D0032B35D104E08260012200F1080179
:104E500016E00122011D13E090F89C22012A03D0E4
:104E6000022A01D0032A24D1CA88022A21D1C6608D
:104E7000D0F8A41209B10321C160022200F10C0193
:104E8000FFF792FB17E04A88012A02D0022A03D0DA
:104E90000FE0C0F8A46216E08988090A80F8A01221
:104EA00011E090F89C32012B08D0022B06D0032B86
:104EB00004D0FFF754FB2846BDE8F081498801295A
:104EC000F9D1C0F8A422FFF77CFBF4E72DE9F0410B
:104ED000054608780C790E464FF0000810F0600087
:104EE0000BD0202801D040286AD121462846FFF760
:104EF00022FBFF2800D0D8B395E07078C8B3012812
:104F000024D003285CD195F89C02022802D0032803
:104F100056D10CE0002C53D0802C51D0214628468D
:104F2000FFF77BFE80212846FFF777FE7BE0708845
:104F300040B93CB1802C05D0C88818B92146284614
:104F4000FFF76BFE2846FFF73CFB6CE095F89C02F0
:104F50000228DFD0032863D1708880BB600603D0AD
:104F600021462846FFF793FC2846FFF72AFBBCE7BB
:104F700000E00AE0C5F8D402D5F8B8028268F2B1C0
:104F800031462846904780464DE095F89C02002720
:104F9000022802D0032843D113E00CB1802C3FD16A
:104FA000200604F07F0000EB800005EB800101D5B6
:104FB000143101E001F5AA7102220F602CE032E009
:104FC0002EE0200604F00F0000EB800005EB8000CF
:104FD00009D5808C20B304F07F0000EB800005EB46
:104FE000800614360AE0B0F86401C8B104F07F000E
:104FF00000EB800005EB800606F5AA764CB1802C0C
:1050000007D021462846FFF73BFD10B10120306054
:1050100000E03760022231462846FFF7C5FA02E079
:105020002846FFF79CFA4046BDE8F08170B505467A
:10503000087800240E4610F0600003D0202801D02C
:10504000402827D195F89C02012803D0022801D0DE
:1050500003281FD1B088C1B201291AD8C1B228468D
:10506000FFF76BFAFF280CD058B9D5F8B8128A6848
:105070003AB1C5F8D4028A683146284690470446BA
:1050800000E00324F088204307D12846FFF799FA6F
:1050900003E031462846FFF762FA204670BD7047AC
:1050A00000487047901B002070B50A78012302F079
:1050B0000F054E78AB401B4CD0F81C58012E17D072
:1050C00045EA0343C0F81C3800EB4210D0F8002B2F
:1050D00012040BD4D0F8002B0B890979C3F30A030F
:1050E0001A4344EA81410A43C0F8002B002070BDF6
:1050F0009BB21D43C0F81C5800EB4210D0F8003999
:105100001B04F3D4D0F800390D890979C5F30A05D9
:1051100089042B4341EA82510B432343C0F80039F1
:10512000E4E7000000800010D0F800196FF30A01D6
:10513000C0F80019D0F8041841F48071C0F80418C0
:105140000020704770B50D460446C2F3072104984D
:105150001E4601291BD0E06840F04000E060204678
:1051600000F032F8C6F307210029A16B26D021F404
:105170008031A163C5F30741012907D1A16841F03E
:105180000601A160A16841F02001A16070BDA16B82
:1051900021F48031A163E1680A4A1140E160E168CD
:1051A00021F44011E160C0B2012803D1E06840F46D
:1051B0008010E060204600F007F8DBE741F4803122
:1051C000D7E70000BFFFBDFF08B500214FF07062B8
:1051D0000091009B5B1C009393420CD80369002B49
:1051E000F7DA0091016941F0010101610099491C60
:1051F0000091914201D9032008BD0169C907F5D189
:10520000002008BD30B54C780A78012300EB42122B
:10521000012C2CD0D2F8004B002C0BDAD2F8004B2A
:1052200044F00064C2F8004BD2F8004B44F08044D4
:10523000C2F8004BD0F83C580C7804F00F0403FA85
:1052400004F425EA0444C0F83C48D0F81C48097826
:1052500001F00F018B4024EA0341C0F81C18D2F87A
:10526000000B19490840C2F8000B002030BDD2F8ED
:105270000049002C0BDAD2F8004944F00064C2F86F
:105280000049D2F8004944F08044C2F80049D0F8FF
:105290003C480D7805F00F0503FA05F5ADB2AC43B7
:1052A000C0F83C48D0F81C48097801F00F018B4049
:1052B00099B28C43C0F81C48D2F800090349084051
:1052C000C2F80009D1E700000078F3EF007833EC72
:1052D000D0F8001E21F00301C0F8001ED0F8041819
:1052E00021F00201C0F8041800207047D0F8001E19
:1052F00021F00301C0F8001ED0F8041841F00201AB
:10530000C0F80418002070472DE9F04F00250E4624
:10531000044617462846294604EB8002C2F80411C9
:10532000401C0F28F8D3C3F307405FEA000920466A
:1053300016D0806B20F40012A263A06B40F4002210
:10534000A263084688462146C4F8000EC7F307202A
:10535000012817D00846D1F8001841F0030118E0E1
:10536000D0F8040840F00202C4F80428A06B40F40E
:105370000012A263A06B20F40022A263A06B20F4B1
:105380008022DDE7300E0846D1F8001801D041F048
:105390000101C0F80018102100F08BFA00B10125BE
:1053A000204600F06AFA00B101254046C4F8108892
:1053B000C4F81488C4F81C8800214FF0006B4FF02B
:1053C000904E4FF67F3AF2B215E000BF04EB411366
:1053D000D3F800C9BCF1000F06DA11B1C3F800E937
:1053E00004E0C4F800B901E0C3F80009C3F81009EB
:1053F000C3F808A9491C8A42E8D8002115E000BF7B
:1054000004EB4113D3F800CBBCF1000F06DA11B165
:10541000C3F800EB04E0C4F800BB01E0C3F8000BE4
:10542000C3F8100BC3F808AB491C8A42E8D8D4F87B
:10543000101821F48072C4F81028A0616FF0804029
:105440006061C6F3074018B9A06940F01000A06180
:10545000A0690A490843A061C7F3074018B1A069D1
:1054600040F00800A061B9F1010F03D1A06904491F
:105470000843A0612846BDE8F08F000000383C805A
:1054800004000040816821F0010181600020704724
:1054900010B5036C134CA34203D9D0F8003B002B8A
:1054A0001EDB0023C0F8103BD0F8103B43F4002370
:1054B000C0F8103BD0F8103B43F01803C0F8103B85
:1054C000D0F8103B43F0C043C0F8103B012907D18E
:1054D000C0F8142BD0F8001B41F08021C0F8001B4D
:1054E000002010BD0A30544F4A780B78012A00EB97
:1054F00043100BD0D0F8002B22F40012C0F8002B80
:105500000979032914D0022912D017E0D0F8002914
:1055100022F40012C0F800290979032901D00229D8
:105520000CD1D0F8001941F08051C0F8001905E005
:10553000D0F8001B41F08051C0F8001B00207047DC
:105540000A784B78D1B200EB4110012B12D0D0F881
:10555000001B002906DB2AB1D0F8001B21F0804196
:10556000C0F8001BD0F8001B41F40011C0F8001B6C
:1055700000207047D0F80019002906DB2AB1D0F8C6
:10558000001921F08041C0F80019D0F8001941F449
:105590000011C0F80019EBE7F8B50C784F788B4D87
:1055A000E3B26FF0604600EB4313012F29D0D3F82C
:1055B000107B6FF31207C3F8107BD3F8107B2F40DA
:1055C000C3F8107B002C7DD00D69002D7BD08C683A
:1055D00025446D1EB5FBF4F5ADB26C430C62D3F8F7
:1055E000104B06EAC5452C43C3F8104BD3F8104BBB
:1055F0000D6AC5F312052C43C3F8104B012A70D075
:10560000CBE00F69EFB1D3F810796FF31207C3F84D
:105610001079D3F810792F40C3F810790CB30F69C3
:105620008D682F447F1EB7FBF5F5D3F81079ADB226
:1056300006EAC5463743C3F810790E79012E1CD00F
:105640002AE0D3F810692E40C3F81069D3F8105936
:1056500045F40025C3F81059D3F810596FF312051B
:1056600020E00E698D68AE4200D90D61D0F8105966
:1056700045F40026C0F810690EE0D3F8106926F052
:10568000C046C3F81069D3F810694FF0C04707EA65
:1056900045752E43C3F81069D3F810590E69C6F347
:1056A00012063543C3F81059012A1BD000EB4413EE
:1056B000D3F8004944F00444C3F800490C79012CA4
:1056C00031D001E044E057E00A695AB3D0F83428F9
:1056D000097801F00F03012199400A43C0F83428EA
:1056E00071E056E0CA691AB100EB4413C3F81429FB
:1056F000097901290ED1D0F80818C90500EB441129
:10570000D1F8002902D442F0005201E042F0805268
:10571000C1F8002900EB4410D0F8001941F0044111
:10572000C0F800194FE0D0F80848E405D3F8004964
:1057300002D444F0005401E044F08054C3F800491E
:1057400000920A8A93B20A78C96800F0DFF93AE059
:105750000C690CB18C680C618C680C62D0F8105B21
:10576000C4F312042543C0F8105BD0F8104B44F486
:105770000024C0F8104B41E7D3F8104B8D68C5F3F7
:1057800012052C43C3F8104BD3F8104B44F40024FB
:1057900032E7CA680AB1C3F8142B097901290CD180
:1057A000D0F80808C005D3F8000B02D440F0005030
:1057B00001E040F08050C3F8000BD3F8000B40F03C
:1057C0000440C3F8000B0020F8BD0000FFFF07E015
:1057D00038B50022009213464D780A7842F21074D0
:1057E00000EB4212012D19D0D2F8005B002D3CDAFB
:1057F000D2F8005B45F00065C2F8005B0A7800EB68
:105800004212D2F8005B45F08045C2F8005B009A76
:10581000521C0092A24221D9012326E0D2F800595D
:10582000002D22DAD2F8005945F00065C2F800597F
:105830000A7800EB4212D2F8005945F08045C2F8D0
:105840000059009A521C0092A242E5D80A7800EB57
:105850004212D2F80029002AF3DB06E00A7800EBB6
:105860004212D2F8002B002AD1DB184638BD8168DD
:1058700041F0010181600020704708B500214FF020
:1058800070620091009B5B1C009393420AD80369ED
:10589000002BF7DA0091102101610099491C009159
:1058A000914201D9032008BD0169C906F5D4002041
:1058B00008BD18B500224FF070630092009C641C74
:1058C00000949C420CD80469002CF7DA0092202244
:1058D00042EA811101610099491C0091994201D964
:1058E000032018BD01698906F5D4002018BDD0F841
:1058F000080810F0060004D0022803D0062801D0C2
:105900000F20704702207047406900F00100704787
:10591000D0F81818D0F81C08084080B27047D0F8AA
:105920001818D0F81C080840000C704710B5D0F8C3
:105930001038D0F8342801F00F0400EB4110E24099
:1059400002F00102D0F8080943EAC212104010BD6B
:1059500000EB4111D1F8081BD0F81408084070473B
:10596000416980690840704730B50346084694088D
:1059700002F00301002203F5805303E01D6840F8A4
:10598000045B521CA242F9D300290BD01C680022F0
:10599000D50024FA05F3491E521C090400F8013B06
:1059A000090CF5D130BD70B50446C068002520F063
:1059B000C040E060012901D079B120E0E06840F00A
:1059C0000050E0600A20FBF7EDFC60690A3510F03A
:1059D000010F10D1C82DF5D30DE0E06840F08040F4
:1059E000E0600A20FBF7DEFC60690A3510F0010F69
:1059F00001D0C82DF5D3C82D01D0002070BD0120E5
:105A000070BDD0F8002822F4FE62C0F80028D0F85B
:105A100000284FF4FE6303EA01110A43C0F800288E
:105A200000207047022A3ED1264A274B0A449A4258
:105A300001D20F2138E0254A254B0A449A4201D26F
:105A40000E2131E0234A244B0A449A4201D20D210F
:105A50002AE0224A224B0A449A4201D20C2123E036
:105A6000204A214B0A449A4201D20B211CE01F4AD2
:105A70001F4B0A449A4201D20A2115E01D4A1E4BCF
:105A80000A449A420FD31D4A1D4B0A449A4201D23E
:105A9000082109E01B4A11441B4A914201D2072107
:105AA00002E0062100E00921C26822F47052C260BF
:105AB000C2684FF4705303EA81210A43C260002098
:105AC00070470000405327FF00350C00401E1BFFAD
:105AD00040420F0000DC0BFF804F1200808CF9FE6B
