:020000040800F2
:10000000E874002069020008B764000891530008F2
:10001000FD5C0008A90E0008DB9F0008000000003E
:10002000000000000000000000000000617A0008ED
:100030006917000800000000816B000809800008B3
:10004000830200088302000883020008830200087C
:100050008302000883020008B5180008BB180008D6
:1000600083020008C1180008C718000883020008AE
:10007000F5140008830200088302000883020008C8
:10008000830200088302000883020008830200083C
:10009000AD0E0008B50E000883020008CD18000858
:1000A000830200088302000883020008830200081C
:1000B0008302000883020008E5800008830200082C
:1000C00083020008830200088302000883020008FC
:1000D00083020008830200088302000835870008B5
:1000E000830200088302000883020008F1800008F0
:1000F00083020008830200088302000883020008CC
:1001000083020008830200088302000883020008BB
:1001100083020008830200088302000883020008AB
:100120008302000801150008830200080D1500086D
:10013000830200088302000883020008830200088B
:10014000C10E0008C90E000883020008B964000847
:100150008302000819150008830200084987000877
:10016000830200088302000883020008830200085B
:1001700083020008830200088302000800000000D8
:10018000830200088302000800F002F800F05CF827
:100190000AA090E8000C82448344AAF10107DA45E2
:1001A00001D100F051F8AFF2090EBAE80F0013F0D8
:1001B000010F18BFFB1A43F00103184714CC0000CD
:1001C00034CC00000A444FF0000C10F8013B13F04F
:1001D000070408BF10F8014B1D1108BF10F8015BA0
:1001E000641E05D010F8016B641E01F8016BF9D193
:1001F00013F0080F1EBF10F8014BAD1C0C1B09D1EA
:100200006D1E58BF01F801CBFAD505E014F8016B5B
:1002100001F8016B6D1EF9D59142D6D370470000ED
:100220000023002400250026103A28BF78C1FBD8FF
:10023000520728BF30C148BF0B6070471FB50CF094
:10024000F6FA1FBD10B510BD00F085F91146FFF795
:10025000F5FF0AF0D7FC00F0A3F903B4FFF7F2FFB3
:1002600003BC00F0A7F9000009488047094800478F
:10027000FEE7FEE7FEE7FEE7FEE7FEE7FEE7FEE756
:10028000FEE7FEE704480549054A064B70470000B3
:10029000D580000889010008E86E0020E87400207D
:1002A000E8700020E870002053EA020C00F069803A
:1002B0002DE9F04B4FF00006002B1FBFB3FA83F57A
:1002C00003FA05F424FA05F65E4012BF1643B2FAAB
:1002D00082F502FA05F4C5F120051EBF22FA05FCDD
:1002E00044EA0C04203556EA044C4FEA144418BF83
:1002F000641C4FF000084FF00009904271EB030CB2
:1003000039D3002919BFB1FA81F701FA07F6B0FA1B
:1003100080F700FA07F6C7F120071EBF20FA07FC96
:1003200046EA0C062037B6FBF4FCA7EB0507103FA6
:1003300007F01F0BCBF120062CFA06F60CFA0BFB8C
:1003400044BFB3460026202FA4BF5E464FF0000BEB
:100350005BEA060C08BF4FF0010B19EB0B0948EBE9
:100360000608ABFB027C06FB02CC0BFB03CCC01BDC
:1003700071EB0C01C1E70B46024641464846BDE819
:10038000F08B13B5084318BF4FF0FF300146AFF3B1
:100390000080BDE81C407047032A40F2308010F016
:1003A000030C00F0158011F8013BBCF1020F624410
:1003B00098BF11F801CB00F8013B38BF11F8013BA1
:1003C000A2F1040298BF00F801CB38BF00F8013B4E
:1003D00011F0030300F02580083AC0F0088051F8BE
:1003E000043B083A51F804CBA0E80810F5E7121DC9
:1003F0005CBF51F8043B40F8043BAFF30080D207E8
:1004000024BF11F8013B11F801CB48BF11F8012BB3
:1004100024BF00F8013B00F801CB48BF00F8012BD6
:10042000704710B5203AC0F00B80B1E81850A0E832
:100430001850B1E81850A0E81850203ABFF4F5AFB2
:100440005FEA027C24BFB1E81850A0E8185044BF0E
:1004500018C918C0BDE810405FEA827C24BF51F87B
:10046000043B40F8043B08BF7047D20728BF31F86F
:10047000023B48BF11F8012B28BF20F8023B48BFC0
:1004800000F8012B704702F0FF0343EA032242EA1F
:10049000024200F024B84FF000020429C0F012809C
:1004A00010F0030C00F01B80CCF1040CBCF1020F27
:1004B00018BF00F8012BA8BF20F8022BA1EB0C01FC
:1004C00000F00DB85FEAC17C24BF00F8012B00F8F2
:1004D000012B48BF00F8012B70474FF0000200B518
:1004E000134694469646203922BFA0E80C50A0E857
:1004F0000C50B1F12001BFF4F7AF090728BFA0E805
:100500000C5048BF0CC05DF804EB890028BF40F8D0
:10051000042B08BF704748BF20F8022B11F0804F12
:1005200018BF00F8012B704770477047704710B52F
:1005300000F00CF8006810BD10B5044600F006F895
:10054000046010BD00487047C8050020004870478F
:10055000C805002070477546FFF7F4FFAE4605005A
:100560006946534620F00700854618B020B5FFF7CE
:1005700089FEBDE820404FF000064FF000074FF025
:1005800000084FF0000BAC46ACE8C009ACE8C0096D
:10059000ACE8C009ACE8C00921F007018D467047FE
:1005A00010B50446AFF300802046BDE81040FFF7C9
:1005B00054BE000001491820ABBEFEE72600020031
:1005C000F0B585B0D8B11646CAB100251C46BBB1FE
:1005D00041F08001CDE902556F46CDE900558DF817
:1005E0000810A11C02AACBB2394607F061FC0546EF
:1005F00030B1B91C30462246FFF7CEFE00E00025A0
:10060000284605B0F0BD50B1E0B58DF807208DF853
:1006100006100DF10601022207F0BAFC8CBD002085
:10062000704700002DE9F84F2DED200B002800F059
:100630009281044600F1280500F11806443001902B
:1006400001F0DEF89FEDC6EA9FEDC6CA9FEDC6FA3F
:10065000DFEDC69A9FEDC69ADFEDC6AA9FEDC6AA4A
:10066000DFEDC6BADFEDC6CAB0EE408AB2EE04DAFC
:1006700000270DF128080DF13409F6EE008A0DF17E
:100680001C0A01F0BDF830EE480AB4EE4D0AF1EE56
:1006900010FA00F348814FF0000BC4E90ABBC4F81C
:1006A00030B0C4F840B041F26F70834500F2EA8088
:1006B0002068ADF818700597122105AA0623FFF7E8
:1006C0007FFFB8B3BDF91400BDF91610BDF91820AD
:1006D00000EE100A02EE102AB8EEC00AB8EEC22AE6
:1006E00020EE0E0A22EE0E2A20EE0C1A00EE101A50
:1006F00022EE0C2AB8EEC00A84ED031A84ED052A16
:1007000020EE0E0A20EE0C0A84ED040A20EE000A08
:1007100001EE010A02EE020AB1EEC0BAB4EE4BBA23
:10072000F1EE10FA80F1A98094ED100A3BEE000A78
:1007300084ED100A6068CDE90277002102AA08233F
:1007400000F049F978B39DF808000F282BD1BDF9C6
:100750000A00BDF90C10BDF90E2094ED0A3A94ED93
:100760000B4A94ED0C5A00EE100A01EE101A02EE3C
:10077000102AB8EEC00AB8EEC11AB8EEC22A20EEAE
:100780000F0A21EE0F1A22EE0F2A06F03EF833EE82
:10079000000A34EE011A35EE022A84ED0A0A84EDCD
:1007A0000B1A84ED0C2A0020BBF1000F20D00C287E
:1007B00025D0311891ED000A09EB000106F0E8F8A8
:1007C000C8BF81ED000A08EB000106F0E1F8B8BFF0
:1007D00081ED000A0430EAE7321808EB000192EDDF
:1007E000000A81ED000A09EB0001043081ED000AE6
:1007F0000C28F1D1F0EE4BDAF0EE4BEA0DE0B4EE5E
:100800006DBAF1EE10FAB4EE6EBAB8BFF0EE4BDA94
:10081000F1EE10FAC8BFF0EE4BEA00200C280FD022
:1008200008EB000191ED000A09EB000191ED001ABF
:100830000AEB0001043031EE400A81ED000AEDE7D9
:100840007EEEEDFAF4EE68FAF1EE10FA1ADC9DEDA8
:10085000070A05F00BFF15DC9DED080A05F006FF01
:1008600010DC9DED090A05F001FF0BDCB0EE490A32
:1008700000F092FF0BF1010B15E70BF0F3FAB0EE6D
:1008800040BA51E794ED100A002080EE2A0A84ED68
:10089000100A0C2808D02918043091ED000A80EEC7
:1008A0002A0A81ED000AF4E72068019900F05CF95A
:1008B000B0EE4A0A00F070FFF4EE68FAF1EE10FABA
:1008C0003FF7DFAE94ED100A30EE2B1AB0EEC11AEE
:1008D000B4EE681AF1EE10FA3FF7D3AE9DED071AA9
:1008E00006F015F83FF7CDAE9DED081A06F00FF8AB
:1008F0003FF7C7AE9DED091A06F009F83FF7C1AE04
:1009000094ED0A1A05F050FE3FF7BBAE94ED0B1ABA
:1009100005F04AFE3FF7B5AE94ED0C1A05F044FE23
:100920003FF7AFAE09E017480E49B0EE4C0AC4E9F4
:1009300010100020C4E90A0020639FED131A40F252
:100940000110A4F84A0081EE000A84ED0D0A84ED3E
:100950000E0A84ED0F0ABDEC200B01B0BDE8F08F4C
:1009600000004039CDCC1C4158A08B3A9A99193ED1
:100970006F12033A0080BB450AD7A33BCDCC1CC104
:100980000AD7233C00002042C3F51C41BCB500241B
:100990000D460DF10702002101238DF807408DF867
:1009A0000640FFF70DFEA0B10DF10602284600211A
:1009B0000123002400F00FF858B19DF806009DF8BF
:1009C000071080F00F0081F01E010843B0FA80F09C
:1009D00044092046BCBDF0B585B0F8B11646EAB171
:1009E00000251C46DBB141F08001CDF80750ADF881
:1009F0001250CDF80E5001950DF10D028DF80D102D
:100A0000611C01AFCBB2394607F052FA054630B14E
:100A1000791C30462246FFF7BFFC00E0002528463F
:100A200005B0F0BD50B1E0B58DF807208DF8061087
:100A30000DF10601022207F0ABFA8CBD00207047D1
:100A400010B5E8B30146044651F80C0B00F03AF833
:100A5000B0B394ED030A94ED0D3A94ED041A94EDBD
:100A60000E4A94ED052A94ED0F5A606804F11801BE
:100A700023EE000A24EE011A25EE022A84ED030A71
:100A800084ED041A84ED052A00F044F8C0B194F80E
:100A90004A0098B194ED060A94ED0A3A94ED071ACB
:100AA00094ED0B4A94ED082A94ED0C5A30EE430A6B
:100AB00031EE441A32EE452A05F0A7FE012010BDA2
:100AC000002010BDBCB50C4600216D460623ADF8D4
:100AD0000410009112212A46FFF772FDA0B19FED8C
:100AE0000B0A9FED0B1A002103290DD035F91120B7
:100AF000013102EE102AB8EEC22A22EE002A22EEBE
:100B0000012AA4EC012AEFE7BCBD00BF0000403978
:100B1000CDCC1C41BCB50C4600216D460823CDE967
:100B2000001100212A46FFF756FF9DF800100F39EB
:100B3000B1FA81F149090840012812D19FED090A53
:100B4000002103290DD005EB41020131B2F9022049
:100B500001EE102AB8EEC11A21EE001AA4EC011A17
:100B6000EFE7BCBD58A08B3ABCB540B300240D469E
:100B700031B30DF1060222210223ADF80640FFF742
:100B80001FFDE8B19DF807000024802818D09DF8CB
:100B90000610B4EE001AB3EE072AC90041EA50105D
:100BA0000849B4EB902F18BF084300EE100AB8EEC6
:100BB000C00A012400EE012A85ED002A00E000248D
:100BC0002046BCBD00F8FFFF28B1D0F87A0010B174
:100BD000012180F849107047BCB5002800F0DE8084
:100BE00004460068002800F0D980616800250029CB
:100BF00000F0D5800DF10702002101238DF8075088
:100C0000FFF7DEFC9FED6D0A00F0C6FDD4E90001A0
:100C1000FFF7BCFE002800F0C28020687E21B622CB
:100C2000FFF7F1FC002800F0B9809FED650A00F0A5
:100C3000B3FD20687C2100220025FFF7E4FC00289A
:100C400000F0AD8020687D210422FFF7DCFC002548
:100C5000002800F0A4809FED5B0A8DF8065000F09C
:100C60009BFD20680DF106027D210123FFF7A8FC02
:100C7000002800F0948020684021AB22FFF7C3FCDD
:100C80000025002800F08B809FED4E0A8DF805505E
:100C900000F082FD20680DF1050240210123FFF7DD
:100CA0008FFC00287BD09DF80500AB2877D1206809
:100CB00041210122FFF7A7FC002500286FD09FEDFE
:100CC000410A8DF8045000F067FD206801AA412117
:100CD0000123FFF775FC002861D09DF8040001286E
:100CE0005DD1206853210822FFF78DFC002855D0E4
:100CF000206858210422FFF786FC00284ED0606847
:100D00001421B622FFF78EFE002847D09FED2E0A51
:100D100000F042FD60680F2100220025FFF782FEEF
:100D2000E8B39FED280A8DF8035000F035FD6068A8
:100D30000DF103020F210123FFF74DFE78B39DF85B
:100D4000030060BB606810218122FFF76BFE28B3AF
:100D50006068112100220025FFF764FEF8B1606889
:100D600015218022FFF75EFEC0B1606816210122C6
:100D7000FFF758FE90B1606818210122FFF752FE7C
:100D8000002560B14FF07E5000210C2909D0621877
:100D90000431506395629561D560F6E700252846D9
:100DA000BCBD0A490A4A0020012584F84B00606254
:100DB000A4F84850C4E91021F1E700BF6F12833A4C
:100DC0006F12033B0AD7233CA69B443B0000204202
:100DD000CDCC1C41B0B52DED0E2B002850D00546D2
:100DE0004C200AF0EBF800284AD04C210446FFF7CB
:100DF00074FB2B4840F60801A060ADF82210CDF836
:100E00002500CDF80D00CDF82940CDF81140296816
:100E10006A68D5F81500CDE906122989ADF82010C9
:100E2000297B8DF8241040F20771ADF80A10D5F82F
:100E30001910CDE90001B5F81D00ADF8080095F8CE
:100E400021008DF80C0006A806F0DAFF2060684645
:100E500006F0D6FF2168606079B170B195F82A007C
:100E60009FED108A84F84A002046FFF7B5FE60B96E
:100E7000B0EE480A00F090FCF6E720460AF02EFAA1
:100E800000242046BDEC0E2BB0BD94F84A0010B1F2
:100E90002046FFF7C7FB0120A4F84800F1E700BF98
:100EA000C90B0008CDCCCC3DFEE70000034801F0A3
:100EB00023BA00BF014801F01FBA00BFF02500208F
:100EC000034801F019BA00BF014801F015BA00BF8C
:100ED00018260020002070470020704710B51D4CD8
:100EE00005490022204607F0C4FD0E49204607F0C0
:100EF000B3FD002010BD00BF0416002010B5096826
:100F000019B1074A126802B19047124C05492046B0
:100F100007F0A2FD204607F07DFD002010BD00BFB8
:100F2000606C0020040E00200020704710B50A46B7
:100F300001460848D0F8BC02D0F8140208B10120DC
:100F400010BD044C204607F094FD2046BDE810403B
:100F500007F002BE142300201B4C204600F03CF892
:100F60001A4D286004F1110000F036F8184C194EA3
:100F7000686094ED020A3068B1EE400A85ED020A1D
:100F800010EE102AD0F809102868130A80F82330D0
:100F9000130C80F82220120E80F8261080F82430DE
:100FA00080F8252081F000420B0C090A80F82710F8
:100FB000110EEA6080F8283080F8291000F0FCF962
:100FC000022009F041FED4E7080000203409002087
:100FD0008C090020602F00202DE9F04F99B0DFF838
:100FE000F0A280469AF80000002840F0B880DFF8B0
:100FF000E492B94DC44CC54E002101200DF13C0BCB
:10100000B6A7169015911790CDE90F11CDE91111E2
:10101000CDE913014846594601F07AF838B100206D
:10102000394622463346009506F0A8F9F2E701203A
:101030000021DFF8DC92B44CB44F0FF2D82B0C90A7
:101040000D9009900E200B91CDE90511CDE9071106
:101050000E900A9005AE4846314601F059F828B185
:1010600000205946224605F093FAF4E7BF4AC04BE8
:10107000B3A10020009506F081F9964CDFF8F492B8
:10108000A14EA24F204601F0BAFB28B100204946EC
:10109000324605F07DFAF5E7DFF87492B64C9A4EC9
:1010A0009A4F484601F0ABFB28B10020214632465A
:1010B00005F06EFAF5E7DFF81C92B04E924C934FB4
:1010C0004846022100F0D0FF28B1002031462246D8
:1010D00005F05EFAF4E7DFF83892A94E8A4C8B4FA0
:1010E0004846022100F0C0FF28B1002031462246C8
:1010F00005F04EFAF4E7DFF8DC91A24E824C834F04
:101100004846102100F0B0FF28B1002031462246A9
:1011100005F03EFAF4E7DFF8F8919B4E7A4F7B4CEE
:101120004846102100F0A0FF38B1002031463A4671
:101130002346009506F022F9F2E78C4C8C4E934939
:10114000002000952246334606F018F90120904908
:101150002246334600958AF8000005F077FAB8F188
:10116000000F1CD0D8F80000B0B1B8F8071099B142
:10117000B8F8052082B198F80420531E022B0BD238
:10118000012A18D19AF80120082A1ED152490025B7
:10119000CDE90001854906E04F48854901E04E4808
:1011A000844900250090584A584B05F04FFA2846CC
:1011B00019B0BDE8F08F9AF80220082A12D14649EA
:1011C0000025CDE900017449EDE70AF10403BAB145
:1011D00010CB013A648D8C42F9D13F4A8DE807006B
:1011E0006E490BE00AF1240352B110CB013A648D31
:1011F0008C42F9D1384A8DE8070066490025D2E7CC
:101200003F2009F0DBFE002859D03F210546FFF7BB
:1012100042F9BDF8114098F80420D8F800300821B0
:10122000B8F80500A9610021A5F81D409DF81340FC
:101230002B60022A274B69612961E960A860297740
:101240002884EC77324C08BF2146012A18BF0B4690
:101250006B60B8F80730012A6B85D8F80960D8F8B8
:101260000D70C5F83760C5F83B7013D19AF80110BE
:101270000AEB8102013155608AF80110164A29688B
:10128000CDE90232394A3A4BCDE90010444905F024
:10129000DDF96968A1427FF48AAF9AF802000E4B2B
:1012A0000AEB800101304D628AF802002868298C1F
:1012B0006A8D8DE80F003B492C4A2D4B75E7D8F815
:1012C000000005490025CDE9000137496BE700BF63
:1012D000E4060020F0250020AFC900082020257377
:1012E000257343414E31204649464F302046696CB4
:1012F00074657220436F6E666967204572726F7203
:101300000D0A257300000000B4C90008A6C9000832
:101310001826002020202573257343414E32204695
:1013200049464F302046696C74657220436F6E6683
:101330006967204572726F720D0A25730000000004
:1013400020202573257343616E204D41534B204669
:10135000696C74657220496E697420737563636586
:10136000737366756C6C790D0A257300BCC900082F
:10137000A9C9000808CB000825CB0008A7CB0008A6
:10138000D6CB000805CC000834CC0008E5CC00081A
:101390000DCD0008A4CC0008C8CA000863CC000822
:1013A000FCC9000842CA00082DCD000888CA000800
:1013B00071CB0008CCC90008BCB568B10446002553
:1013C000606800F085FF80B9681C642D0546F7D37E
:1013D0000D480E49002402E00B4800240EA10090A5
:1013E0000B4A0C4B05F032F90CE0012004F1080126
:1013F00004F122020190606801AB00F048FEB0FAEF
:1014000080F044092046BCBDAFC9000842CB0008AB
:10141000B4C90008A6C900082020257325734361BC
:101420006E205472616E736D6974204661696C65DB
:10143000642C20496E7374616E6365206973204E5D
:10144000554C4C0D0A25730010B5054C2068C06A38
:1014500005F0B2FC2068006BBDE8104005F0ACBCA4
:1014600088070020A8B1A1B1B0B50D4B00229C8C1B
:101470008A4210D224040ED05C8C1C5D845401324C
:101480005D8C9C8C0135013C05F01F059C845D84BE
:10149000EEE7002201E0BDE8B04090B2704700BF27
:1014A000646C002010B588B08DF80A0010EE100AA8
:1014B0004BF2730400238DF80B1020218DF80C20C3
:1014C000CDF8020010EE900AADF800406524CDF88A
:1014D0000D30CDF81130CDF81530CDF81930ADF80C
:1014E0001D30CDF8060068468DF81F40FFF71EFD41
:1014F00008B010BD014801F001BA00BF002700206C
:10150000014801F0FBB900BF60270020014801F04D
:10151000F5B900BFA0260020014801F0EFB900BFD7
:10152000C027002010B501686FF00F02182308A42F
:1015300052FA81F2B2FBF3F3E35C40F2FF34A143D1
:101540005F2A88BF0431C0E91613084610BD00BFEA
:101550000006101600061016B0B5046880682568ED
:101560004028084625F480252560636008BF1046A2
:10157000A06008BF0A46E260B0BD000010B50E4989
:101580004FF47A740A6842F080720A600B490022B4
:101590004A600B6843F001030B60094BC449584390
:1015A000B0FBF3F3B0FBF4F4C1E90304C1E9053285
:1015B000BDE8104000F0DAB8FCED00E0001000E0FB
:1015C00040420F002DE9F04F85B0424E424F0DF1E1
:1015D000130A4FF0000806F128000390DFF82C9161
:1015E000DFF82CB13DA5732450460121FFF73AFFE7
:1015F00001286CD1307860B170781F2818D89DF818
:101600001320311881F82820411C1F287170EBD15C
:1016100018E09DF813007328E6D106F129001F2178
:10162000FEF739FF40F2011086F828403080DBE7F2
:10163000002029464A465B46009705F09FFEA6F823
:101640000080D1E796F84700324933A234A304F072
:10165000A6FF0398706096F84700652829D196F890
:1016600029003C493CA23EA34FF0000804F097FF3C
:101670003C48D6F804B096F829700125002490F86B
:1016800000905FFA88F081451CD306EB80008068EB
:1016900060B14178B94207D180F8265006305946EA
:1016A0002022FEF779FE01E080F8264008F10108CB
:1016B000E7E7CDE9000700201AA14A465B4605F09E
:1016C0005DFE0024044F4FF00008348086E705B02B
:1016D000BDE8F08FB4070020AFC9000820202573B3
:1016E00025735061636B6574206C656E6774682048
:1016F0006572726F722C20726573657474696E679F
:101700002073746174650D0A25730000C4C9000854
:10171000ACC900085DCD00081B5B313B33346D0064
:10172000443A0000202025732573496E76616C6968
:1017300064207061636B65743A2077726F6E672006
:10174000656E642062797465203078253032580DDA
:101750000A2573009FCD00081B5B313B33326D00BF
:10176000503A00008E0100207047000081B05048C0
:10177000017879B9012101704C490A680092C26967
:10178000009B934202D28269013282610968002281
:101790000270C16101B070474448454A016892ED4A
:1017A000031AB8EE411A21EE000A0268521A01EE3D
:1017B000102AB8EE411AB4EE410AF1EE10FAF4DC48
:1017C000704700BF80B52DED047B38490968019151
:1017D000374991ED030A0168019A019B0360501A91
:1017E000B8EE400A01EE100AB8EE411A81EE008A06
:1017F000FFF7BCFFB0EE480ABDEC047B80BD00BF24
:1018000080B500F01FF80C489FED0C2A818890ED00
:10181000080A008901EE101AB8EE400AB8EE411A23
:1018200001EE020A01EE100A9FED052AB8EE411AF8
:1018300001EE020A80BD00BFFC0700206F12833A50
:10184000BD3786352DE9F843184800680090FFF74A
:101850008DFF174D4FF0FF3100240023D5E90369B8
:10186000D5E90580009FE0FB0174324638462146E9
:10187000FEF71AFD2862A0FB060201FB06213E1AB4
:101880004A4630468C4100232146FEF70DFDA880D4
:1018900080B2424600FB09F0301A64F100010023D7
:1018A000FEF702FD2881BDE8F88300BF041000E0C8
:1018B000FC070020012001F0A9B9022001F0A6B91F
:1018C000082001F0A3B9102001F0A0B9202001F0F8
:1018D0009DB972B6FEE7143090EC040A7047000020
:1018E00010B586B004460A480DF1080C019008A016
:1018F000031D00690ECB05902046ACE80E0001A93F
:1019000000F05AF8204606B0BDE8104000F00AB8D2
:10191000000000000000003F0000FA440000F04119
:101920000000000070B500254FF07E5604461921D6
:10193000456446611830FEF7D0FD94ED010AB0EE23
:10194000001A01201749194B174A84F84050C4E97E
:101950000D55E56384F854004FF0804031EE400AA5
:10196000B0EE081AE0640E4880EE010AC0E90551A5
:10197000216943624FF07C53C0E90126C0E9035559
:101980008263C0E90C55C0E90A65C0E907233C3011
:10199000A164142184ED140AFEF79FFD70BD00BF01
:1019A000BC0800206F12033BCDCCCC3D0AD7233CB2
:1019B000143080EC040A7047B0B5044608789FEDF7
:1019C000250A0D4620704868606091ED021A21EEEC
:1019D000002AB5EE401A9FED200AF1EE10FA08BF7A
:1019E000B0EE402A91ED031A84ED022AB5EE401ABA
:1019F000F1EE10FA0BD09FED190A21EE000A0AF061
:101A000069F9B6EE001A20EE010A20EE000A84ED14
:101A1000030A95ED010A2869B5EE400A2061A06429
:101A2000F1EE10FA01D0286908B90B48E06094F88B
:101A3000540094ED010A08B984ED130AB0EE001ABF
:101A400031EE400AB0EE081A80EE010A84ED140A65
:101A5000B0BD00BF48E17A3FFFFF7F7F35FA8E3C83
:101A600070B52DED146BDFF80054B0EE40DAB0EE37
:101A700041BA00F12401B0EE43EAB0EE628AB0EE62
:101A8000429AB0EE61AAB0EE60CA0446B0EECD1A3A
:101A9000C1EC031A85ED063A90ED020A04F0BCFE93
:101AA00009DCB0EECC1A04F0B7FE04DCB0EECB1AC1
:101AB00004F0B2FE0FDD04F114030FCB8DE80F002C
:101AC0002046FFF72FFF012004F1140684F83000B0
:101AD0009DE80F000FC694F8540088B194ED131AD6
:101AE00094ED142A94ED010A02EE4E1A84ED131AB5
:101AF00004F092FEBEBF002084F8540084ED130A67
:101B000020789FEDDAFA022816D294ED050AFEEE4F
:101B1000008A94ED061A94ED083A94ED072A40EEF7
:101B2000008A63EE02AA61EE039A43EE038A41EE55
:101B300000AA40EE429A1EE0F0EE4FAAF0EE4F9A55
:101B4000F0EE4F8A17D194ED050AF6EE008A94ED77
:101B5000072A94ED083A94ED061A40EE408A60EEAA
:101B6000029A22EE032A43EE438A00EE012A41EE56
:101B7000439AF1EE42AA0120B5EE408AF1EE10FA46
:101B800084F840000ED1B5EE40AAF1EE10FA09D16A
:101B9000B5EE409AF1EE10FA04D1F0EE4FBAF0EE45
:101BA0004FCA62E0B0EE4A0AF0EE490AB0EE481AB7
:101BB00008F05AFB04F076FFF0EE40BAF0EE60CA8F
:101BC000F0EE41DA08F0C3FB30EE200AF0EE6C0ACA
:101BD00004F068FF71EE00EAB0EE6B0AB0EE6D1A29
:101BE00008F072FBF5EE40EA04F011FFF1EE10FA96
:101BF00005DA04F0D4FE08F037FB04F008FF04F027
:101C0000CEFEC4ED0D8AC4ED0E9AC4ED0FAA08F005
:101C1000A5FB94ED031A04F063FF02DD012101200E
:101C200004E000206FF0080184F84000D4E911239B
:101C30001144994205DD0020226984F84000A06427
:101C400001E02269A2649142D8BF0A46F0EE4FBA81
:101C5000F0EE4FCA002948BF0022626428B9B0EEF6
:101C60006AFAF0EE69BAF0EE68CA814EF6EE001A32
:101C700004F057FFB047D4ED131A04F0C8FEB0EEDD
:101C80006C0AF0EE6B0AB0EE4F1AB04704F044FE57
:101C900004F085FE08F0D9FA94ED05FAD4ED068A31
:101CA000D4ED079AD4ED08AAF0EE4E1AB04728EE0C
:101CB000C02A29EE813A2FEE204A28EEA05A09EEDA
:101CC000E02A0FEE003A08EEC14A0FEE015A0AEE82
:101CD000C12A0AEEE03A0AEE804A09EEC05A3FEE07
:101CE000022A38EE833A39EE844A7AEE851AB0EE4B
:101CF000420AF0EE430AB0EE441A08F0F7FA04F193
:101D0000140080EC040A2868002800F0AA8004F07F
:101D100008FFF0EE4A1AB0EE492AF0EE482A03F026
:101D20009FFE95ED0E0AB7EE001AD5ED0B0A95ED64
:101D30000A3A95ED035A95ED024AD5ED0C2A95ED38
:101D4000046AD5ED0D3A95ED057A4B49D4ED074A75
:101D5000D4ED085A31EE402A62EE200A22EE033A10
:101D600062EE222A22EE232ADFED443A45EE000AF3
:101D700004EE003A46EE002A07EE002A9FED3D0AE7
:101D800060EEA01A43EE031A42EEA21A42EE021AC5
:101D900011EE900A21EE800AA1EB600001EE900A9C
:101DA00020EE210A40EE213A23EEA10AD4ED063AB4
:101DB000D4ED051A22EE002A62EE802A60EE800A37
:101DC00023EE000A95ED083A23EE855A85ED0D2A9B
:101DD00095ED092AC5ED0B0A85ED0A0AC5ED0C2A19
:101DE00001EE845A04EE865A05EE875AB0EEC54AD3
:101DF00073EE420A31EE444A00EE842AB4EE432ADE
:101E0000F1EE10FAC8BFB0EE432A31EE423A94ED3B
:101E1000051A22EE000A94ED064A94ED075A94ED55
:101E2000086A03EE010A84ED050A95ED0B1A62EECD
:101E3000010A43EE040AC4ED060A95ED0C1A22EEDF
:101E4000011A03EE051A84ED071A95ED0D4A62EEAC
:101E5000041A43EE061A08F049FA04F1140080EC63
:101E6000040ABDEC146B70BDBC080020000000002B
:101E700041A3000812D336BF12141F5FFF51D83F91
:101E8000FFF7EEBD00EE101AB7EE001A002201EBCC
:101E90008103B8EE400AC0E90132C0E90322426181
:101EA00081EE000A9FED031A20EE010A80ED000A80
:101EB000704700BFFDAD003E10B52DED0C8B90EDD1
:101EC00003BA90ED04CA90ED05DA0446F0EE4B1A21
:101ED000B0EE4C2AF0EE4D2A08F0BEF9B0EE41AA61
:101EE000B0EE408AB0EEC01A9FED190AB0EE609ACB
:101EF00004F092FC09DCB0EEC91A04F08DFC04DC9D
:101F0000B0EECA1A04F088FC06DD0020A06004F0E0
:101F1000B2FBBDEC0C8B10BDD4E90110884201D29C
:101F20000130F3E7D4ED001A04F0A5FB08F008FA3D
:101F300004F0F2FCB0EE4B0AF0EE4C0AB0EE4D1A93
:101F400008F083F904F10C0080EC030ADFE700BF1E
:101F5000295C8F3D354803F09BFF354C0021206004
:101F600004F0FEF8206890ED1A0AB5EE400AF1EE92
:101F700010FA08D104F080FA2068016D8166012012
:101F800008F062FEEEE72B4D9FED2D9A9FED2E8A15
:101F90009FED2CAA294E9FED28BAE87A022807D196
:101FA00000F054F803F010FA206890ED1A0A19E0D6
:101FB000A87A022809D131682068D1F80D1081F083
:101FC0000041816600EE101A0CE02068B5F902109D
:101FD00001EE101A90ED1A0AB8EEC11A01EE0B0AC2
:101FE00080ED1A0AB4EE490AB0EE491AF1EE10FA81
:101FF00006DBB4EE4A0AB0EE4A1AF1EE10FA03DD3F
:10200000B0EE410A80ED1A1A04F0C0F82068B0EE74
:10201000480AF0EE480A90ED1C1A04F0B5F9206861
:1020200004F02AFA012008F00FFEB6E7D8010020DC
:10203000642F0020F42F0020B00FA134602F002067
:10204000295C8FBD7B142E3F000000000448054929
:10205000407D0138B0FA80F040090870704700BF39
:10206000F42F0020D809002090F82020013A012AFE
:1020700004D8006800F11402002004E000F12402FA
:1020800001204FF48021136819431160704770B527
:1020900090F820600468013EA568012E0DD815F067
:1020A000E05F0DD0C5F30160012585401D608B68A0
:1020B00063B14D6843EAC5030AE004F04FFC23E036
:1020C00000F1240101204FF400121DE00B685B05B4
:1020D00004EB0010D1E903452343C0F88031C0F878
:1020E0008451097D012905D100F5C2710B6843F4C3
:1020F00080730B605168C0F88C1111680122C0F820
:10210000881100F5C07100200B681A430A6070BD89
:10211000F0B590F82020013A012A27D82F4802680C
:1021200042F001020260026822F47C5202604C69B3
:10213000CD694A6A036843EA02220123026004F07F
:102140001F0203FA02F2C3699343C361D343012D13
:1021500012D025BBC5681D40C56000EBC405CE6824
:102160008F8847EA06462E640D4611E0416A41F425
:10217000802141620120F0BDC5681543C56000EBB8
:10218000C4050E688F8847EA06462E6401F10C05E7
:102190008E682D8800EBC40445EA064565644468F2
:1021A0008F690E69096A44EA0205002F08BF04EA34
:1021B00003054560002E446944EA020508BF04EAAD
:1021C00003050129456102D1C1691143C16101685B
:1021D00021F0010101600020F0BD00BF0066004059
:1021E000704790F82020013A012A84BF00207047F0
:1021F0001022002908BF0C220068805800F003005C
:10220000704770B590F82040013C012C03D8046859
:1022100021B1256903E004F0A1FB55E0E568AD07B5
:1022200048D004EB0114D4F8B05115F004059560C2
:1022300004F5D875D4F8B06119BFF6085660760D6C
:1022400016602D6805F00205D56004F5DA75D4F83E
:10225000B46136075ABF2E6806F00F0608261661CD
:102260002E68C6F3072696612D682D0C5561D4F8AB
:10227000B8211A7004F0B2F9120A5A7004F0AEF9DB
:10228000120C9A7004F0AAF9120EDA7004F057F9E1
:102290001A7104F054F9120A5A7104F050F9120C30
:1022A0009A7104F04CF9120EDA71006841B100F134
:1022B000100107E000F1240101204FF4001203E0B7
:1022C00000F10C01002020220B681A430A6070BD47
:1022D00090F820100139012984BF00207047006860
:1022E000816882688068C1F38061C2F3C062C0F314
:1022F00000701144084470472DE9F84F0446006807
:102300004669D0F804908768D0F80CB0D0F810A0D7
:10231000D0F81880F10701D1002545E0F9070FD06A
:1023200001218160B80708D4780720D4380700F16C
:10233000B980204600F089FA02E0204600F086FAD3
:102340000025F80518D520684FF480718160B80524
:1023500009D478050ED438054EBF05F580452046D2
:1023600000F075FA08E0204600F072FA04E04FF43D
:102370000065E6E705F50055F80315D520684FF42C
:1023800080318160B80309D478030BD438034EBF81
:1023900005F58035204600F05CFA05E0204600F0A7
:1023A00059FA01E005F50045300748BF5FEACB6008
:1023B00050D4700748BF5FEA0B7051D4B00706D500
:1023C0002068C068800702D0204600F083F97006BC
:1023D00048BF5FEACA604AD4B00648BF5FEA0A70E5
:1023E0004BD4F00606D520680069800702D020464D
:1023F00000F0B6F9B00348BF5FEAC96044D4F00307
:1024000048BF5FEA097046D4300464D55FEA49707A
:102410005ED5C6F30021F005023101EA0801B205DC
:1024200058BF08EAD071720508F0040048BF0144A3
:102430000D4330054CD518F0700049D01038000914
:10244000052840D8DFE800F0033134373A3D45F045
:10245000080538E02068102145F40075C160A8E740
:1024600020680821C160204600F032F9A6E7206804
:10247000102145F480650161AEE720680821016103
:10248000204600F06BF9ACE720681021416020463F
:1024900000F0B4F9B3E7206808214160204600F05D
:1024A000DAF9B1E74FF480554BE745F010050AE043
:1024B00045F0200507E045F0400504E045F08005C3
:1024C00001E045F480752068816921F07001816127
:1024D0002068042141603DB1606A28436062204663
:1024E000BDE8F84FFFF77CBEBDE8F88F70B598B136
:1024F000044690F8200010B9204600F065F804F07A
:1025000053F9054620684168C90707D100F068FC07
:10251000401B0B28F6D311E0012070BD016821F0AB
:102520000201016000F05CFC0546206841688907F3
:102530000BD500F055FC401B0B28F6D3606A052133
:1025400040F40030606201203AE0217E026822F00F
:102550008002012908BF80320260617E026822F099
:102560004002012908BF40320260A17E026822F0C9
:102570002002012908BF20320260E17E026822F0B9
:102580001002012918BF10320260217F026822F078
:102590000802012908BF08320260617F026822F048
:1025A0000402012908BF04320260261D6ECE1A43C0
:1025B0002A43013932431143C16100200121606285
:1025C00084F8201070BD0000B0B586B0044601A8A4
:1025D0001421FDF782FF20683849884226D0384907
:1025E000884268D1384801684A1C0260354851B9B0
:1025F00000210091016941F000710161016901F060
:1026000000710091009900211524142500910168A2
:1026100041F008010160006800F00800009003200C
:1026200001900098294800F5006029E00021254824
:10263000254B0091026942F08062026102691C68C8
:10264000651C02F080621D600092009A4CB90091F6
:10265000026942F000720261026902F000720092A7
:10266000009A009141244025016841F00201016077
:10267000006800F00200009060200190009813486C
:102680000921059103210491002103910221029166
:1026900001A900F0C5FA28460521002200F02AFD14
:1026A000284600F019FD20460521002200F022FDF9
:1026B000204600F011FD06B0B0BD00BF006800402C
:1026C0000064004030380240DC0900200004024071
:1026D000704700007CB500210446FFF782FDC0B2C0
:1026E000072807D312493F4A3F4BCDE9000111A10A
:1026F00003F0ACFF3E4E2046002106F1440506F1F2
:1027000060032A46FFF77DFD3A48844207D03A48E5
:10271000844218BF7CBD06F12402B01C01E0321DCA
:10272000701C0178284602B0BDE8704007F02BBC51
:10273000AFC900082020257325735258204649460A
:102740004F30204D65737361676520436F756E74FC
:102750002069732025640D0A25730000704700006E
:102760001CB501210446FFF73CFDC0B2072807D382
:1027700011491C4A1C4BCDE9000110A103F066FF72
:102780001A4A2046012102F11C03FFF73AFD1949BC
:1027900017488C4207D018498C4218BF1CBD00F165
:1027A0002402023001E0021D013001780F4802B01E
:1027B000BDE8104007F0E7BBAFC900082020257333
:1027C00025735258204649464F31204D6573736139
:1027D000676520436F756E742069732025640D0A48
:1027E00025730000C4C90008ACC90008B409002062
:1027F000E4060020F0250020182600207047B0B520
:10280000044690F82000012816D1022084F8200008
:102810002068016821F00101016000F0E1FA05463D
:1028200020684068C0070DD000F0DAFA401B0B2882
:10283000F6D304F040F803E0606A40F400206062E0
:102840000120B0BD00206062B0BD70477047704786
:10285000704770477047704770B5866D044600F04A
:10286000BFFA054694F8350002281ED12068216C75
:10287000026822F016020260426922F08002426180
:1028800009B9A16C19B1016821F008010160016862
:1028900021F0010101600068C0070AD000F0A0FA31
:1028A000401B05280FD82068F5E7802060650120CF
:1028B0000EE0E06D3F2101FA00F0B060012084F8E5
:1028C0003500002004E020206065032084F83500F6
:1028D000002184F8341070BD90F83510022909D118
:1028E000052180F835100068016821F001010160C0
:1028F000002070478021416501207047F8B50446EB
:102900000020534A08210090D4E916601568376802
:10291000814039420CD0226813685B0708D51368E0
:1029200023F004031360B160616D41F00101616542
:1029300001218140394208D022685269120604D52B
:10294000B160616D41F0020161650421814039424D
:1029500008D022681268920704D5B160616D41F019
:102960000401616510218140394217D02068026856
:10297000120713D5B16002680168520306D4C90575
:1029800006D4016821F00801016001E0080301D4C8
:10299000216C00E0A16C09B120468847E16D202040
:1029A00000FA01F23A4233D020680368DB062FD5E3
:1029B000B26094F835300268052B15D122F016026A
:1029C0000260426922F080024261226C0AB9A26C64
:1029D0001AB1026822F0080202603F208840B0600D
:1029E00003F0A6FD216D2FE00168520308D4C9054C
:1029F0000AD4016821F01001016003F099FD03E0A1
:102A0000080301D4616C00E0E16B09B120468847FE
:102A1000606DE0B1606DC00715D005214FF4165010
:102A200084F83510B5FBF0F021680A6822F0010245
:102A30000A60009A01328242009202D80A68D207E4
:102A4000F7D103F075FDE16C09B120468847F8BD68
:102A5000BC0000202DE9F041044600F0C1F9ACB102
:102A60000546022084F835000020216884F83400EF
:102A7000086820F0010008600868C00709D000F06D
:102A8000AFF9401B052839D82168F5E70120BDE8DA
:102A9000F0810868271D304AE8CF00EA020ED4E929
:102AA000050CD4E9072843EA0E032B4333433B4389
:102AB0001843636A40EA0C00104340EA0802042B02
:102AC00004D1D4E90B05104340EA05020A60042B47
:102AD000486920F0070040EA03022CD1D4E90A63D8
:102AE000324343B3BCF5005F0CD0BCF1000F18D1EA
:102AF000022E19D0012E0ED0002E14E0032520271F
:102B0000032024E0032E16D8012540270120DFE80A
:102B100006F01E0B1E02A3F1C070B0FA80F040094F
:102B200004E0032E03D306D1C3F3006018B10125DE
:102B3000402701200BE020464A61FEF7F3FCE16DDF
:102B40003F220027012502FA01F18160002067651C
:102B500084F83550BDE8F0813F8010F0B0B503F047
:102B600038FD28D00120A56D84F8340094F8350094
:102B700001281DD1022084F8350000206065204620
:102B8000FEF7EAFCE26D3F232068216C03FA02F2B3
:102B9000AA60026842F01602026019B1016841F0B1
:102BA00008010160016841F0010101600020B0BD31
:102BB000002084F834000220B0BD0000B0B5044607
:102BC00000F00EF905460548611C007818BF044462
:102BD00000F006F9401BA042FAD3B0BD000000206F
:102BE00010B5094C14F8043B43B12168CA888242ED
:102BF00001D18A681AB90434013BF5E710BD0846D3
:102C0000BDE81040104700BF2008002003490A68B3
:102C1000024208BF70470860FFF7E2BF143C014062
:102C20002DE9FC4F634A08244FF0010B4FF00009D7
:102C30004FF0000A9042604A08BF072402444FEA5E
:102C4000B223072B38BF4FEAB22400940023202B75
:102C500008BFBDE8FC8F0F680BFA0AF6374200F098
:102C6000A2804F6807F00308A8F10104012C18D8CE
:102C7000032285684FEA4A0E02FA03F425EA040C9F
:102C8000CD689D4045EA0C058560C7F3001505FA3F
:102C90000AFC4568B54345EA0C056FEA040C45603B
:102CA0000BE003249E469C406FEA040CB8F1030F2E
:102CB00003D19E464FF0030820E0C4688D6804EA03
:102CC0000C0405FA0EF52C43B8F1020FC46015D1BF
:102CD00009F01C040F2202FA04F86FF0030202EA62
:102CE0005A0707443D6A25EA08080D6905FA04F405
:102CF00044EA08043C624F6807F00308056808FAD4
:102D00000EF405EA0C052C4317F4403F04604AD04A
:102D100000222AF0030701922A4A146844F48044EE
:102D2000146014680F2204F48044019409F00C0428
:102D300002FA04FC214A019D96461744224ABD58D6
:102D40009046009A25EA0C0502FA04F42C4347F851
:102D50000840DEF808404F68FA0244EA0605184ABF
:102D600058BF24EA0605CEF80850BD029446126802
:102D700042EA060458BF22EA0604CCF80040BD032C
:102D8000DEF8042042EA060458BF22EA0604CEF820
:102D90000440FD03DEF8002042EA060458BF22EAA0
:102DA0000604CEF8004009F1040902330AF1010AD1
:102DB0004DE700BF001C02400000FEBF003C014088
:102DC0000C3C01404438024008FCFFFF0069084009
:102DD00018BF01207047002A08BF090481617047AD
:102DE00079480068704700BFF8B528B3044690F8EA
:102DF0003D0020B903F09CFE204600F08BF803F064
:102E000058FE016841F400410160016821F400416D
:102E1000016000F0F5FF3B4900253B4A88424FF036
:102E2000000138BF0121904238BF01256368374A4D
:102E3000934238BF0D460DB10120F8BD94494FF4BF
:102E40007A77B0FBF1F521684E6826F03F062E43F5
:102E50004E604FF496766E43934228BFB6FBF7F56B
:102E60006A1C0D6A25F03F052A434CF6FF750A627D
:102E7000CA69AA43264DAB420AD85B000138B0FBB1
:102E8000F3F001306FF31F30042898BF042013E0E3
:102E9000A56801383DB119256B4303F026FE0AD021
:102EA00000F5804004E003EB430303F01EFE02D074
:102EB00000F5004000E00120104304F10C06C86159
:102EC000E0690A6822F0C0021043226A104348F207
:102ED000FF320860886890436CCE184310438860C6
:102EE000C86820F0FF0028433043C86003F096FD17
:102EF00000202021206484F83D10206384F83E00E7
:102F0000F8BD00BF80841E0000093D00A1860100BD
:102F1000A08601002DE9F04786B00068234EB0423C
:102F200040D10027224D4FF004084FF003094FF025
:102F3000120A0197286840F004002860286800F011
:102F40000400019001980097286840F00100286073
:102F5000286800F0010000904FF40070CDF8148054
:102F6000CDE90379CDF808A00190009801AC06F5F1
:102F7000D6302146FFF754FE4FF480702146CDE94C
:102F80000498CDE902A7019006F5D230FFF748FE7C
:102F90000097286940F400002861286900F40000C7
:102FA0000090009806B0BDE8F08700BF005C0040CC
:102FB000303802400348044900780A681044086029
:102FC000704700BF000000208C6C002080B50B48CB
:102FD000016841F400710160016841F480610160A1
:102FE000016841F480710160032000F09FF80F2018
:102FF00000F006F800F050F8002080BD003C0240D0
:1030000070B586B00446002532480195016841F04C
:10301000400101606946006800F04000019001989D
:1030200001A800F0CDFE049E00F0EAFE1649002E35
:10303000164B40F2E7328D6118BF0126B040C1E95E
:1030400002520D61124EB0FBF6F00138C1E90030BA
:10305000084601F0D9FC054698B90B4801F022FD5D
:10306000054670B92B2000F037F80F2C08D82B201C
:1030700021460022002500F03DF80648046000E0EB
:103080000125284606B070BD402E002000180040E3
:1030900040420F000400002082B000200D49019042
:1030A0004A6842F480424A604A6802F480420192CF
:1030B000019A00900868002240F08050086008687B
:1030C0000F2100F08050009000986FF0010002B0D6
:1030D00000F010B840380240002808D400F01F016A
:1030E0000122400902FA01F1014A42F8201070471A
:1030F00000E100E070B5134B4FF0FF351B68C3F3E0
:103100000223DC1E83F0070338BF002405FA04F60F
:10311000B243042B28BF042305FA03F39943A140CB
:103120001143BDE8704007F023B900BF05494FF6D1
:10313000FF030A681A4060F30A220348104308603C
:10314000704700BF0CED00E00000FA057047006812
:10315000416200207047B0B50068436AB1B1846A2B
:10316000013903EB14430024E5B2A94207D900EB6F
:1031700085050134D5F8045103EB1543F4E700EB62
:10318000810043EA0241C0F8041102E043EA02412F
:1031900081620020B0BDD0F8E00405F09DBE01EBD7
:1031A000C10200EB8202D0F8E004126A05F011BE01
:1031B00001EBC10200EB8202D0F8E004D2F86022F9
:1031C00005F058BED0F8E00405F088BE01F00F020B
:1031D000090602EBC20200EB820303F1140258BF9E
:1031E00003F515720068114606F026BD10B50446B9
:1031F00001F00F00090600EBC00104EB81015DBF87
:10320000002281F8552201F51571012244BF4A754B
:103210001431087094F89404012804BF022010BDF2
:1032200003F03DFB06F0B4FA03F0CBB9B0B50446A9
:1032300001F00F002279904201D901251DE0090615
:1032400000EBC00104EB81015DBF002281F8552233
:1032500001F51571012244BF4A751431087000252B
:1032600094F894048D70012801D1022505E003F043
:1032700016FB06F0D3FB84F894542846B0BD01F049
:103280000F0101EBC10100EB8100D0F8680270472B
:10329000B0B5044601F00F0009066FF3DF2200EB22
:1032A000C00104EB81015DBF002581F8555201F595
:1032B0001571012544BF4D7514318A600B7108707A
:1032C0004A7802B14883022B04BF0020487194F869
:1032D0009404012804BF0220B0BD03F0E0FA06F018
:1032E0008FF903F02EBBB0B501F00F01002501EB03
:1032F000C10400EB840404F5187784F8541284F8B0
:10330000555204F515712CC78379012B08BFC4F8F9
:1033100070221A46006806F0B5FB0020B0BDB0B5BB
:103320000446007901F00F05854284BF0120B0BD3D
:10333000080609D401EBC100002104EB800080F8ED
:10334000551200F5157107E005EBC500012104EBEE
:103350008000417500F1140194F8942401200D704F
:103360008870012A04BF0220B0BD84F8940420684C
:1033700006F06CFB2DB9A179206804F29C4206F09E
:1033800021FB03F0DEBAB0B501F00F0505EBC50176
:1033900000EB8104214601F8145F002501F10C07C0
:1033A0002CC701234B708379012B08BF22631A4677
:1033B000006806F067FB0020B0BD00002DE9F04F6B
:1033C00089B005688246284606F0BEFC10B109B0F7
:1033D000BDE8F08F03F0DFF90028F8D0D5F8080831
:1033E000C0F30D20CAF8D40403F0D5F90146DAF889
:1033F0000000890703D5416901F00201416105F52B
:103400000061049106F0CCFC0146DAF80000059555
:10341000C9063FD5816921F0100181612C6AC4F38E
:10342000434004F00F0506281CD002282BD147F694
:10343000F070044027D005EBC50022090AEB800597
:103440000598D5F8601206F0AFFCD5F86002D5F803
:10345000681200EB1410C5F8600201EB1410C5F8F7
:10346000680210E005980AF29C41082206F09CFCD4
:1034700005EBC500C4F30A120AEB8000D0F868120D
:103480001144C0F86812DAF80000816941F01001B7
:103490008161059D06F084FC00030DD403F07BF9E7
:1034A000049E400300F1E08003F075F9002800F16C
:1034B000A581DAF80000B9E1DAF8000006F04FFC67
:1034C00006460AF29C400AF51D744FF430684FF02E
:1034D000000B0890002EE1D0F00700F0B8805FFAF2
:1034E0008BF9DAF80000494606F052FC0746C0079F
:1034F0005CD005EB080001218160DAF8000008EBE0
:103500000001036C8A689AF80650012D24D1150732
:103510002FD4950647D4059D12F0280F46D1AC460E
:10352000E34DAB4202D9120400F198802268096988
:1035300065466FF3DF41511AB8F5306F44F80C1C43
:103540002CD1DAF86422002A00F08C80DAF86002CC
:103550000844CAF8600221E0D54D05F58075AB42FC
:1035600011D1059D10040AD4900644BF2020886024
:1035700014E0CF48059D834218D9100416D54FF4A6
:103580000040886012E0059DB8F5306F06D1DAF88A
:10359000641219B90021089A06F014FA50464946F7
:1035A000FFF706FE02E020208860059D380722D53F
:1035B00005EB08000821BE4B8160DAF800100A6CA8
:1035C00008EB010081689A4212D9090444BF4FF404
:1035D00000418160504600F033FB9AF80600012854
:1035E00009D1DAF80000089A012106F0EBF902E0AF
:1035F000504600F025FBF80642BF05EB08001021FD
:103600008160B80716D56869000604D50499486832
:1036100040F48060486014F81D0C012806D1002099
:10362000494604F81D0C504600F043FA05EB08002B
:1036300002218160B80642BF05EB080020218160AD
:10364000B80442BF05EB08004FF4005181602434F8
:1036500008F1200876080BF1010B3BE74FF400401E
:1036600065468EE7012196E7DAF8000006F070FB68
:1036700007460AF29C400022029005F51060069071
:10368000002F3FF411AFF80700F0B580DAF8000022
:10369000D1B20792089106F069FB0446C00727D013
:1036A000079B0122716B03F00F0002FA00F021EA80
:1036B00000007063069800EB431082609AF80600E1
:1036C000012811D103EBC3000AEB8000D0E90712F7
:1036D0001144016243B9DAF8240028B9DAF800008D
:1036E000029A012106F06EF908995046FFF757FD3E
:1036F000079A200704D50698082100EB4210816044
:10370000E00604D50698102100EB421081606006A7
:1037100004D50698402100EB42108160A00718D51F
:103720002846114606F0E1FA079A02EBC2000AEBBE
:10373000800010F8171F012906D100210170089997
:10374000504600F0B2F9079A0698022100EB4210A9
:10375000816020064FD502EBC2000AEB800BD946F0
:1037600059F8241FC84658F8040F814243D30D1A54
:103770005BF81C1FDAF80040039757468D4288BF5C
:103780000D4604EB42110BF1040601F5106A15E039
:10379000BD79DBF8003031680095151A20469D424E
:1037A00088BF1D46089AABB206F0DCFB306828449F
:1037B0003060D8F800002844C8F80000D9F800208C
:1037C000DAF81830E91C9BB2B3EB910F28BF8242A4
:1037D000DED88242BA46059DDDE90376079A0AD80B
:1037E00002F00F00012101FA00F0D4F8341821EAA8
:1037F0000000C4F834087F08013241E7706820F007
:10380000010070609AF8CC04012807D10020002143
:103810008AF8CC045046FFF799FC02E0504600F0CD
:10382000FAF903F0D9F801F00041416106F0B8FA65
:10383000000502D4DAF800000AE0B068C00702D040
:10384000504600F01BFA03F0C7F801F40061416133
:1038500006F0A6FAC00402D4DAF8000056E0D5F863
:103860000408102120F00100C5F80408DAF800006F
:1038700006F03BFA9AF8041005F510604FF67F3217
:10388000C1B182600139036823F400130360C0F8FA
:103890000822D0F8003223F40013C0F80032D0F828
:1038A000003243F00063C0F800322030E8E700BF88
:1038B0000A30544FF06940F00110F0619AF80F009F
:1038C00040B1D6F8840040F00B00C6F8840006F141
:1038D000440006E0706942F22B010843706106F172
:1038E000100001680AF29C4241F00B01016030684F
:1038F00020F4FE603060DAF800009AF8061006F056
:1039000061F803F069F801F48051416106F048FA6A
:103910000146DAF80000890419D505F0A9FEDAF8A5
:10392000000006F002FADAF800408AF8070000F01A
:1039300063FA9AF807200146204606F09BFA5046A3
:1039400000F056F903F048F801F40051416106F027
:1039500027FA000702D4DAF8000007E0504600F02A
:103960005EF903F039F801F00801416106F018FA38
:10397000000606D402F00FFFC00219D4DAF80000E6
:1039800038E00599012440F27B25886920F0800009
:1039900088619AF804008442ECD21AF805000128E4
:1039A00003D1E1B25046FFF711FC24350134F0E7B2
:1039B00005980AF13B040126012700F512659AF8E3
:1039C0000400874211D260782968B1F1FF3F08DC1A
:1039D000012806D147F080002670C1B25046FFF79B
:1039E000F5FB243420350137E9E702F0F5FF01F457
:1039F00080114161059C06F0D3F9800202D4DAF807
:103A0000000030E09AF8042004F532610AF51F70D6
:103A100001230124944221D206780D68B5F1FF3FBD
:103A200013DC012E11D1DAF8D46405F4803506F0E8
:103A30000106B54209D1059EB56945F08005B5611D
:103A400000F8013C75692D0603D52430203101347E
:103A5000E0E70499486840F40070486002F0BCFF59
:103A600001F40011416106F09BF9400002D4DAF83C
:103A7000000007E05046FFF78EFB02F0ADFF01F0BB
:103A80008041416106F08CF940077FF5A0ACDAF87F
:103A900000004468610704D55046FFF793FBDAF84D
:103AA000000041682143416091E4D0F8E00405F052
:103AB00067BAD0F8E00405F072BAF8B500284FD024
:103AC0000446056890F8950428B9002084F8940409
:103AD000204600F051F8032084F89504B5F1A04F7A
:103AE00004BF0020A071206805F066FF94E80F0075
:103AF000257C009505F0CAFD78BB206800210025D3
:103B000006F074F948BB207901220023002600EB5F
:103B1000C001890099420AD0E7182433FE853E751A
:103B20007A75C7E907557D623D760136F2E704F5FF
:103B3000157100220023984208D00B70C1E90222BF
:103B40000A610A714A7024310133F4E794E80F00E6
:103B5000257C009505F06AFE28B1022084F89504C2
:103B600001252846F8BD00250120657484F89504D8
:103B7000206805F04FFEF4E7B0B586B00068B0F1FC
:103B8000A04F2FD10025184C0095206840F001006F
:103B90002060206800F0010000900A2005900320BA
:103BA000CDE90350022002904FF4C05001900098DC
:103BB00001A90E48FFF734F860680521002240F0A3
:103BC000800060600095606940F4804060616069D9
:103BD00000F48040009000984320FFF78BFA4320C8
:103BE000FFF77AFA06B0B0BD30380240000002405C
:103BF00010B5C179044621B1022901D0FDF769FE53
:103C00000121D4F8E00405F035FAD4F8E004BDE869
:103C1000104005F0E8B9D0F8E00405F014BAD0F887
:103C2000E00405F01ABA10B502F077FC04BF0220D8
:103C300010BD617402F033FE06F00BF902F0C1BC56
:103C4000D0F8E02400F29C41104605F01FBA10B5F0
:103C500002F063FC04BF022010BD02F0FCFE06D59A
:103C6000617B012903D1816B41F48031816306F0CE
:103C700019F8206805F0C2FD02F0A3BC10B5044697
:103C8000D0F8E00405F044FA2068D0F8001E41F0B6
:103C90000101C0F8001EE07A20B10348016841F03C
:103CA0000601016010BD00BF10ED00E02DE9F041FC
:103CB000002857D03F4B04468846D3F8000400F054
:103CC0000700884204D283F8008402F02BFC49D11B
:103CD0002068810711D5410703D5996841F4E05167
:103CE0009960010703D5996841F460419960A16822
:103CF0009A6822F0F00211439960C0072BD102F0BC
:103D000011FC04D983F8008402F00CFC2AD120684D
:103D1000410705D5E1689A6822F4E05211439960A1
:103D2000000706D52069996821F4604141EAC00086
:103D300098601C4600F07EF8A1681F4AC1F3031189
:103D4000515CC840384908601C480068FFF758F9C2
:103D50000020BDE8F0816068811E022905D2196843
:103D6000890107D40120BDE8F08101281DD119681F
:103D70008903F7D599681D4621F00301084398602F
:103D8000FFF72EF8064641F288376068A9682B468F
:103D900001F00C01B1EB800FB1D0FFF721F8801BCF
:103DA000B842F2D90320BDE8F08119688907D9D556
:103DB000E0E700BF0038024038C9000804000020D6
:103DC00010B50F224FF4E0540260184A136803F054
:103DD00003034360136803F0F0038360136803F484
:103DE000E053C360136804EAD3030361D2F8F80315
:103DF00000F00700086010BD0B480068704700BF66
:103E000009480A490A4A00680968C1F38221515CDD
:103E1000C840704704480549054A00680968C1F36D
:103E20004231515CC8407047BC0000200838024055
:103E300048C9000810B5134C606800F00C00082851
:103E400004D0042814BF1048104810BD2268206810
:103E50000023400202F03F020C485CBF42F20040E7
:103E6000C0F2F4002168C1F38811A0FB0101FCF746
:103E70001BFA21680222C1F3014102EB4101B0FBB0
:103E8000F1F010BD043802400024F400001BB7001C
:103E90002DE9FC4100285FD004460078C24EC007DF
:103EA0000BD0B06800F00C00042840F08E80306821
:103EB000800302D5606800284ED02078800718D58E
:103EC000B06810F00C0F07D002F069FC40F095804C
:103ED0007068400200F191803068800702D5E06888
:103EE000012839D12069316821F0F80141EAC00088
:103EF00030602078000732D42078400742D4A76988
:103F00003FB302F04CFC40F0A980012F24D0E169BE
:103F1000706800F480028A421ED1216A00F03F02DC
:103F20008A4219D147F6C071626A0140B1EB821F23
:103F300012D1A16A9F4A02EBC13100F440326FF303
:103F40000F018A4208D1E16A00F07060B0EB016FA6
:103F500002D10020BDE8FC810120BDE8FC8161693F
:103F6000924800296AD00121C0F8801EFEF738FF70
:103F70000546706F8007BFD4FEF732FF401B022852
:103F8000F7D9C9E0306C10F080580AD100200190B8
:103F9000306C40F080503064306C00F08050019004
:103FA0000198834F3868C0053AD4386840F480706F
:103FB0003860FEF715FF05463868C00530D4FEF7B7
:103FC0000FFF401B0228F7D9A6E002F0E8FB03D15F
:103FD000706840023FF56BAF6068B0F5803F07D076
:103FE000B0F5A02F40F08280306840F4802030602F
:103FF000306840F48030306082E0E06800284CD0C7
:104000006A4801210160FEF7EBFE05463068800733
:104010003FF568AFFEF7E4FE401B0228F6D97BE0CF
:10402000A068012805D0052848D1306F40F0040071
:104030003067306F40F00100306749E00021C0F880
:10404000801EFEF7CDFE0546706F80077FF554AFEA
:10405000FEF7C6FE401B0228F6D95DE0534900205A
:1040600088460866FEF7BCFE0546022F0AD1474681
:104070003068800153D5FEF7B3FE411B03200229AF
:10408000F6D967E7306880017FF563AFFEF7A8FED9
:10409000411B03200229F5D95CE744480021016057
:1040A000FEF79EFE0546306880077FF522AFFEF7DB
:1040B00097FE411B03200229F5D94BE7316F0028F9
:1040C00021F001013167316F21F00401316744D0E3
:1040D000FEF786FE054641F28837306F80074BD4E5
:1040E000FEF77EFE401BB842F7D915E03168002884
:1040F00021F480313160316821F48021316044D075
:10410000FEF76EFE0546306880033FF5D6AEFEF73B
:1041100067FE401B6428F6D90320BDE8FC811C34EF
:104120001FCC0843234940EA821001EBC33140EA27
:1041300004606FF30F010843706001203866FEF7DA
:104140004FFE0446306880013FF503AFFEF748FE9E
:10415000011B03200229F5D9FCE6FEF741FE0546C6
:1041600041F28837306F800706D5FEF739FE411BD4
:104170000320B942F6D9EDE6B8F1000F7FF4BFAEE7
:10418000306C20F080503064B9E6FEF729FE054619
:10419000306880037FF591AEFEF722FE411B0320BD
:1041A0006429F5D9D6E600BF003802400000474236
:1041B000007000400000FFFF7047F8B550B1D0F824
:1041C00024C00446BCF1000F06D00021216104F197
:1041D000140107E001254EE06168B1F5827F03D04C
:1041E00004F11C0100220A600025A56294F8511018
:1041F00000294FF0000108D1204684F8505000F00B
:104200003DF8D4E909C101F40051022284F851209B
:1042100094E8CC00106820F04000106003F4827035
:1042200006F40443184407F400631844236903F0B8
:1042300002031844636903F001031844A36903F4FB
:1042400000763044E66906F038063044266A06F007
:104250008006304308430CF010011060042000EA8F
:10426000134008445060D06920F40060D061012000
:10427000656584F851002846F8BD00002DE9F04737
:1042800086B0044600683A4FB8426ED100263948DD
:104290004FF005084FF003094FF0020A01964169FB
:1042A00041F480514161416901F4805101910199CA
:1042B0000196016841F002010160016801F002010C
:1042C000019101990196016841F0010101600068C6
:1042D00000F0010001900198CDF81480CDE9036948
:1042E000CDF808A01820019001AD07F554402946EB
:1042F000FEF796FC80202946CDE90498CDE902A678
:10430000019007F55040FEF78BFC1B4D1B4F4FF4FF
:1043100080684FF0C069142105F11400C5E90079E7
:10432000C5E90266C5F81080FCF7D7F82846FEF705
:1043300091FB08B1FDF7CDFAAC63E564104D07F1D0
:1043400018014020C5E9001905F1080181E8410183
:1043500005F114001421FCF7C0F82846FEF77AFB9B
:1043600008B1FDF7B6FAAC63A56406B0BDE8F08706
:1043700000300140303802404026002040640240B6
:10438000A0260020F8B5164F04460026387886424D
:1043900024D207EB860568680168A14204D101892F
:1043A0004068FEF713FD08B10136EFE768680122A7
:1043B00001894068FEF70FFD686801894068FEF7D3
:1043C00005FD01466868D0F8722080F87110117000
:1043D000D0F8761011B1BDE8F8400847F8BD00BF2D
:1043E0004C08002070472DE9FC411D4616460F463B
:1043F0000446FEF7F5FC804694F85100012804D1EC
:1044000037B12EB102F026FA05D10220BDE8FC81B9
:104410000120BDE8FC810320012184F85100002027
:104420006065E68684F85010A6862763A087A0639F
:10443000C4E91000E087A1682068B1F5004F07D1FA
:10444000016821F040010160016841F48041016090
:104450000168490601D402F0E9F9E2686168B2F541
:10446000006F1CD109B1012E01D102F07FF96E1C41
:10447000E08E70B302F0E6F908D4FEF7B1FC002E2E
:10448000F6D0A0EB0800A842F2D334E0216B31F85B
:10449000022BC2602163E08E0138E086E8E709B1B3
:1044A000012E02D1397802F00DFB6E1CE08E80B136
:1044B00002F0C8F908D4FEF793FC002EF6D0A0EB6A
:1044C0000800A842F2D316E0216B097802F0FAFA4C
:1044D000ECE720462946424603F012FA08B12020B4
:1044E0006065A06808B902F066F902F079FA18BFB1
:1044F0000120BDE8FC8102F0E9B82DE9F8431E4631
:1045000015460F460446FEF76BFC94F851108146A1
:1045100001295CD1002F00F0AE80002D00F0AB80AF
:10452000002E00F0A88002F095F95CD0012084F8FC
:10453000500094F8510004281CBF052084F8510055
:1045400000206065E687E686C4E91000A563A687BB
:104550002763A68620680168490601D402F066F93F
:10456000E268DDF820806168B2F5006F3ED109B1E4
:10457000012E01D102F0FAF8012608F10105E08EC2
:1045800010B9E08F00286BD002F05CF90CD5E18EF9
:10459000012E09D141B1216B002631F8022BC260F6
:1045A0002163E18E0139E1868168C90706D0E18F78
:1045B00021B1A16BC068012602F03DF9FEF710FCA5
:1045C000002DDCD0A0EB09004045D8D33FE0606867
:1045D000B0F5827F07D10220042902D1A168002909
:1045E00098D0BDE8F8830220BDE8F88309B1012E18
:1045F00002D1397802F066FA012608F10105E08E51
:1046000008B9E08F60B302F01DF90ED5E18E012EDE
:104610000BD151B1216B002609780173216B206801
:1046200001312163E18E0139E1868168C90706D035
:10463000E18F21B1A16BC068012602F08FF8FEF76F
:10464000CFFB002DDBD0A0EB09004045D7D30020E5
:1046500084F85000012084F851000320BDE8F8835D
:10466000204641464A4603F04BF938B1002084F811
:104670005000202060650120BDE8F883A06808B9DB
:1046800002F021F902F0ACF918BF0120BDE8F8836F
:10469000F8B590F851500446012D36D1002958D074
:1046A000002A56D0002B54D002F0D4F838D0012084
:1046B0002D4E2E4F84F8500094F8510004281CBF52
:1046C000052084F8510000256565E386E387A3860D
:1046D000A387764B2163A263C4E91055E06C21687F
:1046E000C0E9133594F85130042B08BF3746214EEA
:1046F0001F4B08BF1E46C0E90F670C31E38FFEF762
:104700002DFA78B184F850501FE06068B0F5827FD0
:1047100006D10220042D02D1A568002DBED0F8BD1F
:104720000220F8BD2268216BA06C536843F001039E
:104730005360C0E91355C0E90F550C32E38EFEF704
:104740000DFA40B1002084F85000606D40F0100078
:1047500060650120F8BD21680868400601D402F0B8
:1047600060F802F0F4F9F8BDB3770008BF770008ED
:10477000C57700086B780008F0B590F85150012D0E
:1047800037D1002940D0002A3ED0EBB390F85040FA
:10479000012C3BD00124DFF87CC01F4F80F8504033
:1047A00090F85140042C1CBF052480F8514000248F
:1047B0004465C386C387C6680568002E184E08BFC7
:1047C0006746DFF858C008BF6646C0E910678386B1
:1047D0000163838782632968490603D4296841F00D
:1047E0004001296080F85040686840F0E00068604F
:1047F0000DE04468B4F5827F08D10224042D06D16F
:104800008568002DBDD002E0012400E0022420468E
:10481000F0BD00BFB77600088F76000871760008FB
:104820004976000870B502F035F804D189B382B337
:1048300002F010F801D1022070BD0320002384F89B
:10484000510001206365E286A2862163A363C4E967
:104850001033A38784F85000E387A0682268B0F57E
:10486000004F07D1106820F040001060106840F43D
:1048700080401060A06C0D4E0B4D0C32C0E91363EC
:104880000B4BC0E90F35E38EFEF768F918B101F064
:104890005DFF012070BD21680868400601D401F069
:1048A000C0FF02F054F970BDB97700089577000891
:1048B0002378000870B551B14AB190F85130012BFE
:1048C00003D190F85030012B04D1022100E00121E6
:1048D000084670BD03230124184E174D80F851304F
:1048E00000234365C28680F8504001638286838737
:1048F0008363D0E902140268002C08BF2E46C0E989
:104900001036C387B1F5004F07D1116821F040017F
:104910001160116841F4804111601168490603D4A7
:10492000116841F040011160002180F8501050687A
:1049300040F0A0005060CBE78D7900087179000845
:1049400070477047FFF71EBD704770477047F0B55E
:10495000024690F83C00012804BF0220F0BD01F19E
:104960000807D1E900C44B690020C969E0CF82F88B
:104970003C00126826F47C5624F4F04425F470556B
:1049800035432C432CF4E0452C4327F4C0452C43FD
:10499000234323F4804319435164F0BD10B590F8CC
:1049A0003C300222012B2CD080F83D2002680B689D
:1049B000546824F070041C439368B2F1804F546033
:1049C00014D0514CA24211D0504CA2420ED0504CA7
:1049D000A2420BD04F4CA24208D0E14CA24205D0DB
:1049E0004D4CA24202D04D4CA24204D1496823F062
:1049F0008003194391600022012180F83C2080F857
:104A00003D10104610BD00BF58B110B501F0D4FFE5
:104A100003D101F03AFF00F007F802F077F801F057
:104A2000E3BD012070470000F8B5006837498842AF
:104A300012D0CA49884226D0C94988422FD10020C5
:104A400003901748416841F001014160406800F05F
:104A50000100039003988FBD0020002202901048AF
:104A6000016841F0040101600521006800F00400C4
:104A7000029002981E20FEF73DFB1E2004B0BDE808
:104A80008040FEF729BB002001900548416841F4B1
:104A900000314160406800F40030019001988FBD02
:104AA0004038024090F83D1001291CBF012070479A
:104AB000022180F83D100068C168B0F1804F41F0DC
:104AC0000101C16014D0FC49884211D0FB498842E1
:104AD0000ED0FB4988420BD0FA49884208D0FA49E7
:104AE000884205D0F949884202D0F949884204D168
:104AF000724601F0F4FD964603D0724601F0CCFDFB
:104B000096460020704700BF0004004000080040A7
:104B1000000C00400018004000400140000401402B
:104B200010B501F043FF52D084F83D0001204FF64C
:104B3000777384F83C00206882689A4382600A6830
:104B4000C2B1102A16D0202A14D0302A12D0402AFE
:104B500017D0502A1ED0602A25D0B2F5005F2ED083
:104B6000B2F5805F30D0702A32D101F077FE41F08B
:104B7000770128E0816821F07001114341F00701BD
:104B800021E001F05EFF2068816841F0470121F0DB
:104B9000300118E001F055FF2068816841F05701AD
:104BA00021F020010FE04B68CA68194603F0F1FBC1
:104BB0002068816841F0670121F0100103E001F0F5
:104BC0004DFE41F480418160002001F033FF10BDB3
:104BD0000120FAE7704770B504460068C5680669A9
:104BE000B10710D5A9070ED56FF0020101610121AF
:104BF00021778069800702D001F0EBFE01E001F02F
:104C000092FE00202077700712D5680710D5206823
:104C10006FF00401016102212177806910F4407F67
:104C200002D001F0D6FE01E001F07DFE00202077E9
:104C3000300711D528070FD520686FF008010161F2
:104C400004212177C069800702D001F0C2FE01E093
:104C500001F069FE00202077F00612D5E80610D595
:104C600020686FF01001016108212177C06910F4FC
:104C7000407F02D001F0ADFE01E001F054FE0020C3
:104C80002077F00708D0E80706D020686FF0010110
:104C90000161204600F01EF9300608D5280606D529
:104CA00020686FF0800101612046FFF74EFE70061C
:104CB00008D5680606D520686FF0400101612046DE
:104CC00000F012F9B00601D5A80600D470BD206826
:104CD0006FF0200101612046BDE87040FFF736BE4D
:104CE00010B586B0044601A81421FBF7F6FB206836
:104CF0001A49884216D0744988422DD100200222D8
:104D0000012300901748016841F010010160012162
:104D1000006800F0100000904FF4206001900098AF
:104D2000114812E000210F4803230091026842F06D
:104D3000200202600022006800F020000090402065
:104D400001900098084800F5806003AC0EC4022171
:104D5000029101A9FDF764FF06B010BD00440140B7
:104D6000000001403038024000100240704700004F
:104D7000B0B501F06BFE04BF0220B0BD01F021FE12
:104D800037D8DFE801F0020A12222068294603F032
:104D900035FA206850F8181F0EE02068294603F005
:104DA0005DFA206850F8181F16E02068294603F0C5
:104DB00087FA206850F81C1F41F008010160016863
:104DC00021F00401016029690FE02068294603F001
:104DD000A9FA206850F81C1F41F4006101600168C5
:104DE00021F48061016029690902026811430160B0
:104DF0000020002184F83C10B0BD58B110B501F07E
:104E0000DBFD03D101F041FD00F006F801F07EFE6C
:104E100001F0EABB012070477047704710B50446A7
:104E200041B108290ED0042914BF04F1410004F156
:104E30003F0009E094F83E00012812D1022084F8D6
:104E40003E0012E004F140000078012809D1022060
:104E5000082908D0042914BF84F8410084F83F00D1
:104E600003E0012010BD84F84000206801F08AFCB6
:104E700001F063FD19D01049884216D00F498842CD
:104E800013D00F49884210D0164988420DD00E49E0
:104E9000884205D00D49884207D00D49884207D184
:104EA000416C0B4A01F05FFE02D101F018FC01D009
:104EB00001F0F2FB002010BD00040040000800409B
:104EC000000C00400018004000000140004001407C
:104ED0000004014000680349884208BFFEF76AB831
:104EE000704700BF001800407047704770470000CF
:104EF0007CB5044600680268C1684569130743D061
:104F000001F4907605F00105761941D0D60705D059
:104F1000CE0503D5666C46F001066664560704D5D7
:104F20001DB1666C46F002066664960704D51DB195
:104F3000666C46F004066664002B07D501F020037A
:104F40005B1903D0636C43F008036364636C002B4C
:104F500062D0920605D5890603D5204603F0D1FA22
:104F600020684069616C00F0400001F008014018C1
:104F70004DD001F00AFC2068416949065AD501F07C
:104F8000E4FA4AD02068FAE7930601D58B0639D4B3
:104F9000236B012B03D1D30601D5CB064FD41306C7
:104FA00001D50B060FD4520636D5490634D5C16853
:104FB00021F04001C160202084F841002046BDE876
:104FC0007C4000F0E4B994F84110212924D1A16873
:104FD000B1F5805F03D12169002900F09B80216A2F
:104FE0004A1C226209784160E18C0139E18409049C
:104FF00012D1C16821F08001C160C16841F0400157
:10500000C1607CBD2046BDE87C4003F07ABA2046F2
:10501000FFF76CFF002060647CBDE06B50B141493C
:105020000165FDF759FC0028F6D0E06B016DBDE885
:105030007C4008472046BDE87C40FFF757BF002171
:10504000019101F051FB416949062ED4E18DA28DF9
:10505000E38D002BE0D0511A0A04DDD050E8030F95
:10506000226820F4907042E803030BB12068F5E752
:10507000206850E8050F226820F0010042E805038F
:10508000002BF5D1202084F8420000202063206806
:1050900050E8030F226820F0100042E80303002BC1
:1050A000F5D1022089B260632FE0E26B11684B6892
:1050B0009DB2002DB0D0A18D8D42ADD2E385D269D5
:1050C000B2F5807F1CD050E8030F216820F4807077
:1050D00001F08FFC01D02068F5E701F09CFAFCD1CB
:1050E000206801F032FAFBD1202084F84200002031
:1050F000206301F069FBFCD1E06BFDF7ADFBA18DF6
:1051000002206063E08D081A81B22046BDE87C4031
:10511000FFF7EBBE216A31F8022B6FF35F222162A9
:10512000426061E7B783000890B110B5044690F87B
:10513000410008B901F0CEFC01F0CEFB2068016906
:1051400021F490410161416921F02A0101F092BCF2
:10515000012070472DE9F04786B0044601A81421CC
:10516000FBF7BBF920685549884244D0544988422E
:1051700040F0A1800026EA480096016941F48021B0
:105180000161016901F48021009100990096016894
:1051900041F004010160006800F004000090072065
:1051A00001F0B1F94FF440600190009801A9454821
:1051B000FDF736FD474D454B4FF440304FF48061CD
:1051C0004FF00062C5E908064FF48070A3F58063D4
:1051D000C5E90266C5E90416C5E906602846C5E9C1
:1051E0000032FDF737FC08B1FCF773FBE56305F10E
:1051F0003800272556E00026C9480096416941F04D
:1052000020014161416901F020010091009900965F
:10521000016841F040010160006800F0400000902A
:10522000082001F070F94FF484400190009801A922
:10523000244800F58050FDF7F3FC234D4FF48070B7
:10524000224F4FF4403A4FF480684FF02069C5E98F
:1052500006602846C5E908A6C5E90079C5E90266E1
:10526000C5E90486FDF7F6FB08B1FCF732FBAC6339
:10527000E563174D07F178014020C5E9001905F1F4
:105280000801C5E908A6C5E90566EE6181E84101A6
:105290002846FDF7DFFB08B1FCF71BFBA56305F112
:1052A000380047250460284605210022FDF722FF2B
:1052B0002846FDF711FF06B0BDE8F0870014014055
:1052C0000048004000080240602700202864024097
:1052D000C02700200027002010B590F84230202B76
:1052E00006D139B132B10024046303F0C3F902E0FE
:1052F000022400E00124204610BD10B590F8423091
:10530000202B06D139B132B10024046303F0F8F93F
:1053100002E0022400E00124204610BDB0B548B3ED
:10532000194D044615F8041B21B301CD013902685B
:10533000A242F9D1D0F80B1269B1884755F8040C94
:105340004FF6FF73B0F8091201318AB2D21A18BFB2
:105350000A46A0F8092290F8081202290BD0012968
:1053600008D1B0F8042200F582712046BDE8B040B3
:10537000FFF7C3BFB0BDB0F8042200F5827120462C
:10538000BDE8B040FFF7A8BF600800207047704735
:10539000FEE780B501F0FCF9FCE7F0B55200002310
:1053A00037240025AA4208BFF0BD070F04EB107692
:1053B000B0F1204F38BF07F130064E5545F00106D9
:1053C000023500018B55EDE780B51F4800780128B4
:1053D00010D0B8BB1E48008AA8B11E4900B29FED8C
:1053E0001E2A01EE100A91ED010AB8EEC11A01EE73
:1053F000020A16E015480068D0F80D0080F0004061
:1054000000EE100A1AE01348016801310629016014
:105410000AD3D0ED010A9FED110A9FED111A01F098
:10542000CDFE0C4880ED010A0E48DFED0F0A006842
:1054300090ED1A0A0748043001F0DEFE09480068C2
:1054400080ED1A0A80BD00BFD8090020602F00201F
:10545000F42F00204C070020BD3706370000000065
:105460000AD7233C642F002017B7D13970B50548FF
:10547000054A064E01F02FF818B1BDE87040FCF760
:1054800028BA70BDF0250020000101010064004031
:1054900070B50548054A064E01F01DF818B1BDE883
:1054A0007040FCF716BA70BD1826002001000101FB
:1054B00000680040BCB50020A149A54C01900A68D5
:1054C00042F480020A600A6802F480020192019AA2
:1054D00000900868002240F4001008600868052168
:1054E00000F40010009000980C20A047994D0C206B
:1054F000A847392000F0FFFF3920A8473A2000F0E4
:10550000FAFF3A20A8473B2000F0F5FF3B20A847D0
:10551000452000F0F0FF45202946BDE8BC40084783
:105520003038024070B5B2B02BAC1B4900F0CFFF51
:105530001A4D01F043F81A4E1A491C22306024AC6F
:105540002046FAF729FF01F039F870601DAC1649C2
:1055500000F0BDFF01F032F8B06016AC134900F066
:10556000B6FF01F02BF8F0600FAC114900F0AFFF6F
:1055700001F024F8306108AC0E4900F0A8FF01F0FA
:105580001DF8706101AC0C4900F0A1FF01F016F8A4
:10559000B06132B070BD00BF90C8000863AC0008B5
:1055A00028060020ACC80008C8C8000874C8000855
:1055B000E4C8000800C900081CC900082DE9F04F24
:1055C00087B000245E485F4F5F4E01220125CDE980
:1055D00005440194016807F5C05A41F002010160D9
:1055E000016801F0020100F06DFF41F0400101602F
:1055F000016801F0400100F065FF41F00101016028
:10560000016801F0010100F05DFF41F00801016057
:10561000016801F0080100F055FF41F0040101604C
:10562000016801F0040100F04DFF41F080010160CC
:10563000016801F0800100F045FF41F020010160A8
:10564000016801F0200100F03DFF41F01001016010
:105650004021006800F01000019001985046B047CA
:1056600007F5E0594FF4C05100224846B04738468C
:1056700010210122B04707F5806801210122404630
:10568000B0474FF4881B02200494304E0290CDF8AE
:105690000CB007F5A05002AF3946B047402039465C
:1056A0000595CDE9035502905046B0474FF4C050E0
:1056B00039460594CDE9035402904846B047092085
:1056C0003946CDE903B502905046B04702201D4C43
:1056D00039464FF00209CDE903550590102002909C
:1056E0002046B04730203946CDE903B5029004F595
:1056F0000060B04740463946CDE90459CDE902552E
:10570000B047134C062000F056FF124D0620A84764
:10571000072000F050FF0720A847092000F04BFFAA
:105720000920A8470A2000F046FF0A20A8471720B2
:1057300000F041FF1720A84707B0BDE8F08F00BF79
:105740003038024000000240D72D0008212C00080C
:10575000F5300008D930000810B50B480B4B0C4C45
:1057600000214FF48042C0E90043C0E90211C0E9C2
:105770000421C0E906110162FDF736FB18B1BDE84E
:105780001040FCF7A6B810BD20280020801A0600A3
:10579000005C0040F8B50F4800220A210E4F4FF47C
:1057A00082764FF4007301240225C0E90A213821D2
:1057B000C0E90822C0E90076C0E90222C0E9045429
:1057C000C0E90631FEF7F9FC18B1BDE8F840FCF776
:1057D00080B8F8BD582D00200030014080B588B059
:1057E0001448154B00214FF6FF72CDE90611CDE9A3
:1057F00004118161C0E9003100F080FE08B1FCF7BE
:1058000068F80C48FFF7F9FA08B1FCF762F80020D5
:1058100000220590CDE9020060200190054801A911
:10582000FFF7A6FA08B1FCF754F80248FFF758FA58
:1058300008B080BDF82D002000440140B0B596B0FE
:1058400000251C211595CDE91355CDE9105509AC5E
:105850002046FAF742FE01A82021FAF73EFE2D4825
:105860002D4B44F61F61A722C0E90032C0E9025166
:10587000C0E904558561FFF7C7F808B1FCF729F8BE
:105880004FF480501290234812A9FFF749F908B14C
:10589000FCF71FF81F48FFF7B0FA08B1FCF719F83A
:1058A0000020CDE910001B4810A9FFF777F808B1D8
:1058B000FCF70FF84FF4FA6014210A906020099069
:1058C00004F10800FAF709FE124821460022FFF70A
:1058D0004FFA08B1FBF7FDFF0E4809A90422FFF7B4
:1058E00047FA08B1FBF7F5FF01AC14212046FAF79F
:1058F000F4FD0020214608904FF400500690054822
:10590000FFF725F808B1FBF7E4FF0248FFF7E8F9D5
:1059100016B0B0BDB02D00200000014010B586B01B
:105920001448154C002141F2883244F2A01305912D
:10593000CDE90311CDE900118161C0E9004300F018
:10594000DDFD08B1FBF7C5FF4FF480500290094818
:1059500002A9FFF7E5F808B1FBF7BBFF0020694695
:10596000CDE900000348FFF719F808B1FBF7B1FFD4
:1059700006B010BD882E002000080040B0B50B48CE
:105980000B4C0C4D00210C224FF48063C0E90054F5
:10599000C0E90211C0E90432C0E90611FFF7C4FBF7
:1059A00018B1BDE8B040FBF794BFB0BDD02E0020C9
:1059B000A08601000048004010B50B480B4C0021A8
:1059C0000C224FF46123C0E90043C0E90211C0E991
:1059D0000412C0E90611FFF7A7FB18B1BDE810409B
:1059E000FBF777BF10BD00BF182F00200014014047
:1059F00080B50F480F49002203F0C6F908B1FBF744
:105A000068FF0B480C4903F0A4FB08B1FBF761FFEA
:105A100007480A4903F015F808B1FBF75AFF044894
:105A200003F0BCFB18B1BDE88040FBF752BF80BD5E
:105A3000142300209C000020C00000205C010020F6
:105A400080B54FF07E51816010EE901A416010EEEB
:105A5000101A01600C301821FAF71DFD80BD0000FE
:105A60002DED108BA048F5EE401AF6EE005A9F4936
:105A7000F1EE10FA90ED023A90ED034A90ED045ADF
:105A800090ED056A23EE017A63EE203A63EE004A58
:105A900004EE207A44EE413A45EE014A05EE407AA2
:105AA00046EE003A46EE604A24EE400A27EE257A9A
:105AB00063EEA53A64EEA54A05EE600A06EE410AD9
:105AC00020EE250A0AD1B5EE402AF1EE10FA05D1F2
:105AD000F5EE402AF1EE10FA00F0CE8022EE021A26
